:020000040000FA
:06000000E0EF66F01200C3
:020006001200E6
:0600080009EF5CF012009C
:02000E000004EC
:04001000A3102030E9
:02001400FEFFED
:02001600FFFFEA
:0600180012EF5CF0120083
:02001E001500CB
:100020006CCF00008C030000010000006BCF0000CB
:100030008B0300000100000054CF000038030000D3
:100040001700000053CF00008A03000001000000E9
:100050004CCF0000560300000700000047CF00000F
:10006000630300000500000043CF00007803000098
:100070000400000041CF00008403000002000000E3
:10008000EDCE0000000F000054000000ECCE000098
:100090008903000001000000C0CE00005E020000E5
:1000A0002C000000BFCD000088030000010000000C
:1000B000A4CE00001C0300001C000000A0CE000025
:1000C000740300000400000034CE0000000E0000A5
:1000D0006C00000014CE0000DE02000020000000D2
:1000E000160000008203000002000000E4CD0000C2
:1000F0000002000030000000E0CD000070030000AE
:1001000004000000DCCD00006C03000004000000CF
:0C01100014000000FE02000002000000CD
:04011C00D9CFE6FF52
:10012000E1CFD9FFFE0EDBCFE6FFF3EC0CF0E5529A
:10013000E66EFE0EDB50280DF3CFE9FFF4CFEAFFA9
:10014000040EE9260F0EEA22070EE926000EEA2227
:10015000E552E750EF6EFE0EDB50280DF3CFE9FFBE
:10016000F4CFEAFF040EE9260F0EEA22070EE92675
:10017000000EEA22EFCF14F0000EE76E1418E8AE7E
:1001800002D0143403D0E750D880145401E3D7D3FD
:10019000FE0EDBCFE6FFDCEC0CF0E552E66EFE0E69
:1001A000DB50280DF3CFE9FFF4CFEAFF040EE92678
:1001B0000F0EEA22060EE926000EEA22E552E7506B
:1001C000EF6EFE0EDB50280DF3CFE9FFF4CFEAFF10
:1001D000040EE9260F0EEA22EE52EF50070A01E163
:1001E000DED2010A01E128D2050A01E198D1010A13
:1001F00063E0030A32E0010A01E08ED3FE0EDB5019
:10020000280DF3CFE9FFF4CFEAFF040EE9260F0E25
:10021000EA22060EE926000EEA22EF500D080FE151
:10022000FE0EDB50280DF3CFE9FFF4CFEAFF040EFA
:10023000E9260F0EEA22EE52010EEF6E0DD0FE0EF1
:10024000DB50280DF3CFE9FFF4CFEAFF040EE926D7
:100250000F0EEA22EE52EF6A72D3FE0EDB50280D2B
:10026000F3CFE9FFF4CFEAFF040EE9260F0EEA22EE
:10027000060EE926000EEA22EF500A080FE1FE0EF4
:10028000DB50280DF3CFE9FFF4CFEAFF040EE92697
:100290000F0EEA22EE52020EEF6E0DD0FE0EDB5074
:1002A000280DF3CFE9FFF4CFEAFF040EE9260F0E85
:1002B000EA22EE52EF6A43D3FE0EDB50280DF3CF55
:1002C000E9FFF4CFEAFF040EE9260F0EEA22060E3C
:1002D000E926000EEA22EF5058080FE1FE0EDB502F
:1002E000280DF3CFE9FFF4CFEAFF040EE9260F0E45
:1002F000EA22EE52030EEF6E11D1FE0EDB50280DF6
:10030000F3CFE9FFF4CFEAFF040EE9260F0EEA224D
:10031000060EE926000EEA22EF504D085CE1FE0EC3
:10032000DB50280DF3CFE9FFF4CFEAFF040EE926F6
:100330000F0EEA22060EE926000EEA22EF50E66EC4
:10034000FE0EDB50280DF3CFE9FFF4CFEAFF040ED9
:10035000E9260F0EEA22080EE926000EEA22E9CF6E
:1003600014F0EACF15F0FE0EDB50280DF3CFE9FFB5
:10037000F4CFEAFF040EE9260F0EEA22020EE92668
:10038000000EEA22EF500F011424E96E000E152032
:10039000EA6EE552E750EF6EFE0EDB50280DF3CF0C
:1003A000E9FFF4CFEAFF040EE9260F0EEA22020E5F
:1003B000E926000EEA22EF2AFE0EDB50280DF3CFCD
:1003C000E9FFF4CFEAFF040EE9260F0EEA22EE520F
:1003D000060EEF6EA3D0FE0EDB50280DF3CFE9FF23
:1003E000F4CFEAFF040EE9260F0EEA22060EE926F4
:1003F000000EEA22EF5045085CE1FE0EDB50280DAE
:10040000F3CFE9FFF4CFEAFF040EE9260F0EEA224C
:10041000060EE926000EEA22EF50E66EFE0EDB50D5
:10042000280DF3CFE9FFF4CFEAFF040EE9260F0E03
:10043000EA22080EE926000EEA22E9CF14F0EACFFC
:1004400015F0FE0EDB50280DF3CFE9FFF4CFEAFFE5
:10045000040EE9260F0EEA22020EE926000EEA2219
:10046000EF500F011424E96E000E1520EA6EE552DC
:10047000E750EF6EFE0EDB50280DF3CFE9FFF4CF0F
:10048000EAFF040EE9260F0EEA22020EE926000E0C
:10049000EA22EF2AFE0EDB50280DF3CFE9FFF4CF5E
:1004A000EAFF040EE9260F0EEA22EE52060EEF6E68
:1004B00035D0FE0EDB50280DF3CFE9FFF4CFEAFF75
:1004C000040EE9260F0EEA22060EE926000EEA22A5
:1004D000EF500D0823E1FE0EDB50280DF3CFE9FFAE
:1004E000F4CFEAFF040EE9260F0EEA22EE52010EC7
:1004F000EF6EFE0EDB50280DF3CFE9FFF4CFEAFFDD
:10050000040EE9260F0EEA22020EE926000EEA2268
:10051000EF6AFE0EDBCFE6FF16DAE55210D2FE0ED2
:10052000DB50280DF3CFE9FFF4CFEAFF040EE926F4
:100530000F0EEA22060EE926000EEA22EF503008DE
:100540006DE1FE0EDB50280DF3CFE9FFF4CFEAFF9B
:10055000040EE9260F0EEA22180EE926000EEA2202
:10056000E9CF14F0EACF15F0FE0EDB50280DF3CFE3
:10057000E9FFF4CFEAFF040EE9260F0EEA22030E8C
:10058000E926000EEA22EF500F011424E96E000E56
:100590001520EA6E010EEF6EFE0EDB50280DF3CF34
:1005A000E9FFF4CFEAFF040EE9260F0EEA22030E5C
:1005B000E926000EEA22EF2AFE0EDB50280DF3CFCB
:1005C000E9FFF4CFEAFF040EE9260F0EEA22030E3C
:1005D000E926000EEA22EFCF14F0100E145C10E3AF
:1005E000FE0EDB50280DF3CFE9FFF4CFEAFF040E37
:1005F000E9260F0EEA22030EE926000EEA22EF6A30
:10060000FE0EDB50280DF3CFE9FFF4CFEAFF040E16
:10061000E9260F0EEA22EE52EF6A0DD0FE0EDB50F5
:10062000280DF3CFE9FFF4CFEAFF040EE9260F0E01
:10063000EA22EE52EF6A83D1FE0EDB50280DF3CF93
:10064000E9FFF4CFEAFF040EE9260F0EEA22060EB8
:10065000E926000EEA22EF500D081FE1FE0EDB50E6
:10066000280DF3CFE9FFF4CFEAFF040EE9260F0EC1
:10067000EA22EE52070EEF6EFE0EDB50280DF3CF8E
:10068000E9FFF4CFEAFF040EE9260F0EEA22020E7C
:10069000E926000EEA22EF6A81D0FE0EDB50280D1B
:1006A000F3CFE9FFF4CFEAFF040EE9260F0EEA22AA
:1006B000060EE926000EEA22EF50E66EFE0EDB5033
:1006C000280DF3CFE9FFF4CFEAFF040EE9260F0E61
:1006D000EA22080EE926000EEA22E9CF14F0EACF5A
:1006E00015F0FE0EDB50280DF3CFE9FFF4CFEAFF43
:1006F000040EE9260F0EEA22020EE926000EEA2277
:10070000EF500F011424E96E000E1520EA6EE55239
:10071000E750EF6EFE0EDB50280DF3CFE9FFF4CF6C
:10072000EAFF040EE9260F0EEA22020EE926000E69
:10073000EA22EF2AFE0EDB50280DF3CFE9FFF4CFBB
:10074000EAFF040EE9260F0EEA22020EE926000E49
:10075000EA22EF50100822E2FE0EDB50280DF3CF04
:10076000E9FFF4CFEAFF040EE9260F0EEA22020E9B
:10077000E926000EEA22EF6AFE0EDBCFE6FFE3D8A1
:10078000E552FE0EDB50280DF3CFE9FFF4CFEAFF70
:10079000040EE9260F0EEA22EE52EF6AD0D0FE0ECA
:1007A000DB50280DF3CFE9FFF4CFEAFF040EE92672
:1007B0000F0EEA22060EE926000EEA22EF500A0882
:1007C00001E097D0FE0EDB50280DF3CFE9FFF4CF08
:1007D000EAFF040EE9260F0EEA22EE52EF6AFE0E41
:1007E000DB50280DF3CFE9FFF4CFEAFF040EE92632
:1007F0000F0EEA22080EE926000EEA22EF504D08FD
:1008000001E171D0FE0EDB50280DF3CFE9FFF4CFEC
:10081000EAFF040EE9260F0EEA22080EE926000E72
:10082000EA22EF5045085FE1FE0EDB50280DF3CFC2
:10083000E9FFF4CFEAFF040EE9260F0EEA22180EB4
:10084000E926000EEA22E9CF14F0EACF15F0FE0EF9
:10085000DB50280DF3CFE9FFF4CFEAFF040EE926C1
:100860000F0EEA22030EE926000EEA22EF500F01D6
:100870001424E96E000E1520EA6E030EEF6EFE0ED4
:10088000DB50280DF3CFE9FFF4CFEAFF040EE92691
:100890000F0EEA22030EE926000EEA22EF2AFE0ED0
:1008A000DB50280DF3CFE9FFF4CFEAFF040EE92671
:1008B0000F0EEA22030EE926000EEA22EFCF14F013
:1008C000100E145C10E3FE0EDB50280DF3CFE9FF91
:1008D000F4CFEAFF040EE9260F0EEA22030EE92602
:1008E000000EEA22EF6AFE0EDBCFE6FF2CD8E552BF
:1008F00012D0FE0EDB50280DF3CFE9FFF4CFEAFF54
:10090000040EE9260F0EEA22EE52EF6AFE0EDBCF4E
:10091000E6FF19D8E55213D0FE0EDB50280DF3CFB9
:10092000E9FFF4CFEAFF040EE9260F0EEA22EE52A9
:10093000EF6AFE0EDBCFE6FF06D8E55200D0E552A7
:10094000E7CFD9FF1200D9CFE6FFE1CFD9FF020EE2
:10095000E126DE6ADD6ADE6ADD6ADECF14F0DDCF15
:1009600015F0D890155004E6100E145C000E1558C2
:100970001FE2FE0EDB50280DF3CFE9FFF4CFEAFFB4
:10098000040EE9260F0EEA22080EE926000EEA22DE
:10099000E9CF14F0EACF15F0DE501424E96EDD50F3
:1009A0001520EA6EEF6ADF2A010E01E3DB2AD5D7B4
:1009B000020EE15C02E2E16AE552E16EE552E7CF48
:1009C000D9FF1200D9CFE6FFE1CFD9FFE652DF68A9
:1009D000FE0EDB50280DF3CFE9FFF4CFEAFF040E43
:1009E000E9260F0EEA22040EE926000EEA22EFCFD6
:1009F00014F0FE0EDB50280DF3CFE9FFF4CFEAFF31
:100A0000040EE9260F0EEA22030EE926000EEA2262
:100A1000EF50145C5FE0FE0EDB50280DF3CFE9FFD2
:100A2000F4CFEAFF040EE9260F0EEA22180EE9269B
:100A3000000EEA22E9CF14F0EACF15F0FE0EDB50EB
:100A4000280DF3CFE9FFF4CFEAFF040EE9260F0EDD
:100A5000EA22040EE926000EEA22EF500F011424C8
:100A6000E96E000E1520EA6EEFCFDFFFFE0EDB50C1
:100A7000280DF3CFE9FFF4CFEAFF040EE9260F0EAD
:100A8000EA22040EE926000EEA22EF2AFE0EDB50CF
:100A9000280DF3CFE9FFF4CFEAFF040EE9260F0E8D
:100AA000EA22040EE926000EEA22EFCF14F0100E1F
:100AB000145C10E3FE0EDB50280DF3CFE9FFF4CFFA
:100AC000EAFF040EE9260F0EEA22040EE926000EC4
:100AD000EA22EF6ADF5000D0E552E552E7CFD9FFB6
:100AE0001200D9CFE6FFE1CFD9FF020EE126DF6881
:100AF000010EDB68FE0EDB50280DF3CFE9FFF4CFCB
:100B0000EAFF040EE9260F0EEA22EF500D0A01E17A
:100B10001FD2010A01E100D2070A01E1CAD1010A8C
:100B200001E1ABD1030A01E175D1010A01E156D11E
:100B30000F0A01E120D1010A01E101D1030A01E11B
:100B4000CBD0010A01E1ADD0070A01E177D0010A5B
:100B500059E0030A24E0010A01E02DD2FE0EDBCFAA
:100B6000E6FFBBEC0CF0E552000918E0FE0EDBCF0F
:100B7000E6FFE9DEE552FE0EDBCFE6FFB1EC0BF05F
:100B8000E552FE0EDB50280DF3CFE9FFF4CFEAFF6C
:100B9000040EE9260F0EEA22010EEF6E0DD2FE0EB4
:100BA000DBCFE6FF0FDFE552E76E010EE7CFDBFF9D
:100BB000010EDB040EE1FE0EDB50280DF3CFE9FF42
:100BC000F4CFEAFF040EE9260F0EEA22020EEF6EC2
:100BD00018D0010EDB50030808E0010EDB50EE08D0
:100BE00004E0010EDB5004080CE1FE0EDB50280D82
:100BF000F3CFE9FFF4CFEAFF040EE9260F0EEA2255
:100C0000EF6ADAD1FE0EDBCFE6FFBBEC0CF0E5526B
:100C1000000913E0FE0EDBCFE6FF22EC0AF0E552FE
:100C2000FE0EDB50280DF3CFE9FFF4CFEAFF040EF0
:100C3000E9260F0EEA22030EEF6EBED1FE0EDBCFC9
:100C4000E6FFC0DEE552E76E010EE7CFDBFF010EE7
:100C5000DB040EE1FE0EDB50280DF3CFE9FFF4CFED
:100C6000EAFF040EE9260F0EEA22040EEF6E18D0FA
:100C7000010EDB50030808E0010EDB50EE0804E033
:100C8000010EDB5004080CE1FE0EDB50280DF3CF03
:100C9000E9FFF4CFEAFF040EE9260F0EEA22EF6A1D
:100CA0008BD1FE0EDBCFE6FFBBEC0CF0E55200096A
:100CB00012E0FE0EDBCFE6FFF2DBE552FE0EDB506C
:100CC000280DF3CFE9FFF4CFEAFF040EE9260F0E5B
:100CD000EA22050EEF6E70D1FE0EDBCFE6FF72DE6C
:100CE000E552E76E010EE7CFDBFF010EDB040EE1FC
:100CF000FE0EDB50280DF3CFE9FFF4CFEAFF040E20
:100D0000E9260F0EEA22060EEF6E18D0010EDB5018
:100D1000030808E0010EDB50EE0804E0010EDB5092
:100D200004080CE1FE0EDB50280DF3CFE9FFF4CFF1
:100D3000EAFF040EE9260F0EEA22EF6A3DD1FE0E0D
:100D4000DBCFE6FFBBEC0CF0E552000913E0FE0E32
:100D5000DBCFE6FFB4EC0AF0E552FE0EDB50280DC7
:100D6000F3CFE9FFF4CFEAFF040EE9260F0EEA22E3
:100D7000070EEF6E21D1FE0EDBCFE6FF23DEE5523C
:100D8000E76E010EE7CFDBFF010EDB040EE1FE0E86
:100D9000DB50280DF3CFE9FFF4CFEAFF040EE9267C
:100DA0000F0EEA22080EEF6E18D0010EDB5003087A
:100DB00008E0010EDB50EE0804E0010EDB500408F1
:100DC0000CE1FE0EDB50280DF3CFE9FFF4CFEAFF74
:100DD000040EE9260F0EEA22EF6AEED0FE0EDBCFFC
:100DE000E6FFBBEC0CF0E552000913E0FE0EDBCF92
:100DF000E6FF84EC0BF0E552FE0EDB50280DF3CF3E
:100E0000E9FFF4CFEAFF040EE9260F0EEA22090EED
:100E1000EF6ED2D0FE0EDBCFE6FFD4DDE552E76EFB
:100E2000010EE7CFDBFF010EDB040EE1FE0EDB500F
:100E3000280DF3CFE9FFF4CFEAFF040EE9260F0EE9
:100E4000EA220A0EEF6E18D0010EDB50030808E00C
:100E5000010EDB50EE0804E0010EDB5004080CE14B
:100E6000FE0EDB50280DF3CFE9FFF4CFEAFF040EAE
:100E7000E9260F0EEA22EF6A9FD0FE0EDBCFE6FFD7
:100E8000BBEC0CF0E552000913E0FE0EDBCFE6FFF1
:100E9000DEEC0BF0E552FE0EDB50280DF3CFE9FF40
:100EA000F4CFEAFF040EE9260F0EEA220B0EEF6ED6
:100EB00083D0FE0EDBCFE6FF85DDE552E76E010E47
:100EC000E7CFDBFF010EDB040EE1FE0EDB50280D49
:100ED000F3CFE9FFF4CFEAFF040EE9260F0EEA2272
:100EE0000C0EEF6E18D0010EDB50030808E0010E67
:100EF000DB50EE0804E0010EDB5004080CE1FE0EAE
:100F0000DB50280DF3CFE9FFF4CFEAFF040EE9260A
:100F10000F0EEA22EF6A50D0FE0EDBCFE6FFBBECED
:100F20000CF0E552000913E0FE0EDBCFE6FFB1EC5A
:100F30000BF0E552FE0EDB50280DF3CFE9FFF4CFA6
:100F4000EAFF040EE9260F0EEA220D0EEF6E34D0F2
:100F5000FE0EDBCFE6FF36DDE552E76E010EE7CF92
:100F6000DBFF010EDB040EE1FE0EDB50280DF3CF9C
:100F7000E9FFF4CFEAFF040EE9260F0EEA22EF6A3A
:100F8000DF6A18D0010EDB50030808E0010EDB50C9
:100F9000EE0804E0010EDB5004080CE1FE0EDB500D
:100FA000280DF3CFE9FFF4CFEAFF040EE9260F0E78
:100FB000EA22EF6A01D000D0DF5000D0146E020E9A
:100FC000E15C02E2E16AE552E16E1450E552E7CFDE
:100FD000D9FF1200D9CFE6FFE1CFD9FF020EE126FB
:100FE000DF68010EDB68FE0EDB50280DF3CFE9FF52
:100FF000F4CFEAFF040EE9260F0EEA22EF50050AAD
:1010000001E1D5D0010A01E1B7D0070A01E181D0A1
:10101000010A53E0030A1EE0010A01E0FCD0FE0EC3
:10102000DBCFE6FFBBEC0CF0E552000912E0FE0E50
:10103000DBCFE6FF69DBE552FE0EDB50280DF3CF78
:10104000E9FFF4CFEAFF040EE9260F0EEA22010EB3
:10105000EF6EE2D0FE0EDBCFE6FFB4DCE552E76ECA
:10106000010EE7CFDBFF010EDB040EE1FE0EDB50CD
:10107000280DF3CFE9FFF4CFEAFF040EE9260F0EA7
:10108000EA22020EEF6E18D0010EDB50030808E0D2
:10109000010EDB50EE0804E0010EDB5004080CE109
:1010A000FE0EDB50280DF3CFE9FFF4CFEAFF040E6C
:1010B000E9260F0EEA22EF6AAFD0FE0EDBCFE6FF85
:1010C000BBEC0CF0E552000923E0D950FA0FE96EB1
:1010D000FF0EDA20EA6EEECFE6FFEECFE6FFEECFB0
:1010E000E6FFEFCFE6FFFE0EDBCFE6FF94DB146EEC
:1010F000050EE15E1450FE0EDB50280DF3CFE9FF24
:10110000F4CFEAFF040EE9260F0EEA22030EEF6E7B
:1011100083D0FE0EDBCFE6FF55DCE552E76E010E15
:10112000E7CFDBFF010EDB040EE1FE0EDB50280DE6
:10113000F3CFE9FFF4CFEAFF040EE9260F0EEA220F
:10114000040EEF6E18D0010EDB50030808E0010E0C
:10115000DB50EE0804E0010EDB5004080CE1FE0E4B
:10116000DB50280DF3CFE9FFF4CFEAFF040EE926A8
:101170000F0EEA22EF6A50D0FE0EDBCFE6FFBBEC8B
:101180000CF0E552000912E0FE0EDBCFE6FFE9DAD3
:10119000E552FE0EDB50280DF3CFE9FFF4CFEAFF56
:1011A000040EE9260F0EEA22050EEF6E35D0FE0E74
:1011B000DBCFE6FFE2EC04F0E552E76E010EE7CF8D
:1011C000DBFF010EDB040EE1FE0EDB50280DF3CF3A
:1011D000E9FFF4CFEAFF040EE9260F0EEA22EF6AD8
:1011E000DF6A18D0010EDB50030808E0010EDB5067
:1011F000EE0804E0010EDB5004080CE1FE0EDB50AB
:10120000280DF3CFE9FFF4CFEAFF040EE9260F0E15
:10121000EA22EF6A01D000D0DF5000D0146E020E37
:10122000E15C02E2E16AE552E16E1450E552E7CF7B
:10123000D9FF1200D9CFE6FFE1CFD9FF0D0EE66E40
:10124000FE0EDBCFE6FF7ADBE552E5520A0EE66ED4
:10125000FE0EDBCFE6FF72DBE552E552E552E7CF4B
:10126000D9FF1200D9CFE6FFE1CFD9FF090EE12661
:10127000060EDB6A070EDB6A080EDB6AD9CFE6FFD3
:10128000DACFE6FFFE0EEA6ADB34FE0BEA36E96EE1
:10129000000EE9260F0EEA22EECFE6FFEFCFE6FFC3
:1012A00010EC5DF0E552E552E552E552D9CFE6FF8C
:1012B000DACFE6FFBFEC62F0E552E552060EF3CF5F
:1012C000DBFF770EE66EFE0EDBCFE6FF37DBE55287
:1012D000E552310EE66EFE0EDBCFE6FF2FDBE55268
:1012E000E552780EE66EFE0EDBCFE6FF27DBE55219
:1012F000E552330EE66EFE0EDBCFE6FF1FDBE55256
:10130000E552330EE66EFE0EDBCFE6FF17DBE5524D
:10131000E552700EE66EFE0EDBCFE6FF0FDBE55208
:10132000E552070EDB6A080EDB6A070EDBCF14F00E
:10133000080EDBCF15F0060EDBCF16F0176A16BECF
:10134000176815501718E8AE02D0173404D016509D
:10135000145C175015581AE2D9CF14F0DACF15F0F3
:10136000070EDB501424E96E080EDB501520EA6EE0
:10137000EF50E66EFE0EDBCFE6FFE0DAE552E55217
:10138000070EDB2A080E01E3DB2ACFD7780EE66EC4
:10139000FE0EDBCFE6FFD2DAE552E552FE0EDBCFE2
:1013A000E6FF48DFE552090EE15C02E2E16AE55240
:1013B000E16EE552E7CFD9FF1200D9CFE6FFE1CFCA
:1013C000D9FF710EE66EFE0EDBCFE6FFB7DAE5520F
:1013D000E552310EE66EFE0EDBCFE6FFAFDAE552E8
:1013E000E552780EE66EFE0EDBCFE6FFA7DAE55299
:1013F000E552320EE66EFE0EDBCFE6FF9FDAE552D7
:10140000E552350EE66EFE0EDBCFE6FF97DAE552CB
:10141000E552700EE66EFE0EDBCFE6FF8FDAE55288
:10142000E552470EE66EFE0EDBCFE6FF87DAE552A9
:10143000E552FE0EDBCFE6FFFDDEE552E552E7CFDB
:10144000D9FF1200D9CFE6FFE1CFD9FF450EE66EF6
:10145000FE0EDBCFE6FF72DAE552E552310EE66EA4
:10146000FE0EDBCFE6FF6ADAE552E552780EE66E55
:10147000FE0EDBCFE6FF62DAE552E552470EE66E7E
:10148000FE0EDBCFE6FF5ADAE552E552FE0EDBCF69
:10149000E6FFD0DEE552E552E7CFD9FF1200D9CF03
:1014A000E6FFE1CFD9FF430EE66EFE0EDBCFE6FF8F
:1014B00045DAE552E552310EE66EFE0EDBCFE6FF71
:1014C0003DDAE552E552780EE66EFE0EDBCFE6FF22
:1014D00035DAE552E552320EE66EFE0EDBCFE6FF60
:1014E0002DDAE552E552720EE66EFE0EDBCFE6FF18
:1014F00025DAE552E552320EE66EFE0EDBCFE6FF50
:101500001DDAE552E552740EE66EFE0EDBCFE6FF05
:1015100015DAE552E552300EE66EFE0EDBCFE6FF41
:101520000DDAE552E5522E0EE66EFE0EDBCFE6FF3B
:1015300005DAE552E552320EE66EFE0EDBCFE6FF2F
:10154000FDD9E552E552470EE66EFE0EDBCFE6FF13
:10155000F5D9E552E552FE0EDBCFE6FF6BDEE55234
:10156000E552E7CFD9FF1200D9CFE6FFE1CFD9FF8F
:10157000560EE66EFE0EDBCFE6FFE0D9E552E552F1
:10158000310EE66EFE0EDBCFE6FFD8D9E552E5520E
:10159000780EE66EFE0EDBCFE6FFD0D9E552E552BF
:1015A000310EE66EFE0EDBCFE6FFC8D9E552E552FE
:1015B000300EE66EFE0EDBCFE6FFC0D9E552E552F7
:1015C000300EE66EFE0EDBCFE6FFB8D9E552E552EF
:1015D000470EE66EFE0EDBCFE6FFB0D9E552E552D0
:1015E000FE0EDBCFE6FF26DEE552E552E7CFD9FF60
:1015F0001200D9CFE6FFE1CFD9FF090EE126060E92
:10160000DB6A070EDB6A080EDB6AD9CFE6FFDACFAA
:10161000E6FFFC0EDBCFE6FFFD0EDBCFE6FF10ECB6
:101620005DF0E552E552E552E552D9CFE6FFDACF5B
:10163000E6FFBFEC62F0E552E552060EF3CFDBFFAA
:10164000560EE66EFE0EDBCFE6FF78D9E552E55288
:10165000310EE66EFE0EDBCFE6FF70D9E552E552A5
:10166000780EE66EFE0EDBCFE6FF68D9E552E55256
:10167000070EDB6A080EDB6A070EDBCF14F0080EDC
:10168000DBCF15F0060EDBCF16F0176A16BE176813
:1016900015501718E8AE02D0173404D01650145C59
:1016A000175015581AE2D9CF14F0DACF15F0070EFB
:1016B000DB501424E96E080EDB501520EA6EEF5063
:1016C000E66EFE0EDBCFE6FF39D9E552E552070E96
:1016D000DB2A080E01E3DB2ACFD7470EE66EFE0EAB
:1016E000DBCFE6FF2BD9E552E552FE0EDBCFE6FF5E
:1016F000A1DDE552090EE15C02E2E16AE552E16E2C
:10170000E552E7CFD9FF1200D9CFE6FFE1CFD9FFED
:101710006E0EE66EFE0EDBCFE6FF10D9E552E55207
:10172000310EE66EFE0EDBCFE6FF08D9E552E5523C
:10173000780EE66EFE0EDBCFE6FF00D9E552E552ED
:10174000470EE66EFE0EDBCFE6FFF8D8E552E55217
:10175000FE0EDBCFE6FF6EDDE552E552E7CFD9FFA7
:101760001200D9CFE6FFE1CFD9FF660EE66EFE0E7E
:10177000DBCFE6FFE3D8E552E552310EE66EFE0E12
:10178000DBCFE6FFDBD8E552E552780EE66EFE0EC3
:10179000DBCFE6FFD3D8E552E552470EE66EFE0EEC
:1017A000DBCFE6FFCBD8E552E552FE0EDBCFE6FFFE
:1017B00041DDE552E552E7CFD9FF1200D9CFE6FF70
:1017C000E1CFD9FF480EE66EFE0EDBCFE6FFB6D8BE
:1017D000E552E552310EE66EFE0EDBCFE6FFAED8E7
:1017E000E552E552780EE66EFE0EDBCFE6FFA6D898
:1017F000E552E552470EE66EFE0EDBCFE6FF9ED8C1
:10180000E552E552FE0EDBCFE6FF14DDE552E55270
:10181000E7CFD9FF1200D9CFE6FFE1CFD9FF0B0EFA
:10182000E126080EDB6A090EDB6A0A0EDB6AD9CFF5
:10183000E6FFDACFE6FFD950FA0FE96EFF0EDA20A5
:10184000EA6EEECFE6FFEECFE6FFEECFE6FFEFCF9C
:10185000E6FFAAEC5DF0146E060EE15E1450D9CFDF
:10186000E6FFDACFE6FFBFEC62F0E552E552080E84
:10187000F3CFDBFF410EE66EFE0EDBCFE6FF5ED858
:10188000E552E552310EE66EFE0EDBCFE6FF56D88E
:10189000E552E552780EE66EFE0EDBCFE6FF4ED83F
:1018A000E552E552090EDB6A0A0EDB6A090EDBCF50
:1018B00014F00A0EDBCF15F0080EDBCF16F0176A16
:1018C00016BE176815501718E8AE02D0173404D0AA
:1018D0001650145C175015581AE2D9CF14F0DACF0D
:1018E00015F0090EDB501424E96E0A0EDB501520AA
:1018F000EA6EEF50E66EFE0EDBCFE6FF1FD8E55234
:10190000E552090EDB2A0A0E01E3DB2ACFD7470E88
:10191000E66EFE0EDBCFE6FF11D8E552E552FE0E75
:10192000DBCFE6FF87DCE5520B0EE15C02E2E16A09
:10193000E552E16EE552E7CFD9FF1200D9CFE6FFBD
:10194000E1CFD9FFFE0EDB500AE0010A01E00ED024
:10195000FD0EDBCFE6FF4BEC63F0E55208D0FD0E49
:10196000DBCFE6FF0DEC64F0E55201D000D0E5528C
:10197000E7CFD9FF1200D9CFE6FFE1CFD9FFE6527A
:10198000DF6AFE0EDB500AE0010A01E00ED0020120
:101990009E51000802E2010EDF6E07D00201C8511D
:1019A000000802E2010EDF6E00D0DF5000D0E552E9
:1019B000E552E7CFD9FF1200D9CFE6FFE1CFD9FF3B
:1019C000FE0EDB5007E0010A01E008D021EC63F0D5
:1019D00006D005D0E3EC63F002D001D000D0E55290
:1019E000E7CFD9FF1200D9CFE6FFE1CFD9FFE6520A
:1019F000DF6AFE0EDB500AE0010A01E00ED00201B0
:101A0000B351000802E2B3C2DFFF07D00201DD518B
:101A1000000802E2DDC2DFFF00D0DF5000D0E55257
:081A2000E552E7CFD9FF1200E7
:081A2800D9CFE6FFE1CFD9FFA1
:101A3000FE0EDB50180DF3CFE9FFF4CFEAFF000EE6
:101A4000E926020EEA22EE52EE2A000EEF22FE0EE8
:101A5000DB50180DF3CFE9FFF4CFEAFF000EE926C3
:101A6000020EEA22EE52EECF14F0EFCF15F0880E00
:101A7000145C130E15582BE3FE0EDB50180DF3CF3C
:101A8000E9FFF4CFEAFF000EE926020EEA22EE5249
:101A9000EE6AED6AFE0EDB50180DF3CFE9FFF4CFCE
:101AA000EAFF000EE926020EEA22EF6AFE0EDB5084
:101AB000180DF3CFE9FFF4CFEAFF000EE926020E7E
:101AC000EA22160EE926000EEA22010EEF6EE66A01
:101AD00023EC3FF0E552000928E1FE0EDB50180D23
:101AE000F3CFE9FFF4CFEAFF000EE926020EEA2267
:101AF000170EE926000EEA22EF0416E1FE0EDBCFF8
:101B0000E6FF0EEC17F0E552FE0EDB50180DF3CF9A
:101B1000E9FFF4CFEAFF000EE926020EEA22170ED3
:101B2000E926000EEA22EF6A17D0E66A23EC3FF0BE
:101B3000E552010811E1FE0EDB50180DF3CFE9FF6D
:101B4000F4CFEAFF000EE926020EEA22170EE9267C
:101B5000000EEA22010EEF6EFE0EDB50180DF3CFE1
:101B6000E9FFF4CFEAFF000EE926020EEA22050E95
:101B7000E926000EEA22EE2A000EEF22FE0EDB50CE
:101B8000180DF3CFE9FFF4CFEAFF000EE926020EAD
:101B9000EA22050EE926000EEA22EECF14F0EFCF7E
:101BA00015F0000E145C000E155816E3FE0EDB5007
:101BB000180DF3CFE9FFF4CFEAFF000EE926020E7D
:101BC000EA22050EE926000EEA22EE6AED6AFE0E12
:101BD000DBCFE6FF05D8E552E552E7CFD9FF12008B
:101BE000D9CFE6FFE1CFD9FFFE0EDB50180DF3CFC2
:101BF000E9FFF4CFEAFF000EE926020EEA22EF50D9
:101C0000040A02E1BBEF13F0070A02E143EF12F00E
:101C1000010A01E1CFD2030A01E169D1010A02E020
:101C200043EF15F0FE0EDB0404E103014D0E7C6F63
:101C300006D0FE0EDB5003E103015A0E7C6F030158
:101C40007D51E82403017D6FFE0EDBCFE6FF4EECF5
:101C50003FF0E55203017D1103017D6F03017D51CA
:101C6000E82403017D6FFE0EDBCFE6FF67EC3FF05B
:101C7000E55203017D1103017D6F03017D51E824CD
:101C800003017D6FFE0EDBCFE6FF80EC3FF0E552F7
:101C900003017D1103017D6F03017D51E8240301E0
:101CA0007D6FFE0EDBCFE6FF99EC3FF0E5520301BE
:101CB0007D1103017D6F03017D51E82403017D6FD8
:101CC000FE0EDBCFE6FFB2EC3FF0E55203017D11E3
:101CD00003017D6F03017D51E82403017D6FFE0E3A
:101CE000DBCFE6FFCBEC3FF0E55203017D110301B2
:101CF0007D6F03017D51E82403017D6FFE0EDBCF74
:101D0000E6FFE4EC3FF0E55203017D1103017D6F36
:101D100003017D51E82403017D6F010E03017D1154
:101D200003017D6F03017E6BFE0EDB50180DF3CFB8
:101D3000E9FFF4CFEAFF000EE926020EEA22070EC1
:101D4000E926000EEA22E9CF14F0EACF15F0FE0EE4
:101D5000DB50180DF3CFE9FFF4CFEAFF000EE926C0
:101D6000020EEA22EF50030D1450F324E96E1550D1
:101D7000F420EA6EEF5003017C5D4EE1FE0EDB5075
:101D8000180DF3CFE9FFF4CFEAFF000EE926020EAB
:101D9000EA22070EE926000EEA22E9CF16F0EACF82
:101DA00017F0FE0EDB50180DF3CFE9FFF4CFEAFF7A
:101DB000000EE926020EEA22EF50030D1650F3241E
:101DC000E96E1750F420EA6E010EE926000EEA22B1
:101DD000EF5003017D5D20E1FE0EDB50180DF3CFC7
:101DE000E9FFF4CFEAFF000EE926020EEA22160E02
:101DF000E926000EEA22EF500FE1FE0EDB50180D2F
:101E0000F3CFE9FFF4CFEAFF000EE926020EEA2243
:101E1000010EEF6E50EF15F0FE0EDB50180DF3CFF4
:101E2000E9FFF4CFEAFF000EE926020EEA22070ED0
:101E3000E926000EEA22E9CF14F0EACF15F0FE0EF3
:101E4000DB50180DF3CFE9FFF4CFEAFF000EE926CF
:101E5000020EEA22EF50030D1450F324E96E1550E0
:101E6000F420EA6E7CC3EFFFFE0EDB50180DF3CFBB
:101E7000E9FFF4CFEAFF000EE926020EEA22070E80
:101E8000E926000EEA22E9CF14F0EACF15F0FE0EA3
:101E9000DB50180DF3CFE9FFF4CFEAFF000EE9267F
:101EA000020EEA22EF50030D1450F324E96E155090
:101EB000F420EA6E010EE926000EEA227DC3EFFF50
:101EC0007C0EE66E030EE66E43EC48F0E552E552FA
:101ED000FE0EDB50180DF3CFE9FFF4CFEAFF000E42
:101EE000E926020EEA22010EEF6E50EF15F0FE0E0B
:101EF000DB0404E103014C0E7C6F06D0FE0EDB50C8
:101F000003E10301590E7C6F03017D51E8240301B5
:101F10007D6FFE0EDBCFE6FF93EC40F0E552146ED2
:101F200003017D39F00B141003017D6F03017D5116
:101F3000E82403017D6FFE0EDBCFE6FF16EC40F0D8
:101F4000E55203017D1103017D6F03017D51E824FA
:101F500003017D6FFE0EDBCFE6FF2FEC40F0E55274
:101F600003017D1103017D6F03017D51E82403010D
:101F70007D6FFE0EDB50180DF3CFE9FFF4CFEAFFC3
:101F8000000EE926020EEA22170EE926000EEA22CA
:101F9000EF5006E1010E03017D1103017D6F1BD09F
:101FA000FE0EDB50180DF3CFE9FFF4CFEAFF000E71
:101FB000E926020EEA22170EE926000EEA22EF04B5
:101FC0000AE1FE0EDBCFE6FF7AEC40F0E5520301BA
:101FD0007D1103017D6F03017D51E82403017D6FB5
:101FE000010E03017D1103017D6F03017E6BFE0E67
:101FF000DB50180DF3CFE9FFF4CFEAFF000EE9261E
:10200000020EEA22070EE926000EEA22E9CF14F0BA
:10201000EACF15F0FE0EDB50180DF3CFE9FFF4CF39
:10202000EAFF000EE926020EEA22EF50030D1450DB
:10203000F324E96E1550F420EA6EEF5003017C5D45
:102040004EE1FE0EDB50180DF3CFE9FFF4CFEAFFAF
:10205000000EE926020EEA22070EE926000EEA2209
:10206000E9CF16F0EACF17F0FE0EDB50180DF3CFD4
:10207000E9FFF4CFEAFF000EE926020EEA22EF5054
:10208000030D1650F324E96E1750F420EA6E010E8A
:10209000E926000EEA22EF5003017D5D20E1FE0EED
:1020A000DB50180DF3CFE9FFF4CFEAFF000EE9266D
:1020B000020EEA22160EE926000EEA22EF500FE188
:1020C000FE0EDB50180DF3CFE9FFF4CFEAFF000E50
:1020D000E926020EEA22020EEF6E50EF15F0FE0E18
:1020E000DB50180DF3CFE9FFF4CFEAFF000EE9262D
:1020F000020EEA22070EE926000EEA22E9CF14F0CA
:10210000EACF15F0FE0EDB50180DF3CFE9FFF4CF48
:10211000EAFF000EE926020EEA22EF50030D1450EA
:10212000F324E96E1550F420EA6E7CC3EFFFFE0E37
:10213000DB50180DF3CFE9FFF4CFEAFF000EE926DC
:10214000020EEA22070EE926000EEA22E9CF14F079
:10215000EACF15F0FE0EDB50180DF3CFE9FFF4CFF8
:10216000EAFF000EE926020EEA22EF50030D14509A
:10217000F324E96E1550F420EA6E010EE926000EF4
:10218000EA227DC3EFFF7C0EE66E030EE66E43ECA3
:1021900048F0E552E552FE0EDB50180DF3CFE9FF93
:1021A000F4CFEAFF000EE926020EEA22020EEF6EDD
:1021B00050EF15F0FE0EDB0404E103014B0E7C6FC3
:1021C00006D0FE0EDB5003E10301580E7C6F0301C5
:1021D0007D51E82403017D6FFE0EDBCFE6FFC5ECE9
:1021E00040F0E55203017D1103017D6F03017D5134
:1021F000E82403017D6FFE0EDBCFE6FFDEEC40F04E
:10220000E55203017D1103017D6F03017D51E82437
:1022100003017D6FFE0EDBCFE6FFF7EC40F0E552E9
:1022200003017D1103017D6F03017D51E82403014A
:102230007D6FFE0EDBCFE6FF10EC41F0E5520301AF
:102240007D1103017D6F03017D51E82403017D6F42
:10225000FE0EDBCFE6FF29EC41F0E55203017D11D4
:1022600003017D6F03017D51E82403017D6F010EA1
:10227000E66EFE0EDBCFE6FFF0EC4DF0E552E552E8
:1022800003017D1103017D6F03017D51E8240301EA
:102290007D6F020EE66EFE0EDBCFE6FFF0EC4DF03A
:1022A000E552E55203017D1103017D6F03017D516C
:1022B000E82403017D6F010E03017D1103017D6F91
:1022C00003017E6BFE0EDB50180DF3CFE9FFF4CF58
:1022D000EAFF000EE926020EEA22070EE926000EAA
:1022E000EA22E9CF14F0EACF15F0FE0EDB50180D0C
:1022F000F3CFE9FFF4CFEAFF000EE926020EEA224F
:10230000EF50030D1450F324E96E1550F420EA6EDB
:10231000EF5003017C5D4DE1FE0EDB50180DF3CF55
:10232000E9FFF4CFEAFF000EE926020EEA22070ECB
:10233000E926000EEA22E9CF16F0EACF17F0FE0EEA
:10234000DB50180DF3CFE9FFF4CFEAFF000EE926CA
:10235000020EEA22EF50030D1650F324E96E1750D7
:10236000F420EA6E010EE926000EEA22EF50030186
:102370007D5D1FE1FE0EDB50180DF3CFE9FFF4CFBA
:10238000EAFF000EE926020EEA22160EE926000EEA
:10239000EA22EF500EE1FE0EDB50180DF3CFE9FFFD
:1023A000F4CFEAFF000EE926020EEA22030EEF6EDA
:1023B00077D3FE0EDB50180DF3CFE9FFF4CFEAFF21
:1023C000000EE926020EEA22070EE926000EEA2296
:1023D000E9CF14F0EACF15F0FE0EDB50180DF3CF65
:1023E000E9FFF4CFEAFF000EE926020EEA22EF50E1
:1023F000030D1450F324E96E1550F420EA6E7CC3EB
:10240000EFFFFE0EDB50180DF3CFE9FFF4CFEAFF2C
:10241000000EE926020EEA22070EE926000EEA2245
:10242000E9CF14F0EACF15F0FE0EDB50180DF3CF14
:10243000E9FFF4CFEAFF000EE926020EEA22EF5090
:10244000030D1450F324E96E1550F420EA6E010ECA
:10245000E926000EEA227DC3EFFF7C0EE66E030E36
:10246000E66E43EC48F0E552E552FE0EDB50180DE7
:10247000F3CFE9FFF4CFEAFF000EE926020EEA22CD
:10248000030EEF6E0DD3FE0EDB0404E103014A0ED2
:102490007C6F06D0FE0EDB5003E10301570E7C6F0C
:1024A00003017D51E82403017D6F040EE66EFE0EEC
:1024B000DBCFE6FFF0EC4DF0E552E55203017D1174
:1024C00003017D6F03017D51E82403017D6F050E3B
:1024D000E66EFE0EDBCFE6FFF0EC4DF0E552E55286
:1024E00003017D1103017D6F03017D51E824030188
:1024F0007D6F060EE66EFE0EDBCFE6FFF0EC4DF0D4
:10250000E552E55203017D1103017D6F03017D5109
:10251000E82403017D6F070EE66EFE0EDBCFE6FFBB
:10252000F0EC4DF0E552E55203017D1103017D6FA2
:1025300003017D51E82403017D6F080EE66EFE0E57
:10254000DBCFE6FFF0EC4DF0E552E55203017D11E3
:1025500003017D6F03017D51E82403017D6F090EA6
:10256000E66EFE0EDBCFE6FFF0EC4DF0E552E552F5
:1025700003017D1103017D6F03017D51E8240301F7
:102580007D6F0A0EE66EFE0EDBCFE6FFF0EC4DF03F
:10259000E552E55203017D1103017D6F03017D5179
:1025A000E82403017D6F010E03017D1103017D6F9E
:1025B00003017E6BFE0EDB50180DF3CFE9FFF4CF65
:1025C000EAFF000EE926020EEA22070EE926000EB7
:1025D000EA22E9CF14F0EACF15F0FE0EDB50180D19
:1025E000F3CFE9FFF4CFEAFF000EE926020EEA225C
:1025F000EF50030D1450F324E96E1550F420EA6EE9
:10260000EF5003017C5D4DE1FE0EDB50180DF3CF62
:10261000E9FFF4CFEAFF000EE926020EEA22070ED8
:10262000E926000EEA22E9CF16F0EACF17F0FE0EF7
:10263000DB50180DF3CFE9FFF4CFEAFF000EE926D7
:10264000020EEA22EF50030D1650F324E96E1750E4
:10265000F420EA6E010EE926000EEA22EF50030193
:102660007D5D1FE1FE0EDB50180DF3CFE9FFF4CFC7
:10267000EAFF000EE926020EEA22160EE926000EF7
:10268000EA22EF500EE1FE0EDB50180DF3CFE9FF0A
:10269000F4CFEAFF000EE926020EEA22040EEF6EE6
:1026A000FFD1FE0EDB50180DF3CFE9FFF4CFEAFFA8
:1026B000000EE926020EEA22070EE926000EEA22A3
:1026C000E9CF14F0EACF15F0FE0EDB50180DF3CF72
:1026D000E9FFF4CFEAFF000EE926020EEA22EF50EE
:1026E000030D1450F324E96E1550F420EA6E7CC3F8
:1026F000EFFFFE0EDB50180DF3CFE9FFF4CFEAFF3A
:10270000000EE926020EEA22070EE926000EEA2252
:10271000E9CF14F0EACF15F0FE0EDB50180DF3CF21
:10272000E9FFF4CFEAFF000EE926020EEA22EF509D
:10273000030D1450F324E96E1550F420EA6E010ED7
:10274000E926000EEA227DC3EFFF7C0EE66E030E43
:10275000E66E43EC48F0E552E552FE0EDB50180DF4
:10276000F3CFE9FFF4CFEAFF000EE926020EEA22DA
:10277000040EEF6E95D1FE0EDB0404E10301490E59
:102780007C6F06D0FE0EDB5003E10301560E7C6F1A
:1027900003017D51E82403017D6FFE0EDBCFE6FFD0
:1027A00048EC40F0E55203017D1103017D6F030108
:1027B0007D51E82403017D6FFE0EDBCFE6FF61EC67
:1027C00040F0E55203017D1103017D6F03017D514E
:1027D000E82403017D6FFE0EDBCFE6FF23EC3FF024
:1027E000E55203017D1103017D6F03017D51E82452
:1027F00003017D6FFE0EDBCFE6FFFDEC3FF0E552FF
:1028000003017D1103017D6F03017D51E824030164
:102810007D6FFE0EDBCFE6FFACEC40F0E55203012E
:102820007D1103017D6F03017D51E82403017D6F5C
:10283000030EE66EFE0EDBCFE6FFF0EC4DF0E55248
:10284000E55203017D1103017D6F03017D51E824F1
:1028500003017D6F0B0EE66EFE0EDBCFE6FFF0ECA4
:102860004DF0E552E55203017D1103017D6F030137
:102870007D51E82403017D6F010E03017D110301E9
:102880007D6F03017E6BFE0EDB50180DF3CFE9FF69
:10289000F4CFEAFF000EE926020EEA22070EE9262F
:1028A000000EEA22E9CF14F0EACF15F0FE0EDB505D
:1028B000180DF3CFE9FFF4CFEAFF000EE926020E70
:1028C000EA22EF50030D1450F324E96E1550F42062
:1028D000EA6EEF5003017C5D4CE1FE0EDB50180DFB
:1028E000F3CFE9FFF4CFEAFF000EE926020EEA2259
:1028F000070EE926000EEA22E9CF16F0EACF17F01C
:10290000FE0EDB50180DF3CFE9FFF4CFEAFF000E07
:10291000E926020EEA22EF50030D1650F324E96E69
:102920001750F420EA6E010EE926000EEA22EF505D
:1029300003017D5D1EE1FE0EDB50180DF3CFE9FFB4
:10294000F4CFEAFF000EE926020EEA22160EE9266F
:10295000000EEA22EF500DE1FE0EDB50180DF3CF12
:10296000E9FFF4CFEAFF000EE926020EEA22EF6A41
:1029700097D0FE0EDB50180DF3CFE9FFF4CFEAFF3E
:10298000000EE926020EEA22070EE926000EEA22D0
:10299000E9CF14F0EACF15F0FE0EDB50180DF3CF9F
:1029A000E9FFF4CFEAFF000EE926020EEA22EF501B
:1029B000030D1450F324E96E1550F420EA6E7CC325
:1029C000EFFFFE0EDB50180DF3CFE9FFF4CFEAFF67
:1029D000000EE926020EEA22070EE926000EEA2280
:1029E000E9CF14F0EACF15F0FE0EDB50180DF3CF4F
:1029F000E9FFF4CFEAFF000EE926020EEA22EF50CB
:102A0000030D1450F324E96E1550F420EA6E010E04
:102A1000E926000EEA227DC3EFFF7C0EE66E030E70
:102A2000E66E43EC48F0E552E552FE0EDB50180D21
:102A3000F3CFE9FFF4CFEAFF000EE926020EEA2207
:102A4000EF6AFE0EDB50180DF3CFE9FFF4CFEAFF7B
:102A5000000EE926020EEA22160EE926000EEA22F0
:102A6000EF0410E1FE0EDB50180DF3CFE9FFF4CFB9
:102A7000EAFF000EE926020EEA22160EE926000EF3
:102A8000EA22EF6A0DD0FE0EDB50180DF3CFE9FFFE
:102A9000F4CFEAFF000EE926020EEA22EF6A00D028
:102AA000E552E7CFD9FF1200D9CFE6FFE1CFD9FF3A
:102AB000FE0EDB0404E10301410E7C6F06D0FE0E26
:102AC000DB5003E10301420E7C6F0301010E7D6FB9
:102AD00003017E6B7C0EE66E030EE66E43EC48F05F
:102AE000E552E552E552E7CFD9FF1200D9CFE6FF14
:102AF000E1CFD9FFFE0EDB0404E10301410E7C6F40
:102B000006D0FE0EDB5003E10301420E7C6F030191
:102B1000020E7D6F03017E6B7C0EE66E030EE66E89
:102B200043EC48F0E552E552E552E7CFD9FF1200F9
:102B3000D9CFE6FFE1CFD9FFFE0EDB0404E10301AC
:102B4000410E7C6F06D0FE0EDB5003E10301420E06
:102B50007C6F0301030E7D6F03017E6B7C0EE66EBE
:102B6000030EE66E43EC48F0E552E552E552E7CF3E
:102B7000D9FF1200D9CFE6FFE1CFD9FFFE0EDB046B
:102B800004E10301410E7C6F06D0FE0EDB5003E131
:102B90000301420E7C6F0301040E7D6F03017E6B07
:102BA0007C0EE66E030EE66E43EC48F0E552E5520D
:102BB000E552E7CFD9FF1200D9CFE6FFE1CFD9FF29
:102BC000FE0EDB0404E10301410E7C6F06D0FE0E15
:102BD000DB5003E10301420E7C6F0301050E7D6FA4
:102BE00003017E6B7C0EE66E030EE66E43EC48F04E
:102BF000E552E552E552E7CFD9FF1200D9CFE6FF03
:102C0000E1CFD9FFFE0EDB0404E10301410E7C6F2E
:102C100006D0FE0EDB5003E10301420E7C6F030180
:102C2000060E7D6F03017E6B7C0EE66E030EE66E74
:102C300043EC48F0E552E552E552E7CFD9FF1200E8
:102C4000D9CFE6FFE1CFD9FFFE0EDB0404E103019B
:102C5000410E7C6F06D0FE0EDB5003E10301420EF5
:102C60007C6F0301070E7D6F03017E6B7C0EE66EA9
:102C7000030EE66E43EC48F0E552E552E552E7CF2D
:102C8000D9FF1200D9CFE6FFE1CFD9FFFE0EDB045A
:102C900004E10301410E7C6F06D0FE0EDB5003E120
:102CA0000301420E7C6F0301080E7D6F03017E6BF2
:102CB0007C0EE66E030EE66E43EC48F0E552E552FC
:102CC000E552E7CFD9FF1200D9CFE6FFE1CFD9FF18
:102CD000FE0EDB0404E10301410E7C6F06D0FE0E04
:102CE000DB5003E10301420E7C6F0301090E7D6F8F
:102CF00003017E6B7C0EE66E030EE66E43EC48F03D
:102D0000E552E552E552E7CFD9FF1200D9CFE6FFF1
:102D1000E1CFD9FFFE0EDB0404E10301410E7C6F1D
:102D200006D0FE0EDB5003E10301420E7C6F03016F
:102D30000A0E7D6F03017E6B7C0EE66E030EE66E5F
:102D400043EC48F0E552E552E552E7CFD9FF1200D7
:102D5000D9CFE6FFE1CFD9FFFE0EDB0404E103018A
:102D6000410E7C6F06D0FE0EDB5003E10301420EE4
:102D70007C6F03010B0E7D6F03017E6B7C0EE66E94
:102D8000030EE66E43EC48F0E552E552E552E7CF1C
:102D9000D9FF1200D9CFE6FFE1CFD9FFFE0EDB0449
:102DA00004E10301410E7C6F06D0FE0EDB5003E10F
:102DB0000301420E7C6F03010C0E7D6F03017E6BDD
:102DC0007C0EE66E030EE66E43EC48F0E552E552EB
:102DD000E552E7CFD9FF1200D9CFE6FFE1CFD9FF07
:102DE000FE0EDB0404E10301410E7C6F06D0FE0EF3
:102DF000DB5003E10301420E7C6F03010D0E7D6F7A
:102E000003017E6B7C0EE66E030EE66E43EC48F02B
:102E1000E552E552E552E7CFD9FF1200D9CFE6FFE0
:102E2000E1CFD9FFFE0EDB0404E10301410E7C6F0C
:102E300006D0FE0EDB5003E10301420E7C6F03015E
:102E40000E0E7D6F03017E6B7C0EE66E030EE66E4A
:102E500043EC48F0E552E552E552E7CFD9FF1200C6
:102E6000D9CFE6FFE1CFD9FFFE0EDB0404E1030179
:102E7000410E7C6F06D0FE0EDB5003E10301420ED3
:102E80007C6F03010F0E7D6F7C0EE66E030EE66E07
:102E900043EC48F0E552E552E552E7CFD9FF120086
:102EA000D9CFE6FFE1CFD9FFFE0EDB0404E1030139
:102EB000410E7C6F06D0FE0EDB5003E10301420E93
:102EC0007C6F0301100E7D6F03017E6B7C0EE66E3E
:102ED000030EE66E43EC48F0E552E552E552E7CFCB
:102EE000D9FF1200D9CFE6FFE1CFD9FFFE0EDB04F8
:102EF00004E10301410E7C6F06D0FE0EDB5003E1BE
:102F00000301420E7C6F0301110E7D6F03017E6B86
:102F10007C0EE66E030EE66E43EC48F0E552E55299
:102F2000E552E7CFD9FF1200D9CFE6FFE1CFD9FFB5
:102F3000FE0EDB0404E10301410E7C6F06D0FE0EA1
:102F4000DB5003E10301420E7C6F0301120E7D6F23
:102F500003017E6B7C0EE66E030EE66E43EC48F0DA
:102F6000E552E552E552E7CFD9FF1200D9CFE6FF8F
:102F7000E1CFD9FFFE0EDB0404E10301410E7C6FBB
:102F800006D0FE0EDB5003E10301420E7C6F03010D
:102F9000130E7D6F03017E6B7C0EE66E030EE66EF4
:102FA00043EC48F0E552E552E552E7CFD9FF120075
:102FB000D9CFE6FFE1CFD9FFFE0EDBCFE6FF00EC75
:102FC00054F0E552FE0EDBCFE6FFB2EC4AF0E552DC
:102FD000010EE66EFE0EDBCFE6FF76EC41F0E55229
:102FE000E552010EE66EFE0EDBCFE6FF90EC41F0FF
:102FF000E552E552010EE66EFE0EDBCFE6FFAAECCF
:1030000041F0E552E552E66AFE0EDBCFE6FFC4EC86
:1030100041F0E552E552FE0EDB500E0DF3CFE9FF15
:10302000F4CFEAFF1C0EE926030EEA22010EEF6E32
:10303000FE0EDB500E0DF3CFE9FFF4CFEAFF1C0EBE
:10304000E926030EEA22EE52EF6AFE0EDB500E0D69
:10305000F3CFE9FFF4CFEAFF1C0EE926030EEA22C4
:10306000020EE926000EEA22EF6AFE0EDB500E0D7C
:10307000F3CFE9FFF4CFEAFF1C0EE926030EEA22A4
:10308000030EE926000EEA22EF6AFE0EDB500E0D5B
:10309000F3CFE9FFF4CFEAFF1C0EE926030EEA2284
:1030A000040EE926000EEA22EF6AFE0EDB500E0D3A
:1030B000F3CFE9FFF4CFEAFF1C0EE926030EEA2264
:1030C000050EE926000EEA22EF6AFE0EDB500E0D19
:1030D000F3CFE9FFF4CFEAFF1C0EE926030EEA2244
:1030E000060EE926000EEA22EF6AFE0EDB500E0DF8
:1030F000F3CFE9FFF4CFEAFF1C0EE926030EEA2224
:10310000070EE926000EEA22EF6AFE0EDB500E0DD6
:10311000F3CFE9FFF4CFEAFF1C0EE926030EEA2203
:10312000080EE926000EEA22EF6AFE0EDB500E0DB5
:10313000F3CFE9FFF4CFEAFF1C0EE926030EEA22E3
:10314000090EE926000EEA22EF6AFE0EDB500E0D94
:10315000F3CFE9FFF4CFEAFF1C0EE926030EEA22C3
:103160000B0EE926000EEA22EF68E66AFE0EDBCFC0
:10317000E6FF5CEC41F0E552E552E66AFE0EDBCF7D
:10318000E6FFEFEC41F0E552E552FE0EDBCFE6FF45
:1031900086EC16F0E552FE0EDB500E0DF3CFE9FF84
:1031A000F4CFEAFF1C0EE926030EEA22010EEF6EB1
:1031B000E552E7CFD9FF1200D9CFE6FFE1CFD9FF23
:1031C000FE0EDB500E0DF3CFE9FFF4CFEAFF1C0E2D
:1031D000E926030EEA22EF50010A01E102D1010AB9
:1031E00002E0A3EF20F0FE0EDBCFE6FF00EC54F090
:1031F000E552FE0EDBCFE6FFB2EC4AF0E552010EDF
:10320000E66EFE0EDBCFE6FF76EC41F0E552E552CE
:10321000010EE66EFE0EDBCFE6FF90EC41F0E552CC
:10322000E552010EE66EFE0EDBCFE6FFAAEC41F0A2
:10323000E552E552E66AFE0EDBCFE6FFC4EC41F054
:10324000E552E552FE0EDB500E0DF3CFE9FFF4CF51
:10325000EAFF1C0EE926030EEA22010EEF6EFE0EB7
:10326000DB500E0DF3CFE9FFF4CFEAFF1C0EE92689
:10327000030EEA22EE52EF6AFE0EDB500E0DF3CF84
:10328000E9FFF4CFEAFF1C0EE926030EEA22020E44
:10329000E926000EEA22EF6AFE0EDB500E0DF3CF98
:1032A000E9FFF4CFEAFF1C0EE926030EEA22030E23
:1032B000E926000EEA22EF6AFE0EDB500E0DF3CF78
:1032C000E9FFF4CFEAFF1C0EE926030EEA22040E02
:1032D000E926000EEA22EF6AFE0EDB500E0DF3CF58
:1032E000E9FFF4CFEAFF1C0EE926030EEA22050EE1
:1032F000E926000EEA22EF6AFE0EDB500E0DF3CF38
:10330000E9FFF4CFEAFF1C0EE926030EEA22060EBF
:10331000E926000EEA22EF6AFE0EDB500E0DF3CF17
:10332000E9FFF4CFEAFF1C0EE926030EEA22070E9E
:10333000E926000EEA22EF6AFE0EDB500E0DF3CFF7
:10334000E9FFF4CFEAFF1C0EE926030EEA22080E7D
:10335000E926000EEA22EF6AFE0EDB500E0DF3CFD7
:10336000E9FFF4CFEAFF1C0EE926030EEA22090E5C
:10337000E926000EEA22EF6AFE0EDB500E0DF3CFB7
:10338000E9FFF4CFEAFF1C0EE926030EEA220B0E3A
:10339000E926000EEA22EF68E66AFE0EDBCFE6FFC2
:1033A0005CEC41F0E552E552E66AFE0EDBCFE6FF4B
:1033B000EFEC41F0E552E552FE0EDBCFE6FF86EC86
:1033C00016F0E552FE0EDB500E0DF3CFE9FFF4CF01
:1033D000EAFF1C0EE926030EEA22010EEF6EA4EFAF
:1033E00020F0FE0EDBCFE6FFDEEC41F0E552E66EAC
:1033F000FE0EDB500E0DF3CFE9FFF4CFEAFF1C0EFB
:10340000E926030EEA22060EE926000EEA22E5521C
:10341000E750EF6E190A02E18AEF20F0010A02E19B
:1034200072EF20F00F0A02E15BEF20F0010A02E1E7
:1034300043EF20F0030A02E12CEF20F0010A02E141
:1034400014EF20F0070A02E101EF20F0030A02E185
:103450007CEF1FF01F0A02E124EF1FF0010A02E1D6
:10346000CCEF1EF0030A02E174EF1EF0010A01E145
:10347000E3D3070A01E188D3010A01E12DD3030A4E
:1034800001E1D2D2010A01E177D20F0A01E11BD298
:10349000010A01E1BED1030A01E161D1010A01E1A2
:1034A00004D1070A01E1A7D0190A4CE0180A29E063
:1034B000030A06E0010A02E0A1EF20F0A2EF20F0EB
:1034C000010EE66EFE0EDBCFE6FF5CEC41F0E5524E
:1034D000E552E66AFE0EDBCFE6FFC4EC41F0E552B2
:1034E000E552E66AFE0EDBCFE6FFEFEC41F0E55277
:1034F000E552FE0EDBCFE6FF86EC16F0E552A2EFBA
:1035000020F0E66AFE0EDBCFE6FF5CEC41F0E55210
:10351000E552010EE66EFE0EDBCFE6FFC4EC41F095
:10352000E552E552E66AFE0EDBCFE6FFEFEC41F036
:10353000E552E552FE0EDBCFE6FF86EC16F0E552D3
:10354000A2EF20F0E66AFE0EDBCFE6FF06EC55F0B8
:10355000E552E552E66EFE0EDB500E0DF3CFE9FFAD
:10356000F4CFEAFF1C0EE926030EEA220B0EE92631
:10357000000EEA22E552E750EF6EFF0A12E0FF0A62
:1035800001E010D0E66AFE0EDBCFE6FFEFEC41F083
:10359000E552E552FE0EDBCFE6FF86EC16F0E55273
:1035A00028D027D0FE0EDB500E0DF3CFE9FFF4CF6D
:1035B000EAFF1C0EE926030EEA220B0EE926000E96
:1035C000EA22EF50E66EFE0EDBCFE6FFAEEC20F017
:1035D000E552E552E66AFE0EDBCFE6FFEFEC41F086
:1035E000E552E552FE0EDBCFE6FF86EC16F0E55223
:1035F00000D0A2EF20F0FE0EDBCFE6FF93EC40F010
:10360000E552010FE66EFE0EDBCFE6FF06EC55F04D
:10361000E552E552E66EFE0EDB500E0DF3CFE9FFEC
:10362000F4CFEAFF1C0EE926030EEA220B0EE92670
:10363000000EEA22E552E750EF6EFF0A12E0FF0AA1
:1036400001E010D0E66AFE0EDBCFE6FFEFEC41F0C2
:10365000E552E552FE0EDBCFE6FF86EC16F0E552B2
:1036600022D021D0FE0EDB500E0DF3CFE9FFF4CFB8
:10367000EAFF1C0EE926030EEA220B0EE926000ED5
:10368000EA22EF50E66EFE0EDBCFE6FFAEEC20F056
:10369000E552E552E66AFE0EDBCFE6FFEFEC41F0C5
:1036A000E552E55200D0A2EF20F0FE0EDBCFE6FFA0
:1036B00093EC40F0E552FF0FE66EFE0EDBCFE6FF27
:1036C00006EC55F0E552E552E66EFE0EDB500E0DAF
:1036D000F3CFE9FFF4CFEAFF1C0EE926030EEA223E
:1036E0000B0EE926000EEA22E552E750EF6EFF0AC4
:1036F00012E0FF0A01E010D0E66AFE0EDBCFE6FF23
:10370000EFEC41F0E552E552FE0EDBCFE6FF86EC32
:1037100016F0E55222D021D0FE0EDB500E0DF3CF75
:10372000E9FFF4CFEAFF1C0EE926030EEA220B0E96
:10373000E926000EEA22EF50E66EFE0EDBCFE6FF32
:10374000AEEC20F0E552E552E66AFE0EDBCFE6FF76
:10375000EFEC41F0E552E55200D0A2EF20F0010E6F
:10376000E66EFE0EDBCFE6FF06EC55F0E552E552C5
:10377000E66EFE0EDB500E0DF3CFE9FFF4CFEAFF4D
:103780001C0EE926030EEA220B0EE926000EEA22A1
:10379000E552E750EF6EFF0A12E0FF0A01E010D099
:1037A000E66AFE0EDBCFE6FFEFEC41F0E552E552B4
:1037B000FE0EDBCFE6FF86EC16F0E55228D027D0D0
:1037C000FE0EDB500E0DF3CFE9FFF4CFEAFF1C0E27
:1037D000E926030EEA220B0EE926000EEA22EF503C
:1037E000E66EFE0EDBCFE6FFAEEC20F0E552E552D2
:1037F000E66AFE0EDBCFE6FFEFEC41F0E552E55264
:10380000FE0EDBCFE6FF86EC16F0E55200D0A2EF0D
:1038100020F0020EE66EFE0EDBCFE6FF06EC55F062
:10382000E552E552E66EFE0EDB500E0DF3CFE9FFDA
:10383000F4CFEAFF1C0EE926030EEA220B0EE9265E
:10384000000EEA22E552E750EF6EFF0A12E0FF0A8F
:1038500001E010D0E66AFE0EDBCFE6FFEFEC41F0B0
:10386000E552E552FE0EDBCFE6FF86EC16F0E552A0
:1038700028D027D0FE0EDB500E0DF3CFE9FFF4CF9A
:10388000EAFF1C0EE926030EEA220B0EE926000EC3
:10389000EA22EF50E66EFE0EDBCFE6FFAEEC20F044
:1038A000E552E552E66AFE0EDBCFE6FFEFEC41F0B3
:1038B000E552E552FE0EDBCFE6FF86EC16F0E55250
:1038C00000D0A2EF20F0030EE66EFE0EDBCFE6FF87
:1038D00006EC55F0E552E552E66EFE0EDB500E0D9D
:1038E000F3CFE9FFF4CFEAFF1C0EE926030EEA222C
:1038F0000B0EE926000EEA22E552E750EF6EFF0AB2
:1039000012E0FF0A01E010D0E66AFE0EDBCFE6FF10
:10391000EFEC41F0E552E552FE0EDBCFE6FF86EC20
:1039200016F0E55228D027D0FE0EDB500E0DF3CF57
:10393000E9FFF4CFEAFF1C0EE926030EEA220B0E84
:10394000E926000EEA22EF50E66EFE0EDBCFE6FF20
:10395000AEEC20F0E552E552E66AFE0EDBCFE6FF64
:10396000EFEC41F0E552E552FE0EDBCFE6FF86ECD0
:1039700016F0E55200D0E6D3040EE66EFE0EDBCF65
:10398000E6FF06EC55F0E552E552E66EFE0EDB5022
:103990000E0DF3CFE9FFF4CFEAFF1C0EE926030E6C
:1039A000EA220B0EE926000EEA22E552E750EF6EFE
:1039B000FF0A12E0FF0A01E010D0E66AFE0EDBCF3C
:1039C000E6FFEFEC41F0E552E552FE0EDBCFE6FFFD
:1039D00086EC16F0E55227D026D0FE0EDB500E0DF9
:1039E000F3CFE9FFF4CFEAFF1C0EE926030EEA222B
:1039F0000B0EE926000EEA22EF50E66EFE0EDBCF3C
:103A0000E6FFACDBE552E552E66AFE0EDBCFE6FFF1
:103A1000EFEC41F0E552E552FE0EDBCFE6FF86EC1F
:103A200016F0E55200D08ED3050EE66EFE0EDBCF0B
:103A3000E6FF06EC55F0E552E552E66EFE0EDB5071
:103A40000E0DF3CFE9FFF4CFEAFF1C0EE926030EBB
:103A5000EA220B0EE926000EEA22E552E750EF6E4D
:103A6000FF0A12E0FF0A01E010D0E66AFE0EDBCF8B
:103A7000E6FFEFEC41F0E552E552FE0EDBCFE6FF4C
:103A800086EC16F0E55227D026D0FE0EDB500E0D48
:103A9000F3CFE9FFF4CFEAFF1C0EE926030EEA227A
:103AA0000B0EE926000EEA22EF50E66EFE0EDBCF8B
:103AB000E6FF54DBE552E552E66AFE0EDBCFE6FF99
:103AC000EFEC41F0E552E552FE0EDBCFE6FF86EC6F
:103AD00016F0E55200D036D3060EE66EFE0EDBCFB2
:103AE000E6FF06EC55F0E552E552E66EFE0EDB50C1
:103AF0000E0DF3CFE9FFF4CFEAFF1C0EE926030E0B
:103B0000EA220B0EE926000EEA22E552E750EF6E9C
:103B1000FF0A12E0FF0A01E010D0E66AFE0EDBCFDA
:103B2000E6FFEFEC41F0E552E552FE0EDBCFE6FF9B
:103B300086EC16F0E55227D026D0FE0EDB500E0D97
:103B4000F3CFE9FFF4CFEAFF1C0EE926030EEA22C9
:103B50000B0EE926000EEA22EF50E66EFE0EDBCFDA
:103B6000E6FFFCDAE552E552E66AFE0EDBCFE6FF41
:103B7000EFEC41F0E552E552FE0EDBCFE6FF86ECBE
:103B800016F0E55200D0DED2070EE66EFE0EDBCF59
:103B9000E6FF06EC55F0E552E552E66EFE0EDB5010
:103BA0000E0DF3CFE9FFF4CFEAFF1C0EE926030E5A
:103BB000EA220B0EE926000EEA22E552E750EF6EEC
:103BC000FF0A12E0FF0A01E010D0E66AFE0EDBCF2A
:103BD000E6FFEFEC41F0E552E552FE0EDBCFE6FFEB
:103BE00086EC16F0E55227D026D0FE0EDB500E0DE7
:103BF000F3CFE9FFF4CFEAFF1C0EE926030EEA2219
:103C00000B0EE926000EEA22EF50E66EFE0EDBCF29
:103C1000E6FFA4DAE552E552E66AFE0EDBCFE6FFE8
:103C2000EFEC41F0E552E552FE0EDBCFE6FF86EC0D
:103C300016F0E55200D086D2080EE66EFE0EDBCFFF
:103C4000E6FF06EC55F0E552E552E66EFE0EDB505F
:103C50000E0DF3CFE9FFF4CFEAFF1C0EE926030EA9
:103C6000EA220B0EE926000EEA22E552E750EF6E3B
:103C7000FF0A12E0FF0A01E010D0E66AFE0EDBCF79
:103C8000E6FFEFEC41F0E552E552FE0EDBCFE6FF3A
:103C900086EC16F0E55227D026D0FE0EDB500E0D36
:103CA000F3CFE9FFF4CFEAFF1C0EE926030EEA2268
:103CB0000B0EE926000EEA22EF50E66EFE0EDBCF79
:103CC000E6FF4CDAE552E552E66AFE0EDBCFE6FF90
:103CD000EFEC41F0E552E552FE0EDBCFE6FF86EC5D
:103CE00016F0E55200D02ED2090EE66EFE0EDBCFA6
:103CF000E6FF06EC55F0E552E552E66EFE0EDB50AF
:103D00000E0DF3CFE9FFF4CFEAFF1C0EE926030EF8
:103D1000EA220B0EE926000EEA22E552E750EF6E8A
:103D2000FF0A12E0FF0A01E010D0E66AFE0EDBCFC8
:103D3000E6FFEFEC41F0E552E552FE0EDBCFE6FF89
:103D400086EC16F0E55227D026D0FE0EDB500E0D85
:103D5000F3CFE9FFF4CFEAFF1C0EE926030EEA22B7
:103D60000B0EE926000EEA22EF50E66EFE0EDBCFC8
:103D7000E6FFF4D9E552E552E66AFE0EDBCFE6FF38
:103D8000EFEC41F0E552E552FE0EDBCFE6FF86ECAC
:103D900016F0E55200D0D6D10A0EE66EFE0EDBCF4D
:103DA000E6FF06EC55F0E552E552E66EFE0EDB50FE
:103DB0000E0DF3CFE9FFF4CFEAFF1C0EE926030E48
:103DC000EA220B0EE926000EEA22E552E750EF6EDA
:103DD000FF0A12E0FF0A01E010D0E66AFE0EDBCF18
:103DE000E6FFEFEC41F0E552E552FE0EDBCFE6FFD9
:103DF00086EC16F0E55227D026D0FE0EDB500E0DD5
:103E0000F3CFE9FFF4CFEAFF1C0EE926030EEA2206
:103E10000B0EE926000EEA22EF50E66EFE0EDBCF17
:103E2000E6FF9CD9E552E552E66AFE0EDBCFE6FFDF
:103E3000EFEC41F0E552E552FE0EDBCFE6FF86ECFB
:103E400016F0E55200D07ED10B0EE66EFE0EDBCFF3
:103E5000E6FF06EC55F0E552E552E66EFE0EDB504D
:103E60000E0DF3CFE9FFF4CFEAFF1C0EE926030E97
:103E7000EA220B0EE926000EEA22E552E750EF6E29
:103E8000FF0A12E0FF0A01E010D0E66AFE0EDBCF67
:103E9000E6FFEFEC41F0E552E552FE0EDBCFE6FF28
:103EA00086EC16F0E55227D026D0FE0EDB500E0D24
:103EB000F3CFE9FFF4CFEAFF1C0EE926030EEA2256
:103EC0000B0EE926000EEA22EF50E66EFE0EDBCF67
:103ED000E6FF44D9E552E552E66AFE0EDBCFE6FF87
:103EE000EFEC41F0E552E552FE0EDBCFE6FF86EC4B
:103EF00016F0E55200D026D1FE0EDBCFE6FFC0EC77
:103F00004BF0E552E66EFE0EDB500E0DF3CFE9FFEF
:103F1000F4CFEAFF1C0EE926030EEA220B0EE92677
:103F2000000EEA22E552E750EF6EFF0A12E0FF0AA8
:103F300001E010D0E66AFE0EDBCFE6FFEFEC41F0C9
:103F4000E552E552FE0EDBCFE6FF86EC16F0E552B9
:103F500057D056D0FE0EDB500E0DF3CFE9FFF4CF55
:103F6000EAFF1C0EE926030EEA220B0EE926000EDC
:103F7000EA22EF50E66EFE0EDBCFE6FFEFD8E55209
:103F8000E552FE0EDB500E0DF3CFE9FFF4CFEAFF52
:103F90001C0EE926030EEA22060EE926000EEA228E
:103FA000EF50E66EFE0EDB500E0DF3CFE9FFF4CFBF
:103FB000EAFF1C0EE926030EEA22070EE926000E90
:103FC000EA22E552E750EF6EE66AFE0EDBCFE6FF2F
:103FD000EFEC41F0E552E552FE0EDB500E0DF3CF53
:103FE000E9FFF4CFEAFF1C0EE926030EEA22090ED0
:103FF000EF6EFE0EDBCFE6FF86EC16F0E55200D04A
:10400000A1D0FE0EDBCFE6FF42EC16F0E552FE0E2D
:10401000DB500E0DF3CFE9FFF4CFEAFF1C0EE926CB
:10402000030EEA22EF6A8ED0010EE66EFE0EDBCFA3
:10403000E6FF76EC41F0E552E552E66AFE0EDBCF94
:10404000E6FFEFEC41F0E552E552FE0EDBCFE6FF76
:1040500086EC16F0E55276D0E66AFE0EDBCFE6FF80
:1040600076EC41F0E552E552E66AFE0EDBCFE6FF64
:10407000EFEC41F0E552E552FE0EDBCFE6FF86ECB9
:1040800016F0E5525FD0010EE66EFE0EDBCFE6FFC6
:1040900090EC41F0E552E552E66AFE0EDBCFE6FF1A
:1040A000EFEC41F0E552E552FE0EDBCFE6FF86EC89
:1040B00016F0E55247D0E66AFE0EDBCFE6FF90EC45
:1040C00041F0E552E552E66AFE0EDBCFE6FFEFEC8B
:1040D00041F0E552E552FE0EDBCFE6FF86EC16F02E
:1040E000E55230D0010EE66EFE0EDBCFE6FFAAEC05
:1040F00041F0E552E552E66AFE0EDBCFE6FFEFEC5B
:1041000041F0E552E552FE0EDBCFE6FF86EC16F0FD
:10411000E55218D0E66AFE0EDBCFE6FFAAEC41F0CE
:10412000E552E552E66AFE0EDBCFE6FFEFEC41F02A
:10413000E552E552FE0EDBCFE6FF86EC16F0E552C7
:1041400001D000D001D000D0FE0EDBCFE6FF14EC92
:104150000DF0E552E552E7CFD9FF1200D9CFE6FFC7
:10416000E1CFD9FFFD0EDB500E0A25E0030A1CE06B
:10417000010A13E0070A0AE0010A01E023D0FE0E5B
:10418000DBCFE6FF50EC17F0E55223D0FE0EDBCF7D
:10419000E6FFECEC16F0E5521CD0FE0EDBCFE6FF9E
:1041A00072EC17F0E55215D0FE0EDBCFE6FF94EC73
:1041B00017F0E5520ED0FE0EDBCFE6FFB6EC17F09F
:1041C000E55207D0FE0EDBCFE6FF30EC17F0E552EC
:0A41D00000D0E552E7CFD9FF12003E
:0641DA00D9CFE6FFE1CFA2
:1041E000D9FF050EE12678C3DFFF010E79C3DBFF9F
:1041F000020E7AC3DBFF030E7BC3DBFFFB0EDBCFBC
:1042000014F0FC0EDBCF15F0FD0EDBCF16F0FE0E2A
:10421000DBCF17F014501510161017100BE1010E1C
:10422000F36EFB0EF3CFDBFFFC0EDB6AFD0EDB6AE9
:10423000FE0EDB6AFB0EDBCF78F3FC0EDBCF79F3EF
:10424000FD0EDBCF7AF3FE0EDBCF7BF3040EDB6AD1
:10425000100EF36E040EDBCFF4FFF350F45C04E2B7
:1042600018D8040EDB2AF4D7DECF06F0DECF07F035
:10427000DECF08F0DDCF09F0DD52DD5200D0050EB3
:10428000E15C02E2E16AE552E16EE552E7CFD9FF77
:104290001200D9CFE6FFE1CFD9FFE652DF6A0F0E59
:1042A000DF5C3AE278C314F079C315F07AC316F0F4
:1042B0007BC317F0D890173216321532143278C3F8
:1042C00018F079C319F07AC31AF07BC31BF0010E02
:1042D0001816196A1A6A1B6A000E186C191E192220
:1042E0001A1E1A221B1E1B22010E1816196A1A6AA0
:1042F000D00E1B16145018180301786F155019189A
:104300000301796F16501A1803017A6F17501B18A2
:1043100003017B6FDF2AC3D778C3F3FF79C3F4FFB0
:1043200000D0E552E552E7CFD9FF1200D9CFE6FF22
:10433000E1CFD9FF140EE1260F0EC2CFDBFF100E26
:10434000C0CFDBFF110ED5CFDBFF130ED6CFDBFFC7
:10435000120ED7CFDBFF010EC26E3F0EC06E880E6D
:10436000D56EDF6A070EDB6A080EDB6A090EDB6AB0
:104370000A0EDB6A050EDB6A060EDB6A8ADFF3CF04
:1043800014F0F4CF15F00B0E14C0DBFF0C0E15C0AB
:10439000DBFF0D0EDB6A0E0EDB6AD76AD66AC282BD
:1043A0000400C2B2FED7030ED6CFDBFF040ED7CF78
:1043B000DBFF6FDFDE52F3CFDEFFF4CFDDFFDD5238
:1043C000030EDBCF14F0040EDBCF15F0166A176A6C
:1043D000D950070FE96EDACFEAFF1450EE261550D8
:1043E000EE221650EE221750EE22D950070FE96E3A
:1043F000DACFEAFF1A0EEE5CF20EEE589E0EEE5881
:10440000000EEE581DE345DFF3CF14F0F4CF15F0A6
:10441000D9500B0FE96EDACFEAFF1450EE1A15509F
:10442000ED1A37DFF3CF14F0F4CF15F0D9500D0F9C
:10443000E96EDACFEAFF1450EE1A1550ED1A5CD08F
:10444000050EDBCF14F0060EDBCF15F0030EDB50AC
:10445000141803E1040EDB50151801E19ED7050E78
:10446000DBCF1AF0060EDBCF1BF0030EDB501A5C1D
:10447000186E040EDB501B58196E010EDB50182409
:10448000146E020EDB501920156E166A176A14C0DE
:10449000E6FF15C0E6FF16C0E6FF17C0E6FF9DDE8B
:1044A000E552E552E552E552030EDBCF08F0040E6B
:1044B000DBCF09F0050E08C0DBFF060E09C0DBFFED
:1044C000D9500B0FE96EDACFEAFFD890EF36010E24
:1044D000EB36020EEB36030EEB36DBDEF350800BD1
:1044E00007E0D9500B0FE96EDACFEAFFEE80ED520C
:1044F000DF2A01E101D051D70F0EDB50C26E100E42
:10450000DB50C06E120EDB50D76E130EDB50D66E32
:10451000110EDB50D56E0B0EDBCF14F00C0EDBCF83
:1045200015F00D0EDBCF16F00E0EDBCF17F014C01A
:1045300006F015C007F016C008F017C009F000D04B
:10454000140EE15C02E2E16AE552E16EE552E7CF6A
:10455000D9FF1200D9CFE6FFE1CFD9FF070EE12640
:10456000050EDB6A060EDB6ADE6ADE6ADE6ADD6A7B
:10457000DD52DD52FD0EDBCFE9FFDB2AFE0EDBCF85
:10458000EAFF01E3DB2A040EEFCFDBFFEF5001E18E
:10459000BBD0060EDB50030801E2B6D0300E146E1D
:1045A000040EDBCFE7FF1450E75E040EE7CFDBFF1E
:1045B000050EDB5007E1040EDB50090802E2000E95
:1045C000E7D08FD0050EDB50030844E1040EDB502A
:1045D000FE0802E0000EDCD0D9CFE9FFDACFEAFF17
:1045E000D880050EEE54050EEE54020EEE54000E69
:1045F000EE5402E2000ECCD0010EDB500A0DF3CFD8
:1046000016F0020EDB50640DF3501624DF24E66E24
:10461000FB0EDBCFE9FFFC0EDBCFEAFFE9CF14F0A6
:10462000EACF15F0060EDBCFF3FFDB2AF3500F01C4
:104630001424E96E000E1520EA6EE552E750EF6E85
:10464000050EDB6ADE6ADE6ADE6ADD6ADD52DD5295
:1046500091D747D0040EDB50FE083DE1D9CFE9FFEA
:10466000DACFEAFFD880050EEE54050EEE54020EA6
:10467000EE54000EEE5402E2000E8AD0010EDB5022
:104680000A0DF3CF16F0020EDB50640DF350162422
:10469000DF24E66EFB0EDBCFE9FFFC0EDBCFEAFF8B
:1046A000E9CF14F0EACF15F0060EDBCFF3FFDB2ADB
:1046B000F3500F011424E96E000E1520EA6EE55246
:1046C000E750EF6E050EDB6ADE6ADE6ADE6ADD6ADF
:1046D000DD52DD524FD7040EDB50090802E2000E16
:1046E00057D0050EDB2AD9CFE9FFDACFEAFFEF502A
:1046F000EE6AEFCFF4FFEE6EEF50F4CFEEFFEF6E09
:10470000040EDB50DF6E36D7040EDB5016E0040ECD
:10471000DB502F0812E0040EDB500D080EE0040EF3
:10472000DB500A080AE0040EDB50200806E0040E05
:10473000DB50090802E0000E2BD0D9CFE9FFDACF19
:10474000EAFFD880050EEE54050EEE54020EEE542C
:10475000000EEE5402E2000E1BD0010EDB500A0DDB
:10476000F3CF14F0020EDB50640DF3501424DF2459
:10477000E66EFB0EDBCFE9FFFC0EDBCFEAFF030E9C
:10478000E926000EEA22E552E750EF6E010E00D056
:10479000146E070EE15C02E2E16AE552E16E14502C
:1047A000E552E7CFD9FF1200D9CFE6FFE1CFD9FF1D
:1047B000070EE126050EDB6A060EDB6ADE6ADE6A9C
:1047C000DE6ADD6ADD52DD52D950FC0FE96EFF0E64
:1047D000DA20EA6EEFCFF6FFEE2AEFCFF7FF000EFA
:1047E000EE22EFCFF8FF000EEE220800040EF5CF08
:1047F000DBFFF55001E1BBD0060EDB50030801E200
:10480000B6D0300E146E040EDBCFE7FF1450E75E17
:10481000040EE7CFDBFF050EDB5007E1040EDB5093
:10482000090802E2000EE7D08FD0050EDB50030826
:1048300044E1040EDB50FE0802E0000EDCD0D9CFCC
:10484000E9FFDACFEAFFD880050EEE54050EEE54EC
:10485000020EEE54000EEE5402E2000ECCD0010E19
:10486000DB500A0DF3CF16F0020EDB50640DF3504F
:104870001624DF24E66EFA0EDBCFE9FFFB0EDBCF5A
:10488000EAFFE9CF14F0EACF15F0060EDBCFF3FF15
:10489000DB2AF3500F011424E96E000E1520EA6E96
:1048A000E552E750EF6E050EDB6ADE6ADE6ADE6A0D
:1048B000DD6ADD52DD5288D747D0040EDB50FE089A
:1048C0003DE1D9CFE9FFDACFEAFFD880050EEE54FB
:1048D000050EEE54020EEE54000EEE5402E2000EEF
:1048E0008AD0010EDB500A0DF3CF16F0020EDB501A
:1048F000640DF3501624DF24E66EFA0EDBCFE9FFD9
:10490000FB0EDBCFEAFFE9CF14F0EACF15F0060E7D
:10491000DBCFF3FFDB2AF3500F011424E96E000E06
:104920001520EA6EE552E750EF6E050EDB6ADE6A8F
:10493000DE6ADE6ADD6ADD52DD5246D7040EDB50E8
:10494000090802E2000E57D0050EDB2AD9CFE9FF95
:10495000DACFEAFFEF50EE6AEFCFF4FFEE6EEF50E2
:10496000F4CFEEFFEF6E040EDB50DF6E2DD7040E9A
:10497000DB5016E0040EDB502F0812E0040EDB5073
:104980000D080EE0040EDB500A080AE0040EDB50AE
:10499000200806E0040EDB50090802E0000E2BD0D0
:1049A000D9CFE9FFDACFEAFFD880050EEE54050E25
:1049B000EE54020EEE54000EEE5402E2000E1BD036
:1049C000010EDB500A0DF3CF14F0020EDB50640D24
:1049D000F3501424DF24E66EFA0EDBCFE9FFFB0E62
:1049E000DBCFEAFF030EE926000EEA22E552E7508C
:1049F000EF6E010E00D0146E070EE15C02E2E16A78
:104A0000E552E16E1450E552E7CFD9FF1200D9CF3D
:104A1000E6FFE1CFD9FF060EE126050EDB6AD9508D
:104A2000FD0FE96EFF0EDA20EA6EEE50ED1001E1A7
:104A300078D0DF6A100EF36E030EF3CFDBFF270E84
:104A4000F36E040EF3CFDBFF050EDF5C69E2FD0EB3
:104A5000DBCF08F0FE0EDBCF09F0030EDBCF0DF04D
:104A6000040EDBCF0EF08EEC66F0DE5208C0DEFFE7
:104A700009C0DDFFDD52D950010FE96EDACFEAFF40
:104A8000EE50ED1003E1050EDB5036E0010EDBCFFA
:104A900014F0020EDBCF15F0300E1426000E152296
:104AA000FB0EDBCFE9FFDB2AFC0EDBCFEAFF01E3E5
:104AB000DB2A14C0EFFF010EDBCF08F0020EDBCFC4
:104AC00009F0030EDBCF0DF0040EDBCF0EF070EC1F
:104AD00066F006C014F007C015F0D950FD0FE96E5E
:104AE000FF0EDA20EA6E1450EE5E1550ED5A010EFC
:104AF000F36E050EF3CFDBFFD950030FE96EDACF6B
:104B0000EAFF0A0E0D6E0E6AEECF08F0EDCF09F047
:104B10008EEC66F008C0EEFF09C0EDFFDF2A94D7E7
:104B20000BD0FB0EDBCFE9FFDB2AFC0EDBCFEAFF6D
:104B300001E3DB2A300EEF6EFB0EDBCFE9FFFC0E4C
:104B4000DBCFEAFFEF6A060EE15C02E2E16AE552C2
:104B5000E16EE552E7CFD9FF1200D9CFE6FFE1CFF2
:104B6000D9FFFE0EDB5046080AE2200E146EFE0E40
:104B7000DBCFE7FF1450E75EFE0EE7CFDBFFFD0E55
:104B8000DB5046080AE2200E146EFD0EDBCFE7FF75
:104B90001450E75EFD0EE7CFDBFFFE0EDB50390859
:104BA0000BE2370E146EFE0EDBCFE7FF1450E75E0C
:104BB000FE0EE7CFDBFF0AD0300E146EFE0EDBCF09
:104BC000E7FF1450E75EFE0EE7CFDBFFFD0EDB5084
:104BD00039080BE2370E146EFD0EDBCFE7FF1450E1
:104BE000E75EFD0EE7CFDBFF0AD0300E146EFD0E40
:104BF000DBCFE7FF1450E75EFD0EE7CFDBFFFD0ED6
:104C0000DBCFE6FFFE0EDB38F00BE552E71000D0FD
:104C1000E552E7CFD9FF1200D9CFE6FFE1CFD9FFA8
:104C2000FE0EDB380F0BF36EFE0EF3CFDBFFFE0E36
:104C3000DB50090805E2FE0EDB50410FF60F03D0F2
:104C4000FE0EDB50300F00D0E552E7CFD9FF120047
:104C5000D9CFE6FFE1CFD9FFFE0EDB98DB9ADB9CD4
:104C6000DB9EFE0EDB50090805E2FE0EDB50410F15
:104C7000F60F03D0FE0EDB50300F00D0E552E7CF29
:104C8000D9FF1200D9CFE6FFE1CFD9FF020EE1260E
:104C9000FD0EDBCFE9FFFE0EDBCFEAFFEFCFDFFF3C
:104CA000FA0EDBCFF6FFFB0EDBCFF7FFFC0EDBCF00
:104CB000F8FF0800010EF5CFDBFFDF5054E0010ED6
:104CC000DB5051E0610EDF5C05E3DF507A0802E360
:104CD000200EDF5E610EF36E010EDBCFF4FFF350AA
:104CE000F45C0EE3010EDB507A080AE3200E146E2A
:104CF000010EDBCFE7FF1450E75E010EE7CFDBFFCD
:104D0000010EDB50D880DF5402E2010E3BD0010ED1
:104D1000DB50DF5C02E2FF0E35D0FD0EDB2AFE0E1B
:104D200001E3DB2AD950FA0FE96EFF0EDA20EA6EB2
:104D3000EE2A000EEE22000EEE22FD0EDBCFE9FF82
:104D4000FE0EDBCFEAFFEFCFDFFFFA0EDBCFF6FF81
:104D5000FB0EDBCFF7FFFC0EDBCFF8FF0800010EE8
:104D6000F5CFDBFFAAD7010EDB50D880DF5402E27B
:104D7000010E08D0010EDB50DF5C02E2FF0E02D014
:104D8000000E00D0146E020EE15C02E2E16AE55210
:104D9000E16E1450E552E7CFD9FF1200D9CFE6FFFC
:104DA000E1CFD9FF030EE126FD0EDBCFDEFFDBCF27
:104DB000DDFF010EDB50E76E020EE7CFDBFF010ED9
:104DC000DFCFDBFF020EDB50DF6EDECF14F0DDCF76
:104DD00015F014C0F3FF15C0F4FF00D0030EE15C22
:104DE00002E2E16AE552E16EE552E7CFD9FF120037
:104DF000D9CFE6FFE1CFD9FFFB0EDBCFE7FFFE0EF9
:104E0000DB50E71AFB0EE7CFDBFFFE0EDBCFE7FF41
:104E1000FB0EDB50E71AFE0EE7CFDBFFFB0EDBCF0E
:104E2000E7FFFE0EDB50E71AFB0EE7CFDBFFFC0EC1
:104E3000DBCFE7FFFD0EDB50E71AFC0EE7CFDBFF11
:104E4000FD0EDBCFE7FFFC0EDB50E71AFD0EE7CFD0
:104E5000DBFFFC0EDBCFE7FFFD0EDB50E71AFC0E9D
:104E6000E7CFDBFFFB0EDBCF14F0FC0EDBCF15F042
:104E7000FD0EDBCF16F0FE0EDBCF17F014C006F0F0
:104E800015C007F016C008F017C009F000D0E552B1
:104E9000E7CFD9FF1200D9CFE6FFE1CFD9FF080E47
:104EA000E126FB0EDBCF14F0FC0EDBCF15F0D89023
:104EB0001532143214C0DEFF15C0DDFFFD0EDBCF4E
:104EC00008F0FE0EDBCF09F0020E08C0DBFF030E78
:104ED00009C0DBFF040EDB6A050EDB6A060EDB6A27
:104EE000070EDB6ADFCF14F0DF06010EDBCF15F013
:104EF00001E2DB061450151025E0D950020FE96ECF
:104F0000DACFEAFFEECFF3FFEDCFF4FF020EEE268D
:104F1000000EEF22F3CFE9FFF4CFEAFFEECF14F05B
:104F2000EFCF15F0166A176AD950040FE96EDACF81
:104F3000EAFF1450EE261550EE221650EE221750BE
:104F4000EE22D0D7FB0EDB50010B18E0020EDBCFB8
:104F5000E9FF030EDBCFEAFFEFCF14F0156A166A04
:104F6000176AD950040FE96EDACFEAFF1450EE2623
:104F70001550EE221650EE221750EE22060EDBCF11
:104F800016F0070EDBCF17F0040EDB501624146E5C
:104F9000050EDB501720156E040E14C0DBFF050E46
:104FA00015C0DBFF060EDB6A070EDB6A060EDBCFE1
:104FB00014F0070EDBCF15F0D950040FE96EDACFED
:104FC000EAFF1450EE261550ED22040EDB1C146E81
:104FD000050EDB1C156E14C0F3FF15C0F4FF00D0E6
:104FE000080EE15C02E2E16AE552E16EE552E7CFCC
:104FF000D9FF1200D9CFE6FFE1CFD9FF020EE1269B
:10500000FB0EDBCF68F3FC0EDBCF69F3FD0EDBCFCD
:105010006AF3FE0EDBCF6BF3FA0EDB50DF6E080E89
:10502000DF5C0FE3010E6BC3DBFF6AC36BF369C385
:105030006AF368C369F3010EDBCF68F3080EDF5E25
:10504000EED7DF500AE00301D8906BBFD8806837F5
:1050500069376A376B37DF06F4D768C306F069C370
:1050600007F06AC308F06BC309F000D0020EE15CE0
:1050700002E2E16AE552E16EE552E7CFD9FF1200A4
:10508000D9CFE6FFE1CFD9FFE6520F0EE76EFD0E56
:10509000DBCFE9FFFE0EDBCFEAFFE750E926000E8B
:1050A000EA22EF6AFD0EDBCFE6FFFE0EDBCFE6FF66
:1050B000F2EC62F0E552E552DF6A0F0EDF5C24E2AB
:1050C000DF50E76EFD0EDBCFE9FFFE0EDBCFEAFF20
:1050D000E750E926000EEA22EF5014E10F0EDF5CE4
:1050E00010E2DF50DF2AE76EFD0EDBCFE9FFFE0E98
:1050F000DBCFEAFFE750E926000EEA22200EEF6E32
:10510000EDD702D0DF2AD9D7E552E552E7CFD9FF54
:105110001200D9CFE6FFE1CFD9FFE652FB0EDBCF7D
:1051200014F0DB06FC0EDBCF15F001E2DB061450B9
:10513000151023E0FD0EDBCFE9FFDB2AFE0EDBCFEF
:10514000EAFF01E3DB2AEFCFDFFFDF5003E1F36A81
:10515000F46A16D0FA0EDB50DF5C0EE1FD0EDB06C2
:10516000DBCF14F0FE0E01E2DB06DBCF15F014C03E
:10517000F3FF15C0F4FF04D0D1D7F36AF46A00D06E
:0A518000E552E552E7CFD9FF120017
:06518A00D9CFE6FFE1CFE2
:10519000D9FFE652DF6A050EDF5C06E2DFCFE6FFED
:1051A000E3D8E552DF2AF7D70001AF83E552E55295
:1051B000E7CFD9FF1200030182691200D9CFE6FFC1
:1051C000E1CFD9FF030EE126D950010FE96EDACF06
:1051D000EAFF600EEE6E000EED6EDF6A050EDF5C1C
:1051E00001E3B4D0010EDBCFE9FF020EDBCFEAFF13
:1051F0000C0EE926000EEA22EECF14F0EFCF15F0E8
:10520000166A176A145015101610171001E093D083
:10521000010EDBCFE9FF020EDBCFEAFF0C0EE92621
:10522000000EEA22FD0EDBCFEEFFFE0EDBCFEDFF20
:10523000D950FD0FE96EFF0EDA20EA6EEE50ED1048
:1052400027E10001000ED880B055200EB15506E3CD
:105250000001000EB05D100EB15904E20001B06B08
:10526000100EB16F0001B0C014F0B1C015F0B02B3A
:10527000000EB123010EDBCFE9FF020EDBCFEAFF08
:105280000C0EE926000EEA2214C0EEFF15C0EDFF59
:10529000D950FB0FE96EFF0EDA20EA6EEE50ED10EA
:1052A0001EE00A0EE66EE66AFB0EDBCFE6FFFC0EA2
:1052B000DBCFE6FF010EDBCFE9FF020EDBCFEAFF1B
:1052C000E9CF14F0EACF15F014C0E6FF15C0E6FFF1
:1052D00057EC62F0166E060EE15E165018D00A0EFC
:1052E000E66EE66AE668010EDBCFE9FF020EDBCF71
:1052F000EAFFE9CF14F0EACF15F014C0E6FF15C0BD
:10530000E6FFA5EC62F0166E050EE15E1650010E8A
:10531000DBCFE9FF020EDBCFEAFF0A0EE926000E23
:10532000EA22F90EDBCFEEFFFA0EDBCFEDFFDFCF87
:10533000A6F0DF500DD0D950010FE96EDACFEAFFA9
:105340000E0EEE26000EEF22DF2A48D7FF0E00D009
:10535000146E030EE15C02E2E16AE552E16E145064
:10536000E552E7CFD9FF1200D9CFE6FFE1CFD9FF51
:10537000050EF36EFE0EDBCFF4FFF350F45C01E399
:1053800020D0FE0EDB500E0DF3CFE9FFF4CFEAFF85
:10539000600EE926000EEA220C0EE926000EEA2233
:1053A000EE6AED6AFE0EDB500E0DF3CFE9FFF4CF8F
:1053B000EAFF600EE926000EEA22EE6AEE6AEE6A65
:1053C000EE6AE552E7CFD9FF1200D9CFE6FFE1CF71
:1053D000D9FF080EE76EFD0EDBCF14F0FE0EDBCF1B
:1053E00015F0E7501426000E1522166A176A0B0EE8
:1053F00014261A0E1522000E1622000E17220E0E6B
:105400001426000E1522000E1622000E1722140E6E
:105410001426000E1522000E1622000E172214C0AC
:10542000E6FF15C0E6FFACEC32F0E552E552FD0EAA
:10543000DBCFABF0FE0EDBCFACF0E552E7CFD9FF10
:105440001200D9CFE6FFE1CFD9FF080EE76EFD0EBF
:10545000DBCF14F0FE0EDBCF15F0E7501426000E64
:10546000152214C0E6FF15C0E6FFFFEC5AF0E55226
:10547000E552FD0EDBCFADF0FE0EDBCFAEF0E55218
:10548000E7CFD9FF1200D9CFE6FFE1CFD9FF64EC17
:1054900030F0000903E1F36AF46A31D0FE0EDB500C
:1054A0000301825D0CE0FE0EDBCF82F30001A76BEF
:1054B000A86B000EE66EE66A88DFE552E552FE0E46
:1054C000DBCFA6F0C00E186E050E196E1A6A1B6AA5
:1054D000A7C01CF0A8C01DF01E6A1F6A1C50185CF3
:1054E000146E1D501958156E1E501A58166E1F5006
:1054F0001B58176E14C0F3FF15C0F4FF00D0E5521F
:10550000E7CFD9FF1200D9CFE6FFE1CFD9FFABC07B
:1055100014F0ACC015F0166A176AC00E145C050EC4
:105520001558000E1658000E175802E3000E19D039
:10553000FE0EDBCFE6FFE7EC35F0E5520001AB2BCA
:10554000000EAC230001AB510001A75D0001AC517E
:105550000001A85904E2ABC0A7F0ACC0A8F0010E4E
:1055600000D0E552E7CFD9FF1200D9CFE6FFE1CF57
:10557000D9FF020EE126C00E186E050E196E1A6ACA
:105580001B6AABC01CF0ACC01DF01E6A1F6A1C5029
:10559000185C146E1D501958156E1E501A58166E50
:1055A0001F501B58176E14C0DEFF15C0DDFFDECF85
:1055B00014F0DDCF15F0FB0EDBCF16F0FC0EDBCFC9
:1055C00017F01650145C175015580AE2D9CFE9FFAE
:1055D000DACFEAFFFB0EEECFDBFFFC0EEDCFDBFFF9
:1055E000FB0EDBCF08F0FC0EDBCF09F0085000010A
:1055F000AB2709500001AC230001AB510001A75DAE
:105600000001AC510001A85904E2ABC0A7F0ACC046
:10561000A8F0FB0EDBCFE6FFFC0EDBCFE6FFFD0EB6
:10562000DBCFE6FFFE0EDBCFE6FFF4EC35F0E55214
:10563000E552E552E552FB0EDBCF14F0FC0EDBCF5A
:1056400015F014C0F3FF15C0F4FF00D0020EE15CAA
:1056500002E2E16AE552E16EE552E7CFD9FF1200BE
:10566000D9CFE6FFE1CFD9FF020EE126C00E186EBA
:10567000050E196E1A6A1B6AABC01CF0ACC01DF097
:105680001E6A1F6A1C50185C146E1D501958156E46
:105690001E501A58166E1F501B58176E14C0DEFF8E
:1056A00015C0DDFFDECF14F0DDCF15F0FA0EDBCF35
:1056B00016F0FB0EDBCF17F01650145C1750155880
:1056C0000AE2D9CFE9FFDACFEAFFFA0EEECFDBFF2D
:1056D000FB0EEDCFDBFFFA0EDBCF08F0FB0EDBCFCE
:1056E00009F008500001AB2709500001AC2300016C
:1056F000AB510001A75D0001AC510001A85904E2C3
:10570000ABC0A7F0ACC0A8F0FA0EDBCFE6FFFB0EF3
:10571000DBCFE6FFFC0EDBCFE6FFFD0EDBCFE6FFC7
:10572000FE0EDBCFE6FF16EC36F0146E050EE15EE2
:105730001450FA0EDBCF14F0FB0EDBCF15F014C0C3
:10574000F3FF15C0F4FF00D0020EE15C02E2E16A53
:10575000E552E16EE552E7CFD9FF1200D9CFE6FF5F
:10576000E1CFD9FFFD0EDBCF16F0FE0EDBCF17F039
:1057700016C0E6FF17C0E6FFFD0EDBCFE6FFFE0E0C
:10578000DBCFE6FFBFEC62F0E552E552F3CF18F055
:10579000F4CF19F018C0E6FF19C0E6FFFD0EDBCF0D
:1057A000E6FFFE0EDBCFE6FFE0DEE552E552E55216
:1057B000E552E552E7CF17F0E552E7CF16F0165065
:1057C000F324146E1750F420156E14C0F3FF15C0A7
:1057D000F4FF00D0E552E7CFD9FF1200D9CFE6FFA2
:1057E000E1CFD9FFFC0EDBCFE6FFFD0EDBCFE6FFFE
:1057F000FE0EDBCFE6FFCDEC62F0E552E552E5525E
:1058000007C01AF008C01BF01AC0E6FF1BC0E6FF75
:10581000FC0EDBCFE6FFFD0EDBCFE6FFFE0EDBCF9F
:10582000E6FF1EDF1C6E050EE15E1C50F3CF17F085
:10583000F4CF18F0196AD950FC0FE96EFF0EDA2088
:10584000EA6EEE501724146EEE501820156EEE50CE
:105850001920166E14C007F015C008F016C009F024
:1058600000D0E552E7CFD9FF1200D9CFE6FFE1CF54
:10587000D9FF0C0EE1260001A6510E0DF3CF14F056
:10588000F4CF15F0600E1426000E1522080E14C079
:10589000DBFF090E15C0DBFF080E0001156AA72506
:1058A000146EA85115220A0E14C0DBFF0B0E15C092
:1058B000DBFF080EDBCFE9FF090EDBCFEAFF0C0EA2
:1058C000E926000EEA22EECFE6FFEFCFE6FFCEECB0
:1058D00026F0E552E552F3CFDEFFF4CFDDFF080EF0
:1058E000DBCFE9FF090EDBCFEAFF0A0EE926000E47
:1058F000EA22EECFE6FFEFCFE6FFCEEC26F0E55250
:10590000E552020EF3CFDBFF030EF4CFDBFF0A0EEE
:10591000DBCFE6FF0B0EDBCFE6FFCEEC26F0E55249
:10592000E552040EF3CFDBFF050EF4CFDBFF060ECE
:10593000DB6A070EDB6A190EE66E1A0EE66EACEC39
:1059400032F0E552E5520A0EDBCFE6FF0B0EDBCF5D
:10595000E6FF110EE66E080EDBCFE9FF090EDBCF86
:10596000EAFFE9CF14F0EACF15F014C0E6FF15C046
:10597000E6FF4CEC5AF0166E050EE15E1650080E6E
:10598000E66EE66AD9CFE6FFDACFE6FFF4EC35F053
:10599000E552E552E552E55251EC32F00001A76BB9
:1059A000A86B030182690C0EE15C02E2E16AE55238
:1059B000E16EE552E7CFD9FF1200D9CFE6FFE1CF84
:1059C000D9FFFE0EDBCFA6F0FE0EDB500301835D98
:1059D00003E0F36AF46A19D00001AFA108D0000116
:1059E000AF91000EE66EE66A2CDDE552E55200014D
:1059F000AD510001A95D146EAA510001AE55156E9E
:105A000014C0F3FF15C0F4FF00D0E552E7CFD9FF73
:105A10001200D9CFE6FFE1CFD9FF0001A951000163
:105A2000AD5D0001AA510001AE5905E20001A65189
:105A30000301835D02E0000E12D094EC35F0E66EB7
:105A4000FD0EDBCFE9FFFE0EDBCFEAFFE552E750AC
:105A5000EF6E0001AD2B000EAE23010E00D0E5521B
:105A6000E7CFD9FF1200D9CFE6FFE1CFD9FF020E71
:105A7000E1260001A9510001AD5D0001AA5100011C
:105A8000AE5905E20001A6510301835D03E0F36A0C
:105A9000F46A55D00001AD510001A95D146EAA5100
:105AA0000001AE55156E14C0DEFF15C0DDFFDECF60
