:0400000030EF00F0ED
:100008005B82D9CF44F0DACF45F0F2AC1FD00E01B5
:10001800C5BBCDAB12D09950F4EC05F09DA202D02F
:100028009D989D888BEC06F00E01CE95C685CDABCC
:100038000DD09950F4EC05F009D0C6B5CEA506D080
:10004800000E366E030E356EC695CE9545C0DAFFA6
:1000580044C0D9FF5B9211002AEF05F0000E0001A1
:10006800BC6F000EBB6F000EBE6F000EBD6F000EA2
:10007800C06F000EBF6F000EBA6F000EB96F03504D
:10008800486E0450BB6F48C0BCF00550486E06501F
:10009800BD6F48C0BEF00150D8A431D0000EC06F6B
:1000A800000EBF6F25D0BF51020DF350090FD96E56
:1000B800DA6ADF50486EBF51020DF350080FD96E4F
:1000C800DA6ADF50496E4850B96F49C0BAF0BF517B
:1000D800020DF3CF48F0BB51020DF350170F48241F
:1000E800D96EDA6AB9C0DEFFBAC0DDFFBF4BC02BDC
:1000F800BD51BF5DBE51C059D8B01200D4D7BD5153
:10010800BB25486EBE51BC21496E495004E1050E1D
:10011800485CD8A006D0100E466E030EE1EC05F040
:100128001200100E616F52C060F0000E756F040E61
:10013800746F03C062F004C063F005C064F006C0C9
:1001480065F0000EC06F000EBF6F25D0BF51020DC5
:10015800F350090FD96EDA6ADF50486EBF51020DAD
:10016800F350080FD96EDA6ADF50496E4850B96FFC
:1001780049C0BAF0BF51020DF3CF48F0BB51020D90
:10018800F350170F4824D96EDA6AB9C0DEFFBAC037
:10019800DDFFBF4BC02BBD51BF5DBE51C059D8A0BC
:1001A800D5D75DEC06F012000E01CAAB12002BD0B9
:1001B8002D502E10D8B462D084822DC027F02EC0C6
:1001C80028F0000E246E010E18D027502D1804E1D7
:1001D80028502E18D8B407D027502D1804E12850DD
:1001E8002E18D8B44BD08492000E286E000E276EBD
:1001F800000E2E6E000E2D6E02D0236E3FD0000E24
:10020800246E000EFAD723C046F024C047F04750AA
:10021800000AD8A4F4D74650000AD8B4C9D7010AAE
:10022800D8B4D3D7ECD72B502C10D8B437D084847B
:100238002BC025F02CC026F0000E226E010E18D01F
:1002480025502B1804E126502C18D8B407D0255077
:100258002B1804E126502C18D8B420D08494000E12
:10026800266E000E256E000E2C6E000E2B6E02D030
:10027800216E14D0000E226E000EFAD721C046F06F
:1002880022C047F04750000AD8A4F4D74650000AC5
:10029800D8B4C9D7010AD8B4D3D7ECD7CA9B9EEC37
:1002A80006F0120018EC04F04F6E030E4F18D8A495
:1002B8002CD076C001F053685468530E466E015036
:1002C80001EC05F077C002F0530E466E025001ECC7
:1002D80005F0000E166E000E156E020E506E0DD053
:1002E8005050760FD96EDA6A1550030FE16EE26A44
:1002F800DFCFE7FF154A162A502A3E50505CD8A097
:10030800EFD7020E3B6E000E3E6E50EC06F0020E6A
:100318003B18D8A41200165004E1020E155CD8A0B0
:100328001200020E155E000E165A000E506E0AD00C
:10033800530E466E5050030FD96EDA6ADF5001EC47
:1003480005F0502A50504A6E4B6A15504A5C1650B8
:100358004B58D8A0EDD71550040FD96EDA6ADF5084
:100368004A6E4A504C6E4B6A1550030FD96EDA6AC2
:10037800DF504D6E4E6A4B504D264C504E22535016
:100388004D1809E154504E18D8A405D02B4A2C2AF0
:10039800010E3A6E01D000F0000E3B6E12001F50A5
:1003A800171804E120501818D8B4120017C01FF00D
:1003B80018C020F08380838283848386838885881D
:1003C800858A858C858E84801FD084901200859EB6
:1003D8001200859C1200859A120085981200839855
:1003E8001200839612008394120083921200839065
:1003F8001200838083828384838683888588858AA4
:10040800858C858E8480120017C046F018C047F08E
:100418004750000AD8B407D0010AD8B41ED0030A3E
:10042800D8B420D0E6D74650010AD8B4CED7030AAC
:10043800D8B4CDD7060AD8B4CCD70C0AD8B4CBD701
:10044800180AD8B4CAD7300AD8B4C9D7600AD8B4F9
:10045800C8D7C00AD8B4C7D7CCD74650000AD8B432
:10046800C4D7C7D74650000AD8B4C1D7C2D7000EE0
:100478004B6E000E4A6E000E4D6E000E4C6E035011
:10048800486E04504A6E48C04BF00550486E0650FE
:100498004C6E48C04DF00150D8B412004C504A245C
:1004A800486E4D504B20496E495004E1070E485C98
:1004B800D8A006D0040E466E020EE1EC05F012003C
:1004C800040E0001616F52C060F0000E756F010EDE
:1004D800746F000E626F000E516E000E506E23D0C6
:1004E8005050020DF3CF48F04A50020DF350880FD8
:1004F8004824D96EDA6ADECF4EF0DDCF4FF0745162
:10050800620FD96EDA6A4FC0DFFF7451630FD96E7C
:10051800DA6A4EC0DFFF020E7427000E75237405D9
:10052800626F504A512A4C50505C4D505158D8A0D7
:10053800D7D75DEC06F01200000E4B6E000E4A6E27
:10054800000E4D6E000E4C6E0350486E04504A6EFD
:1005580048C04BF00550486E06504C6E48C04DF0F0
:100568000150D8B412004C504A24486E4D504B20CC
:10057800496E495004E1050E485CD8A006D0030E28
:10058800466E020EE1EC05F01200030E0001616FE9
:1005980052C060F0000E756F010E746F000E626F2E
:1005A800000E516E000E506E23D05050020DF3CF46
:1005B80048F04A50020DF350170F4824D96EDA6AF2
:1005C800DECF4EF0DDCF4FF07451620FD96EDA6A8C
:1005D8004FC0DFFF7451630FD96EDA6A4EC0DFFF78
:1005E800020E7427000E75237405626F504A512A53
:1005F8004C50505C4D505158D8A0D7D75DEC06F000
:100608001200000E4B6E000E4A6E000E4D6E000E6C
:100618004C6E0350486E04504A6E48C04BF005506B
:10062800486E06504C6E48C04DF00150D8B41200C8
:100638004C504A24486E4D504B20496E495004E1B5
:10064800030E485CD8A006D0080E466E020EE1ECF8
:1006580005F01200080E0001616F52C060F0000E34
:10066800756F010E746F000E626F000E516E000EF2
:10067800506E23D05050020DF3CF48F04A50020D6F
:10068800F3509C0F4824D96EDA6ADECF4EF0DDCFE6
:100698004FF07451620FD96EDA6A4FC0DFFF7451A0
:1006A800630FD96EDA6A4EC0DFFF020E7427000EA0
:1006B80075237405626F504A512A4C50505C4D5056
:1006C8005158D8A0D7D75DEC06F012005568566887
:1006D800000E306E000E2F6E2F50A20FD96EDA6A00
:1006E80060C0DFFF2F4A302A550E466E0001605168
:1006F80001EC05F02F50A20FD96EDA6A61C0DFFF56
:100708002F4A302A550E466E0001615101EC05F062
:10071800000E326E000E316E17D03150620FD96E56
:10072800DA6A2F50A20FE16EE26ADFCFE7FF2F4AA5
:10073800302A550E466E3150620FD96EDA6ADF5094
:1007480001EC05F0314A322A00017451315C7551CF
:100758003258D8A0E2D72F50A20FD96EDA6A55C006
:10076800DFFF2F4A302A2F50A20FD96EDA6A56C0FF
:10077800DFFF2F4A302A43EC06F0000E3C6E1200D1
:10078800000E4D6E000E4C6E000E4B6E000E4A6E43
:100798000350486E04504C6E48C04DF00550486EEA
:1007A80006504A6E48C04BF0060E0001616F52C0F9
:1007B80060F0000E756F040E746F0150D8A40BD052
:1007C8004C50020DF350170FD96EDA6A4AC0DEFF9B
:1007D8004BC0DDFF12004D5004E1040E4C5CD8A064
:1007E80006D0060E466E030EE1EC05F01AD04C500A
:1007F800020DF350170FD96EDA6A4AC0DEFF4BC0FC
:10080800DDFF000E4E6E4E50030FD96EDA6A4E5061
:10081800620FE16EE26ADFCFE7FF4E2A030E4E64F5
:10082800F2D75DEC06F01200040E3E643FD0525041
:1008380000017619D8B403D07651D8A433D07705FF
:10084800D8B418D0020E7719D8B414D0030E77197B
:10085800D8B410D0040E7719D8B40CD0050E771977
:10086800D8B408D0060E7719D8B404D0080E771972
:10087800D8A405D0000E496E080E486E19D00F0E88
:100888007719D8B404D0100E7719D8A407D0090E58
:100898007C25486E496A000E49220AD0000E3E6E39
:1008A800000E1200000E3E6E010E1200020E120023
:1008B8003E50466E476A48504618F8E14950471876
:1008C800D8A4F4D7030E12003C50D8A46AEC03F065
:1008D80056EC01F098EC06F00009D8B4120052501A
:1008E8000118D8B403D00150D8A4120000019C4BC1
:1008F8009D2B15D0A0EC02F023D03BEC02F020D0C9
:10090800C4EC03F01DD005EC03F01AD032EC00F073
:1009180017D002C046F0010EE1EC05F011D00250EC
:10092800030AD8B4E7D7070AD8B4E7D7020AD8B475
:10093800E7D70E0AD8B4E7D7180AD8B4E7D7E9D763
:100948002B4A2C2A1200920E7C6E7F0E7D6E000EB2
:10095800766E000E776E000E0F014F6F000E4B6F14
:10096800000E4A6F000E496F3F0E4E6F4D694C697D
:10097800000E506F800E486E050E476E48C07BFF14
:10098800050E7A6E49684A684AC077FF76687D38EE
:100998000F0B466E46280001B46F7D500F0B466E54
:1009A8004628B56F12001F0E836E010E846EF00E7E
:1009B800856EE00E886EC00E896E090E8A6E000E76
:1009C8000F01216F000E196F000E116F000E2D6FB1
:1009D800000E186FE00E106F000E206F000E0F6FE4
:1009E800000E176F000E1F6F0E6916691E69130E31
:1009F8000E01B56F090EF86F1200496E4650D96E98
:100A0800DA6ADECF47F0DDCF48F048C047F0486AE1
:100A18004750776E4650D96EDA6ADF50766E49C015
:100A280074FF7C8C7CBAFED7765077CF47F0486A43
:100A380047C048F0476A4712000E48124650D96E20
:100A4800DA6A47C0DEFF48C0DDFF1200660EF66EA8
:100A58000D0EF76E000EF86E00EE52F010EE05F077
:100A68000900F5CFEEFFE550E150FAE100EE60F045
:100A7800570EEE6AE806FDE100EE01F0410EEE6A5F
:100A8800E806FDE15B905B92000EF86E000117EF3F
:100A980006F08DCF46F0050E476ED8904632472EA9
:100AA800FCD7070E4616320E4624576E586A000EBB
:100AB8005822585004E1330E575CD8A009D058503A
:100AC80007E13C0E575CD8B003D0848A84961200A4
:100AD800849A8486FFD7000ECA6E000ECB6E010E74
:100AE800CC6EFE0EC86E700EC76EC750C8CF48F0E9
:100AF800496A48C049F0486A4810C36F4950C46FF2
:100B08000E01CE95C685000E466E000E476EA8EC07
:100B180006F0010EC96E12002D4A2E2A85840A0E8F
:100B2800E82EFED700D0000E4B6E000E4A6E09D09C
:100B380047504A24D96EDA6ADF5092EC06F04A4AE6
:100B48004B2A48504A5C49504B58D8A0F1D79EA22E
:100B5800FED785942D4A2E2A1200C59B000E466E9C
:100B6800000E476EA3EC06F0080E9F6E900E9D6E69
:100B7800240E9E6E070E9B6E000E9C6E000E416E3C
:100B8800000E406E000E3F6E0E01C58B1200480E1F
:100B9800D66EE70ED46E960ED36ED350D4CF46F0F1
:100BA800476A46C047F0466A4610596E47505A6E23
:100BB8000E01CA9B900ED56E1200476E0150D8B434
:100BC8001200465080090001616F47C062F052C0B0
:100BD80060F0000E756F010E746F5DEC06F0120088
:100BE800426E3E50760FD96EDA6A42C0DFFF3E2A67
:100BF800120E3E6402D0000E3E6E000E366E000EDF
:100C0800356E1200B6EC06F027EC06F0D7EC04F0CF
:100C18006AEC06F0A7EC04F06FEC05F0CBEC05F0FD
:100C2800B1EC05F0120006EC06F0F28EF28C4DECF9
:100C380005F0575075EC06F068EC04F0D3EC01F0C1
:100C4800D8EC00F0F9D7000E0E01E16F000EE26F4C
:100C5800000EE36F000EE46F000EE56F000EE66F06
:100C68001200C9A407D0C99043C0C8FF42C0C7FF3B
:100C7800C980120043C0C8FF42C0C7FF1200A20EBD
:100C8800476E2FC048F030C049F090EC05F0000ED8
:100C9800306E000E2F6E1200365004E1020E355CE5
:100CA800D8A01200000E366E000E356E000E3E6E95
:100CB80012003C50D8A4120000019E4B9F2B000E3E
:100CC800326E000E316E010E3C6E1200600ED86F4F
:100CD800000EDA6F000EDC6F080EDE6F000EDD6F9F
:100CE8001200486E48C052F0ADEC06F0B0EC06F0C9
:100CF8001200000E466E000E476EA3EC06F01200BE
:100D0800000E466E000E476EA8EC06F01200C3C037
:100D180042F0C4C043F035EC06F01200466E9EA2C5
:100D2800FED746C09AFF12003AC046F0000E3A6E4F
:100D3800465012005AC0D4FF59C0D3FF120046C013
:100D4800C5F047C0C6F0120046C0C1F047C0C2F0A7
:100D580012007DEC06F0120084EC06F01200FFFF92
:030D6800FFFFFF8B
:040D6C00F29A1200E5
:020000040020DA
:10000000FF0FFF0FFF0FFF0FFF0FFF0FFF0FFF0F80
:020000040030CA
:0C0000008CFFFFFF9FFFFFFFFFFFFFFFD3
:00000001FF
