:08000000803102288731F42F42
:100DE200823052018C0008007A08F3007908F20080
:100DF20008007A08F7007908F60008007A08F5007A
:100E02007908F40008008F3046018E0001308D0011
:100E1200FF308C0008008F304601920001309100B3
:100E2200FF30900008008030460196007F30950028
:100E3200C03094000800803046019A007F3099004B
:100E4200C03098000800803046019E007F309D002F
:100E5200C0309C000800803047018E007F308D003A
:100E6200C0308C000800E33041019E009F019B01CD
:100E72009C0101309D00080006304F019600970149
:100E820047309800990191309A001E309B0008006B
:100E9200103051018D008F019101043093009001B7
:100EA2009201101C552F562F522F08000130450178
:100EB20090008F019101FF308D008C014E01901046
:100EC200803045018E000800873198278731031052
:100ED2004001181E031403186F2F722F40011816B9
:100EE200742F40011812682F803102280930420104
:100EF2009F0090309D0024309E0033309B009C0167
:100F02000030F9000030FA008631FA2687310030CD
:100F1200F9000030FA008631FF2687310030F900EF
:100F22000030FA008631F5268731F8010800873152
:100F32003D2787318731C02787318731492787315C
:100F42008631F126873187310C27873187311C277B
:100F5200873187315727873187312C27873187316E
:100F62000427873187313427873187311427873126
:100F7200873124278731873177278731080040015D
:100F8200980199019A010330920080309300113048
:100F9200940001307E01CE00C301B801C401B90141
:100FA200CF01BA01C501D0011F30BB00C6013F30DD
:100FB200D1003F30BC00C7013F30D2007D01C301E8
:100FC2000F307E019E000A30A3000C30A1000B30CE
:100FD20092000930A5000D30A6000E30A7000F3098
:100FE2007D01CB000800F001F101F201F301F401EF
:0E0FF200F501F601F701F80140018731652F86
:020000040001F9
:08000000FF3FFF3FFF3FFF3F00
:0A000E009C3FFF3F9F3FF71EFF3F9E
:00000001FF
