:1008400084316F2C080008007E1484314E01961EFE
:100850002A2C2B2C332C8C1E2E2C2F2C332C953108
:10086000542584316D2C161E362C372C3F2C0C1E33
:100870003A2C3B2C3F2C9431072484316D2C0B1FD8
:10088000422C432C6D2C191E462C472C522C0F1E2B
:100890004A2C4B2C522C42016F088A006E080A0029
:1008A00084316D2C991E552C562C612C8F1E592C81
:1008B0005A2C612C430157088A0056080A008431DB
:1008C0006D2C1A1C642C652C6D2C101C682C692C4A
:1008D0006D2C95316B2584316D2C7E100900400103
:1008E0008431722C6430840093308500ED308600B2
:1008F0000030870003309331B92384316B3084009A
:1009000089308500203086000130870046309331E1
:10091000B92384317830840094308500C03086005B
:100920000130870010309331B9238431FA01FB0183
:10093000A0308400003085002F309331B323843100
:10094000663084000130850008309331B323843150
:10095000A03084000130850020309331B3238431EE
:100960007E1040018E31E82E4001AA00A9016A2EB6
:100970000A30F2002A089431D1248431273E8600BF
:100980000130870081010A30F20040012A089431C9
:10099000D1248431263E8600013087008101810AFE
:1009A0004001A901882E0A30F2002A089431D1248E
:1009B0008431283E86000130870001084001A700ED
:1009C0000A30F2002A089431D1248431273E86006F
:1009D000013087004001270881070A30F2002A0809
:1009E0009431D1248431243E8600013087000A30BE
:1009F000F20040012A089431D1248431273E84003A
:100A000001308500000801020318072D082D242D50
:100A10000A30F20040012A089431D1248431273E63
:100A200086000130870081010A30F20040012A0867
:100A30009431D1248431213E860001308700013079
:100A4000810741310318810A0A30F20040012A0867
:100A50009431D1248431213E860001308700403F0B
:100A60004001A700413FA80000302802FF300319D1
:100A70002702031C3C2D3D2D642D0A30F2002A086C
:100A80009431D1248431213E860001308700FE302C
:100A9000C03F0030C13F0A30F20040012A089431C3
:100AA000D1248431263E8600013087000230810047
:100AB0000A30F20040012A089431D1248431273EC3
:100AC00086000130870081014001A901A90A882E12
:100AD0000A30F2002A089431D1248431283E86005D
:100AE0000130870001084001A7000A30F2002A08FF
:100AF0009431D1248431273E8600013087004001A3
:100B0000270881070A30F2002A089431D124843161
:100B1000243E8600013087000A30F20040012A0896
:100B20009431D1248431273E8400013085000008AF
:100B3000010203189C2D9D2DBA2D0A30F2004001B0
:100B40002A089431D1248431273E86000130870061
:100B500081010A30F20040012A089431D124843105
:100B6000213E860001308700013081024131003092
:100B7000813B7F310A30F20040012A089431D124B0
:100B80008431253E860001308700FE3001060319BE
:100B9000CA2DCB2D0C2E0A30F20040012A089431C8
:100BA000D1248431213E860001308700403F40013E
:100BB000A700413FA800003028021F300319270278
:100BC0000318E32DE42D0C2E0A30F2002A0894318C
:100BD000D1248431213E8600013087001E30C03F81
:100BE0000030C13F0A30F20040012A089431D1247C
:100BF0008431263E8600013087008101810A0A3057
:100C0000F20040012A089431D1248431273E860025
:100C1000013087008101642D0A30F20040012A086A
:100C20009431D1248431253E860001308700FE3086
:100C30000106031D1C2E1D2E642D0A30F2004001FA
:100C40002A089431D1248431213E86000130870066
:100C5000403F4001A700413FA80000302802023079
:100C6000031927020318352E362E642D0A30F200A0
:100C70002A089431D1248431213E86000130870036
:100C80000130C03F0030C13F0A30F20040012A0865
:100C90009431D1248431263E8600013087008101C1
:100CA000810A0A30F20040012A089431D1248431AB
:100CB000273E8600013087008101642D0A30F20052
:100CC0002A089431D1248431263E860001308700E1
:100CD0008101882E0A30F2002A089431D12484310F
:100CE000263E86000130870001084001A700A801C8
:100CF0002808003A03197D2E5E2E2708003A0319B2
:100D0000B82C013A0319D32C033A0319682D5E2E2F
:100D100040012A088B310E23843140012908080044
:100D20004001C5003A08CA003B08CB003C08CC0093
:100D30003D08CD003E08CE003F08CF004008D0005F
:100D40004108D1004A30860000308700473FC2008A
:100D5000C21BAB2EAD2E0130AE2E00304001D200B2
:100D600052080319B42EB52ED32ECA09CB09CC09CB
:100D7000CD09CE09CF09D009D109CA0A031DD32E46
:100D8000CB0A031DD32ECC0A031DD32ECD0A031D7F
:100D9000D32ECE0A031DD32ECF0A031DD32ED00A85
:100DA000031DD32ED10A41013608803A4001C2000A
:100DB00080304202031DDF2E01304101350203184D
:100DC000E22EE32EE92E01304001C6000030C700BC
:100DD000F12E410136084001C700410135084001AC
:100DE000C600410134084001C900410133084001F7
:100DF000C80052080319FD2EFE2E122FFF30C8071F
:100E0000FF30C93D5208031D062F072F0C2F2B3032
:100E1000C3000030C400102F2D30C3000030C400C8
:100E20004308D2001F30D3000030D4004301BF017B
:100E3000822FFF304001D307FF30D43D0A30A0009D
:100E4000A101A201A301A401A501A601A7014A08CD
:100E5000A8004B08A9004C08AA004D08AB004E089A
:100E6000AC004F08AD005008AE005108AF008C3107
:100E7000FA24863140012108F6002008F50095315A
:100E8000C92586317508303E4001C2005308A03E96
:100E900086000130870042088100FF30C607FF301E
:100EA000C73DFF30C807FF30C93D0A30A000A1018F
:100EB000A201A301A401A501A601A7014A08A80057
:100EC0004B08A9004C08AA004D08AB004E08AC0026
:100ED0004F08AD005008AE005108AF008D31E42539
:100EE000863140012008CA002108CB002208CC002E
:100EF0002308CD002408CE002508CF002608D00006
:100F00002708D10040015408803AC20080304202D4
:100F1000031D8C2F01305302031C8F2F902FAA2FFB
:100F200040014A084B044C044D044E044F04500445
:100F30005104031D9C2F9D2F192F4708803AC20092
:100F400080304202031DA62F013046020318A92F4C
:100F5000AA2F192F400152080319AF2FB02FBB2F12
:100F6000FF30D307FF30D43D5308A03E8600013048
:100F70008700520881005308A03EAB004908AD002D
:100F80004808AC00450897312027863108007B08C7
:100F9000A03E86008701810142011D1DD02FD12F67
:100FA000DC2F7B08A03E8600870181144301550891
:100FB0008A0054080A00873142019D1CE02FE12F6E
:100FC000EC2F7B08A03E86008701011543015308E2
:100FD0008A0052080A0087317B08A03E86008701FC
:100FE00001080319F42FF52FFC2F430151088A0043
:100FF00050080A008731FF2F9531B025873108004E
:101000000800080094314E2488318831E720883167
:1010100094312C2488319331732388319331D62332
:1010200088319331E623883194315B2488319531BE
:10103000FE2588319331F62388319331CE238831D0
:101040009431192488319331DE2388319331EE2392
:10105000883196313626883188316C2088310800F5
:1010600041015F08F5005E08F4005D08F3005C08CC
:10107000F2004C30F9009530F8007F30F7002D3049
:10108000F600973155278831013072074101DC00A5
:101090000030733DDD000030743DDE000030753DF2
:1010A000DF005C084001A60041015D084001A70087
:1010B00041015E084001A80041015F084001A9000C
:1010C0001130A936A80CA70CA60C890B612827089B
:1010D000A5002608A40008004E019912C730F200AE
:1010E0000730F30093318F2388314E0119125630A7
:1010F000F2001630F3009331952388310830420115
:101100009F0090309D0024309E0022309B009C0167
:101110000030F2000830F3009331832388316B30C4
:10112000F2001330F3009331892388316730F200E5
:101130001330F30093317D2388314101CB01CE017F
:10114000CD010830DB00FB01FA01CC014E019916FC
:1011500008004001A000A10102307702003003190D
:101160007602031CB428B528D028A101A10AD028F2
:10117000210C031C981203189816E628210C031C56
:10118000181203181816E628210C031C99120318CC
:101190009916E628210C031C191303181917E628C1
:1011A0002008F800F9017908003A0319D828E62840
:1011B0007808063A0319B828013A0319BE280F3AED
:1011C0000319C428013A0319CA28E6280800400177
:1011D000980199019A010730920010309300023073
:1011E000940002307E01CE00C301B801C401B901F0
:1011F000CF01BA01C501D0011E30BB00C6013F308E
:10120000D1003F30BC00C7013F30D2004A1249161E
:1012100048160130F2000830F30093319B238831E7
:101220004E0116160F307E01A00011307D01C30063
:101230000B307E01A3000E309F000A30A40009305D
:10124000A5000C30A6000D30A70002307D01CB00B8
:101250000800770803192D292E2933297708031D43
:1012600032293329382975089331AD2389316A2908
:101270007708083E860087011600010403194129FA
:10128000422961297708083E86008701403F4001D6
:10129000A000413FA1007708023E86008701403F41
:1012A000A200413FA3002308803AA4002108803A0D
:1012B0002402031D5D2920082202031860296129E8
:1012C0006A297708023E8600870101308107413193
:1012D0000318810A0800003400340034003400345C
:1012E000FE3400340034013400340134003400345E
:1012F00000340034FE34003400340134013402344C
:101300000034003400340034193400340034013423
:10131000023403340034003400340034193400340F
:101320000034013403340434003400340034003415
:1013300050340034003401340434053400340034B3
:1013400000340034503400340034013405340634A1
:101350000034003400340034FE34003400340134EE
:1013600006344001A9000A30F20029089431D12442
:101370008931253E86000130870001084001A70021
:10138000A8010A30F20029089431D1248931213E84
:1013900086000130870040012708C03F2808C13F70
:1013A0000A30F20029089431D1248931243E860084
:1013B0000130870081010A30F20040012908943190
:1013C000D1248931263E86000130870081010A3010
:1013D000F200400129089431D1248931273E86004A
:1013E000013087008101400129088B310E238931AA
:1013F000013008004001AD00372A2D08031D012AE5
:10140000022A4C2A41014908031D072A082A4C2AAE
:10141000BB01BC0100308A31A32289310130400177
:10142000AB002B084101C0074C2A133041013C029C
:10143000893003193B02031C1E2A1F2A4C2A490823
:10144000031D232A242A4C2A0E2A2D080319292A8F
:101450002A2A4C2A41014908031D2F2A302A4C2AE6
:1014600001308A31A32289314101C0014C2A410156
:1014700040084001AB00AC012C08003A0319412A96
:101480004C2A2B08003A0319FD29013A0319152AA1
:10149000033A0319252A4C2A08004001AE00AF0187
:1014A000822A2B0897318B278A314001AF00A12A6D
:1014B0002B088931B1218A314001AF00A12A2B08C4
:1014C0009731C5278A314001AF00A12A2B089531F9
:1014D00082258A314001AF00A12A2B088431B4242F
:1014E0008A314001AF00A12A2B088C3134248A3183
:1014F0004001AF00A12A2B08953199258A3140017E
:10150000AF00A12A2E08AC00AD012D08003A031946
:101510008A2AA12A2C08003A0319512A013A0319F0
:10152000582A033A03195F2A013A0319662A073A2F
:1015300003196D2A013A0319742A033A03197B2A05
:10154000A12A2F0808004001AA002A080319A92A85
:10155000AA2AF22A4201B701B70AC101C10ACB0186
:10156000CB0AD501D50A4E30410150022130031972
:101570004F02031CBC2ABD2AEF2A05304201A300FA
:10158000FE30A1000030A200A601FA30A400053010
:10159000AD00FE30AB000030AC00B001FA30AE0060
:1015A0000430CB005030C9000030CA000230CE00F9
:1015B000CC010530D0000430D5005030D3000030CD
:1015C000D4000230D800D6010530DA000530DF0043
:1015D000FF30DD000030DE00E2016430E000400159
:1015E0001A15022B03304201B7000330C100063048
:1015F000A3000630AD00CB01CB0AD501D50ADF012F
:1016000040011A11883130208A31400125084101FA
:10161000D000400124084101CF0008004001A4008F
:101620000A30F20024089431D1248B31213E860007
:1016300001308700403F4001A200413FA300A23596
:10164000A30DA235A30D2208A5002308A6006B2B2D
:101650002608F3002508F2009431AB248B31922B3D
:101660002608F3002508F2009431BE248B31922B1A
:101670002608F3002508F2009431FC248B31922BCC
:101680002608F3002508F200953112258B31922BA4
:101690002608F3002508F200953128258B31922B7E
:1016A0002608F3002508F20095313E258B31922B58
:1016B0002608F7002508F6000A30F20024089431C5
:1016C000D1248B31293E8600013087000108883102
:1016D000A9208B31922B0A30F20024089431D124B6
:1016E0008B31293E86000130870001084001A200AD
:1016F000A3012308003A03197E2B582B2208003A35
:101700000319282B013A0319302B033A0319382BFC
:10171000013A0319402B073A0319482B013A0319E0
:10172000502B582B08004001E30055088600870124
:10173000403FD700413FD800570884005808850033
:101740001200253A031DA52BA62B1B2C550886003D
:1017500087010130810741310318810A4101B3013A
:10176000B4010310003003180130BF00FF30B50092
:10177000FF30B6004001550886008701403FE40075
:10178000413FE50064088400650885001200643A62
:101790000319CB2BCC2BD62B64088400650885005D
:1017A0001200693A031DD52BD62B112C5608860042
:1017B000870101088400850102308107003FD700BE
:1017C000013FD8005708DB005808DC00890D893B31
:1017D0008909DD00DE00DF00E000E100E2006408CE
:1017E000013ED7000030653DD800550886008701CE
:1017F0005708C03F5808C13F5B08BA005C08BB00EF
:101800005D08BC005E08BD005F08BE006008BF0048
:101810006108C0006208C1006308863190268B31E0
:10182000332C400155088600870101308107413182
:101830000318810A332C550886008701403FD700E2
:10184000413FD80057088400580885000008D90097
:10185000DA015908F5005A08F6006308F7008931E3
:1018600029218B31112C08004001AA00A901D72C95
:101870000A30F2002A089431D1248C31273E8600A8
:101880000130870081010A30F20040012A089431BA
:10189000D1248C31263E8600013087008101810AE7
:1018A0004001A901F22C0130A7000A30F2002A08F9
:1018B0009431D1248C31273E8600013087004001CD
:1018C000270881070A30F2002A089431D1248C318C
:1018D000243E8600013087000A30F20040012A08C9
:1018E0009431D1248C31273E8400013085000008DA
:1018F000010203187C2C7D2CBA2C0A30F200400126
:101900002A089431D1248C31273E8600013087008B
:1019100081010A30F20040012A089431D1248C312F
:10192000213E8600013087001600FE3A4001A700E4
:101930001600A704031D9D2C9E2CAC2C0A30F2002F
:101940002A089431D1248C31213E86000130870051
:101950000030C03FC13FBA2C0A30F2002A0894314F
:10196000D1248C31213E860001308700FE30C03FFB
:101970000030C13F0A30F20040012A089431D124DE
:101980008C31263E8600013087008101810A4001AA
:10199000A901A90AF22C0A30F2002A089431D124B4
:1019A0008C31263E8600013087008101F22C0A30FE
:1019B000F2002A089431D1248C31263E8600013071
:1019C000870001084001A700A8012808003A031970
:1019D000EA2CCB2C2708003A0319382C013A0319BA
:1019E000532CCB2C40012A088B310E238C31400123
:1019F00029080800F4012830860000308700473F9E
:101A0000F200F21F042D052D262D4001A809A90979
:101A1000AA09AB09AC09AD09AE09AF09A80A031DB3
:101A2000242DA90A031D242DAA0A031D242DAB0A67
:101A3000031D242DAC0A031D242DAD0A031D242DE6
:101A4000AE0A031D242DAF0AF401F40A20308600EB
:101A500000308700473FF200F21F2F2D302D4F2D11
:101A60004001A009A109A209A309A409A509A60981
:101A7000A709A00A031D4F2DA10A031D4F2DA20A7D
:101A8000031D4F2DA30A031D4F2DA40A031D4F2D27
:101A9000A50A031D4F2DA60A031D4F2DA70A4001BD
:101AA00020082104220423042404250426042704F6
:101AB00003195B2D5C2DAF2DF301F30A6B2DA035BF
:101AC000A10DA20DA30DA40DA50DA60DA70D01300E
:101AD000F2007208F307A71F6E2D6F2D5F2D2708E8
:101AE0002F02031D8D2D26082E02031D8D2D250886
:101AF0002D02031D8D2D24082C02031D8D2D23087E
:101B00002B02031D8D2D22082A02031D8D2D210875
:101B10002902031D8D2D20082802031C902D912DD4
:101B2000A12D2008A8022108A93B2208AA3B2308CE
:101B3000AB3B2408AC3B2508AD3B2608AE3B270851
:101B4000AF3BA736A60CA50CA40CA30CA20CA10CB1
:101B5000A00C0130F302031DAE2DAF2D6F2D7408C4
:101B60000319B32DB42DD22DA809A909AA09AB09CF
:101B7000AC09AD09AE09AF09A80A031DD22DA90A07
:101B8000031DD22DAA0A031DD22DAB0A031DD22D8F
:101B9000AC0A031DD22DAD0A031DD22DAE0A031DC2
:101BA000D22DAF0A40012808A0002908A1002A0868
:101BB000A2002B08A3002C08A4002D08A5002E08C5
:101BC000A6002F08A70008004001B10120308600C0
:101BD00000308700473FF200F21FEF2DF02D122E4C
:101BE0004001A009A109A209A309A409A509A60900
:101BF000A709A00A031D0F2EA10A031D0F2EA20A7A
:101C0000031D0F2EA30A031D0F2EA40A031D0F2E62
:101C1000A50A031D0F2EA60A031D0F2EA70A4001B9
:101C2000B101B10A2830860000308700473FF2003A
:101C3000F21F1B2E1C2E402E4001A809A909AA093B
:101C4000AB09AC09AD09AE09AF09A80A031D3B2ECB
:101C5000A90A031D3B2EAA0A031D3B2EAB0A031D36
:101C60003B2EAC0A031D3B2EAD0A031D3B2EAE0AD4
:101C7000031D3B2EAF0A0130F20072084001B1068D
:101C800032308600003087000830F20000301E003D
:101C9000F20B472E400120082104220423042404CF
:101CA0002504260427040319562E572EB32EB001FF
:101CB000B00A662EA035A10DA20DA30DA40DA50D91
:101CC000A60DA70D0130F2007208B007A71F692EFC
:101CD0006A2E5A2EB235B30DB40DB50DB60DB70D33
:101CE000B80DB90D27082F02031D902E26082E02CD
:101CF000031D902E25082D02031D902E24082C0272
:101D0000031D902E23082B02031D902E22082A0269
:101D1000031D902E21082902031D902E2008280261
:101D2000031C932E942EA52E2008A8022108A93B5F
:101D30002208AA3B2308AB3B2408AC3B2508AD3B5B
:101D40002608AE3B2708AF3B3214A736A60CA50CDD
:101D5000A40CA30CA20CA10CA00C0130B002031D1A
:101D6000B22EB32E6A2E31080319B72EB82ED62EF6
:101D7000B209B309B409B509B609B709B809B9096F
:101D8000B20A031DD62EB30A031DD62EB40A031DB4
:101D9000D62EB50A031DD62EB60A031DD62EB70AB7
:101DA000031DD62EB80A031DD62EB90A40013208EB
:101DB000A0003308A1003408A2003508A3003608AB
:101DC000A4003708A5003808A6003908A7000800B5
:101DD000883102208E318B170B176F30F2001330D1
:101DE000F3009331A1238E31C630F2001330F3009B
:101DF0009331A7238E313630F2001430F300933143
:101E00009B238E311130943141248E319531E3255D
:101E10008E319A304101E0009830E10094319924EC
:101E20008E31410148080319162F172F212F9631A3
:101E3000EC268E31013A031D1E2F1F2F212F410149
:101E4000C80141016E08031D262F272F2B2F4A089A
:101E50008931FA218E31410147080319302F312F82
:101E6000F02FDF2F933161238E314101C501C50A67
:101E7000F02F9331BF238E31003A0319402F412FA9
:101E8000F02F933177238E3173084101BA00720825
:101E9000B9004435C03E8600013087003908C03F94
:101EA0003A08C13F01304001EE006E084101C4070D
:101EB00008304402031C5D2F5E2F5F2FC401B70161
:101EC000B801EC016C35C03E860001308700403F10
:101ED0004001EE00413FEF006E084101B7074001AD
:101EE0006F084101B83D01304001EE006E0841012C
:101EF000EC0708306C02031C7E2F7F2F622F3808FE
:101F00004001EF00410137084001EE00EF36EE0CD2
:101F1000EF36EE0CEF36EE0C6E084101B7004001D3
:101F20006F084101B80002303802EE300319370261
:101F300003189B2F9C2F9E2FC601C60AC701C501FF
:101F40009A30E0009830E100943199248E31893044
:101F50004101E0009830E10038084001EF00410104
:101F600037084001EE00EE35EF0DEE35EF0D6E084F
:101F70004101E20040016F084101E30094319924DE
:101F80008E3177304101E0009830E1003A08E300FB
:101F90003908E200943199248E31943110248E3125
:101FA000003A0319D42FD52FF02F96319D268E316C
:101FB0009631C4268E31F02F4101C501F02F45081E
:101FC0004001EE00EF016F08003A0319E82FDC2F03
:101FD0006E08003A0319322F013A0319392FDC2F0A
:101FE000410146080319F52FF62F112F9431E624ED
:101FF0008E314101C601C901C90A112F84316F2CEC
:10200000FF3FFF3FFF3FFF3FFF3FFF3FFF3FFF3FE0
:10201000FF3FFF3FFF3FFF3FFF3FFF3FFF3FFF3FD0
:10202000FF3FFF3FFF3FFF3FFF3FFF3FFF3FFF3FC0
:10203000FF3FFF3FFF3FFF3FFF3FFF3FFF3FFF3FB0
:1026C000FF3F41019D14080001340134013495316C
:1026D000B0259331080042011D121D16080041016A
:1026E000C701C70A0800823052018C00080041016E
:1026F0001C08F3001B08F200080073084301D10016
:102700007208D000080073084301D5007208D40095
:10271000080073084301D3007208D2000800730850
:102720004301D7007208D600080073084201EF0089
:102730007208EE00080073084101DA007208D9003F
:10274000080073084101D6007208D500080073081C
:102750004101D2007208D1000800F40074089631DB
:10276000C42693310800640080010131890BB42B29
:102770000034FE0012001E00FE0BBA2B00340310C2
:1027800041019D1C03140030093D08004101C801AE
:10279000C80A0130BB070030BC3D08008F3046013D
:1027A0008E0001308D008F308C0008008F30460184
:1027B0009200013091008F30900008008030460177
:1027C000960063309500C0309400080080304601C8
:1027D0009A0063309900C0309800080080304601AC
:1027E0009E0063309D00C0309C000800803047018F
:1027F0008E0063308D00C0308C0008004101580805
:102800004B019D00410157084B019C0008007E01CF
:102810004A1E0B2C0C2C0F2C943169249431080087
:1028200041014C08031D152C172C0130182C0030C9
:102830000800E33041019E009F019B019C01013093
:102840009D0008007208FF3E4101DC00FF30733D2F
:10285000DD00DE01DF010800603051018D008F01D5
:102860009101053093009001920108000030400171
:102870000D1A01304101CA00EE019331FE2394315B
:102880000800F3007308F200F20DF20D41011D087B
:102890007206033972069D001D14080002304F01B4
:1028A00096008030970047309800990191309A0047
:1028B0001E309B0008000130450190008F019101FE
:1028C000C7308D008C014E019010803045018E0084
:1028D0000800410159085A0403196F2C702C752CFB
:1028E0005A088A0059080A0094317E014A120800E9
:1028F000FF340334FF340334FF340334FF34033430
:10290000FF340334FF340334FF340334FF3403341F
:1029100044010E1D8C2C8D2C942C0E1071088D00F2
:1029200070088C000E14982C71088D0070088C00B3
:102930000800E2304001ED00410161084001E7007C
:10294000410160084001E6006D30E800003096313A
:102950001A2694310800FF30F2050330F3054601D2
:102960000E1EB32CB42CB92C0630F235F30D890BA6
:10297000B52C73088D0072088C000800FF30F2053A
:102980000330F3054601121EC62CC72CCC2C063092
:10299000F235F30D890BC82C730891007208900072
:1029A0000800F500F401751CD62CD72CDB2C72081E
:1029B000F3007308F4070310F20D0310F50C75080B
:1029C000031DE32CE42CD32C7408080040011812DA
:1029D0009912191314154201B701C101A301AD01E8
:1029E000CB01D5010530DF00FF30DD000030DE0017
:1029F000E201FC30E00008007308F5007208F40002
:102A0000F536F40CF536F40C74084601950072089E
:102A10000339F4000530F435FF3E031D0B2D7435EA
:102A2000940008007308F5007208F400F536F40C01
:102A3000F536F40C74084601990072080339F40065
:102A40000530F435FF3E031D212D74359800080034
:102A50007308F5007208F400F536F40CF536F40C42
:102A6000740846019D0072080339F4000530F435FE
:102A7000FF3E031D372D74359C0008007308F500D8
:102A80007208F400F536F40CF536F40C74084701BE
:102A90008D0072080339F4000530F435FF3E031D44
:102AA0004D2D74358C0008004E018C1241015808E0
:102AB0004B019D00410157084B019C004101550805
:102AC00056040319642D652D6A2D56088A00550891
:102AD0000A00953108004E01101041015408F10020
:102AE0005308F00094318824953141015108520473
:102AF00003197B2D7C2D812D52088A0051080A0074
:102B0000953108004001A7000A30F20027089431EF
:102B1000D1249531213E8600013087007F30C03FAF
:102B20000030C13F400127088B310E239531013021
:102B300008004001A7000A30F20027089431D12490
:102B40009531213E8600013087000A30C03F0030B9
:102B5000C13F400127088B310E2395310130080019
:102B60007B08663E8600013087004201190881001B
:102B70000130F0007008FB0708307B02031CC12DF8
:102B8000C22DC32DFB010130F00070084101CC07BC
:102B900008007608803AF70080307702031DD22DB6
:102BA000013075020318D52DD62DE22D7509F700D9
:102BB0007609F800F70A0319F80A7708F50078088B
:102BC000F600E22D08000D30F2000030F3009431E1
:102BD000222495318831302095314001250841016A
:102BE000D000400124084101CF004030CF009C308C
:102BF000D00001308A31A322953108004A304B01C0
:102C00009F00FC309D002F309C001D084101D80022
:102C10004B011C084101D7004E018C129616223040
:102C2000F2000430F3009331A123953190304B0131
:102C30009E0008004001EA006708EC006608EB000F
:102C4000292E6B30D5006808D6006A088B31932393
:102C5000963140016B0884006C0885001200031D4A
:102C6000322E332E212EE601E701080044018F01A8
:102C7000900101309100FE308D0070308C004E01CB
:102C8000101044010D084101D40044010C08410119
:102C9000D3004E011A142330F2000430F3009331B4
:102CA000A7239631013044018E000800083041010D
:102CB0005B0203185C2E5D2E752E4D08A83E860023
:102CC0008701010842019A000130F00070084101BB
:102CD000CD0708304D02031C6E2E6F2E702ECD01D5
:102CE0000130F0007008DB07772E4E011912080042
:102CF0004001A700A901AA018E2E2808A500A6015F
:102D00002508F5002608F6007808F7008931292102
:102D1000963101304001A9070030AA3D2908270754
:102D2000A50025088600013087000108A8002808B2
:102D3000031D9B2E9C2E7D2E080041014C0803197B
:102D4000A22EA32E9D2E7A08A03E860087010108A0
:102D5000CB007A08663E8600013087000108F30048
:102D60000130F2007208FA0708307A02031CB92E0B
:102D7000BA2EBB2EFA014E01991201304101CC024C
:102D80004E01991673080800F30041015B0803190E
:102D9000CA2ECB2EC52E4E01191ACF2ED02ED42ED0
:102DA000730842019A00E92E191241014E08A83E0B
:102DB00086008701730881000130F2007208CE0797
:102DC00008304E02031CE52EE62EE72ECE01013020
:102DD000DB024E01191608004101C1014001B20198
:102DE000B3010A30F20033089431D1249631233EE6
:102DF00086000130870001084001B1003308AB00B4
:102E000031088A314D2296314001B0003008B207B6
:102E10000130B0003008B30707303302031C112F14
:102E2000122FF12E05303202031C172F182F1C2FE2
:102E30004101C101C10A1E2F4101C1014108080021
:102E40004001B200AD1B252F262F2B2F2D08B100DE
:102E50002C08B0002D2FB001B101AE01AF013F2F02
:102E60002030F5000030F60040013208F7008931CB
:102E70002921973101304001AE070030AF3D2F08C6
:102E8000803AF9003108803A7902031D492F300851
:102E90002E02031C4C2F4D2F302F40013208F8001A
:102EA0002B08963178269731080000304001A300A6
:102EB0000030A2000030A1000030A000721C612F81
:102EC000622F6B2F76084001A0077708A13D780894
:102ED000A23D7908A33D0130F635F70DF80DF90D47
:102EE000890B6C2F0130F536F40CF30CF20C890BC6
:102EF000732F7508740473047204031D802F812FCF
:102F00005E2F40012308F5002208F4002108F30099
:102F10002008F20008004001A7000A30F20027084C
:102F20009431D1249731213E860001308700003052
:102F3000C03FC13F0A30F200400127089431D1243C
:102F40009731243E86000130870081010A30F2006B
:102F5000400127089431D1249731263E8600013064
:102F6000870081010A30F200400127089431D12402
:102F70009731273E860001308700810140012708F4
:102F80008B310E239731013008004001A7000A3031
:102F9000F20027089431D1249731213E8600013078
:102FA0008700FE30C03F0030C13F0A30F2004001D0
:102FB00027089431D1249731243E860001308700C0
:102FC00081010A30F200400127089431D124973161
:102FD000263E86000130870081010A30F200400160
:102FE00027089431D1249731273E8600013087008D
:102FF0008101400127088B310E23973101300800F1
:103000004C34653464342034233420347C3420340C
:10301000503472346F34673420347C342034493473
:103020006E34743465346E34733469347434793482
:1030300020347C342034503472346F3467345F343D
:103040005334743461347434653420347C34203423
:10305000533470346534653464340A340D340034C8
:1030600025346434203420342034203420347C341B
:1030700020342534643420342034203420347C340B
:103080002034253464342034203420342034203457
:103090002034203420347C342034253464342034EB
:1030A0002034203420342034203420342034203480
:1030B0007C342034253464340A340D3400345334E1
:1030C00065346C346534633474342034503457348C
:1030D0004D3431342D3436342034773469347434FB
:1030E0006834203461342D3466342E340034413455
:1030F0004434433420343D34203425346434203483
:103100005B346434653463345D342E340A340D34F6
:10311000003441344434433420343D3420342534A5
:10312000643420345B346D3456345D342E340A34C8
:103130000D3400341B345B3432344A341B345B347A
:1031400031343B34313448340034FF3FFF3FFF3FDC
:10315000FF3FFF3FFF3FFF3FFF3FFF3FFF3FFF3F7F
:10316000FF3FFF3FFF3FFF3FFF3FFF3FFF3FFF3F6F
:10317000FF3FFF3FFF3FFF3FFF3FFF3FFF3FFF3F5F
:10318000FF3FFF3FFF3FFF3FFF3FFF3FFF3FFF3F4F
:103EF000FF3FFF3FFF3FFF3FFF3FFF3FFD3F1E3FB5
:020000040001F9
:08000000FF3FFF3FFF3FFF3F00
:0A000E00EC3FFD359F3FEF1FFF3F61
:00000001FF
