:040000000EEF00F00F
:0400080004EF04F00D
:100018000CEF04F02CEF02F09EA2FED773EC02F076
:1000280004D09FAE03D09F909F9E9F809FB0F9D72A
:100038004BEC02F0576E576A090E566E15D04BEC12
:1000480002F0556E25D855C0DFFF572A040E571801
:100058000BE1020E021806E0050E021803E0070E77
:10006800021802E1035056265650575CE8E351EC5B
:1000780000F0566E550E6CEC02F0576A05D008D8A1
:10008800DF506CEC02F0572A5650575CC5E2F7D7A0
:100098005750020FD96EDA6A120005C000F006C088
:1000A80001F023D01DEC01F01ED0E8EC01F01BD0CC
:1000B80090EC00F018D046EC01F015D0CEEC01F031
:1000C80012D0B3EC01F00FD017EC02F00CD0F4EC26
:1000D80000F009D06FEC01F006D0010E4B6E090E4E
:1000E80002D00B680A0E546E15D00250DBE0010AEC
:1000F800DCE0030ADDE0010ADEE0070ADFE0010ACE
:10010800E0E0030AE1E0010AE2E00F0AE3E0010AA5
:10011800E4E0E7D75450120068EC01F0A40E816EB9
:10012800526A536A27D0525013EC01F0F56EF8501A
:1001380028E1800EF75C01E324D00D00F6503F0B58
:100148003F0A12E04E684F6820EE03F0DECF50F011
:10015800DDCF51F04E5050264F505122525050187A
:1001680007E15350511804E10A0064EC02F0090059
:10017800524A532A0350525C04505358D4E318EFA0
:1001880001F0FE0E0B6E0A0C290E536E960E526E7F
:100198007F0EE82EFED7522EFCD7532EFAD700F04A
:1001A8008DA0010C076A080E086E096A770E046EA6
:1001B800FE0E036E6FEC01F0FE0EF66E7F0EF76E0C
:1001C800F86A0900F5CF54F0556A0900F55055262C
:1001D8004C505418E6E14D50551801E0010C000C44
:1001E80068EC01F0100EF65C000EF758200EF85877
:1001F800C40ED8A0840E816E506A08D050500FD813
:10020800F56E0C0064EC02F0F62A502A50504E6E3F
:100218004F6A03504E5C04504F58F0E305D00B0F63
:10022800D96EDA6ADF501200010E0B6E006A016A9D
:100238000A0C0B6A010E0C6E0D6A010E0E6E0F6A27
:10024800106A3F0EF86EF768FE0EF66EC00E816EED
:100258000900F5CF11F00900F5CF12F0136A146AFE
:10026800400E156E166E300EF86EF76AF66A0C0EB2
:100278004E6E09004E50FBEC01F04E2A0F0E4E64F4
:10028800F8D7190C21D84E6A4F6A14D0F85002E0FA
:10029800C5EF00F0800EF75C02E3C5EF00F0940EA6
:1002A800816E64EC02F0400EF626000EF722F8226A
:1002B8004E4A4F2A03504E5C04504F58E7E3010E54
:1002C8000B6E056A066A0A0C07C0F6FF08C0F7FF3E
:1002D80009C0F8FF120068EC01F0800E816E4C6ACC
:1002E8004D6A03C04EF004C04FF0506A516A0CD0FA
:1002F8000900F5504C26000E4D220900F5504D26F8
:10030800020E5026000E51224E50505C4F5051584C
:10031800EFE34CC00BF04DC00CF00B0C836A846A01
:10032800040E856EDF0E886EC10E896EF90E8A6E18
:10033800F10E0F01216FC10E196FDE0E116F2D6BBB
:10034800186B106B206B0F6B176B1F6B0E691669A0
:100358001E69130E0E01B56F090EF86F090C07C060
:100368007EFF040E816E506A0AD081B2FED77E2AC3
:10037800505013EC01F0806E64EC02F0502A50509B
:100388004E6E4F6A03504E5C04504F58EEE3010E18
:100398000B6E0A0C07C07EFF816A506A09D0818003
:1003A80050500B0FD96EDA6A80CFDFFF7E2A502AB1
:1003B80050504E6E4F6A03504E5C04504F58EFE356
:1003C80000D00350090F120068EC01F0800E816E16
:1003D8004E6A4F6A05D009004E5009D84E4A4F2A36
:1003E80003504E5C04504F58F6E3E5EF01F00B0F55
:1003F800D96EDA6AF5CFDFFF1200848A8488848692
:1004080084848482838AC8EC00F0E80602E110EC58
:1004180000F0FC6A849A8498849684948492839ADF
:1004280000EF04F0120068EC01F0C00E816E506A13
:1004380005D009005050FBEC01F0502A50504E6E88
:100448004F6A03504E5C04504F58F3E3E5EF01F058
:1004580000EE02F04C0EEE6AE806FDE1000EF86EC2
:10046800000179EF02F054EC02F092EC01F05CEC40
:1004780002F041EC02F001EF02F0080E9F6E900EC0
:100488009D6E240E9E6E070E9B6E9C6A12000E01D6
:10049800CDABFDD79DA202D09D989D8899501200A2
:1004A8000E01E16BE26BE36BE46BE56BE66B12004C
:1004B800600ED86FDA6BDC6B080EDE6FDD6B120036
:1004C80000C082FF01C082FF818200F000F01200AC
:1004D8004E6E0E01CDA9FDD74EC09AFF12004B04F7
:1004E800D8A41200839AFF00120037EC02F0FFD75D
:020000040020DA
:10000000FF0FFF0FFF0FFF0FFF0FFF0FFF0FFF0F80
:020000040030CA
:0C0000008CFFFFFF9FFFFFFDFFFFFFFFD5
:00000001FF
