:040000000EEF00F00F
:0400080004EF04F00D
:100018000CEF04F059EF03F09EA215EF00F017EF74
:1000280000F010EF00F03DEC03F02AEC03F0576EFF
:10003800550E5718D8A423EF00F025EF00F010EF65
:1000480000F0576A090E566E5AEF00F02AEC03F0DA
:10005800556E5750020FD96EDA6A55C0DFFF572A1E
:10006800040E5718D8A43BEF00F03DEF00F05AEF0C
:1000780000F0020E0218D8B444EF00F046EF00F08A
:1000880058EF00F0050E0218D8B44DEF00F04FEF0E
:1000980000F058EF00F0070E0218D8A456EF00F051
:1000A80058EF00F05AEF00F0035056265650575CB0
:1000B800D8A061EF00F063EF00F02AEF00F080ECC9
:1000C80000F0566E550E4DEC03F0576A74EF00F0D1
:1000D8005750020FD96EDA6ADF504DEC03F0572AF9
:1000E8005650575CD8A07BEF00F07DEF00F06CEF26
:1000F80000F010EF00F0120005C000F006C001F09B
:10010800C0EF00F0FEEC01F0546EEBEF00F0AEEC47
:1001180002F0546EEBEF00F0EDEC00F0546EEBEFF4
:1001280000F0C6EC01F0546EEBEF00F0F2EC02F0D8
:10013800546EEBEF00F060EC02F0546EEBEF00F061
:100148008AEC02F0546EEBEF00F08BEC01F0546E89
:10015800EBEF00F031EC02F0546EEBEF00F0010E23
:100168004B6E010E0B6E0A0E546EEBEF00F00B682F
:100178000A0E546EEBEF00F00250000AD8B486EF76
:1001880000F0010AD8B48BEF00F0030AD8B490EF5E
:1001980000F0010AD8B495EF00F0070AD8B49AEF36
:1001A80000F0010AD8B49FEF00F0030AD8B4A4EF16
:1001B80000F0010AD8B4A9EF00F00F0AD8B4AEEFE6
:1001C80000F0010AD8B4B3EF00F0BBEF00F05450D0
:1001D800120007C0F6FF08C0F7FF09C0F8FFA40E19
:1001E800816E526A536A3AEF01F052500B0FD96E82
:1001F800DA6ADF50F56EF85009E1800EF75CD8A096
:1002080008EF01F00AEF01F00FEF01F0FE0E0B6EA0
:100218000A0E4BEF01F00D00F6503F0B3F0AD8B421
:1002280018EF01F01AEF01F034EF01F0FF0E4E6EF7
:10023800FF0E4F6E20EE03F0DECF50F0DDCF51F011
:100248004E5050264F5051225250501807E15350EB
:100258005118D8A432EF01F034EF01F038EF01F073
:100268000A0089EC03F00900524A532A0350525CF1
:1002780004505358D8A043EF01F045EF01F0F9EFCF
:1002880000F0010E0B6E006A016A0CEF01F012001B
:10029800520E536E2B0E526E000EE82EFED7522EC3
:1002A800FCD7532EFAD700D08DB05DEF01F05FEF89
:1002B80001F063EF01F08488010E8AEF01F0076A0C
:1002C800080E086E096A770E046EFE0E036E31EC96
:1002D80002F0FE0EF66E7F0EF76E000EF86E090045
:1002E800F5CF54F0556A0900F55055264C5054186E
:1002F80009E14D505518D8B484EF01F086EF01F0AC
:1003080089EF01F0848660EF01F0000E120007C04B
:10031800F6FF08C0F7FF09C0F8FF100EF65C000EE4
:10032800F758200EF858D8A09CEF01F09EEF01F086
:10033800A2EF01F0C40E816EA4EF01F0840E816E6D
:10034800506AB2EF01F050500B0FD96EDA6ADF50E5
:10035800F56E0C0089EC03F0F62A502A50504E6EC8
:100368004F6A03504E5C04504F58D8A0BEEF01F0BE
:10037800C0EF01F0A7EF01F0010E0B6E006A016AF1
:100388000A0E120007C0F6FF08C0F7FF09C0F8FF01
:100398004E6A4F6AECEF01F0F85009E1800EF75C05
:1003A800D8A0D9EF01F0DBEF01F0E0EF01F0FE0E8D
:1003B8000B6E0A0EFDEF01F0940E816E89EC03F0CE
:1003C800400EF626000EF722000EF8224E4A4F2A5B
:1003D80003504E5C04504F58D8A0F5EF01F0F7EFEA
:1003E80001F0D0EF01F0010E0B6E056A066ADDEF31
:1003F80001F012000B6A010E0C6E0D6A010E0E6EF2
:100408000F6A106A3F0EF86EF768FE0EF66EC00EA1
:10041800816E0900F5CF11F00900F5CF12F0136ACB
:10042800146A400E156E400E166E300EF86EF76A9E
:10043800F66A0C0E4E6E09004E500B0FD96EDA6A32
:10044800F5CFDFFF4E2A0F0E4E642DEF02F02FEF8F
:1004580002F01FEF02F0190E120007C0F6FF08C0E5
:10046800F7FF09C0F8FF800E816E4C6A4D6A03C021
:100478004EF004C04FF0506A516A4FEF02F0090085
:10048800F5504C26000E4D220900F5504D26020E5F
:100498005026000E51224E50505C4F505158D8A053
:1004A80058EF02F05AEF02F043EF02F04CC00BF0A5
:1004B8004DC00CF00B0E120007C07EFF040E816EBB
:1004C800506A78EF02F081B26CEF02F06EEF02F042
:1004D80067EF02F07E2A50500B0FD96EDA6ADF50B0
:1004E800806E89EC03F0502A50504E6E4F6A0350CC
:1004F8004E5C04504F58D8A084EF02F086EF02F00B
:1005080067EF02F0010E0B6E0A0E120007C0F6FF2D
:1005180008C0F7FF09C0F8FFC00E816E506A9DEF52
:1005280002F0090050500B0FD96EDA6AF5CFDFFFE1
:10053800502A50504E6E4F6A03504E5C04504F582C
:10054800D8A0A9EF02F0ABEF02F095EF02F003504C
:10055800090F120007C0F6FF08C0F7FF09C0F8FF2F
:10056800800E816E4E6A4F6AC3EF02F009004E504A
:100578000B0FD96EDA6AF5CFDFFF4E4A4F2A0350C8
:100588004E5C04504F58D8A0CCEF02F0CEEF02F0EA
:10059800BAEF02F00350090F1200836A846A040E4E
:1005A800856EDF0E886EC10E896EF90E8A6EF10EA9
:1005B8000F01216FC10E196FDE0E116F2D6B186BB5
:1005C800106B206B0F6B176B1F6B0E6916691E691A
:1005D800130E0E01B56F090EF86F120007C07EFFEB
:1005E800816A506A01EF03F0818050500B0FD96E79
:1005F800DA6A80CFDFFF7E2A502A50504E6E4F6A4B
:1006080003504E5C04504F58D8A00DEF03F00FEF85
:1006180003F0F8EF02F00350090F1200838A4CEC44
:1006280001F0E806D8A41BEF03F01DEF03F020EF5C
:1006380003F0848A10EC00F0FC6A839A8494849214
:1006480084968498849A00EF04F012000E01CDABD2
:1006580030EF03F032EF03F02AEF03F09DA237EFFB
:1006680003F039EF03F03BEF03F09D989D88995014
:1006780012004B04D8A443EF03F045EF03F04CEF0E
:1006880003F0839A8494849284968498849AFF00D1
:1006980012004E6E0E01CDA954EF03F056EF03F091
:1006A8004EEF03F04EC09AFF120000EE02F04C0E1F
:1006B800EE6AE806FDE1000EF86E000191EF03F026
:1006C80079EC03F0D1EC02F081EC03F06FEC03F06D
:1006D80012EC03F01200080E9F6E900E9D6E240E11
:1006E8009E6E070E9B6E9C6A12000E01E16BE26B18
:1006F800E36BE46BE56BE66B1200600ED86FDA6BA8
:10070800DC6B080EDE6FDD6B120000C082FF01C0DB
:1007180082FF818200F000F0120064EC03F093EF96
:0607280003F00EEF00F0EB
:020000040020DA
:10000000FF0FFF0FFF0FFF0FFF0FFF0FFF0FFF0F80
:020000040030CA
:0C0000008CFFFFFF9FFFFFFDFFFFFFFFD5
:00000001FF
