:0400000037EF00F0E6
:100008005982D9CF41F0DACF42F0F2AC26D00E01B6
:10001800C5BBCDAB18D09DA20ED09D989D880BD0A6
:10002800000E9DB0010E436E99CF44F043C03FF0DF
:10003800445019EC05F00E01CDBBF2D79CEC06F04C
:10004800CE95C6850AD0C6B5CEA507D0000E326EAD
:10005800030E316EC695CE959D8642C0DAFF41C02B
:10006800D9FF5992110042EF05F0000E0001C06F50
:10007800000EBF6F000EC26F000EC16F000EC46F7E
:10008800000EC36F000EBE6F000EBD6F0350476EAB
:100098000450BF6F47C0C0F00550476E0650C16F8F
:1000A80047C0C2F03A500118D8A431D0000EC46F2E
:1000B800000EC36F25D0C351020DF350090FD96E3E
:1000C800DA6ADF50476EC351020DF350080FD96E3C
:1000D800DA6ADF50486E4750BD6F48C0BEF0C35162
:1000E800020DF3CF47F0BF51020DF350170F47240D
:1000F800D96EDA6ABDC0DEFFBEC0DDFFC34BC42BBC
:10010800C151C35DC251C459D8B01200D4D7C1512E
:10011800BF25476EC251C021486E485004E1050E04
:10012800475CD8A006D0100E456E030EE3EC05F030
:100138001200100E616F50C060F0000E756F040E53
:10014800746F03C062F004C063F005C064F006C0B9
:1001580065F0000EC46F000EC36F25D0C351020DA9
:10016800F350090FD96EDA6ADF50476EC351020D9A
:10017800F350080FD96EDA6ADF50486E4750BD6FEA
:1001880048C0BEF0C351020DF3CF47F0BF51020D76
:10019800F350170F4724D96EDA6ABDC0DEFFBEC020
:1001A800DDFFC34BC42BC151C35DC251C459D8A094
:1001B800D5D75FEC06F012000E01CAAB12002BD0A7
:1001C8002B502C10D8B462D084822BC027F02CC0BE
:1001D80028F0000E246E010E18D027502B1804E1C9
:1001E80028502C18D8B407D027502B1804E12850D1
:1001F8002C18D8B44BD08492000E286E000E276EAF
:10020800000E2C6E000E2B6E02D0236E3FD0000E17
:10021800246E000EFAD723C045F024C046F046509D
:10022800000AD8A4F4D74550000AD8B4C9D7010A9F
:10023800D8B4D3D7ECD729502A10D8B437D084846F
:1002480029C025F02AC026F0000E226E010E18D013
:100258002550291804E126502A18D8B407D025506B
:10026800291804E126502A18D8B420D08494000E06
:10027800266E000E256E000E2A6E000E296E02D024
:10028800216E14D0000E226E000EFAD721C045F060
:1002980022C046F04650000AD8A4F4D74550000AB8
:1002A800D8B4C9D7010AD8B4D3D7ECD7CA9BA9EC1C
:1002B80006F01200BCEC03F04E6E030E4E18D8A4E4
:1002C8002CD076C001F051685268510E456E01502D
:1002D800F0EC04F077C002F0510E456E0250F0ECDD
:1002E80004F0000E166E000E156E020E4F6E0DD045
:1002F8004F50760FD96EDA6A1550030FE16EE26A35
:10030800DFCFE7FF154A162A4F2A3B504F5CD8A08B
:10031800EFD7020E386E000E3B6E52EC06F0020E5E
:100328003818D8A41200165004E1020E155CD8A0A3
:100338001200020E155E000E165A000E4F6E0AD0FD
:10034800510E456E4F50030FD96EDA6ADF50F0EC4C
:1003580004F04F2A4F50496E4A6A1550495C1650AE
:100368004A58D8A0EDD71550040FD96EDA6ADF5075
:10037800496E49504B6E4A6A1550030FD96EDA6AB6
:10038800DF504C6E4D6A4A504C264B504D2251500E
:100398004C1809E152504D18D8A405D0294A2A2AE8
:1003A800010E376E01D000F0000E386E1200000EFC
:1003B8000001BC6F000EBB6F000EBE6F000EBD6F5C
:1003C8000350476E0450BB6F47C0BCF00550476EE2
:1003D8000650BD6F47C0BEF03A500118D8B412009D
:1003E800BD51BB25476EBE51BC21486E485004E143
:1003F800070E475CD8A006D0040E456E020EE3EC4B
:1004080005F01200040E616F50C060F0000E756FA9
:10041800010E746F000E626F000EC26F000EC16F86
:1004280023D0C151020DF3CF47F0BB51020DF35059
:10043800880F4724D96EDA6ADECFBFF0DDCFC0F06F
:100448007451620FD96EDA6AC0C0DFFF7451630F4E
:10045800D96EDA6ABFC0DFFF020E7427000E75235B
:100468007405626FC14BC22BBD51C15DBE51C259EB
:10047800D8A0D7D75FEC06F01200000E0001BC6FC1
:10048800000EBB6F000EBE6F000EBD6F0350476EAF
:100498000450BB6F47C0BCF00550476E0650BD6F97
:1004A80047C0BEF03A500118D8B41200BD51BB2560
:1004B800476EBE51BC21486E485004E1050E475CAA
:1004C800D8A006D0030E456E020EE3EC05F012002C
:1004D800030E616F50C060F0000E756F010E746FEF
:1004E800000E626F000EC26F000EC16F23D0C151A3
:1004F800020DF3CF47F0BB51020DF350170F4724FD
:10050800D96EDA6ADECFBFF0DDCFC0F07451620F6A
:10051800D96EDA6AC0C0DFFF7451630FD96EDA6A28
:10052800BFC0DFFF020E7427000E75237405626FCB
:10053800C14BC22BBD51C15DBE51C259D8A0D7D73E
:100548005FEC06F01200000E0001BC6F000EBB6FDE
:10055800000EBE6F000EBD6F0350476E0450BB6F98
:1005680047C0BCF00550476E0650BD6F47C0BEF08F
:100578003A500118D8B41200BD51BB25476EBE5180
:10058800BC21486E485004E1030E475CD8A006D051
:10059800080E456E020EE3EC05F01200080E616FBE
:1005A80050C060F0000E756F010E746F000E626F20
:1005B800000EC26F000EC16F23D0C151020DF3CFE0
:1005C80047F0BB51020DF3509C0F4724D96EDA6AED
:1005D800DECFBFF0DDCFC0F07451620FD96EDA6A9A
:1005E800C0C0DFFF7451630FD96EDA6ABFC0DFFF86
:1005F800020E7427000E75237405626FC14BC22B5F
:10060800BD51C15DBE51C259D8A0D7D75FEC06F025
:10061800120053685468000E2E6E000E2D6E2D5079
:10062800A60FD96EDA6A60C0DFFF2D4A2E2A530E54
:10063800456E00016051F0EC04F02D50A60FD96E04
:10064800DA6A61C0DFFF2D4A2E2A530E456E00017B
:100658006151F0EC04F0000E306E000E2F6E17D0D2
:100668002F50620FD96EDA6A2D50A60FE16EE26A3A
:10067800DFCFE7FF2D4A2E2A530E456E2F50620F0B
:10068800D96EDA6ADF50F0EC04F02F4A302A000104
:1006980074512F5C75513058D8A0E2D72D50A60F51
:1006A800D96EDA6A53C0DFFF2D4A2E2A2D50A60FC5
:1006B800D96EDA6A54C0DFFF2D4A2E2A45EC06F0BF
:1006C800000E396E1200000E4C6E000E4B6E000EBE
:1006D8004A6E000E496E0350476E04504B6E47C079
:1006E8004CF00550476E0650496E47C04AF0060E5A
:1006F8000001616F50C060F0000E756F040E746FDA
:100708003A500118D8A40BD04B50020DF350170FD4
:10071800D96EDA6A49C0DEFF4AC0DDFF12004C50CC
:1007280004E1040E4B5CD8A006D0060E456E030EFD
:10073800E3EC05F01AD04B50020DF350170FD96EA9
:10074800DA6A49C0DEFF4AC0DDFF000E4D6E4D502B
:10075800030FD96EDA6A4D50620FE16EE26ADFCF9D
:10076800E7FF4D2A030E4D64F2D75FEC06F0120046
:10077800040E3B6440D0505000017619D8B404D020
:100788003A507619D8A433D07705D8B418D0020EC9
:100798007719D8B414D0030E7719D8B410D0040E32
:1007A8007719D8B40CD0050E7719D8B408D0060E2E
:1007B8007719D8B404D0080E7719D8A405D0000E3C
:1007C800486E080E476E19D00F0E7719D8B404D0AA
:1007D800100E7719D8A407D0090E7C25476E486AF1
:1007E800000E48220AD0000E3B6E000E1200000ECA
:1007F8003B6E010E1200020E12003B50456E466A17
:1008080047504518F8E148504618D8A4F4D7030EC5
:1008180012001F50171804E120501818D8B41200FD
:1008280017C01FF018C020F08380838283848386DA
:1008380083888588858A858C858E848017D085985D
:1008480012008398120083961200839412008392F8
:100858001200839012008380838283848386838836
:100868008588858A858C858E8480120017C045F01E
:1008780018C046F04650000AD8A4EDD74550010AE2
:10088800D8B4DDD7030AD8B4DCD7060AD8B4DBD786
:100898000C0AD8B4DAD7180AD8B4D9D7300AD8B4D9
:1008A800D8D7D9D73950D8A40DEC03F05EEC01F0B5
:1008B800A3EC06F00009D8B4120050500118D8B4BF
:1008C80004D03A500118D8A4120000019C4B9D2B6B
:1008D80015D041EC02F023D0DBEC01F020D067EC1E
:1008E80003F01DD0A7EC02F01AD039EC00F017D0B5
:1008F80002C045F0010EE3EC05F011D00250030AE6
:10090800D8B4E7D7070AD8B4E7D7020AD8B4E7D7E4
:100918000E0AD8B4E7D7180AD8B4E7D7E9D7294ACE
:100928002A2A1200920E7C6E7F0E7D6E000E766E65
:10093800000E776E000E0F014F6F000E4B6F000E0A
:100948004A6F000E496F3F0E4E6F4D694C69000E9D
:10095800506F800E476E050E466E47C07BFF050E32
:100968007A6E4868496849C077FF76687D380F0B0A
:10097800456E45280001B86F7D500F0B456E452820
:10098800B96F12001F0E836E010E846EF00E856E15
:10099800E00E886EC00E896E090E8A6E000E0F0179
:1009A800216F000E196F000E116F000E2D6F000ED3
:1009B800186FE00E106F000E206F000E0F6F000E04
:1009C800176F000E1F6F0E6916691E69130E0E0150
:1009D800B56F090EF86F1200486E4550D96EDA6A85
:1009E800DECF46F0DDCF47F047C046F0476A4650B5
:1009F800776E4550D96EDA6ADF50766E48C074FF5C
:100A08007C8C7CBAFED7765077CF46F0476A46C0D2
:100A180047F0466A4612000E47124550D96EDA6A08
:100A280046C0DEFF47C0DDFF1200406E9DA61CD009
:100A38003F50D8B4120050504018D8B404D03A509F
:100A48004018D8A412009D96010E366E000E3B6E1B
:100A58003B50760FD96EDA6A40C0DFFF3B2A000EA2
:100A6800326E000E316E1200120E3B6001D0F0D7CC
:100A7800000E3B6E000E366E9D8612007C0EF66EE2
:100A88000D0EF76E000EF86E00EE50F010EE05F049
:100A98000900F5CFEEFFE550E150FAE100EE60F015
:100AA8005B0EEE6AE806FDE100EE01F03E0EEE6A2E
:100AB800E806FDE159905992000EF86E000119EF11
:100AC80006F08DCF45F0050E466ED8904532462E7D
:100AD800FCD7070E4516320E4524556E566A000E91
:100AE8005622565004E1330E555CD8A009D0565012
:100AF80007E13C0E555CD8B003D0848A8496120076
:100B0800849A8486FFD7000ECA6E000ECB6E010E43
:100B1800CC6EFE0EC86E700EC76EC750C8CF47F0B9
:100B2800486A47C048F0476A4710C76F4850C86FBF
:100B38000E01CE95C685000E456E000E466EB3ECCE
:100B480006F0010EC96E12002B4A2C2A85840A0E63
:100B5800E82EFED700D0000E4C6E000E4B6E09D06A
:100B680048504B24D96EDA6ADF5087EC06F04B4ABE
:100B78004C2A49504B5C4A504C58D8A0F1D79EA2F9
:100B8800FED785942B4A2C2A1200C59B000E456E71
:100B9800000E466EAEEC06F0080E9F6ED80E9D6EE7
:100BA800240E9E6E070E9B6E000E9C6E000E3E6E0F
:100BB800000E3D6E000E3C6E0E01C58B1200466E97
:100BC8003A500118D8B41200455080090001616FED
:100BD80046C062F050C060F0000E756F010E746F71
:100BE8005FEC06F01200C1EC06F029EC06F0C6EC4A
:100BF80004F06CEC06F096EC04F087EC05F008ECD9
:100C080006F0C9EC05F01200480ED66EE70ED46E59
:100C1800960ED36ED450456ED350576E45C058F0DB
:100C28000E01CA9B900ED56E1200F7EC05F0F28EFD
:100C3800F28C65EC05F055507FEC06F056EC04F0AC
:100C48000DEC04F0E0EC00F0F9D7000E0E01E16FB6
:100C5800000EE26F000EE36F000EE46F000EE56F0A
:100C6800000EE66F1200C9A407D0C99040C0C8FFA3
:100C78003FC0C7FFC980120040C0C8FF3FC0C7FFC0
:100C88001200A60E486E2DC049F02EC04AF0A8ECFE
:100C980005F0000E2E6E000E2D6E1200325004E18B
:100CA800020E315CD8A01200000E326E000E316EBA
:100CB800000E3B6E12003950D8A4120000019E4B62
:100CC8009F2B000E306E000E2F6E010E396E120033
:100CD800600ED86F000EDA6F000EDC6F080EDE6F44
:100CE800000EDD6F1200466E9EA2FED79E909E9C5F
:100CF80046C09AFF1200476E47C050F0B8EC06F0A5
:100D0800BBEC06F01200476E000E456E475077ECBC
:100D180006F01200000E456E000E466EAEEC06F0B0
:100D28001200000E456E000E466EB3EC06F012007F
:100D3800C7C03FF0C8C040F037EC06F0120037C01B
:100D480045F0000E376E4550120058C0D4FF57C00A
:100D5800D3FF120045C0C9F046C0CAF0120045C012
:100D6800C5F046C0C6F012008EEC06F0120095ECF5
:090D780006F01200FFFFFFFFFF6F
:040D8200F29A1200CF
:020000040020DA
:10000000FF0FFF0FFF0FFF0FFF0FFF0FFF0FFF0F80
:020000040030CA
:0C0000008CFFFFFF9FFFFFFFFFFFFFFFD3
:00000001FF
