:04000000803106281D
:100008008531042D80310828203084000030850097
:1000180009308331CA238031A03084000030850044
:1000280049308331CA23803140018331D02B4201CA
:100038009E1C1F2820281B288331B72380314201AA
:100048001F142D289F1F29282A282D281F109F1389
:100058001F141F1830283128262883318623803121
:100068004001B201B3010930B0000030B1006C2882
:100078008331862380314001AF003208A03E8600DC
:1000880087012F0881000130B2070030B33D0430EA
:1000980032063304031D512852286C2802304101CE
:1000A8002006031958285928652805302006031901
:1000B8005E285F28652807302006031D6428652808
:1000C8006C2821084001B007410122084001B13DD8
:1000D800400131083302031D732830083202031C23
:1000E800762877283C28813124218031FC00FD01C5
:1000F8007C084001B0007D08B10055308331AD2344
:1001080080314001B201B30196283208A03E860032
:10011800870101088331AD23803101304001B207E6
:100128000030B33D31083302031D9C2830083202E9
:10013800031C9F28A02889281B280800410125089E
:1001480050019A004101260850019B00A4309E00EE
:100158001B08F200F3017208F300F2017208F500BF
:100168007308F6001A08F200F3017208F50773081D
:10017800F63DFF307505F2007F307605F300053057
:1001880073020030031972020318CB28CC28D12837
:10019800FE304101A9000A302329F701F80112298C
:1001A8001F3050011A05F2001F3072060319DD28AE
:1001B800DE28EF2841012108FE3EF200FF30223DF3
:1001C800F30078087306031DEB2877087206031DF1
:1001D800EE28EF28F12850019E127708A93E8600E4
:1001E8008701010850019C007708AA3E8600870114
:1001F80001089D008331C12380310130F20072086B
:1002080050019A07031D09290A290E290130F20015
:1002180072089B070230F7070030F83D41012208B9
:100228007802031D192921087702031C1C291D299E
:10023800D428A901A90A4001F001F1010A300800F7
:10024800410123084001F000410124084001F10068
:10025800582982311E228131FB0078298231A62259
:100268008131FB0078298031A2208131FB00782977
:10027800823165228131FB0078298231E222813185
:10028800FB0078298131CF218131FB007829A90130
:10029800A90A4001A501A50A0A30FB007829FF3008
:1002A800A9000A30FB00782941012008F900FA0169
:1002B8007A08003A0319612953297908003A031981
:1002C8002D29013A03193229033A03193729013A2A
:1002D80003193C29053A031941290E3A03194629FD
:1002E800013A03194B2953297B080800FC01000037
:1002F8000130F7007708FC077C0A031D842985294B
:100308007B2940010D1A89298A298C290130CE2997
:100318004101A5010530A600FC30A1003530A2003E
:100328008131CF218131FE3050019A001F309B006E
:100338001E140000000050011C08F700F80177089F
:10034800FA007808FB000130F70077089A07031DC8
:10035800AE29AF29B3290130F70077089B071E148F
:100368000000000050011C08F700F8017708F800A9
:10037800F7017708FA077808FB3D400123087B0658
:10038800031DC82922087A060319CB29CC29CD29AF
:100398008A29003008004101250850019A004101CE
:1003A800260850019B0080309E004001A201A30155
:1003B800F501F601092A50011E1400000000500141
:1003C8001C08F200F30172084001A2077308A33D5C
:1003D80050011D08F200F3017208F300F2017208DF
:1003E8004001A2077308A33D0130F20072085001D2
:1003F8009A07031D002A012A052A0130F200720813
:100408009B070230F5070030F63D410122087602CD
:10041800031D102A21087502031C132A142ADF2938
:10042800400122084101A900400123084101AA0016
:100438000B30080008304101A900AA01AB01AC014A
:10044800AC0AAD01AE01063050019A009B011E179F
:100458001E140000000050011C084101AF005001AB
:100468001D084101B000B101B2012030B3002030B5
:10047800B40050019A019B011E170C30F3001E14A2
:10048800000000007308A93E8600870150011C087F
:1004980081000130F20072089A07031D542A552A78
:1004A800592A0130F20072089B070130F2007208E5
:1004B800F30710307302031C622A632A432A193097
:1004C80008004101250850019A0041012608500101
:1004D8009B00F301F401952A7F3050011B05F200BF
:1004E80020307202031C792A7A2A7F2AFE304101C1
:1004F800A9000A30A52A94309E008331C123823195
:100508002030F200720850019A07031D8C2A8D2AA8
:10051800912A0130F20072089B070130F30700307E
:10052800F43D410122087402031D9C2A210873022C
:10053800031C9F2AA02A702AA901A90AA301A401C1
:100548000A3008004101250850019A004101260897
:1005580050019B0080309E00F301F401D42A500121
:100568001E14000000007308A93E86008701500190
:100578001C0881007308AA3E860087011D088100B7
:100588000130F20072089A07031DCB2ACC2AD02A20
:100598000130F20072089B070230F3070030F43D87
:1005A800410122087402031DDB2A21087302031C7F
:1005B800DE2ADF2AB32A2108093E0800410125085E
:1005C80050019A004101260850019B0040309E00CE
:1005D800F401072B50011E14000000007408A93E06
:1005E8008600870150011C0881007408AA3E860015
:1005F80087011D0881000130F20072089A07023055
:10060800F2007208F4077408F200F30141012208AD
:100618007302031D112B21087202031C142B152BC6
:10062800EE2A0D3008004001980199019A012730FF
:100638009200F0309300FE30940002307E01CE002C
:10064800C301B801C401B901CF01BA01C501D00184
:100658001F30BB00C6013F30D1003F30BC00C7018E
:100668003F30D2000F30A00002307D01CB000800DF
:10067800083042019F0090309D0024309E002230B7
:100688009B009C010030F2000030F3008331DC2332
:1006980083310030F2000030F3008331D6238331F8
:1006A8000030F2000030F3008331E223833140014F
:1006B800A40108004001F001F101181681317A21E6
:1006C8008331013A031D692B6A2B6D2B80311B2066
:1006D80083311F307F01ED004001880118128531F8
:1006E800002D08008331962383318331172383310A
:1006F8008331A323833183313C23833183315E23C8
:10070800833108004E018F1E8A2B8B2B862B4001CC
:10071800A40142019D1C912B922B942B1D121D1696
:100728001908080006304F019600803097004730BE
:100738009800990191309A001E309B0008006030A3
:1007480051018D008F0191010530930090019201B4
:100758000800F2004E010F1EB22BB32BAE2B72080D
:1007680042019A00080040012503031DBC2BBD2B44
:10077800C02B1212181201000800640070089F00B4
:1007880071089F009E1400000000080064008001AA
:100798000131890BCB2B0034833176238331D32B62
:1007A8008031062873084001AC007208AB000800CD
:1007B80073084001AE007208AD00080073084001DC
:0807C800AA007208A900080054
:1009FE0085314E2D080001347E1485314E01961E30
:100A0E00092D0A2D122D8C1E0D2D0E2D122D953108
:100A1E009A2585314C2D161E152D162D1E2D0C1EAC
:100A2E00192D1A2D1E2D9431532485314C2D0B1F4B
:100A3E00212D222D4C2D1A1C252D262D2E2D101C30
:100A4E00292D2A2D2E2D9531B12585314C2D191E8E
:100A5E00312D322D3D2D0F1E352D362D3D2D4101C3
:100A6E0051088A0050080A0085314C2D991E402DE0
:100A7E00412D4C2D8F1E442D452D4C2D41014F08DF
:100A8E008A004E080A0085314C2D7E100900400167
:100A9E008531512D4101853102258531E400983093
:100AAE008400893085002030860001308700463072
:100ABE00943106248531FA01FB01A0308400003008
:100ACE0085001C30943100248531A0308400013023
:100ADE00850020309431002485312030840002308E
:100AEE0085004030943100248531A03084000230DE
:100AFE00850040309431002485312030840003304D
:100B0E00850040309431002485317E1040018D31B6
:100B1E00AC2D4001A400A301292F0930F2004001A1
:100B2E002408953117258531263E86000130870031
:100B3E0081010930F20040012408953117258531D5
:100B4E00253E8600013087008101810A4001A30104
:100B5E00462F0130F8000930F2004001240895318B
:100B6E0017258531263E86000130870078088107DB
:100B7E000930F20040012408953117258531233EB6
:100B8E008600013087000930F200400124089531BB
:100B9E0017258531263E84000130850000080102AC
:100BAE000318DA2DDB2D012E0930F2004001240846
:100BBE00953117258531263E86000130870081014B
:100BCE000930F20040012408953117258531273E62
:100BDE008600013087000108F8000930F20040015C
:100BEE002408953117258531213E86000130870076
:100BFE00780881070930F200400124089531172545
:100C0E008531213E860001308700010A031D102E1A
:100C1E00112E372E0930F200400124089531172588
:100C2E008531213E860001308700FE30810009307B
:100C3E00F20040012408953117258531253E8600A6
:100C4E0001308700023081000930F2004001240893
:100C5E00953117258531263E8600013087008101AA
:100C6E004001A301A30A462F0130F8000930F2001B
:100C7E0040012408953117258531263E8600013026
:100C8E008700780881070930F20040012408953169
:100C9E0017258531233E8600013087000930F2008A
:100CAE0040012408953117258531263E84000130F8
:100CBE008500000801020318652E662E8A2E093063
:100CCE00F20040012408953117258531263E860015
:100CDE000130870081010930F2004001240895316E
:100CEE0017258531273E8600013087000930F20036
:100CFE0040012408953117258531213E84000130AD
:100D0E008500010880020930F20040012408953167
:100D1E0017258531243E860001308700FE300106FE
:100D2E0003199A2E9B2ED32E0930F200400124086F
:100D3E00953117258531213E8600013087001F3001
:100D4E0001020318AB2EAC2ED32E0930F200400157
:100D5E002408953117258531213E86000130870004
:100D6E001E3081000930F20040012408953117250C
:100D7E008531253E8600013087008101810A0930C8
:100D8E00F20040012408953117258531263E860054
:100D9E00013087008101372E0930F200400124080E
:100DAE00953117258531243E860001308700FE30AF
:100DBE000106031DE32EE42E372E0930F20040010A
:100DCE002408953117258531213E86000130870094
:100DDE00023001020318F42EF52E372E0930F200E0
:100DEE0040012408953117258531213E86000130BA
:100DFE0087008101810A0930F200400124089531F3
:100E0E0017258531253E8600013087008101810A34
:100E1E000930F20040012408953117258531263E10
:100E2E008600013087008101372E0930F200400123
:100E3E002408953117258531253E8600013087001F
:100E4E008101462F0930F20024089531172585318E
:100E5E00253E8600013087000108F800F901790867
:100E6E00003A03193B2F1C2F7808003A0319942DD2
:100E7E00013A0319B02D033A03193B2E1C2F4001E2
:100E8E0024088A318622853140012308080040015A
:100E9E00E300550886008701403FD700413FD80048
:100EAE0057088400580885001200253A031D602F4C
:100EBE00612FD62F550886008701013081074131F9
:100ECE000318810A4101A301A40103100030031885
:100EDE000130AD00FF30A500FF30A60040015508DF
:100EEE0086008701403FE400413FE500640884002E
:100EFE00650885001200643A0319862F872F912FFB
:100F0E0064088400650885001200693A031D902F5D
:100F1E00912FCC2F56088600870101088400850189
:100F2E0002308107003FD700013FD8005708DB0091
:100F3E005808DC00890D893B8909DD00DE00DF00E1
:100F4E00E000E100E2006408013ED7000030653D9C
:100F5E00D8005508860087015708C03F5808C13F82
:100F6E005B08BA005C08BB005D08BC005E08BD00F3
:100F7E005F08BE006008BF006108C0006208C100C3
:100F8E0063088E31C9268731EE2F40015508860041
:100F9E0087010130810741310318810AEE2F550870
:100FAE0086008701403FD700413FD8005708840094
:100FBE00580885000008D900DA015908F5005A08CA
:100FCE00F6006308F700893156218731CC2F0800CF
:100FDE0044010E1DF32FF42FFB2F0E1071088D0000
:100FEE0070088C000E14FF2F71088D0070088C0095
:100FFE00080044018F01900101309100FE308D00F8
:10100E0070308C004E01101044010D084101C100DA
:10101E0044010C084101C0004E011A140130F200C7
:10102E000530F3009331F4238831013044018E00F2
:10103E00080041015608F5005508F4005408F30065
:10104E005308F2004C30F9009530F8007F30F7006D
:10105E002D30F6009731CA278831013072074101D1
:10106E00D3000030733DD4000030743DD500003005
:10107E00753DD60053084001A600410154084001B9
:10108E00A700410155084001A80041015608400142
:10109E00A9001130A936A80CA70CA60C890B512853
:1010AE002708A5002608A40008007B08203E86001D
:1010BE0002308700810142011D1D662867287328B2
:1010CE007B08203E860002308700811441014D08C6
:1010DE008A004C080A00883142019D1C7728782826
:1010EE0084287B08203E86000230870001154101CE
:1010FE004B088A004A080A0088317B08203E860089
:10110E0002308700010803198D288E289528410189
:10111E0049088A0048080A00883198289531C82560
:10112E00883108004E0199125C30F2000830F3004D
:10113E009331DC2388314E0119123330F200163010
:10114E00F3009331E2238831083042019F00903042
:10115E009D0024309E0022309B009C01AA30F2009C
:10116E001330F3009331D0238831B430F2001330B2
:10117E00F3009331D6238831B030F2001330F300F0
:10118E009331CA2388314101B801BB01BA01403005
:10119E00D200FB01FA01B9014E0199160800F800C0
:1011AE000930F2007808953117258831213E8600E6
:1011BE00013087000930F200780895311725883103
:1011CE00243E840001308500000881000930F200C1
:1011DE007808953117258831233E86000130870027
:1011EE0081010930F2007808953117258831253EA6
:1011FE0086000130870081010930F20078089531B0
:10120E0017258831263E8600013087008101780837
:10121E008A318622883101300800400198019901F7
:10122E009A01073092001030930002309400023081
:10123E007E01CE00C301B801C401B901CF01BA01CC
:10124E00C501D0011F30BB00C6013F30D1003F3079
:10125E00BC00C7013F30D2004A1249164816AB30C7
:10126E00F2001330F3009331E82389314E01161644
:10127E000F307E01A00011307D01C3000B307E01C6
:10128E00A3000E309F000A30A4000930A5000C30D8
:10129E00A6000D30A70002307D01CB0008007708B4
:1012AE0003195A295B2960297708031D5F296029D4
:1012BE00652975089331FA23893197297708083EF5
:1012CE00860087011600010403196E296F298E29E5
:1012DE007708083E86008701403F4001A000413F4D
:1012EE00A1007708023E86008701403FA200413FE1
:1012FE00A3002308803AA4002108803A2402031D8B
:10130E008A292008220203188D298E299729770809
:10131E00023E860087010130810741310318810AA0
:10132E0008000034003400340034FE34003400343D
:10133E00013400340134003400340034FE340034FF
:10134E0000340134013402340034003400341934D2
:10135E0000340034013402340334003400340034D9
:10136E0019340034003401340334043400340034AE
:10137E000034503400340034013404340534003465
:10138E000034003450340034003401340534FF345A
:10139E000334FF340334FF340334FF340334FF3497
:1013AE000334FF340334FF340334FF340334400179
:1013BE00A800A9010C2A25089631FA268931400188
:1013CE00A900282A25088831D62089314001A90094
:1013DE00282A250897312D2789314001A900282A6E
:1013EE0025089531042589314001A900282A2508B0
:1013FE008531902589314001A900282A25088A3196
:10140E00FC2289314001A900282A2808A600A7013C
:10141E002708003A0319142A282A2608003A031925
:10142E00E229013A0319E929033A0319F029013A8D
:10143E000319F729073A0319FE29013A0319052A58
:10144E00282A2908080040010D1E2E2A2F2A5F2A5D
:10145E004201B401B40ABD01BD0A403041013D0252
:10146E00003003193C02031C3D2A3E2A5B2A05303C
:10147E004201A200FE30A100A5019630A300053066
:10148E00AB00AA01AE019630AC000430C600FF30AE
:10149E00C5000230C900C701C70A0430CF00503062
:1014AE00CE00D201D001D00A400118121A157A2AA4
:1014BE0003304201B4000330BD00A201AB01C601EE
:1014CE00C60ACF01CF0A3F3041013D02FF3003195A
:1014DE003C020318732A742A772A40011816792AB7
:1014EE00400118121A11883120208A314001250836
:1014FE004101BD00400124084101BC00080040012B
:10150E00A0000930F2002008953117258A31213EBE
:10151E008600013087000108F600F701F635F70D59
:10152E00F635F70D76084001A1007708A200D52AFE
:10153E0040012208F3002108F2009431DE248A31A2
:10154E00FB2A40012208F3002108F2009431F12415
:10155E008A31FB2A40012208F3002108F20095315E
:10156E002C258A31FB2A40012208F3002108F200C3
:10157E00953142258A31FB2A40012208F3002108C9
:10158E00F200953158258A31FB2A40012208F300DA
:10159E002108F20095316E258A31FB2A0930F200BE
:1015AE002008953117258A31283E860001308700A4
:1015BE000108F600F7017708003A0319E72AFB2A1B
:1015CE007608003A03199F2A013A0319A82A033A0A
:1015DE000319B12A013A0319BA2A073A0319C32A81
:1015EE00013A0319CC2AFB2A08004001A400A301EA
:1015FE009C2B0930F20040012408953117258A31C1
:10160E00263E86000130870081010930F20040013C
:10161E002408953117258A31253E86000130870032
:10162E008101810A4001A301B62B0130F800093077
:10163E00F20040012408953117258A31263E860096
:10164E0001308700780881070930F2004001240834
:10165E00953117258A31233E8600013087000930E7
:10166E00F20040012408953117258A31263E840068
:10167E0001308500000801020318462B472B7E2BF4
:10168E000930F20040012408953117258A31263E93
:10169E0086000130870081010930F20040012408E4
:1016AE00953117258A31213E860001308700FE30A4
:1016BE000106031D632B642B712B0930F2004001D0
:1016CE002408953117258A31213E86000130870086
:1016DE0081017E2B0930F200400124089531172537
:1016EE008A31213E860001308700FE3081000930AC
:1016FE00F20040012408953117258A31253E8600D7
:10170E00013087008101810A4001A301A30AB62B93
:10171E000930F20040012408953117258A31253E03
:10172E008600013087008101B62B0930F2002408B3
:10173E00953117258A31253E860001308700010834
:10174E00F800F9017908003A0319AE2B8F2B7808AF
:10175E00003A0319002B013A03191C2B8F2B400161
:10176E0024088A3186228A31400123080800F401B8
:10177E002830860000308700473FF200F21FC82B4A
:10178E00C92BEA2B4001A809A909AA09AB09AC0982
:10179E00AD09AE09AF09A80A031DE82BA90A031D5E
:1017AE00E82BAA0A031DE82BAB0A031DE82BAC0A93
:1017BE00031DE82BAD0A031DE82BAE0A031DE82B13
:1017CE00AF0AF401F40A2030860000308700473F4C
:1017DE00F200F21FF32BF42B132C4001A009A109E8
:1017EE00A209A309A409A509A609A709A00A031D10
:1017FE00132CA10A031D132CA20A031D132CA30ADA
:10180E00031D132CA40A031D132CA50A031D132C50
:10181E00A60A031D132CA70A400120082104220446
:10182E002304240425042604270403191F2C202C2A
:10183E00732CF301F30A2F2CA035A10DA20DA30DCD
:10184E00A40DA50DA60DA70D0130F2007208F30729
:10185E00A71F322C332C232C27082F02031D512CAB
:10186E0026082E02031D512C25082D02031D512C76
:10187E0024082C02031D512C23082B02031D512C6E
:10188E0022082A02031D512C21082902031D512C66
:10189E0020082802031C542C552C652C2008A80265
:1018AE002108A93B2208AA3B2308AB3B2408AC3BEA
:1018BE002508AD3B2608AE3B2708AF3BA736A60C46
:1018CE00A50CA40CA30CA20CA10CA00C0130F302CD
:1018DE00031D722C732C332C74080319772C782C5F
:1018EE00962CA809A909AA09AB09AC09AD09AE093C
:1018FE00AF09A80A031D962CA90A031D962CAA0A45
:10190E00031D962CAB0A031D962CAC0A031D962CB8
:10191E00AD0A031D962CAE0A031D962CAF0A40018C
:10192E002808A0002908A1002A08A2002B08A3005D
:10193E002C08A4002D08A5002E08A6002F08A7002D
:10194E0008004001B1012030860000308700473F7B
:10195E00F200F21FB32CB42CD62C4001A009A10921
:10196E00A209A309A409A509A609A709A00A031D8E
:10197E00D32CA10A031DD32CA20A031DD32CA30A18
:10198E00031DD32CA40A031DD32CA50A031DD32C8F
:10199E00A60A031DD32CA70A4001B101B10A2830B3
:1019AE00860000308700473FF200F21FDF2CE02C4C
:1019BE00042D4001A809A909AA09AB09AC09AD0972
:1019CE00AE09AF09A80A031DFF2CA90A031DFF2C9F
:1019DE00AA0A031DFF2CAB0A031DFF2CAC0A031D24
:1019EE00FF2CAD0A031DFF2CAE0A031DFF2CAF0A00
:1019FE000130F20072084001B1063230860000302C
:101A0E0087000830F20000301E00F20B0B2D400153
:101A1E002008210422042304240425042604270478
:101A2E0003191A2D1B2D772DB001B00A2A2DA035C2
:101A3E00A10DA20DA30DA40DA50DA60DA70D013090
:101A4E00F2007208B007A71F2D2D2E2D1E2DB235B8
:101A5E00B30DB40DB50DB60DB70DB80DB90D2708F4
:101A6E002F02031D542D26082E02031D542D25086A
:101A7E002D02031D542D24082C02031D542D230862
:101A8E002B02031D542D22082A02031D542D21085A
:101A9E002902031D542D20082802031C572D582DF2
:101AAE00692D2008A8022108A93B2208AA3B230879
:101ABE00AB3B2408AC3B2508AD3B2608AE3B2708C4
:101ACE00AF3B3214A736A60CA50CA40CA30CA20C8B
:101ADE00A10CA00C0130B002031D762D772D2E2DFA
:101AEE00310803197B2D7C2D9A2DB209B309B40947
:101AFE00B509B609B709B809B909B20A031D9A2D75
:101B0E00B30A031D9A2DB40A031D9A2DB50A031D9F
:101B1E009A2DB60A031D9A2DB70A031D9A2DB80ADF
:101B2E00031D9A2DB90A40013208A0003308A10006
:101B3E003408A2003508A3003608A4003708A50013
:101B4E003808A6003908A70008009631CC268D313A
:101B5E008B170B17B830F2001330F3009331EE23CE
:101B6E008D31BC30F2001330F3009331F4238D31FC
:101B7E000C30F2001430F3009331E8238D31113024
:101B8E00943182248D31953184258D319A304101E5
:101B9E00D7009830D8009431B9248D3141013708DF
:101BAE000319DA2DDB2DE52D973161278D31013AA1
:101BBE00031DE22DE32DE52D4101B701410136084C
:101BCE000319EA2DEB2DF52D3308031DEF2DF02D06
:101BDE00F52D8A312A228D314101B60135080319BE
:101BEE00F92DFA2DB92EA82E9331AD238D31410149
:101BFE00B201B20AB92E943113248D31003A031971
:101C0E00092E0A2EB92E9331C4238D31730841014A
:101C1E00AA007208A9003135563E860001308700B1
:101C2E002908C03F2A08C13F01304001EE006E086E
:101C3E004101B10708303102031C262E272E282E13
:101C4E00B101A701A801E3016335563E86000130BC
:101C5E008700403F4001EE00413FEF006E0841011A
:101C6E00A70740016F084101A83D01304001EE0079
:101C7E006E084101E30708306302031C472E482E0D
:101C8E002B2E28084001EF00410127084001EE00ED
:101C9E00EF36EE0CEF36EE0CEF36EE0C6E08410121
:101CAE00A70040016F084101A80002302802EE3063
:101CBE00031927020318642E652E672EB401B40A89
:101CCE00B501B2019A30D7009830D8009431B924BA
:101CDE008D3189304101D7009830D8002808400155
:101CEE00EF00410127084001EE00EE35EF0DEE3515
:101CFE00EF0D6E084101D90040016F084101DA0075
:101D0E009431B9248D3177304101D7009830D80005
:101D1E002A08DA002908D9009431B9248D3194317A
:101D2E005C248D31003A03199D2E9E2EB92E9631CC
:101D3E007B268D319631A3268D31B92E4101B2010C
:101D4E00B92E32084001EE00EF016F08003A031978
:101D5E00B12EA52E6E08003A0319FB2D013A031978
:101D6E00022EA52E410134080319BE2EBF2ED52DED
:101D7E009431CB248D314101B401B301B30AD52D79
:101D8E0085314E2D4001C5003A08CA003B08CB00F4
:101D9E003C08CC003D08CD003E08CE003F08CF00E9
:101DAE004008D0004108D1004A308600003087003C
:101DBE00473FC200C21BE42EE62E0130E72E003054
:101DCE004001D20052080319ED2EEE2E0C2FCA0937
:101DDE00CB09CC09CD09CE09CF09D009D109CA0A40
:101DEE00031D0C2FCB0A031D0C2FCC0A031D0C2F29
:101DFE00CD0A031D0C2FCE0A031D0C2FCF0A031D77
:101E0E000C2FD00A031D0C2FD10A41012608803A4F
:101E1E004001C20080304202031D182F01304101E3
:101E2E00250203181B2F1C2F222F01304001C60044
:101E3E000030C7002A2F410126084001C70041018A
:101E4E0025084001C600410124084001C900410196
:101E5E0023084001C80052080319362F372F4B2F85
:101E6E00FF30C807FF30C93D5208031D3F2F402FDA
:101E7E00452F2B30C3000030C400492F2D30C30036
:101E8E000030C4004308D2001F30D3000030D4000D
:101E9E004301BF01BB2FFF304001D307FF30D43DBC
:101EAE000A30A000A101A201A301A401A501A6016F
:101EBE00A7014A08A8004B08A9004C08AA004D0823
:101ECE00AB004E08AC004F08AD005008AE005108F4
:101EDE00AF008B31BE238E3140012108F600200861
:101EEE00F5009531E1258E317508303E4001C20076
:101EFE005308A03E86000130870042088100FF3063
:101F0E00C607FF30C73DFF30C807FF30C93D0A3056
:101F1E00A000A101A201A301A401A501A601A70190
:101F2E004A08A8004B08A9004C08AA004D08AB00AF
:101F3E004E08AC004F08AD005008AE005108AF007F
:101F4E008C31A8248E3140012008CA002108CB0014
:101F5E002208CC002308CD002408CE002508CF008F
:101F6E002608D0002708D10040015408803AC2004C
:101F7E0080304202031DC52F01305302031CC82FAF
:101F8E00C92FE32F40014A084B044C044D044E0464
:101F9E004F0450045104031DD52FD62F522F47083E
:101FAE00803AC20080304202031DDF2F013046020C
:101FBE000318E22FE32F522F400152080319E82F86
:101FCE00E92FF42FFF30D307FF30D43D5308A03E46
:101FDE00860001308700520881005308A03EAB00F6
:101FEE004908AD004808AC004508973195278E3159
:101FFE000800FF3FFF3FFF3FFF3FFF3FFF3FFF3F19
:10200E00FF3FFF3FFF3FFF3FFF3FFF3FFF3FFF3FD2
:10201E00FF3FFF3FFF3FFF3FFF3FFF3FFF3FFF3FC2
:10202E00FF3FFF3FFF3FFF3FFF3FFF3FFF3FFF3FB2
:10203E00FF3FFF3FFF3FFF3FFF3FFF3FFF3FFF3FA2
:10274E00FF3FFF3FFF3F08000800080041019D14B6
:10275E0008009531C8259331080042011D121D163F
:10276E0008004101B501B50A08004101B701B70AD9
:10277E000800823052018C00080041011C08F30051
:10278E001B08F200080073084101C9007208C80056
:10279E00080073084101CD007208CC0008007308D0
:1027AE004101CB007208CA00080073084101CF0036
:1027BE007208CE00080073084101D1007208D000E3
:1027CE00080073084101C7007208C60008007308AC
:1027DE004101C3007208C200080073084101BF0026
:1027EE007208BE000800F40074089631A3269331D7
:1027FE000800640080010131890B012C0034FE00B9
:10280E0012001E00FE0B072C00344101B601B60A61
:10281E0094314A2494310800031041019D1C031485
:10282E000030093D08008F3046018E0001308D00CA
:10283E008F308C0008008F304601920001309100DD
:10284E008F3090000800803046019600633095006E
:10285E00C03094000800803046019A006330990021
:10286E00C03098000800803046019E0063309D0005
:10287E00C0309C000800803047018E0063308D0010
:10288E00C0308C000800410145084B019D004101FC
:10289E0044084B019C0008007E014A1E572C582C00
:1028AE005B2C9431AA249431080041013908031D90
:1028BE00612C632C0130642C00300800E3304101A0
:1028CE009E009F019B019C0101309D000800720833
:1028DE00FF3E4101D300FF30733DD400D501D60138
:1028EE000800603051018D008F0191010530930079
:1028FE00900192010800F3007308F200F20DF20D40
:10290E0041011D087206033972069D001D14080050
:10291E0006304F019600803097004730980099019D
:10292E0091309A001E309B00080001304501900046
:10293E008F019101C7308D008C014E0190108030B7
:10294E0045018E0008004101460847040319B02CCA
:10295E00B12CB62C47088A0046080A0094317E0135
:10296E004A120800D9304001ED00410158084001DB
:10297E00E700410157084001E6006D30E8000030E5
:10298E0096311726943108004001181298129912A8
:10299E00191314154201B401BD010530A200FE3019
:1029AE00A1009630A300AB01C601CF010800FF3095
:1029BE00F2050330F30546010E1EE62CE72CEC2C37
:1029CE000630F235F30D890BE82C73088D00720872
:1029DE008C000800FF30F2050330F3054601121E8D
:1029EE00F92CFA2CFF2C0630F235F30D890BFB2C4B
:1029FE0073089100720890000800F8000930F20088
:102A0E007808953117259531213E860001308700D3
:102A1E007F30810078088A31862295310130080096
:102A2E00F500F401751C1C2D1D2D212D7208F300CF
:102A3E007308F4070310F20D0310F50C7508031D4F
:102A4E00292D2A2D192D740808007308F500720817
:102A5E00F400F536F40CF536F40C740846019500C6
:102A6E0072080339F4000530F435FF3E031D3B2D8B
:102A7E007435940008007308F5007208F400F536FA
:102A8E00F40CF536F40C74084601990072080339FB
:102A9E00F4000530F435FF3E031D512D74359800BA
:102AAE0008007308F5007208F400F536F40CF536DC
:102ABE00F40C740846019D0072080339F4000530C9
:102ACE00F435FF3E031D672D74359C000800730816
:102ADE00F5007208F400F536F40CF536F40C7408B3
:102AEE0047018D0072080339F4000530F435FF3EBE
:102AFE00031D7D2D74358C0008000D30F200003062
:102B0E00F30094316E2495318831202095314001A7
:102B1E0025084101BD00400124084101BC008A3155
:102B2E002A22953108004E018C12410145084B01B5
:102B3E009D00410144084B019C00410142084304A1
:102B4E000319AA2DAB2DB02D43088A0042080A00A6
:102B5E00953108004E01101041014108F100400866
:102B6E00F0008731EF27953141013E083F040319EC
:102B7E00C12DC22DC72D3F088A003E080A0095318F
:102B8E0008007B08203E86000330870042011908AA
:102B9E0081000130F0007008FB0740307B02031CFF
:102BAE00D92DDA2DDB2DFB010130F000700841012B
:102BBE00B90708007608803AF70080307702031DC7
:102BCE00EA2D013075020318ED2DEE2DFA2D750943
:102BDE00F7007609F800F70A0319F80A7708F500E6
:102BEE007808F600FA2D08004A304B019F00FC30A1
:102BFE009D002F309C001D084101C5004B011C0893
:102C0E004101C4004E018C129616AC30F200133006
:102C1E00F3009331EE23953190304B019E00080066
:102C2E004001EA006708EC006608EB00262E6B30C8
:102C3E00D5006808D6006A0887314E2796314001C4
:102C4E006B0884006C0885001200031D2F2E302E99
:102C5E001E2EE601E7010800403041015202031822
:102C6E00392E3A2E532E3A08A03E860002308700A7
:102C7E00010842019A000130F00070084101BA07C4
:102C8E0040303A02031C4C2E4D2E4E2EBA0101300E
:102C9E00F0007008D207552E4E011912080040019F
:102CAE00A700A901AA016C2E2808A500A6012508D7
:102CBE00F5002608F6007808F7008931562196317E
:102CCE0001304001A9070030AA3D29082707A500B9
:102CDE0025088600013087000108A8002808031D7A
:102CEE00792E7A2E5B2E0800410139080319802EA9
:102CFE00812E7B2E7A08203E860002308700010846
:102D0E00B8007A08203E8600033087000108F300E1
:102D1E000130F2007208FA0740307A02031C982E36
:102D2E00992E9A2EFA014E01991201304101B902E3
:102D3E004E01991673080800F30041015208031959
:102D4E00A92EAA2EA42E4E01191AAE2EAF2EB32ED8
:102D5E00730842019A00C92E191241013B08A03E88
:102D6E00860002308700730881000130F20072087D
:102D7E00BB0740303B02031CC52EC62EC72EBB011F
:102D8E000130D2024E011916080094318F2496316B
:102D9E008931142196319431782496319331C023A0
:102DAE0096319431222496319431322496319431D5
:102DBE009C2496319531FB259631943142249631DF
:102DCE0094311A24963194316524963194312A2403
:102DDE00963194313A2496318831002096318831DB
:102DEE00992096310800F8000930F20078089531E4
:102DFE0017259631213E860001308700810109306A
:102E0E00F2007808953117259631233E8600013061
:102E1E00870081010930F200780895311725963127
:102E2E00253E86000130870081010930F2007808C6
:102E3E00953117259631263E860001308700810197
:102E4E0078088A318622963101300800F800093060
:102E5E00F2007808953117259731213E8600013012
:102E6E008700FE3081000930F20078089531172571
:102E7E009731233E86000130870081010930F20030
:102E8E007808953117259731253E86000130870049
:102E9E0081010930F2007808953117259731263EC9
:102EAE00860001308700810178088A3186229731A9
:102EBE00013008004101AF014001AC01AD01093004
:102ECE00F2002D08953117259731223E86000130EC
:102EDE00870001084001AB002D08A5002B088931A1
:102EEE00DE2197314001AA002A08AC070130AA0062
:102EFE002A08AD0706302D02031C862F872F662F5A
:102F0E0005302C02031C8C2F8D2F912F4101AF0108
:102F1E00AF0A932F4101AF012F0808004001B20004
:102F2E00AD1B9A2F9B2FA02F2D08B1002C08B0009F
:102F3E00A22FB001B101AE01AF01B42F2030F500C8
:102F4E000030F60040013208F700893156219731E2
:102F5E0001304001AE070030AF3D2F08803AF90036
:102F6E003108803A7902031DBE2F30082E02031C51
:102F7E00C12FC22FA52F40013208F8002B08963121
:102F8E0056269731080000304001A3000030A20001
:102F9E000030A1000030A000721CD62FD72FE02FDA
:102FAE0076084001A0077708A13D7808A23D790870
:102FBE00A33D0130F635F70DF80DF90D890BE12F14
:102FCE000130F536F40CF30CF20C890BE82F750872
:102FDE00740473047204031DF52FF62FD32F4001D2
:102FEE002308F5002208F4002108F3002008F2005F
:102FFE0008004C34653464342034233420347C345B
:10300E002034503472346F34673420347C3420349E
:10301E0049346E34743465346E34733469347434B4
:10302E00793420347C342034503472346F34673425
:10303E005F345334743461347434653420347C34E6
:10304E002034533470346534653464340A340D34AA
:10305E000034253464342034203420342034203499
:10306E007C3420342534643420342034203420340D
:10307E007C342034253464342034203420342034FD
:10308E0020342034203420347C34203425346434ED
:10309E002034203420342034203420342034203482
:1030AE0020347C342034253464340A340D34003416
:1030BE00533465346C346534633474342034503492
:1030CE0057344D3431342D3436342034773469341A
:1030DE0074346834203461342D3466342E34003424
:1030EE0041344434433420343D3420342534643464
:1030FE0020345B346434653463345D342E340A34E6
:10310E000D34003441344434433420343D342034BF
:10311E002534643420345B346D3456345D342E34AF
:10312E000A340D3400341B345B3432344A341B34CD
:10313E005B3431343B34313448340034FF3FFF3F8D
:10314E00FF3FFF3FFF3FFF3FFF3FFF3FFF3FFF3F81
:10315E00FF3FFF3FFF3FFF3FFF3FFF3FFF3FFF3F71
:10316E00FF3FFF3FFF3FFF3FFF3FFF3FFF3FFF3F61
:10317E00FF3FFF3FFF3FFF3FFF3FFF3FFF3FFF3F51
:023FFE00375F2B
:020000040001F9
:08000000FF3FFF3FFF3FFF3F00
:0A000E00EC3FFD359F3FFF1FFF3F51
:00000001FF
