:04000000803106281D
:100008008431242C80310828203084000030850079
:1000180009308331F8238031A03084000030850016
:1000280049308331F823803140018331FE2B42016E
:100038009E1C1F2820281B288331E523803142017C
:100048001F142D289F1F29282A282D281F109F1389
:100058001F141F183028312826288331B4238031F3
:100068004001B201B3010930B0000030B1006C2882
:100078008331B42380314001AF003208A03E8600AE
:1000880087012F0881000130B2070030B33D0430EA
:1000980032063304031D512852286C2802304101CE
:1000A8002006031958285928652805302006031901
:1000B8005E285F28652807302006031D6428652808
:1000C8006C2821084001B007410122084001B13DD8
:1000D800400131083302031D732830083202031C23
:1000E800762877283C28813192218031FC00FD0157
:1000F8007C084001B0007D08B10055308331DB2316
:1001080080314001B201B30196283208A03E860032
:10011800870101088331DB23803101304001B207B8
:100128000030B33D31083302031D9C2830083202E9
:10013800031C9F28A02889281B280800410125089E
:1001480050019A004101260850019B00A4309E00EE
:100158001B08F200F3017208F300F2017208F500BF
:100168007308F6001A08F200F3017208F50773081D
:10017800F63DFF307505F2007F307605F300043058
:1001880073022030031972020318CB28CC28D12817
:10019800FE304101A9000A302329F701F80112298C
:1001A8001F3050011A05F2001F3072060319DD28AE
:1001B800DE28EF2841012108FE3EF200FF30223DF3
:1001C800F30078087306031DEB2877087206031DF1
:1001D800EE28EF28F12850019E127708A93E8600E4
:1001E8008701010850019C007708AA3E8600870114
:1001F80001089D008331EF2380310130F20072083D
:1002080050019A07031D09290A290E290130F20015
:1002180072089B070230F7070030F83D41012208B9
:100228007802031D192921087702031C1C291D299E
:10023800D428A901A90A4001F001F1010A300800F7
:100248004101250850019A004101260850019B00F0
:100258001B08F200F3017208F300F2017208F500BE
:100268007308F6001A08F200F3017208F50773081C
:10027800F63DE0307505F2007F307605F300043076
:10028800730220300319720203184B294C29512993
:10029800FE304101A9000A309129F701F8018129AE
:1002A80050011B087F39F200F3011A08083E890A39
:1002B8005F29F235F30D890B5D291F3073028030F9
:1002C80003197202031C69296A296B294C29943085
:1002D8009E008331EF2381312030F20072085001F3
:1002E8009A07031D782979297D290130F2007208BF
:1002F8009B070130F7070030F83D410122087802DA
:10030800031D882921087702031C8B298C2954296D
:10031800A901A90AA301A4010A3008004101230880
:100328004001F000410124084001F100C629823152
:100338008D228131FB00E6298231D4228131FB00F4
:10034800E6298031A2208131FB00E6298131242170
:100358008131FB00E629833110238131FB00E62936
:1003680082313E228131FB00E629A901A90A400118
:10037800A501A50A0A30FB00E629FF30A9000A30CA
:10038800FB00E62941012008F900FA017A08003A41
:100398000319CF29C1297908003A03199B29013A81
:1003A8000319A029033A0319A529013A0319AA290F
:1003B800053A0319AF290E3A0319B429013A03196A
:1003C800B929C1297B080800FC0100000130F700A9
:1003D8007708FC077C0A031DF229F329E929400163
:1003E8000C18F729F829FA2901303D2A2030410153
:1003F800A5000430A600BC30A1003630A20082312E
:100408003E2281317E3050019A001F309B001E141D
:100418000000000050011C08F700F8017708FA00F6
:100428007808FB000130F70077089A07031D1D2A9A
:100438001E2A222A0130F70077089B071E140000A5
:10044800000050011C08F700F8017708F800F701D0
:100458007708FA077808FB3D400123087B06031D4F
:10046800372A22087A0603193A2A3B2A3C2AF8290D
:10047800003008004101250850019A004101260872
:1004880050019B0080309E004001A201A301F501AC
:10049800F601782A50011E140000000050011C08C3
:1004A800F200F30172084001A2077308A33D50014E
:1004B8001D08F200F3017208F300F201720840010E
:1004C800A2077308A33D0130F200720850019A0791
:1004D800031D6F2A702A742A0130F20072089B07E4
:1004E8000230F5070030F63D410122087602031D6F
:1004F8007F2A21087502031C822A832A4E2A40017A
:1005080022084101A900400123084101AA000B303B
:10051800080008304101A900AA01AB01AC01AC0AEE
:10052800AD01AE01063050019A009B011E171E1442
:100538000000000050011C084101AF0050011D08D7
:100548004101B000B101B2012030B3002030B40045
:1005580050019A019B011E170C30F3001E14000075
:1005680000007308A93E8600870150011C0881001D
:100578000130F20072089A07031DC32AC42AC82A48
:100588000130F20072089B070130F2007208F3078D
:1005980010307302031CD12AD22AB22A193008005B
:1005A8004101250850019A004101260850019B008D
:1005B80080309E00F301F401022B50011E1400004C
:1005C80000007308A93E8600870150011C088100BD
:1005D8007308AA3E860087011D0881000130F200D9
:1005E80072089A07031DF92AFA2AFE2A0130F20036
:1005F80072089B070230F3070030F43D41012208DE
:100608007402031D092B21087302031C0C2B0D2BEC
:10061800E12A2108093E08004101250850019A00F5
:100628004101260850019B0040309E00F401352B03
:1006380050011E14000000007408A93E86008701BE
:1006480050011C0881007408AA3E860087011D0815
:1006580081000130F20072089A070230F200720835
:10066800F4077408F200F301410122087302031D24
:100678003F2B21087202031C422B432B1C2B0D30ED
:1006880008004001980199019A0117309200F03052
:100698009300FE3094007E01CE01C301B801C4016D
:1006A8000130B900CF01BA01C501D0011F30BB002C
:1006B800C6013F30D1003F30BC00C7013F30D200F7
:1006C8000F30A00002307D01CB0008000830420145
:1006D8009F0090309D0024309E0022309B009C019A
:1006E8000030F2000030F30084310A2483310030F6
:1006F800F2000030F3008431042483310030F2002A
:100708000030F3008431102483314001A401080033
:100718004001F001F10198168131E8218331013A55
:10072800031D972B982B9B2B80311B2083311F3067
:100738007F01ED004001880198128431202C0800C7
:100748008331C42383318331452383318331D123DA
:10075800833183316A23833183318C2383310800C9
:100768004E018F1EB82BB92BB42B4001A4014201B6
:100778009D1CBF2BC02BC22B1D121D16190808006B
:1007880002304F0196008030970047309800990159
:1007980091309A001E309B000800603051018D0096
:1007A8008F01910105309300900192010800F20039
:1007B8004E010F1EE02BE12BDC2B720842019A0040
:1007C800080040012503031DEA2BEB2BEE2B9212A8
:1007D800981201000800640070089F0071089F00CB
:1007E8009E14000000000800640080010131890B9C
:1007F800F92B00348331A4238331012C803106285E
:1008080073084001AC007208AB000800730840018F
:10081800AE007208AD00080073084001AA00720813
:04082800A90008001B
:020000040001F9
:0A000E00EC3FFD359F3FEF1FFF3F61
:00000001FF
