:040000003AEF00F0E3
:100008005A82FACF03F0FBCF04F0F2AA0EEF00F009
:1000180010EF00F01BEF00F0F2A415EF00F017EF5F
:1000280000F01BEF00F0BFECA5F034EF00F0F2ACED
:1000380020EF00F022EF00F034EF00F09DA027EF52
:1000480000F029EF00F034EF00F09EA02EEF00F052
:1000580030EF00F034EF00F09FECA5F034EF00F043
:1000680004C0FBFF03C0FAFF5A921100FDEF98F09D
:10F60C00009DFD0500E6FC080011FC09000000004F
:10F61C0000000000000000000000000000000000DE
:10F62C0000000000000000000000000000000000CE
:10F63C0000000000000000000000000000000000BE
:10F64C0000000000000000000000000000000000AE
:10F65C00000000000000000000000000000000009E
:10F66C00000000000000000000000000000000008E
:10F67C000000000000A6FA1000ACFD0500FEFC081E
:10F68C00002CFC090000000000000000000000003D
:10F69C00000000000000000000000000000000005E
:10F6AC00000000000000000000000000000000004E
:10F6BC00000000000000000000000000000000003E
:10F6CC00000000000000000000000000000000002E
:10F6DC00000000000000000000000000000000001E
:10F6EC0000000000000000000000000000D6FA102E
:10F6FC0000BBFD050016FD080047FC0900000000DA
:10F70C0000000000000000000000000000000000ED
:10F71C0000000000000000000000000000000000DD
:10F72C0000000000000000000000000000000000CD
:10F73C0000000000000000000000000000000000BD
:10F74C0000000000000000000000000000000000AD
:10F75C00000000000000000000000000000000009D
:10F76C00000000000006FB1000CAFD05002EFD087D
:10F77C000062FC0900000000000000000000000016
:10F78C00000000000000000000000000000000006D
:10F79C00000000000000000000000000000000005D
:10F7AC00000000000000000000000000000000004D
:10F7BC00000000000000000000000000000000003D
:10F7CC00000000000000000000000000000000002D
:10F7DC000000000000000000000000000036FB10DC
:10F7EC0000D9FD050046FD08007DFC090000000065
:10F7FC0000000000000000000000000000000000FD
:10F80C0000000000000000000000000000000000EC
:10F81C0000000000000000000000000000000000DC
:10F82C0000000000000000000000000000000000CC
:10F83C0000000000000000000000000000000000BC
:10F84C0000000000000000000000000000000000AC
:10F85C00000000000066FB1000E8FD05005EFD08DE
:10F86C000098FC09000000000000000000000000EF
:10F87C00000000000000000000000000000000007C
:10F88C00000000000000000000000000000000006C
:10F89C00000000000000000000000000000000005C
:10F8AC00000000000000000000000000000000004C
:10F8BC00000000000000000000000000000000003C
:10F8CC000000000000000000000000000096FB108B
:10F8DC0000F7FD050076FD0800B3FC0900000000F0
:10F8EC00000000000000000000000000000000000C
:10F8FC0000000000000000000000000000000000FC
:10F90C0000000000000000000000000000000000EB
:10F91C0000000000000000000000000000000000DB
:10F92C0000000000000000000000000000000000CB
:10F93C0000000000000000000000000000000000BB
:10F94C000000000000C6FB1000B4510152510142EE
:10F95C005101C63A01EE3C01A851011E41010C5265
:10F96C0001045201FC5101F45101EC5101E451012B
:10F97C00DC51019C5101AA45010006010502050359
:10F98C00060405050506060705080609050A050B04
:10F99C00050C060D050E050F0510061105120513B5
:10F9AC00061405150616051705414447484E5355D0
:10F9BC005C5F6065696A7277787B7E1F1E1F1E1FF5
:10F9CC001F1E1F1E1F1F1D0A00000088130000C8E9
:10F9DC00000000E8030000B80B0000E8030000E89A
:10F9EC0003000005000000D0070000C80000000A5A
:10F9FC0000008EFD0500CEFC0800F6FB090000009F
:10FA0C0000000000000000000000000000000000EA
:10FA1C0000000000000000000000000000000000DA
:10FA2C0000000000000000000000000000000000CA
:10FA3C0000000000000000000000000000000000BA
:10FA4C0000000000000000000000000000000000AA
:10FA5C00000000000000000000000000000000009A
:10FA6C0000000000000076FA100000000001000009
:10FA7C00020000030000040000050000060000075F
:10FA8C0000000800000900000A00000B00000C0038
:10FA9C00000D00000E00000F00000000000100002F
:10FAAC00020000030000040000050000060000072F
:10FABC0000000800000900000A00000B00000C0008
:10FACC00000D00000E00000F0000000000010000FF
:10FADC0002000003000004000005000006000007FF
:10FAEC0000000800000900000A00000B00000C00D8
:10FAFC00000D00000E00000F0000000000010000CF
:10FB0C0002000003000004000005000006000007CE
:10FB1C0000000800000900000A00000B00000C00A7
:10FB2C00000D00000E00000F00000000000100009E
:10FB3C00020000030000040000050000060000079E
:10FB4C0000000800000900000A00000B00000C0077
:10FB5C00000D00000E00000F00000000000100006E
:10FB6C00020000030000040000050000060000076E
:10FB7C0000000800000900000A00000B00000C0047
:10FB8C00000D00000E00000F00000000000100003E
:10FB9C00020000030000040000050000060000073E
:10FBAC0000000800000900000A00000B00000C0017
:10FBBC00000D00000E00000F00000000000100000E
:10FBCC00020000030000040000050000060000070E
:10FBDC0000000800000900000A00000B00000C00E7
:10FBEC00000D00000E00000F0000020001200000BC
:10FBFC00210000220000230000270000280000291B
:10FC0C0000002A0000020001200000210000220058
:10FC1C00002300002700002800002900002A000013
:10FC2C000200012000002100002200002300002718
:10FC3C0000002800002900002A000002000120001A
:10FC4C0000210000220000230000270000280000F3
:10FC5C002900002A000002000120000021000022DF
:10FC6C0000002300002700002800002900002A00C3
:10FC7C0000020001200000210000220000230000EF
:10FC8C002700002800002900002A000002000120A3
:10FC9C0000002100002200002300002700002800A3
:10FCAC00002900002A0000020001200000210000B1
:10FCBC002200002300002700002800002900002A51
:10FCCC00000001000120000021000022000127009B
:10FCDC00012800012900002A000001000120000079
:10FCEC002100002200012700012800012900002A20
:10FCFC00000001000120000021000022000127006B
:10FD0C00012800012900002A000001000120000048
:10FD1C002100002200012700012800012900002AEF
:10FD2C00000001000120000021000022000127003A
:10FD3C00012800012900002A000001000120000018
:10FD4C002100002200012700012800012900002ABF
:10FD5C00000001000120000021000022000127000A
:10FD6C00012800012900002A0000010001200000E8
:10FD7C002100002200012700012800012900002A8F
:10FD8C0000000000012000012600002900012A00CB
:10FD9C00010000012000012600002900012A0001B9
:10FDAC000000012000012600002900012A000100AA
:10FDBC0000012000012600002900012A000100009A
:10FDCC00012000012600002900012A000100000189
:10FDDC002000012600002900012A0001000001205A
:10FDEC0000012600002900012A000100000120006A
:10FDFC00012600002900012A0001FFFFFFFFFFFF81
:10FE0C0060EA000000E80300003C25643E25642005
:10FE1C0025642D252E32642D252E326454252E3248
:10FE2C00643A252E32643A252E32645A2025642EEB
:10FE3C0025642E25642E256420257320257320250A
:10FE4C00732025735B25735D0D0A000A0A537461D8
:10FE5C007274696E67205379736C6F6720617420BC
:10FE6C00256C750A0069636D702077726F6E672060
:10FE7C00636B736D203A202578004541506F6C5FA1
:10FE8C005041434B45545F4641494C55524500380F
:10FE9C0030322E33206C656E6774682030782530D4
:10FEAC00346C5800444553545F49505F4E4F545F77
:10FEBC004D41544348454400495056345F434845EE
:10FECC00434B53554D5F4641494C530049434D50AC
:10FEDC005F434845434B53554D5F4641494C530096
:10FEEC004152505F49505F4E4F545F4D415443480F
:10FEFC00454400504F52545F4E4F545F4156414958
:10FF0C004C41424C45005443505F434845434B538E
:10FF1C00554D5F4641494C53005544505F4348454D
:10FF2C00434B53554D5F4641494C53003830322EAC
:10FF3C003320747970652030782530346C58005437
:10FF4C00585F4C4F4749435F4E4F545F49444C45B3
:10FF5C000054252E32643A252E32643A252E326412
:10FF6C005A0049505F57524F4E475F5645525349BE
:10FF7C004F4E004C494E4B5F4E4F545F464F554EC3
:10FF8C0044004D41435F4E4F545F464F554E440025
:10FF9C002025642E25642E25642E25640025642DD1
:10FFAC00252E32642D252E326400444D415F544978
:10FFBC004D454F5554004255464645525F425553A8
:10FFCC0059003C25643E256420005355434345535A
:10FFDC005300286E756C6C29004552524F5200200C
:10FFEC0025735B00474D5400202573005D002E00E7
:03FFFC002D0000D5
:020000040001F9
:10000000D8EF83F02FC022F030C023F0A70E246E6B
:10001000870E256EA2EC87F02FC022F030C023F0AF
:10002000A70E246E880E256EA2EC87F020EE08F055
:100030002F50D9263050DA2210EE0BF0DE50E12698
:10004000DD50E222E76A20EE14F02F50D92630501E
:10005000DA2210EE0BF0DE50E126DD50E222E76AF4
:1000600020EE02F02F50D9263050DA226D0EDF6ECE
:1000700020EE01F02F50D9263050DA226C0EDF6EC0
:1000800090ECA8F020EE20F02F50D9263050DA2244
:1000900005C0DEFF06C0DEFF07C0DEFF08C0DEFFD2
:1000A00020EE24F02F50D9263050DA22E80EDE6EF2
:1000B000030EDE6E000EDE6E000EDD6E20EE02F030
:1000C0002F50D9263050DA22DF50126E840E136E74
:1000D00020EE24F02F50D9263050DA22DECF05F062
:1000E000DECF06F0DECF07F0DECF08F0E80E096EB7
:1000F000030E0A6E000E0B6E000E0C6ECBEC9EF023
:100100000550146E2FC0D9FF30C0DAFFDF50A9ECC4
:10011000A4F0FFEF83F020EE08F02F50D9263050E6
:10012000DA2210EE0BF0DE50E126DD50E222E6048A
:10013000D8A49DEF80F09FEF80F000EF81F020EEDB
:100140000BF02F50D9263050DA22960EDE18D8A4A4
:10015000ACEF80F0AEEF80F000EF81F020EE08F021
:100160002F50D9263050DA2210EE0BF0DE50E12667
:10017000DD50E222E76A2FC022F030C023F0A50E46
:10018000246E870E256EA2EC87F020EE0AF02F5029
:10019000D9263050DA22010EDF6E20EE0BF02F5000
:1001A000D9263050DA22A80EDF6E20EE0CF02F5048
:1001B000D9263050DA22E80EDE6E030EDE6E000E17
:1001C000DE6E000EDD6E90ECA8F020EE10F02F50E9
:1001D000D9263050DA2205C0DEFF06C0DEFF07C098
:1001E000DEFF08C0DEFF20EE04F02F50D92630508D
:1001F000DA228E0EDF6E880E0001FF6F0DEF81F0A8
:1002000020EE08F02F50D9263050DA2210EE0BF0F5
:10021000DE50E126DD50E222E76A20EE14F02F5096
:10022000D9263050DA2210EE0BF0DE50E126DD50F8
:10023000E222E604D8A41FEF81F021EF81F082EFE3
:1002400081F020EE17F02F50D9263050DA22960E8A
:10025000DE18D8A42EEF81F030EF81F082EF81F02C
:1002600020EE14F02F50D9263050DA2210EE0BF089
:10027000DE50E126DD50E222E76A2FC022F030C0D6
:1002800023F0A50E246E880E256EA2EC87F020EEDA
:1002900016F02F50D9263050DA22010EDF6E20EEF4
:1002A00017F02F50D9263050DA22A80EDF6E20EE3C
:1002B00018F02F50D9263050DA22E80EDE6E030EE9
:1002C000DE6E000EDE6E000EDD6E90ECA8F020EE0D
:1002D0001CF02F50D9263050DA2205C0DEFF06C0B0
:1002E000DEFF07C0DEFF08C0DEFF20EE04F02F5067
:1002F000D9263050DA228E0EDF6E880E0001FF6F95
:100300008FEF81F020EE14F02F50D9263050DA22F2
:1003100010EE0BF0DE50E126DD50E222E76A20EE1F
:100320000BF02F50D9263050DA22A80EDE18D8B4A0
:100330009CEF81F09EEF81F0ADEF81F020EE17F0A1
:100340002F50D9263050DA22A80EDE18D8A4ABEFF1
:1003500081F0ADEF81F01DEF82F020EE04F02F5020
:10036000D9263050DA228D0EDE18D8B4BAEF81F0DB
:10037000BCEF81F01DEF82F020EE02F02F50D92665
:100380003050DA228D0EDF6E20EE01F02F50D9268C
:100390003050DA226C0EDF6E20EE04F02F50D9269A
:1003A0003050DA228D0EDF6E90ECA8F020EE20F0B7
:1003B0002F50D9263050DA2205C0DEFF06C0DEFFFE
:1003C00007C0DEFF08C0DEFF20EE24F02F50D92644
:1003D0003050DA22B80EDE6E0B0EDE6E000EDE6ED0
:1003E000000EDD6E20EE02F02F50D9263050DA22BA
:1003F000DF50126E840E136E20EE24F02F50D9269B
:100400003050DA22DECF05F0DECF06F0DECF07F087
:10041000DECF08F0E80E096E030E0A6E000E0B6EBA
:10042000000E0C6ECBEC9EF00550146E2FC0D9FF61
:1004300030C0DAFFDF50A9ECA4F020EE0BF02F5013
:10044000D9263050DA22A60EDE18D8A42AEF82F080
:100450002CEF82F086EF82F02FC022F030C023F024
:10046000A60E246E870E256EA2EC87F020EE0BF010
:100470002F50D9263050DA22960EDF6E20EE0AF089
:100480002F50D9263050DA22DF6A20EE02F02F50AA
:10049000D9263050DA228F0EDF6E20EE01F02F5079
:1004A000D9263050DA226C0EDF6E90ECA8F020EEE8
:1004B00020F02F50D9263050DA2205C0DEFF06C0CA
:1004C000DEFF07C0DEFF08C0DEFF20EE24F02F5065
:1004D000D9263050DA22B80EDE6E0B0EDE6E000E1C
:1004E000DE6E000EDD6E20EE01F02F50D92630506A
:1004F000DA22DF50126EA60E136E870E146E2FC016
:10050000D9FF30C0DAFFDF50A9ECA4F020EE17F0DD
:100510002F50D9263050DA22A60EDE18D8A493EF39
:1005200082F095EF82F0FFEF83F02FC022F030C011
:1005300023F0A60E246E880E256EA2EC87F020EE26
:1005400017F02F50D9263050DA22960EDF6E20EEAB
:1005500016F02F50D9263050DA22DF6A20EE02F052
:100560002F50D9263050DA228F0EDF6E20EE01F0A8
:100570002F50D9263050DA226C0EDF6E90ECA8F0A6
:1005800020EE20F02F50D9263050DA2205C0DEFFB1
:1005900006C0DEFF07C0DEFF08C0DEFF20EE24F04D
:1005A0002F50D9263050DA22B80EDE6E0B0EDE6EDA
:1005B000000EDE6E000EDD6E20EE01F02F50D9260B
:1005C0003050DA22DF50126EA60E136E880E146EB3
:1005D0002FC0D9FF30C0DAFFDF50A9ECA4F0FFEF45
:1005E00083F020EE0AF02F50D9263050DA22DF5067
:1005F000D8B4FDEF82F0FFEF82F01EEF83F02FC042
:1006000022F030C023F0A70E246E870E256EA2ECD8
:1006100087F020EE01F02F50D9263050DA22DF503B
:10062000126EA70E136E870E146E2FC0D9FF30C046
:10063000DAFFDF50A9ECA4F049EF83F020EE16F0CA
:100640002F50D9263050DA22DF50D8B42AEF83F069
:100650002CEF83F049EF83F02FC022F030C023F05D
:10066000A70E246E880E256EA2EC87F020EE01F016
:100670002F50D9263050DA22DF50126EA70E136E9B
:10068000880E146E2FC0D9FF30C0DAFFDF50A9ECFE
:10069000A4F020EE01F02F50D9263050DA226D0E52
:1006A000DF6E20EE01F02F50D9263050DA22DF50D5
:1006B000126E960E136E960E146E2FC0D9FF30C0B8
:1006C000DAFFDF50A9ECA4F0FFEF83F02FC022F097
:1006D00030C023F0A90E246E870E256EA2EC87F0A1
:1006E0002FC022F030C023F0A90E246E880E256E94
:1006F000A2EC87F020EE01F02F50D9263050DA22FC
:10070000DF50126E960E136E960E146E2FC0D9FF28
:1007100030C0DAFFDF50A9ECA4F020EE01F02F503A
:10072000D9263050DA226D0EDF6EFFEF83F020EE17
:1007300020F02F50D9263050DA22DECF31F0DECF34
:1007400032F0DECF33F0DECF34F090ECA8F0315051
:10075000055C356E32500658366E33500758376E8A
:1007600034500858386E20EE24F02F50D9263050DF
:10077000DA223550DE5C3650DE583750DE583850BD
:10078000DE58D8B0C6EF83F0C8EF83F0FFEF83F0F8
:1007900020EE02F02F50D9263050DA2210EE01F070
:1007A0002F50E1263050E222DFCFE7FFFFEF83F04A
:1007B00020EE01F02F50D9263050DA22DF50316E72
:1007C000326A3250000AD8B4E8EF83F0FFEF83F0CA
:1007D0003150690AD8B402EF80F0050AD8B497EF17
:1007E00083F0010AD8B48BEF80F0E00AD8B4F1EFBF
:1007F00082F0020AD8B466EF83F0FFEF83F01200B4
:100800007AEF87F02FC022F030C023F0A70E246EBD
:100810008C0E256EA2EC87F020EE08F02F50D92622
:100820003050DA2210EE0BF0DE50E126DD50E222ED
:10083000E76A20EE02F02F50D9263050DA226D0EF2
:10084000DF6E20EE01F02F50D9263050DA226C0EE8
:10085000DF6E90ECA8F020EE20F02F50D92630501B
:10086000DA2205C0DEFF06C0DEFF07C0DEFF08C0DB
:10087000DEFF20EE24F02F50D9263050DA22E80E89
:10088000DE6E030EDE6E000EDE6E000EDD6E20EEFE
:1008900002F02F50D9263050DA22DF50126E840E2B
:1008A000136E20EE24F02F50D9263050DA22DECFFE
:1008B00005F0DECF06F0DECF07F0DECF08F0E80E61
:1008C000096E030E0A6E000E0B6E000E0C6ECBEC62
:1008D0009EF00550146E2FC0D9FF30C0DAFFDF50F4
:1008E000A9ECA4F0A1EF87F020EE08F02F50D92654
:1008F0003050DA2210EE0BF0DE50E126DD50E2221D
:10090000E604D8A486EF84F088EF84F0F4EF84F056
:1009100020EE0BF02F50D9263050DA22960EDE183A
:10092000D8A495EF84F097EF84F0F4EF84F020EEF4
:1009300008F02F50D9263050DA2210EE0BF0DE509E
:10094000E126DD50E222E76A2FC022F030C023F01A
:10095000A50E246E890E256EA2EC87F020EE04F021
:100960002F50D9263050DA228E0EDF6E20EE0AF09C
:100970002F50D9263050DA22010EDF6E20EE0BF018
:100980002F50D9263050DA22A80EDF6E20EE0CF060
:100990002F50D9263050DA22E80EDE6E030EDE6EBE
:1009A000000EDE6E000EDD6E90ECA8F020EE10F072
:1009B0002F50D9263050DA2205C0DEFF06C0DEFFF8
:1009C00007C0DEFF08C0DEFF8C0E0001FF6F680E5F
:1009D0005918D8A4EEEF84F0F0EF84F07FEF85F0A3
:1009E0008C0E596E7FEF85F020EE14F02F50D92633
:1009F0003050DA2210EE0BF0DE50E126DD50E2221C
:100A0000E604D8A406EF85F008EF85F072EF85F0D4
:100A100020EE17F02F50D9263050DA22960EDE182D
:100A2000D8A415EF85F017EF85F072EF85F020EE72
:100A300014F02F50D9263050DA2210EE0BF0DE5091
:100A4000E126DD50E222E76A2FC022F030C023F019
:100A5000A50E246E8A0E256EA2EC87F020EE04F01F
:100A60002F50D9263050DA228E0EDF6E20EE16F08F
:100A70002F50D9263050DA22010EDF6E20EE17F00B
:100A80002F50D9263050DA22A80EDF6E20EE18F053
:100A90002F50D9263050DA22E80EDE6E030EDE6EBD
:100AA000000EDE6E000EDD6E90ECA8F020EE1CF065
:100AB0002F50D9263050DA2205C0DEFF06C0DEFFF7
:100AC00007C0DEFF08C0DEFF8C0E0001FF6F680E5E
:100AD0005918D8A46EEF85F070EF85F07FEF85F0A0
:100AE000F0EF84F020EE08F02F50D9263050DA22B3
:100AF00010EE0BF0DE50E126DD50E222E76A20EE38
:100B00000BF02F50D9263050DA22A80EDE18D8B4B8
:100B10008CEF85F08EEF85F09DEF85F020EE17F0DD
:100B20002F50D9263050DA22A80EDE18D8A49BEF19
:100B300085F09DEF85F00DEF86F020EE04F02F504C
:100B4000D9263050DA228D0EDE18D8B4AAEF85F0FF
:100B5000ACEF85F00DEF86F020EE02F02F50D92695
:100B60003050DA228D0EDF6E20EE01F02F50D926A4
:100B70003050DA226C0EDF6E20EE04F02F50D926B2
:100B80003050DA228D0EDF6E90ECA8F020EE20F0CF
:100B90002F50D9263050DA2205C0DEFF06C0DEFF16
:100BA00007C0DEFF08C0DEFF20EE24F02F50D9265C
:100BB0003050DA22B80EDE6E0B0EDE6E000EDE6EE8
:100BC000000EDD6E20EE02F02F50D9263050DA22D2
:100BD000DF50126E840E136E20EE24F02F50D926B3
:100BE0003050DA22DECF05F0DECF06F0DECF07F0A0
:100BF000DECF08F0E80E096E030E0A6E000E0B6ED3
:100C0000000E0C6ECBEC9EF00550146E2FC0D9FF79
:100C100030C0DAFFDF50A9ECA4F020EE0BF02F502B
:100C2000D9263050DA22A60EDE18D8A41AEF86F0A4
:100C30001CEF86F076EF86F02FC022F030C023F054
:100C4000A60E246E890E256EA2EC87F020EE0BF026
:100C50002F50D9263050DA22960EDF6E20EE0AF0A1
:100C60002F50D9263050DA22DF6A20EE02F02F50C2
:100C7000D9263050DA228F0EDF6E20EE01F02F5091
:100C8000D9263050DA226C0EDF6E90ECA8F020EE00
:100C900020F02F50D9263050DA2205C0DEFF06C0E2
:100CA000DEFF07C0DEFF08C0DEFF20EE24F02F507D
:100CB000D9263050DA22B80EDE6E0B0EDE6E000E34
:100CC000DE6E000EDD6E20EE01F02F50D926305082
:100CD000DA22DF50126EA60E136E890E146E2FC02C
:100CE000D9FF30C0DAFFDF50A9ECA4F020EE17F0F6
:100CF0002F50D9263050DA22A60EDE18D8A483EF62
:100D000086F085EF86F0A1EF87F02FC022F030C08B
:100D100023F0A60E246E8A0E256EA2EC87F020EE3C
:100D200017F02F50D9263050DA22960EDF6E20EEC3
:100D300016F02F50D9263050DA22DF6A20EE02F06A
:100D40002F50D9263050DA228F0EDF6E20EE01F0C0
:100D50002F50D9263050DA226C0EDF6E90ECA8F0BE
:100D600020EE20F02F50D9263050DA2205C0DEFFC9
:100D700006C0DEFF07C0DEFF08C0DEFF20EE24F065
:100D80002F50D9263050DA22B80EDE6E0B0EDE6EF2
:100D9000000EDE6E000EDD6E20EE01F02F50D92623
:100DA0003050DA22DF50126EA60E136E8A0E146EC9
:100DB0002FC0D9FF30C0DAFFDF50A9ECA4F0A1EFBB
:100DC00087F02FC022F030C023F0A70E246E8C0EC7
:100DD000256EA2EC87F020EE01F02F50D92630507E
:100DE000DA226D0EDF6E20EE01F02F50D926305042
:100DF000DA22DF50126E960E136E960E146E2FC00E
:100E0000D9FF30C0DAFFDF50A9ECA4F0A1EF87F0E2
:100E10002FC022F030C023F0A90E246E890E256E5B
:100E2000A2EC87F02FC022F030C023F0A90E246E70
:100E30008A0E256EA2EC87F020EE01F02F50D92605
:100E40003050DA22DF50126E960E136E960E146E2C
:100E50002FC0D9FF30C0DAFFDF50A9ECA4F020EE9C
:100E600001F02F50D9263050DA226D0EDF6EA1EF3F
:100E700087F020EE20F02F50D9263050DA22DECF36
:100E800031F0DECF32F0DECF33F0DECF34F090EC55
:100E9000A8F03150055C356E32500658366E33502E
:100EA0000758376E34500858386E20EE24F02F5013
:100EB000D9263050DA223550DE5C3650DE583750B5
:100EC000DE583850DE58D8B068EF87F06AEF87F008
:100ED000A1EF87F020EE02F02F50D9263050DA2211
:100EE00010EE01F02F50E1263050E222DFCFE7FF75
:100EF000A1EF87F020EE01F02F50D9263050DA22F2
:100F0000DF50316E326A3250000AD8B48AEF87F06F
:100F1000A1EF87F03150690AD8B402EF84F0050AD6
:100F2000D8B439EF87F0010AD8B474EF84F0E00A3E
:100F3000D8B4E1EF86F0020AD8B408EF87F0A1EF49
:100F400087F0120020EE06F02250D9262350DA2234
:100F500010EE02F0DE50E126DD50E222E7502B6E6B
:100F600020EE06F02250D9262350DA2210EE05F0AA
:100F7000DE50E126DD50E222E7502D6E20EE06F035
:100F80002250D9262350DA2210EE08F0DE50E12656
:100F9000DD50E222E7502C6E20EE06F02250D926DA
:100FA0002350DA2210EE0BF0DE50E126DD50E22273
:100FB000E7502E6E95EF8AF0870E2518D8A4E3EF40
:100FC00087F0E5EF87F016EF88F020EE06F022506C
:100FD000D9262350DA22DECF26F0DDCF27F026C037
:100FE000D9FF27C0DAFFDECF28F0DDCF29F028C0F7
:100FF000D9FF29C0DAFF2B50DF122D50FF0A266ED1
:1010000020EE06F02250D9262350DA2210EE03F00B
:10101000DE50E126DD50E222E6CF27F0E5CF28F0D2
:1010200027C0D9FF28C0DAFF2650DF16880E251802
:10103000D8A41DEF88F01FEF88F050EF88F020EE65
:1010400006F02250D9262350DA22DECF26F0DDCF5B
:1010500027F026C0D9FF27C0DAFFDECF28F0DDCF8A
:1010600029F028C0D9FF29C0DAFF2C50DF122E50FA
:10107000FF0A266E20EE06F02250D9262350DA22EF
:1010800010EE03F0DE50E126DD50E222E6CF27F03D
:10109000E5CF28F027C0D9FF28C0DAFF2650DF1699
:1010A000890E2518D8A457EF88F059EF88F0A3EFE0
:1010B00088F02B50FF0A266E20EE06F02250D9262B
:1010C0002350DA2210EE03F0DE50E126DD50E2225A
:1010D000E6CF27F0E5CF28F027C0D9FF28C0DAFFF8
:1010E0002650DF1620EE06F02250D9262350DA22B1
:1010F00010EE03F0DE50E126DD50E222E6CF26F0CE
:10110000E5CF27F026C0D9FF27C0DAFF2D50DF1228
:101110002C50FF0A266E20EE06F02250D9262350CE
:10112000DA22DECF27F0DDCF28F027C0D9FF28C094
:10113000DAFFDECF29F0DDCF2AF029C0D9FF2AC09F
:10114000DAFF2650DF168A0E2518D8A4AAEF88F0F9
:10115000ACEF88F0B2EF8AF020EE06F02250D926EC
:101160002350DA2210EE03F0DE50E126DD50E222B9
:10117000E6CF26F0E5CF27F026C0D9FF27C0DAFF5B
:101180002B50DF122D50FF0A266E20EE06F0225063
:10119000D9262350DA2210EE03F0DE50E126DD508E
:1011A000E222E6CF27F0E5CF28F027C0D9FF28C0FC
:1011B000DAFF2650DF162E50FF0A266E20EE06F0CC
:1011C0002250D9262350DA2210EE03F0DE50E12619
:1011D000DD50E222E6CF27F0E5CF28F027C0D9FF87
:1011E00028C0DAFF2650DF16B2EF8AF0B2EF8AF09D
:1011F000870E2518D8A4FFEF88F001EF89F01EEFC5
:1012000089F02B50FF0A266E20EE06F02250D926D8
:101210002350DA22DECF27F0DDCF28F027C0D9FF18
:1012200028C0DAFFDECF29F0DDCF2AF029C0D9FFB0
:101230002AC0DAFF2650DF16B2EF8AF0880E251892
:10124000D8A425EF89F027EF89F044EF89F02C50DE
:10125000FF0A266E20EE06F02250D9262350DA220D
:10126000DECF27F0DDCF28F027C0D9FF28C0DAFF76
:10127000DECF29F0DDCF2AF029C0D9FF2AC0DAFF5E
:101280002650DF16B2EF8AF08C0E2518D8A44BEF4B
:1012900089F04DEF89F0B2EF8AF02B50FF0A266EED
:1012A00020EE06F02250D9262350DA2210EE03F069
:1012B000DE50E126DD50E222E6CF27F0E5CF28F030
:1012C00027C0D9FF28C0DAFF2650DF162D50FF0AAD
:1012D000266E20EE06F02250D9262350DA2210EE98
:1012E00003F0DE50E126DD50E222E6CF27F0E5CF25
:1012F00028F027C0D9FF28C0DAFF2650DF16B2EF4A
:101300008AF0870E2518D8A488EF89F08AEF89F033
:10131000A2EF89F020EE06F02250D9262350DA22DF
:1013200010EE03F0DE50E126DD50E222E6CF26F09B
:10133000E5CF27F026C0D9FF27C0DAFF2D50DF12F6
:10134000B2EF8AF0880E2518D8A4A9EF89F0ABEF88
:1013500089F0C3EF89F020EE06F02250D926235001
:10136000DA2210EE03F0DE50E126DD50E222E6CF75
:1013700026F0E5CF27F026C0D9FF27C0DAFF2E5090
:10138000DF12B2EF8AF0890E2518D8A4CAEF89F0CF
:10139000CCEF89F0E4EF89F020EE06F02250D92658
:1013A0002350DA2210EE03F0DE50E126DD50E22277
:1013B000E6CF26F0E5CF27F026C0D9FF27C0DAFF19
:1013C0002C50DF12B2EF8AF08A0E2518D8A4EBEF6A
:1013D00089F0EDEF89F0F6EF88F020EE06F022506C
:1013E000D9262350DA2210EE03F0DE50E126DD503C
:1013F000E222E6CF26F0E5CF27F026C0D9FF27C0AE
:10140000DAFF2E50DF12B2EF8AF0870E2518D8A42B
:101410000CEF8AF00EEF8AF029EF8AF02D50FF0AC8
:10142000266E20EE06F02250D9262350DA2210EE46
:1014300003F0DE50E126DD50E222E6CF27F0E5CFD3
:1014400028F027C0D9FF28C0DAFF2650DF16B2EFF8
:101450008AF0880E2518D8A430EF8AF032EF8AF08F
:101460004DEF8AF02E50FF0A266E20EE06F0225035
:10147000D9262350DA2210EE03F0DE50E126DD50AB
:10148000E222E6CF27F0E5CF28F027C0D9FF28C019
:10149000DAFF2650DF16B2EF8AF0890E2518D8A49D
:1014A00054EF8AF056EF8AF071EF8AF02C50FF0A61
:1014B000266E20EE06F02250D9262350DA2210EEB6
:1014C00003F0DE50E126DD50E222E6CF27F0E5CF43
:1014D00028F027C0D9FF28C0DAFF2650DF16B2EF68
:1014E0008AF08A0E2518D8A478EF8AF07AEF8AF06D
:1014F000F6EF88F02E50FF0A266E20EE06F02250FE
:10150000D9262350DA2210EE03F0DE50E126DD501A
:10151000E222E6CF27F0E5CF28F027C0D9FF28C088
:10152000DAFF2650DF16B2EF8AF02450266E276AC3
:101530002750000AD8B49FEF8AF0B2EF8AF0265005
:10154000A50AD8B4DCEF87F0030AD8B481EF89F09C
:10155000010AD8B4F8EF88F00E0AD8B405EF8AF083
:10156000B2EF8AF0850E126E24C013F025C014F07D
:1015700022C0D9FF23C0DAFFDF50A9ECA4F012008B
:10158000000E2E6E5550070D000EF324346E060E1D
:10159000F420356E90ECA8F005C02FF006C030F0B6
:1015A00007C031F008C032F0CA0E056E020E066E9A
:1015B000C5ECA7F00009D8B4E0EF8AF0E2EF8AF0BA
:1015C000E6EF8AF0030E2E6E1AEF8BF0BB0E056E5F
:1015D000020E066EC5ECA7F00009D8B4F2EF8AF04F
:1015E000F4EF8AF0F8EF8AF0040E2E6E1AEF8BF00B
:1015F000AC0E056E020E066EC5ECA7F00009D8B45D
:1016000004EF8BF006EF8BF00AEF8BF0060E2E6ED8
:101610001AEF8BF09D0E056E020E066EC5ECA7F05C
:101620000009D8B416EF8BF018EF8BF01AEF8BF09F
:10163000050E2E6E2E50D8B420EF8BF022EF8BF0DB
:101640002AEF8BF02FC044F130C045F131C046F194
:1016500032C047F12E50D8B430EF8BF032EF8BF020
:1016600070EF8BF001014C51D8B439EF8BF03BEFA8
:101670008BF070EF8BF020EE02F03450D92635500D
:10168000DA22DF50D8B447EF8BF049EF8BF053EFFD
:101690008BF020EE01F03450D9263550DA22040EBA
:1016A000DF6E5BEF8BF020EE01F03450D926355021
:1016B000DA22050EDF6E34C005F035C006F0040EE8
:1016C000076E30EC9BF0000E01014C6F2FC044F10F
:1016D00030C045F131C046F132C047F134EF8CF0F3
:1016E0002E50D8B476EF8BF078EF8BF017EF8CF0AC
:1016F000060E2E18D8B47FEF8BF081EF8BF017EF2A
:101700008CF034C005F035C006F0030E076E30ECE7
:101710009BF017EF8CF01C0E5518D8A492EF8BF0AD
:1017200094EF8BF098EF8BF0000E556E99EF8BF0E5
:10173000552A5550070D000EF324346E060EF42082
:10174000356E34EF8CF05550D8A4A9EF8BF0ABEF89
:101750008BF0AFEF8BF01C0E556E99EF8BF05506AA
:1017600099EF8BF05550286E296A0A0E2826000E34
:101770002922295009E11D0E285CD8A0C2EF8BF068
:10178000C4EF8BF0CCEF8BF055501C082C6E2C5016
:101790000A08556E99EF8BF00A0E552699EF8BF0DB
:1017A00020EE02F03450D9263550DA2210EE02F045
:1017B0003450E1263550E222E750D8B4E2EF8BF006
:1017C000E5EF8BF0010EE6EF8BF0000EDF6E20EE02
:1017D00002F03450D9263550DA22DF50D8A4F3EF86
:1017E0008BF0F5EF8BF0F9EF8BF0050E2D6EFBEF24
:1017F0008BF0040E2D6E20EE01F03450D9263550BA
:10180000DA222DC0DFFF2FC044F130C045F131C0D6
:1018100046F132C047F134C01EF035C01FF0CB0E88
:10182000206E060E216E4AECA1F034EF8CF02E50A3
:10183000286E296A2950000AD8B421EF8CF034EFC1
:101840008CF02850030AD8B48BEF8BF0070AD8B479
:10185000A3EF8BF0010AD8B4B2EF8BF0030AD8B42F
:10186000D0EF8BF034EF8CF020EE01F03450D9261D
:101870003550DA22050EDE18D8A441EF8CF043EF84
:101880008CF071EF8CF001013C512F5C286E3D51C2
:101890003058296E3E5131582A6E3F5132582B6EC6
:1018A0002850405D295041592A5042592B504359E4
:1018B000D8B05DEF8CF05FEF8CF092EF8CF02FC022
:1018C0003CF130C03DF131C03EF132C03FF134C097
:1018D00005F035C006F0060E076E30EC9BF092EF77
:1018E0008CF020EE01F03450D9263550DA22040E67
:1018F000DE18D8A47EEF8CF080EF8CF08AEF8CF0AD
:1019000034C005F035C006F0040E076E30EC9BF0D5
:1019100092EF8CF034C005F035C006F0030E076E70
:1019200030EC9BF0010144512F5C286E455130583A
:10193000296E465131582A6E475132582B6E285025
:10194000485D295049592A504A592B504B59D8B013
:10195000ACEF8CF0AEEF8CF0C0EF8CF04C51D8A413
:10196000B4EF8CF0B6EF8CF0C0EF8CF020EE01F00D
:101970003450D9263550DA22030EDF6E010E4C6F3B
:10198000000E336E3350040D250EF324D96E010E74
:10199000F420DA6E3350050D810EF324E16E020E51
:1019A000F420E26E3350040D240EF324E96E010E90
:1019B000F420EA6EE650EE18D8A4E1EF8CF0E4EFE4
:1019C0008CF0010EE5EF8CF0000EDF6E3350040D4D
:1019D000270EF324D96E010EF420DA6E3350050D74
:1019E000820EF324E16E020EF420E26E3350040DF9
:1019F000260EF324E96E010EF420EA6EE650EE188E
:101A0000D8A405EF8DF008EF8DF0010E09EF8DF0F1
:101A1000000EDF6E332A050E336411EF8DF013EFE5
:101A20008DF0C2EF8CF0010167512F5C286E685178
:101A30003058296E695131582A6E6A5132582B6ECE
:101A40002850635D295064592A5065592B506659B6
:101A5000D8B02DEF8DF02FEF8DF039EF8DF0A6EC93
:101A600097F02FC067F130C068F131C069F132C022
:101A70006AF112002F50D96EDA6ADECFF6FFDDCFA1
:101A8000F7FF000EF86E0800F550250AD8A44BEFBA
:101A90008DF04DEF8DF024EF8FF02F50D96EDA6A74
:101AA000DE2A000EDD22000E0001986F000E976FF7
:101AB00097C0AFF099699A692F50D96EDA6ADECF74
:101AC000F6FFDDCFF7FF000EF86E0800F5502E0A86
:101AD000D8A46DEF8DF06FEF8DF07FEF8DF02F506C
:101AE000D96EDA6ADE2A000EDD222FC00BF030C07C
:101AF0000CF0C7EC9DF00BC099F00CC09AF02F5081
:101B0000D96EDA6ADECF39F0DDCF3AF039C0F6FFB0
:101B10003AC0F7FF000EF86E0800F5CF38F09DEFE1
:101B20008DF0394A3A2AB0EF8DF0690E386EB0EF79
:101B30008DF0000E386EB0EF8DF03850640AD8B4D6
:101B400095EF8DF00D0AD8B495EF8DF0050AD8B455
:101B500091EF8DF0190AD8B495EF8DF099EF8DF0D3
:101B600039C0F6FF3AC0F7FF000EF86E0800F550D6
:101B7000640AD8B4BEEF8DF0C0EF8DF0F7EF8DF0B2
:101B800039C0F6FF3AC0F7FF000EF86E0800F550B6
:101B9000690AD8A4CEEF8DF0D0EF8DF01FEF8EF054
:101BA000F7EF8DF03050D96EDA6ADF50DF2ADF2A86
:101BB000D96EDA6ADECF34F0DDCF35F0000E35BEF7
:101BC000FF0E366E376E02EF8EF03050D96EDA6A45
:101BD000040EDF26DF5CD96EDA6ADECF34F0DECFAA
:101BE00035F0DECF36F0DECF37F002EF8EF0385032
:101BF000690AD8B4D2EF8DF0050AD8B4E5EF8DF0BC
:101C000002EF8EF0010E3924316E000E3A20326E52
:101C10002F50D96EDA6A31C0DEFF32C0DDFF2DC031
:101C20001EF02EC01FF034C020F035C021F036C0A9
:101C300022F037C023F0D1EC96F039EF8FF039C0A5
:101C4000F6FF3AC0F7FF000EF86E0800F550750A6F
:101C5000D8A42DEF8EF02FEF8EF08FEF8EF057EF90
:101C60008EF03050D96EDA6ADF50DF2ADF2AD96E63
:101C7000DA6ADECF31F0DDCF32F031C034F032C07D
:101C800035F0366A376A62EF8EF03050D96EDA6A14
:101C9000040EDF26DF5CD96EDA6ADECF34F0DECFE9
:101CA00035F0DECF36F0DECF37F062EF8EF0385011
:101CB000690AD8B431EF8EF0050AD8B445EF8EF03A
:101CC00062EF8EF0010E3924316E000E3A20326E32
:101CD0002F50D96EDA6A31C0DEFF32C0DDFF81EFEE
:101CE0008EF02DC01EF02EC01FF034C020F035C085
:101CF00021F036C022F037C023F097EC99F039EF8D
:101D00008FF039C0F6FF3AC0F7FF000EF86E0800FA
:101D1000F550750AD8B471EF8EF08FEF8EF0000E8B
:101D2000336E2F50D96EDA6ADECFF6FFDDCFF7FFC4
:101D3000000EF86E0800F550730AD8A4A2EF8EF0DA
:101D4000A4EF8EF0AEEF8EF02F50D96EDA6ADE2A55
:101D5000000EDD22010E336E00EF8FF02F50D96E92
:101D6000DA6ADECFF6FFDDCFF7FF000EF86E08006F
:101D7000F5506C0AD8A4BFEF8EF0C1EF8EF000EFE3
:101D80008FF02F50D96EDA6ADECF31F0DDCF32F02E
:101D9000010E3126000E322231C0F6FF32C0F7FFAD
:101DA000000EF86E0800F5506C0AD8A4DAEF8EF039
:101DB000DCEF8EF000EF8FF02F50D96EDA6ADECFB5
:101DC00031F0DDCF32F0020E3126000E322231C06A
:101DD000F6FF32C0F7FF000EF86E0800F550730AE8
:101DE000D8A4F5EF8EF0F7EF8EF000EF8FF02F50C4
:101DF000D96EDA6A030EDE26000EDD22AAEF8EF01F
:101E00003350D8B406EF8FF008EF8FF01CEF8FF04F
:101E10002DC00EF02EC00FF03050D96EDA6A020ECF
:101E2000DF26DF5CD96EDA6ADECF10F0DECF11F08C
:101E3000ACEC9AF039EF8FF02F50D96EDA6ADE2AC7
:101E4000000EDD2239EF8FF02F50D96EDA6ADECF27
:101E5000F6FFDDCFF7FF000EF86E0800F550056EB7
:101E6000066A2DC007F02EC008F0FEEC9CF01CEFB7
:101E70008FF0120008ECA8F0F28EF28CD6ECA7F0EE
:101E80001C0E056E520E066E010E076EC7ECA8F012
:101E900013ECA7F09AECA6F067ECA6F04DECA6F0D8
:101EA00023EC9CF08D68880E596E57EF8FF08ABA3C
:101EB0005CEF8FF05FEF8FF0010E60EF8FF0000EA0
:101EC000FF0A4A6E4A3A4A468A504A18DF0B4A18B5
:101ED0008A6E0001B351D8A470EF8FF072EF8FF0CB
:101EE000A4EF8FF0B405D8A478EF8FF07AEF8FF0DD
:101EF00086EF8FF04CECA0F0010E0101B927000E27
:101F0000BA23BB23BC23000E0001B46F0101BC51F6
:101F1000BB110BE1E90EB95D030EBA59D8A093EFDE
:101F20008FF095EF8FF057EF8FF0000EB96F000E26
:101F3000BA6F000EBB6F000EBC6F010E0001B36FD5
:101F4000000E8D6E57EF8FF0B351D8B4AAEF8FF01B
:101F5000ACEF8FF057EF8FF0B405D8A4B2EF8FF04D
:101F6000B4EF8FF057EF8FF04CECA0F0C0EC8AF09C
:101F7000DAEF8FF0880E0001FF19D8A4C2EF8FF0BE
:101F8000C4EF8FF0EFEF8FF08C0E596E640EFF6F81
:101F9000EFEF8FF08C0E0001FF19D8A4D2EF8FF075
:101FA000D4EF8FF0EFEF8FF0880E596E640EFF6F55
:101FB000EFEF8FF059504A6E4B6A4B50000AD8B47D
:101FC000E4EF8FF0EFEF8FF04A50880AD8B4BAEF01
:101FD0008FF0040AD8B4CAEF8FF0EFEF8FF0280E1D
:101FE000226E020E236E21EC94F0898A280E2F6E49
:101FF000020E306E00EC80F0899A000E226E020E06
:10200000236ECFEC90F0898A000E2F6E020E306E98
:1020100000EC84F0899A8984AA0E0101596F3C0E64
:102020005A6F000E566E56505624E611566E565094
:102030005624D711566E56505624C811566E565017
:102040005624566E56505624566E56505624566E8A
:1020500056505624566E56505624566E56C05BF156
:10206000000E5C6F000E5D6F000E5E6F8994010EB6
:102070006B27000E6C236D236E236E516D110BE1E7
:10208000E70E6B5D030E6C59D8A049EF90F04BEF53
:1020900090F097EF90F090ECA8F005C0F0F106C03A
:1020A000F1F107C0F2F108C0F3F1AA0E0101936F3C
:1020B0009469000EF76F000EF66F950EF625D96E37
:1020C000010EF721DA6EF639E842F80BF0C14AF05A
:1020D000F1C14BF0F2C14CF0F3C14DF0E82A76EFBC
:1020E00090F0D8904D324C324B324A32E82E71EF9C
:1020F00090F04A50DF6EF64BF72BF75109E1040ED2
:10210000F65DD8A086EF90F088EF90F05DEF90F04C
:10211000930E056E010E066E2DECA4F0000E01016B
:102120006B6F000E6C6F000E6D6F000E6E6FB3EC78
:10213000A7F0E806D8A49FEF90F0A1EF90F0C8EFC9
:1021400090F040ECA3F005C0F4F106C0F5F10101F8
:1021500020EE01F0F451D926F551DA22080EDE18EE
:10216000D8A4B5EF90F0B7EF90F0C8EF90F089B831
:10217000BCEF90F0BFEF90F0010EC0EF90F0000EBA
:10218000FF0A4A6E4A3A89504A18EF0B4A18896E7C
:10219000000E0001B46F57EF8FF03AEF00F090ECB3
:1021A000A8F005C030F006C031F007C032F008C01A
:1021B00033F020EE0BF02250D9262350DA22A80E5D
:1021C000DE18D8A4E6EF90F0E8EF90F072EF91F00F
:1021D00020EE10F02250D9262350DA22DECF24F050
:1021E000DECF25F0DECF26F0DECF27F02450305CA6
:1021F000286E25503158296E265032582A6E2750A5
:1022000033582B6E20EE0CF02250D9262350DA22C0
:102210002850DE5C2950DE582A50DE582B50DE58FC
:10222000D8B015EF91F017EF91F072EF91F08C0E9E
:102230005918D8A41EEF91F020EF91F05CEF91F0C7
:10224000890E0001FA19D8A428EF91F02AEF91F035
:102250005CEF91F020EE0BF02250D9262350DA22C9
:10226000A60EDF6E20EE17F02250D9262350DA2278
:10227000A80EDE18D8A43FEF91F041EF91F047EFA0
:1022800091F08A0EFA6F680EFF6F680E596E20EE9D
:102290000BF02250D9262350DA22DF50126EA60E00
:1022A000136E960E146E22C0D9FF23C0DAFFDF50E2
:1022B000A9ECA4F072EF91F020EE0BF02250D92699
:1022C0002350DA22A80EDF6E20EE10F02250D9261D
:1022D0002350DA2230C0DEFF31C0DEFF32C0DEFF25
:1022E00033C0DEFF20EE17F02250D9262350DA2229
:1022F000A80EDE18D8A47FEF91F081EF91F0FCEFEB
:1023000091F020EE1CF02250D9262350DA22DECFA5
:1023100024F0DECF25F0DECF26F0DECF27F02450EC
:10232000305C286E25503158296E265032582A6E5E
:10233000275033582B6E20EE18F02250D926235008
:10234000DA222850DE5C2950DE582A50DE582B5005
:10235000DE58D8B0AEEF91F0B0EF91F0FCEF91F015
:102360008C0E5918D8A4B7EF91F0B9EF91F0E6EFC1
:1023700091F08A0E0001FA19D8A4C1EF91F0C3EFD1
:1023800091F0E6EF91F020EE17F02250D92623507D
:10239000DA22A60EDF6E890EFA6F680EFF6F680EE6
:1023A000596E20EE17F02250D9262350DA22DF5042
:1023B000126EA60E136E960E146E22C0D9FF23C0A5
:1023C000DAFFDF50A9ECA4F0FCEF91F020EE17F05B
:1023D0002250D9262350DA22A80EDF6E20EE1CF000
:1023E0002250D9262350DA2230C0DEFF31C0DEFF72
:1023F00032C0DEFF33C0DEFF120020EE07F00550D2
:10240000D9260650DA2210EE0AF00550E1260650D1
:10241000E222E750086E10EE08F00550E126065063
:10242000E222E6CF09F0E5CF0AF009C0E1FF0AC0D9
:10243000E2FFE75008140009D8A421EF92F024EF3E
:1024400092F0010E25EF92F0000EDF6E20EE06F006
:102450000550D9260650DA2210EE07F00550E12685
:102460000650E222DE50E618D8B439EF92F03BEF86
:1024700092F00AEF93F020EE02F00550D9260650B4
:10248000DA22DE50DE10DE10DE10D8A44AEF92F021
:102490004CEF92F05FEF92F00750D96EDA6A10EECF
:1024A00002F00550E1260650E222DECFE6FFDECF45
:1024B000E6FFDECFE6FFDECFE6FF14EF93F020EE7F
:1024C00002F00550D9260650DA22DECF08F0DECF22
:1024D00009F0DECF0AF0DECF0BF00750D96EDA6AD2
:1024E000DECF0CF0DECF0DF0DECF0EF0DECF0FF042
:1024F00008500C5C106E09500D58116E0A500E58A1
:10250000126E0B500F58136E05C0D9FF06C0DAFFCC
:10251000DECF14F0DDCF15F01450166E1550176E87
:10252000186A196A1050165C115017581250185832
:1025300013501958D8B09FEF92F0A1EF92F014EF1A
:1025400093F020EE07F00550D9260650DA2210EE5F
:1025500006F00550E1260650E222DFCFE7FF20EE2D
:1025600002F00550D9260650DA22DE6ADE6ADE6AFB
:10257000DD6A20EE07F00550D9260650DA22DE0487
:10258000D8A4C5EF92F0C7EF92F0DDEF92F020EE05
:102590000EF00550D9260650DA22DF50D8B4D3EF1A
:1025A00092F0D5EF92F0DDEF92F020EE0BF00550B7
:1025B000D9260650DA22010EDF6E20EE07F0055014
:1025C000D9260650DA22DF50D8A4E9EF92F0EBEFDB
:1025D00092F000EF93F020EE0DF00550D926065052
:1025E000DA22DF50D8B4F7EF92F0F9EF92F000EF73
:1025F00093F020EE0BF00550D9260650DA22DF6A60
:1026000020EE0CF00550D9260650DA22010EDF6EBE
:1026100014EF93F020EE02F00550D9260650DA228E
:10262000DE6ADE6ADE6ADD6A120000000001008BED
:10263000020101000001008B020202000001008B78
:10264000020403000001008B020804000001008B5B
:10265000021005000001008B022006000001008B23
:10266000024007000001008B028008000001008C7E
:10267000020109000001008C02020A000001008C26
:1026800002040B000001008C02080C000001008C09
:1026900002100D000001008C02200E000001008CD1
:1026A00002400F000001008C028010000001009029
:1026B00002011100000100900202120000010090CE
:1026C00002041300000100900208140000010090B1
:1026D0000210150000010090022016000001009079
:1026E00002401700000100900280180000010091D4
:1026F000020119000001009102021A00000100917C
:1027000002041B000001009102081C00000100915E
:1027100002101D000001009102201E000001009126
:1027200002401F0000010091028020000000008193
:10273000020121000000008102022200000000814D
:102740000204230000000081020824000000008130
:1027500002102500000000810220260000000081F8
:102760000240270000000081028028000000008253
:10277000020129000000008202022A0000000082FB
:1027800002042B000000008202082C0000000082DE
:1027900002102D000000008202202E0000000082A6
:1027A00002402F00000000820280300000000086FE
:1027B00002013100000000860202320000000086A3
:1027C000020433000001009502013400000100956D
:1027D0000202350000010095020436000001009558
:1027E0000208370000010095021038000001009532
:1027F000022039000001009502403A0000010095D6
:1028000002803B000001009602013C00000100969E
:1028100002023D000001009602043E000001009605
:1028200002083F00000100960210400000010096DF
:102830000220410000010096024042000001009683
:10284000028090ECA8F005C030F006C031F007C05F
:1028500032F008C033F020EE0BF02250D92623507E
:10286000DA22A80EDE18D8A438EF94F03AEF94F0EC
:10287000A5EF94F020EE10F02250D9262350DA2252
:10288000DECF24F0DECF25F0DECF26F0DECF27F03E
:102890002450305C286E25503158296E265032580D
:1028A0002A6E275033582B6E20EE0CF02250D9267A
:1028B0002350DA222850DE5C2950DE582A50DE5898
:1028C0002B50DE58D8B067EF94F069EF94F0A5EF85
:1028D00094F0880E5918D8A470EF94F072EF94F029
:1028E0008FEF94F020EE0BF02250D9262350DA22FD
:1028F000A60EDF6E20EE0BF02250D9262350DA22EE
:10290000DF50126EA60E136E960E146E22C0D9FF03
:1029100023C0DAFFDF50A9ECA4F0A5EF94F020EE7D
:102920000BF02250D9262350DA22A80EDF6E20EEBB
:1029300010F02250D9262350DA2230C0DEFF31C0F9
:10294000DEFF32C0DEFF33C0DEFF20EE17F0225084
:10295000D9262350DA22A80EDE18D8A4B2EF94F0BC
:10296000B4EF94F01FEF95F020EE1CF02250D92622
:102970002350DA22DECF24F0DECF25F0DECF26F0A2
:10298000DECF27F02450305C286E25503158296E58
:10299000265032582A6E275033582B6E20EE18F0EE
:1029A0002250D9262350DA222850DE5C2950DE58E6
:1029B0002A50DE582B50DE58D8B0E1EF94F0E3EF08
:1029C00094F01FEF95F0880E5918D8A4EAEF94F010
:1029D000ECEF94F009EF95F020EE17F02250D92695
:1029E0002350DA22A60EDF6E20EE17F02250D926F1
:1029F0002350DA22DF50126EA60E136E960E146E5E
:102A000022C0D9FF23C0DAFFDF50A9ECA4F01FEFEA
:102A100095F020EE17F02250D9262350DA22A80E86
:102A2000DF6E20EE1CF02250D9262350DA2230C06F
:102A3000DEFF31C0DEFF32C0DEFF33C0DEFF12003A
:102A400000018A918A958A9957ECA4F0000E000142
:102A50008D6F000E8C6F000E9E6F000E9D6F000E2E
:102A6000D26E0E01FDB537EF95F039EF95F031EFED
:102A700095F0D2B63EEF95F040EF95F039EF95F036
:102A800046EF95F000018A93CEECA0F060BC4BEFCE
:102A900095F04DEF95F042EF95F0000E0E01FE6FB0
:102AA000000000000000A00E0E01FE6FFDA15BEF14
:102AB00095F05DEF95F056EF95F00D0EA06F0000CC
:102AC000B30E0E01A26F0000000E0E01A36F0000F6
:102AD000150E0E01A46F0000000E0E01A76F120E5E
:102AE000A66F0000140E0E01E56F160EE46F1F0EA8
:102AF000E76FE669000EE96F000EE86F140EEB6FEA
:102B0000150EEA6F000E7B6E000E7A6E140EE36FE8
:102B1000160EE26F140EED6F150EEC6F050EAB6F17
:102B2000EE0EAA6FE5ECA8F005C014F006C015F093
:102B300014C0D9FF15C0DAFFDF500E01846F00000A
:102B400020EE01F01450D9261550DA22DF500E0184
:102B5000856F000020EE02F01450D9261550DA22BD
:102B6000DF500E01826F000020EE03F01450D926D2
:102B70001550DA22DF500E01836F000020EE04F0C2
:102B80001450D9261550DA22DF500E01806F000054
:102B900020EE05F01450D9261550DA22DF500E0130
:102BA000816F0000AB0E0E01D86F040ED26E010EC5
:102BB000086E000E076E000E54ECA7F0010E086EB2
:102BC000100E076E100E54ECA7F01D0E086E4A0E84
:102BD000076E140E54ECA7F018ECA6F0590E0E0177
:102BE000FB6F000E086E120E076E120E54ECA7F06B
:102BF0001200000E256EC7EF96F0070E256403EF56
:102C000096F005EF96F007EF96F0D0EF96F00A0EEB
:102C1000176E200E186E2550050DF3CF1DF0F4CF62
:102C20001EF01D501A241F6E1E501B20206E040E15
:102C30001F24D96E000E2020DA6EDF5085ECA1F043
:102C4000140E176E2550050DF3CF1DF0F4CF1EF0B6
:102C50001D501A241F6E1E501B20206E020E1F24B2
:102C6000D96E000E2020DA6EDF50186E2550050D4B
:102C7000F3CF21F0F4CF22F021501A24236E2250FA
:102C80001B20246E040E2324D96E000E2420DA6E3D
:102C9000DF5085ECA1F0150E176E2550050DF3CF12
:102CA0001DF0F4CF1EF01D501A241F6E1E501B2065
:102CB000206E030E1F24D96E000E2020DA6EDF5026
:102CC000186E2550050DF3CF21F0F4CF22F02150DE
:102CD0001A24236E22501B20246E040E2324D96E46
:102CE000000E2420DA6EDF5085ECA1F0000E176E86
:102CF0002550050DF3CF1DF0F4CF1EF01D501A2402
:102D0000D96E1E501B20DA6EDF50186E2550050D4F
:102D1000F3CF1FF0F4CF20F01F501A24216E205063
:102D20001B20226E040E2124D96E000E2220DA6EA2
:102D3000DF5085ECA1F0010E176E2550050DF3CF85
:102D40001DF0F4CF1EF01D501A241F6E1E501B20C4
:102D5000206E010E1F24D96E000E2020DA6EDF5087
:102D6000186E2550050DF3CF21F0F4CF22F021503D
:102D70001A24236E22501B20246E040E2324D96EA5
:102D8000000E2420DA6EDF5085ECA1F0252A1C50BD
:102D9000255CD8A0CEEF96F0D0EF96F0FDEF95F041
:102DA000120023BED6EF96F0D9EF96F0010EDAEFBF
:102DB00096F0000E2A6E00019ABFE3EF96F0E1EF65
:102DC00096F0E9EF96F0000E296E010E286EEDEFF9
:102DD00096F099C028F09AC029F097C026F098C0C4
:102DE00027F02A50D8B4F7EF96F0F9EF96F010EFED
:102DF00097F02606D8A027062A50D8A402EF97F00D
:102E000004EF97F00AEF97F0000E256E2B0E246E5C
:102E10000EEF97F0000E256E2D0E246E24C02AF0C2
:102E2000000E2C6E1F0E2B6E000E02016F6F5DEFF9
:102E300097F02B06D8A02C06500E2B24D96E020E2C
:102E40002C20DA6E20C005F021C006F022C007F069
:102E500023C008F00A0E096E000E0A6E000E0B6EFB
:102E6000000E0C6EADEC9BF005C00FF006C010F02C
:102E700033ECA6F00F50300FDF6E2806D8A02906DD
:102E80002606D8A0270620C005F021C006F022C0E3
:102E900007F023C008F00A0E096E000E0A6E000E3D
:102EA0000B6E000E0C6E26EC9AF005C020F006C0EA
:102EB00021F007C022F008C023F02CBE68EF97F085
:102EC0002C5008E12B04D8A068EF97F06AEF97F038
:102ED00082EF97F02050211022102310D8A473EF16
:102EE00097F075EF97F019EF97F029BE82EF97F002
:102EF000295006E12804D8B080EF97F082EF97F0D0
:102F000019EF97F02A50D8B488EF97F08AEF97F02E
:102F100095EF97F02B06D8A02C06500E2B24D96ED7
:102F2000020E2C20DA6E2AC0DFFF1EC015F01FC073
:102F300016F0500E2B24176E020E2C20186E26C091
:102F400019F027C01AF031ECA2F01200000E276E23
:102F50005450040D250EF324D96E010EF420DA6EC0
:102F6000DF50D8B4B6EF97F0B8EF97F0D9EF97F0FD
:102F70005450050D7F0EF3241B6E020EF4201C6EC0
:102F80000A0E1D6E5450050D810EF324D96E020EEB
:102F9000F420DA6EDF501E6EA1ECA3F05450040D45
:102FA000250EF324D96E010EF420DA6EDF6A010ECD
:102FB000276E5450040D270EF324D96E010EF42011
:102FC000DA6EDF50D8B4E7EF97F0E9EF97F00AEF49
:102FD00098F05450050D7F0EF3241B6E020EF42062
:102FE0001C6E0B0E1D6E5450050D820EF324D96E0F
:102FF000020EF420DA6EDF501E6EA1ECA3F05450E6
:10300000040D270EF324D96E010EF420DA6EDF6A68
:10301000020E276E2704D8A410EF98F012EF98F054
:1030200026EF98F05450050D810EF324D96E020E50
:10303000F420DA6E5450040D240EF324E16E010ED8
:10304000F420E26EDFCFE7FF41EF98F0020E271881
:10305000D8A42DEF98F02FEF98F041EF98F054504E
:10306000050D820EF324D96E020EF420DA6E545050
:10307000040D260EF324E16E010EF420E26EDFCF84
:10308000E7FF050E5418D8B448EF98F04AEF98F0CF
:1030900052EF98F0010E5424256E266A000E262267
:1030A00056EF98F0000E266E000E256E25C054F0E7
:1030B00012001E0E13605FEF98F061EF98F0FCEFC6
:1030C00098F01350040DFE0EF324F66EF90EF42062
:1030D000F76EF86A000EF8220900F5500900F510A5
:1030E000D8A475EF98F077EF98F079EF98F0FCEFAF
:1030F00098F01350040DFE0EF3241A6EF90EF4200E
:103100001B6E000E1D6E000E1C6EE3EF98F01CC0CF
:1031100005F01DC006F0000E086E030E076E7CEC75
:10312000A7F01AC0F6FF1BC0F7FF000EF86E05509F
:103130000900F524146E06500900F520156E14C020
:10314000F6FF15C0F7FF000EF86E0900F5CF16F078
:103150000900F5CF17F0D89016361736D8901636E6
:103160001736D89016361736165011240B6E175096
:1031700012200C6E1CC005F01DC006F0000E086E7B
:10318000030E076E7CECA7F01AC0F6FF1BC0F7FF1A
:10319000000EF86E05500900F524186E065009005F
:1031A000F520196E020E1826000E192218C0F6FF1F
:1031B00019C0F7FF000EF86E0800F5CF0DF022ECF5
:1031C0009EF01C4A1D2A020E1A24146E000E1B20AB
:1031D000156E14C0F6FF15C0F7FF000EF86E09005B
:1031E000F5501C5C0900F5501D58D8A0FAEF98F076
:1031F000FCEF98F087EF98F012002A0EF66E260E7C
:10320000F76E010EF86E06EECBF012EE18F0090024
:10321000F5CFEEFFE550E150FAE1E250F8E1300E73
:10322000F66E390EF76E010EF86E06EE00F010EE37
:10323000CBF00900F5CFEEFFE550E150FAE1F00EDA
:10324000F66E4F0EF76E010EF86E04EEB8F010EE4B
:1032500020F00900F5CFEEFFE550E150FAE1800ED5
:10326000F66E430EF76E010EF86E02EE7FF010EE72
:1032700072F00900F5CFEEFFE550E150FAE1BA0E29
:10328000F66E4B0EF76E010EF86E01EEB5F010EE15
:103290003BF00900F5CFEEFFE550E150FAE1240ED6
:1032A000F66E520EF76E010EF86E00EEFAF010EEAA
:1032B00006F00900F5CFEEFFE550E150FAE1740E9B
:1032C000F66E520EF76E010EF86E0900F5CF59F04A
:1032D00005EE00F0500EEE6AE806FDE104EE00F0A7
:1032E000B80EEE6AE806FDE103EE00F0F70EEE6AB6
:1032F000E806FDE102EE00F07F0EEE6AE806FDE171
:1033000001EE00F0B50EEE6AE806FDE100EE60F0B9
:10331000760EEE6AE806FDE100EE4EF00B0EEE6A68
:10332000E806FDE15A905A9200013AEF8FF0000151
:103330009ABF9FEF99F09DEF99F0A5EF99F0000EDD
:10334000276E010E266EA9EF99F099C026F09AC05B
:1033500027F097C024F098C025F0000E296E1F0EAC
:10336000286E000E02016F6FF4EF99F02806D8A0C6
:103370002906500E2824D96E020E2920DA6E20C0AC
:1033800005F021C006F022C007F023C008F00A0EA5
:10339000096E000E0A6E000E0B6E000E0C6E08EC2D
:1033A000A0F00550300FDF6E2606D8A027062406B1
:1033B000D8A0250620C005F021C006F022C007F0E5
:1033C00023C008F00A0E096E000E0A6E000E0B6E86
:1033D000000E0C6ECBEC9EF005C020F006C021F074
:1033E00007C022F008C023F028502910D8B4FBEF02
:1033F00099F0FDEF99F015EF9AF02050211022106E
:103400002310D8A406EF9AF008EF9AF0B6EF99F0DF
:1034100027BE15EF9AF0275006E12604D8B013EF27
:103420009AF015EF9AF0B6EF99F01EC015F01FC094
:1034300016F0500E2824176E020E2920186E24C094
:1034400019F025C01AF031ECA2F01200000E0E6E39
:103450000CBE2FEF9AF02DEF9AF039EF9AF00C1E78
:103460000B1E0A1E096C000E0A220B220C22010EF2
:103470000E6E08BE40EF9AF03EEF9AF04AEF9AF0D7
:10348000081E071E061E056C000E062207220822D3
:10349000010E0E1A000E0F6E000E106E000E116E51
:1034A000000E126E09500A100B100C10D8B45BEF0E
:1034B0009AF05DEF9AF093EF9AF0010E0D6E67EFC0
:1034C0009AF0D89009360A360B360C360D2A0CAE17
:1034D0006CEF9AF06EEF9AF061EF9AF0D8900F3699
:1034E0001036113612360950055C0A5006580B503A
:1034F00007580C500858D8A080EF9AF082EF9AF045
:103500008BEF9AF00950055E0A50065A0B50075A85
:103510000C50085A0F80D8900C320B320A32093204
:103520000D2E6EEF9AF00E50D8B499EF9AF09BEFF3
:103530009AF0A3EF9AF0121E111E101E0F6C000ECF
:103540001022112212220FC005F010C006F011C087
:1035500007F012C008F0120010C016F011C017F0EA
:1035600016501710D8A4B7EF9AF0B9EF9AF0BDEF44
:103570009AF0DE0E166EFF0E176E000E196E000E1C
:10358000186EC5EF9AF0184A192A18501624126EB0
:1035900019501720136E12C0F6FF13C0F7FF000E6C
:1035A000F86E0F0EF76403D00800F55005D0F6CF83
:1035B000E9FFF7CFEAFFEF500009D8A4E2EF9AF055
:1035C000E4EF9AF0C3EF9AF000019ABFEAEF9AF0A5
:1035D000ECEF9AF0FFEF9AF01850995D9A51800A3B
:1035E000126E1950800A1258D8B0F9EF9AF0FBEF1A
:1035F0009AF0FFEF9AF099C018F09AC019F018C02D
:1036000014F019C015F022EF9BF016C0F6FF17C09A
:10361000F7FF000EF86E0F0EF76403D00800F550A8
:1036200005D0F6CFE9FFF7CFEAFFEF50126E125048
:10363000056E066A0EC007F00FC008F0FEEC9CF0A5
:10364000164A172A1406D8A01506142806E11528CC
:10365000D8A42DEF9BF02FEF9BF005EF9BF012000D
:10366000060E0718D8A437EF9BF039EF9BF05FEFF9
:103670009BF020EE06F00550D9260650DA22DF50E6
:10368000086E20EE04F00550D9260650DA22DECF6F
:1036900009F0DDCF0AF009C0D9FF0AC0DAFFDF5018
:1036A00008140009D8A457EF9BF059EF9BF05DEF89
:1036B0009BF0040E076E5FEF9BF0030E076E040E87
:1036C0000718D8A466EF9BF068EF9BF082EF9BF0A1
:1036D00020EE06F00550D9260650DA22DF50086E9B
:1036E00020EE04F00550D9260650DA22DECF09F08C
:1036F000DDCF0AF009C0D9FF0AC0DAFF0850DF1297
:10370000ACEF9BF0030E0718D8A489EF9BF08BEF6A
:103710009BF0ACEF9BF020EE06F00550D92606504A
:10372000DA22DF50D8B497EF9BF09BEF9BF0086A4A
:10373000082A9CEF9BF0086A20EE04F00550D92679
:103740000650DA22DECF09F0DDCF0AF009C0D9FF3A
:103750000AC0DAFF0850DF161200000E0E6E08BE17
:10376000B6EF9BF0B4EF9BF0C0EF9BF0081E071E76
:10377000061E056C000E062207220822010E0E6EA0
:103780000CBEC7EF9BF0C5EF9BF0CFEF9BF00C1E7C
:103790000B1E0A1E096C000E0A220B220C22095075
:1037A0000A100B100C10D8B4D8EF9BF0DAEF9BF096
:1037B0000AEF9CF0010E0D6EE4EF9BF0D8900936F5
:1037C0000A360B360C360D2A0CAEE9EF9BF0EBEF08
:1037D0009BF0DEEF9BF00950055C0A5006580B5039
:1037E00007580C500858D8A0F8EF9BF0FAEF9BF060
:1037F00002EF9CF00950055E0A50065A0B50075A1A
:103800000C50085AD8900C320B320A3209320D2E65
:10381000EBEF9BF00E50D8B410EF9CF012EF9CF041
:103820001AEF9CF0081E071E061E056C000E0622ED
:103830000722082205C005F006C006F007C007F001
:1038400008C008F012008A968A867F0E1A6E020E51
:103850001B6E060E1C6EF9EC95F0010E01014C6F0B
:1038600090ECA8F005C03CF106C03DF107C03EF168
:1038700008C03FF190ECA8F005C044F106C045F146
:1038800007C046F108C047F1C80E0101406F000EA5
:10389000416F000E426F000E436F880E486F130E8B
:1038A000496F000E4A6F000E4B6F90ECA8F005C0F8
:1038B00067F106C068F107C069F108C06AF10A0E35
:1038C0000101636F000E646F000E656F000E666F7E
:1038D000000E266E2650050D810EF324D96E020EC1
:1038E000F420DA6E2650040D240EF324E16E010E4E
:1038F000F420E26EDFCFE7FF2650050D820EF324A1
:10390000D96E020EF420DA6E2650040D260EF32432
:10391000E16E010EF420E26EDFCFE7FF262A050EEE
:10392000266495EF9CF097EF9CF06AEF9CF01200F4
:10393000000500009A0201010500009A020202053A
:1039400000009A0204030500009A02080405000022
:103950009A0210050500009A0220060500009A024E
:1039600040070500009A0280080500009B0201093B
:103970000500009B02020A0500009B02040B0500E3
:10398000009B02080C0500009B02100D0500009B27
:1039900002200E0500009B02400F0500009B0280E4
:1039A00010050000860208110500008602101205AD
:1039B0000000860220130500008602401405000066
:1039C00086028015050000870201160500008702A7
:1039D0000217050000870204180500008702081975
:1039E0000500008702101A0500008702201B050051
:0B39F000008702401C050000870280D9
:1039FC0007500810D8B405EF9DF007EF9DF010EFBD
:103A0C009DF007500810D8A40EEF9DF010EF9DF01C
:103A1C0015EF9DF0055036ECA9F062EF9DF020EE0D
:103A2C000AF00750D9260850DA22DE50DE10D8B43E
:103A3C0022EF9DF024EF9DF03FEF9DF020EE0AF079
:103A4C000750D9260850DA2210EE03F00750E12671
:103A5C000850E222DE50E65CE650800A0D6EDE5025
:103A6C00800A0D58D8B03DEF9DF03FEF9DF062EF0E
:103A7C009DF020EE03F00750D9260850DA22DECF55
:103A8C0009F0DDCF0AF007C0D9FF08C0DAFFDECF9E
:103A9C000BF0DDCF0CF009500B24D96E0A500C2022
:103AAC00DA6E05C0DFFF20EE03F00750D926085070
:103ABC00DA22DE2A000EDD22120086ECA8F00009C4
:103ACC00D8B46BEF9DF06DEF9DF0AAEF9DF07BEFFE
:103ADC009DF006ECA9F0C6EF9DF002ECA9F0C6EF44
:103AEC009DF0FAECA8F0C6EF9DF078C010F079C00C
:103AFC0011F020EE69F002D88EEF9DF00500FA6E01
:103B0C00DE50FD6EDE50FE6EDE50FF6EFA5012007F
:103B1C00136E146A1450000AD8B497EF9DF077EF27
:103B2C009DF01350010AD8B477EF9DF0030AD8B476
:103B3C006FEF9DF0010AD8B473EF9DF0070AD8B46B
:103B4C0077EF9DF077EF9DF00001899183C0D9FF4D
:103B5C0084C0DAFF834B842BDF500AECA9F0000100
:103B6C008507D8A0860785518611D8A4C0EF9DF093
:103B7C00C2EF9DF0C5EF9DF0060EC6EF9DF0030E53
:103B8C001200000E0F6E000E0E6E0B50D96EDA6A1C
:103B9C00DECFF6FFDDCFF7FF000EF86E0800F55014
:103BAC002A0AD8A4DCEF9DF0DEEF9DF008EF9EF022
:103BBC000B50D96EDA6ADE2A000EDD220C50D96E5B
:103BCC00DA6A020EDF26DF5CD96EDA6ADECF0EF01F
:103BDC00DECF0FF01DEF9EF00EC005F00FC006F00B
:103BEC00000E086E0A0E076E7CECA7F00D50052433
:103BFC000E6E000E06200F6E0B50D96EDA6ADE2A9E
:103C0C00000EDD220B50D96EDA6ADECFF6FFDDCF67
:103C1C00F7FF000EF86E0800F550D00F0D6E090E70
:103C2C000D641BEF9EF01DEF9EF0F2EF9DF00EC0A9
:103C3C000BF00FC00CF0120020EE03F00B50D92645
:103C4C000C50DA22DF50D8B42EEF9EF030EF9EF0FD
:103C5C003BEF9EF00D50D8B436EF9EF039EF9EF04E
:103C6C00010E3AEF9EF0000E0D6E0D50D8B441EFE0
:103C7C009EF043EF9EF05DEF9EF020EE07F00B50B0
:103C8C00D9260C50DA22DF500E6E20EE05F00B50C8
:103C9C00D9260C50DA22DECF0FF0DDCF10F00FC09A
:103CAC00D9FF10C0DAFF0E50DF1276EF9EF020EE37
:103CBC0007F00B50D9260C50DA22DF50FF0A0E6E9B
:103CCC0020EE05F00B50D9260C50DA22DECF0FF087
:103CDC00DDCF10F00FC0D9FF10C0DAFF0E50DF1689
:103CEC00120022ECA9F083C0D9FF84C0DAFFDF6E8A
:103CFC000001834B842B8507D8A08607855186113C
:103D0C00D8B48BEF9EF08DEF9EF092EF9EF018ECF6
:103D1C00A9F0050ECAEF9EF089879DEF9EF0EEECA0
:103D2C00A8F0CAEF9EF0F2ECA8F0CAEF9EF072C0B9
:103D3C0010F073C011F002D8AEEF9EF00500FA6ED1
:103D4C006051FD6E6151FE6E6251FF6EFA501200B1
:103D5C00136E146A1450000AD8B4B7EF9EF099EFA2
:103D6C009EF01350010AD8B499EF9EF0030AD8B410
:103D7C0095EF9EF0010AD8B495EF9EF0070AD8B4DF
:103D8C0099EF9EF099EF9EF01200000E0D6E000E52
:103D9C000E6E000E0F6E000E106E09500A100B10F6
:103DAC000C10D8B4DCEF9EF0DEEF9EF014EF9FF019
:103DBC00010E116EE8EF9EF0D89009360A360B36DC
:103DCC000C36112A0CAEEDEF9EF0EFEF9EF0E2EF09
:103DDC009EF0D8900D360E360F3610360950055C15
:103DEC000A5006580B5007580C500858D8A001EF31
:103DFC009FF003EF9FF00CEF9FF00950055E0A5007
:103E0C00065A0B50075A0C50085A0D80D8900C3299
:103E1C000B320A320932112EEFEF9EF00DC005F075
:103E2C000EC006F00FC007F010C008F01200056EAF
:103E3C00010E066E000189B526EF9FF028EF9FF06A
:103E4C006CEF9FF005C082F08993898589910E0EE5
:103E5C00876F010E816FF40E806F8987500E606F33
:103E6C00520E616F010E626F000E726F000E736F57
:103E7C00500E636F520E646F010E656F000E746FFF
:103E8C00000E756F500E666F520E676F010E686FE5
:103E9C00000E766F000E776F500E696F520E6A6FC0
:103EAC00010E6B6F000E786F000E796F4C0E6C6FFD
:103EBC00520E6D6F010E6E6F000E7A6F000E7B6FDF
:103ECC0034ECA9F0E7ECA7F0000E066E06501200D9
:103EDC00000E056E000E066E71ECA3F005C045F0E9
:103EEC0006C046F007C047F008C048F0570E000166
:103EFC00D66FFE0ED76F45C0D8F046C0D9F047C07C
:103F0C00DAF048C0DBF026ECA8F0000E496E495000
:103F1C00020D850EF324F66EF90EF420F76EF86A96
:103F2C00000EF8220800F550436E446A000E43243C
:103F3C00D96E030E4420DA6E4950020D010EF326A1
:103F4C00000EF422850EF324F66EF90EF420F76EB3
:103F5C00F86A000EF8220800F5CFDFFF492A160E8A
:103F6C004964BBEF9FF0BDEF9FF08DEF9FF0120007
:103F7C00B20E0101006F010E016FA80E026FC00E90
:103F8C00036F000E0C6FFF0E0D6FFF0E0E6FFF0E0A
:103F9C000F6FFE0E106F010E116FA80E126FC00E78
:103FAC00136FFE0E046F010E056FA80E066FC00E88
:103FBC00076F000E086F000E096F000E0A6F000EDF
:103FCC000B6F000E056E0550040D180EF324D96E00
:103FDC00010EF420DA6EDE6ADE6ADE6ADD6A052A1C
:103FEC00010E0564FCEF9FF0FEEF9FF0E9EF9FF0F0
:103FFC00000E0101206F000E216F000E226F000ECB
:10400C00236F120009500A100B100C10D8B411EFCA
:10401C00A0F013EFA0F043EFA0F0010E0D6E1DEF1A
:10402C00A0F0D89009360A360B360C360D2A0CAE99
:10403C0022EFA0F024EFA0F017EFA0F00950055CE0
:10404C000A5006580B5007580C500858D8A031EF9E
:10405C00A0F033EFA0F03BEFA0F00950055E0A5042
:10406C00065A0B50075A0C50085AD8900C320B3287
:10407C000A3209320D2E24EFA0F005C005F006C05F
:10408C0006F007C007F008C008F0120090ECA8F08A
:10409C0005C01AF006C01BF007C01CF008C01DF0CC
:1040AC00DB0E056E010E066E1A0E076EFDEC91F01E
:1040BC00CC0E056E010E066E1A0E076EFDEC91F01D
:1040CC00BD0E056E010E066E1A0E076EFDEC91F01C
:1040DC00CA0E056E020E066E1A0E076EFDEC91F0FE
:1040EC00BB0E056E020E066E1A0E076EFDEC91F0FD
:1040FC00AC0E056E020E066E1A0E076EFDEC91F0FC
:10410C009D0E056E020E066E1A0E076EFDEC91F0FA
:10411C00120000018987A0EFA0F0FEECA8F0CDEF13
:10412C00A0F020ECA9F0030ECDEFA0F0FAECA8F073
:10413C00CDEFA0F072C010F073C011F002D8B1EF47
:10414C00A0F00500FA6E6051FD6E6151FE6E625179
:10415C00FF6EFA501200136E146A1450000AD8B491
:10416C00BAEFA0F09CEFA0F01350010AD8B49CEF6A
:10417C00A0F0030AD8B493EFA0F0010AD8B493EFDF
:10418C00A0F0070AD8B497EFA0F09CEFA0F01200B3
:10419C0000018A930E01FE514009FE6FFF0E0001D3
:1041AC009D25056EFF0E9E21066E0E01E851055CE5
:1041BC00E9510658D8A0E5EFA0F0E7EFA0F0FAEF30
:1041CC00A0F0FF0E00019D25056EFF0E9E21066ED0
:1041DC0005500E01EA5D0650EB59D8B0F8EFA0F08F
:1041EC00FAEFA0F000EFA1F0EACEECFEEBCEEDFE84
:1041FC000AEFA1F0FF0E00019D250E01EC6FFF0EE2
:10420C0000019E210E01ED6FFB8D12000B6E80ECF8
:10421C00A4F00009D8A415EFA1F017EFA1F03DEF21
:10422C00A1F00BC0B4FE000E0E01B26FB281000003
:10423C00000080ECA4F0FF0AD8A427EFA1F029EF2E
:10424C00A1F033EFA1F0FD0E0C6EFF0E0D6EFF0E04
:10425C000E6EFF0E0F6E41EFA1F00E01B291B8CEB3
:10426C000CF0B9CE0DF00E6A0F6A41EFA1F00C689C
:10427C000D680E680F680CC007F00DC008F00EC07A
:10428C0009F00FC00AF0120020EE02F01E50D926E1
:10429C001F50DA22DF50D8A456EFA1F058EFA1F04E
:1042AC0070EFA1F01EC0D9FF1FC0DAFFDF50226EE5
:1042BC002250080DF3CF23F0F4CF24F02350202408
:1042CC000B6E245021200C6E000E0D6E22EC9EF015
:1042DC0084EFA1F020C011F021C012F01D0E136E5E
:1042EC0059EC98F020C011F021C012F01EC0D9FF7B
:1042FC001FC0DAFFDF50136E59EC98F01200196EE4
:10430C0019501DEC9FF00009D8B48FEFA1F091EF7C
:10431C00A1F086EFA1F0660E0B6E4D0E0C6E010E29
:10432C000D6E180E0E6E0F6A6EECA8F0170E056E61
:10433C00066A000E086E010E076EA1ECA7F0000EC7
:10434C000B6E000E0C6E000E0D6E000E0E6E000E3F
:10435C000F6E60ECA8F0EAECA8F00001B76F29EC46
:10436C00A7F0E806D8B4BDEFA1F0BFEFA1F0B5EF10
:10437C00A1F0120000000000260000000025000043
:10438C00FFFF240000FFFF230000FFFF22000000BE
:10439C0000210500000000000000870F80000001D4
:1043AC00000500000000000000870F400000010025
:1043BC000500000000000000870F20000001000530
:1043CC0000000000000000870F10000001008D0F9E
:1043DC00108D0F208D0F408D0F808D0F018D0F02D2
:1043EC008D0F048D0F080A6E055006100710D8B4F7
:1043FC0002EFA2F004EFA2F01CEFA2F00A50030DA2
:10440C00F350600FD96EDA6A05C0DEFF06C0DEFF1E
:10441C0007C0DEFF0A50020DF350720FD96EDA6A34
:10442C0008C0DEFF09C0DDFF30EFA2F00A50030D1B
:10443C00F350600FD96EDA6A500EDE6E520EDE6EDD
:10444C00010EDE6E0A50020DF350720FD96EDA6A4D
:10445C00DE6ADD6A12001ABE38EFA2F036EFA2F067
:10446C003CEFA2F0000E1A6E000E196E000E1D6EBF
:10447C00000E1C6E4EEFA2F0000E066E200E056EA6
:10448C0015C007F016C008F0FEEC9CF01C4A1D2A63
:10449C0019501C5C1D50800A1B6E1A50800A1B5848
:1044AC00D8A05BEFA2F05DEFA2F042EFA2F017C034
:1044BC000EF018C00FF015C010F016C011F039EC4A
:1044CC00A5F01200ADC105F0AEC106F0AFC107F00A
:1044DC00B0C108F02D0E096E7F0E0A6E950E0B6E94
:1044EC004C0E0C6E0BECA3F0010E05240101AD6F0C
:1044FC00000E0620AE6F000E0720AF6F000E0820D6
:10450C00B06FADC113F0AEC114F0AFC115F0B0C1B6
:10451C0016F0120E97EFA2F0D89016321532143214
:10452C001332E82E92EFA2F013C011F014C012F067
:10453C00120034ECA9F0000189A1A7EFA2F0A9EFB9
:10454C00A2F0B6EFA2F086ECA8F00009D8B4B1EF57
:10455C00A2F0B3EFA2F0B6EFA2F00F0E0001876F3E
:10456C0000018751030D550EF324F66EF90EF4205D
:10457C00F76EF86A000EF82202D8D2EFA2F005000E
:10458C00FA6E0900F550FD6E0900F550FE6E09003B
:10459C00F550FF6EFA5012000001876F12000001F7
:1045AC008991020E886FE3EFA2F0FEECA8F00AEFFF
:1045BC00A3F0FAECA8F00AEFA3F076C010F077C0E5
:1045CC0011F020EE66F002D8F6EFA2F00500FA6EBC
:1045DC00DE50FD6EDE50FE6EDE50FF6EFA501200A5
:1045EC00136E146A1450000AD8B4FFEFA2F0DFEF78
:1045FC00A2F01350020AD8B4DBEFA2F0010AD8B42F
:10460C00DBEFA2F0DFEFA2F01200000E0D6E000E39
:10461C000E6E000E0F6E000E106E05A018EFA3F0BC
:10462C001AEFA3F022EFA3F009500D260A500E2228
:10463C000B500F220C501022D89009360A360B362C
:10464C000C36D89008320732063205320550061067
:10465C0007100810D8A435EFA3F037EFA3F013EF31
:10466C00A3F00DC005F00EC006F00FC007F010C08F
:10467C0008F012000001A951AB1909E1AA51AC19BB
:10468C00D8B44BEFA3F04DEFA3F06CEFA3F0A9C09F
:10469C0009F0AAC00AF00A0EA927000EAA23680E78
:1046AC00076E040E086E500E0726000E08220750E7
:1046BC00A95D0850AA59D8A066EFA3F068EFA3F043
:1046CC006CEFA3F0680EA96F040EAA6F09C005F079
:1046DC000AC006F01200000EF2BE010E096EF29E28
:1046EC0073C10AF074C10BF075C10CF076C10DF0FA
:1046FC0009B002D0F29E01D0F28E05500610D8B44B
:10470C008AEFA3F08CEFA3F098EFA3F005C0D9FFCC
:10471C0006C0DAFF0AC0DEFF0BC0DEFF0CC0DEFFF6
:10472C000DC0DEFF0AC005F00BC006F00CC007F090
:10473C000DC008F012000A0E1D18D8B4A8EFA3F093
:10474C00AAEFA3F0B0EFA3F0000E246E150E236EAB
:10475C00B4EFA3F0000E246E140E236E23C022F0CF
:10476C00000E1F6E000E206E000E216E22C01FF078
:10477C001EC020F01F0E176E000E196E020E186E62
:10478C0020EE04F01B50D9261C50DA22DF50FFEC2F
:10479C00A3F0120005C0D9FF06C0DAFF84CEDFFFFC
:1047AC00054A062A05C0D9FF06C0DAFF85CEDFFF11
:1047BC00054A062A05C0D9FF06C0DAFF82CEDFFF04
:1047CC00054A062A05C0D9FF06C0DAFF83CEDFFFF3
:1047DC00054A062A05C0D9FF06C0DAFF80CEDFFFE6
:1047EC00054A062A05C0D9FF06C0DAFF81CEDFFFD5
:1047FC0012001A6E1A501DEC9FF00009D8B409EF84
:10480C00A4F00BEFA4F000EFA4F017C005F0066ABB
:10481C0018C007F019C008F0A1ECA7F0000E0B6E41
:10482C00000E0C6E000E0D6E000E0E6E000E0F6E56
:10483C0060ECA8F0EAECA8F029ECA7F0E806D8B4F4
:10484C002AEFA4F02CEFA4F022EFA4F0120005C084
:10485C00D9FF06C0DAFFA7C0E1FFA8C0E2FF090E2E
:10486C00DBCFE3FFE806FCE20A0E0001A727000EEF
:10487C00A823000E076E050E086E500E0726000EBC
:10488C0008220750A75D0850A859D8A050EFA4F0F3
:10489C0052EFA4F056EFA4F0000EA76F050EA86F10
:1048AC001200000E086E000E076E170E056E030E3A
:1048BC00066E000E576E000E526E000E536E000EFA
:1048CC00506E000E516E74EFA4F007500524D96E93
:1048DC0008500620DA6EDF6A074A082A085009E1F8
:1048EC00C80E075CD8A07DEFA4F07FEFA4F06BEFAF
:1048FC00A4F01200000E056E000E066E0000062AD3
:10490C00090E06648CEFA4F08EEFA4F084EFA4F0F3
:10491C005A0E066E93EFA4F000000E018AA199EFD7
:10492C00A4F09BEFA4F09EEFA4F0062E92EFA4F05F
:10493C000650D8A4A4EFA4F0A6EFA4F0A7EFA4F01F
:10494C00056805501200166EAA0E186E16C019F0E6
:10495C0012C01AF013C01BF014C01CF0030E176E1B
:10496C0017C015F0020E15261550180FD96EDA6AFD
:10497C00DF6A172A070E1764C6EFA4F0C8EFA4F07D
:10498C00B6EFA4F0180E056E066A2DECA4F012001A
:10499C003DC040F03EC041F0DEEFA4F03BC02DF036
:1049AC003CC02EF0400E2F6E3FC030F03AEC8DF034
:1049BC0040C0F6FF41C0F7FF000EF86E0800F5503E
:1049CC000009D8A4ECEFA4F0EEEFA4F0D4EFA4F01F
:1049DC00000E3C6E000E3B6E1200000E8D6E000E33
:1049EC00916E000E8C6E000E896E000E8E6E000E97
:1049FC008A6E000E8F6E000E8B6E000E906E000E87
:104A0C00966E9768000E926E9868C30E936E9968B6
:104A1C00000E946E600E956E9A680F0EC112120005
:104A2C0020EE02F01050D9261150DA22DF50126E0F
:104A3C0012C005F0066A10C0D9FF11C0DAFFDECF34
:104A4C0007F0DDCF08F0A1ECA7F0000E0B6E000E06
:104A5C000C6E000E0D6E000E0E6E000E0F6E6EECD8
:104A6C00A8F0020E1200000E146E000E136E4AEF28
:104A7C00A5F012C005F0066A10C007F011C008F0CE
:104A8C00FEEC9CF0134A142A13500E24D96E1450C9
:104A9C000F20DA6EDF50126E1250D8A458EFA5F02A
:104AAC005AEFA5F03FEFA5F01200156E010E166E31
:104ABC00000189B364EFA5F066EFA5F07BEFA5F0DC
:104ACC008983000E166E1550D8B46FEFA5F071EFF8
:104ADC00A5F075EFA5F0010E876F77EFA5F0020E2C
:104AEC00876F2EECA9F035ECA8F016501200010ED1
:104AFC000101B527000EB623B723B823000194514A
:104B0C0095119611D8B48DEFA5F08FEFA5F09EEF0F
:104B1C00A5F002D89CEFA5F00500FA6E9451FD6E3D
:104B2C009551FE6E9651FF6EFA5012009EEFA5F055
:104B3C0012009E909BC001F09CC002F068ECA7F0A4
:104B4C000101F851F911FA11D8B4AFEFA5F0B1EF9A
:104B5C00A5F0BEEFA5F002D8BEEFA5F00500FA6EE9
:104B6C00F851FD6EF951FE6EFA51FF6EFA501200BB
:104B7C001200F2944F50D76E4EC0D6FF0101FB517C
:104B8C00FC11FD11D8B4CDEFA5F0CFEFA5F0DCEF03
:104B9C00A5F002D8DCEFA5F00500FA6EFB51FD6E16
:104BAC00FC51FE6EFD51FF6EFA5012001200010016
:104BBC000000010000000500000000000000880F4C
:104BCC0004000001000500000000000000880F0236
:104BDC00000001000500000000000000880F01002B
:094BEC00000100020000000003BA
:104BF600D59C610ED76E0D0ED66ED650D7CF08F067
:104C0600096A08C009F0086A08104E6E09504F6E0E
:104C1600F294F28A720E056E520E066E010E076E41
:104C2600B9ECA8F0970ED56E1200110E0CECA1F09F
:104C360007C010F008C011F009C012F00AC013F046
:104C460011A428EFA6F02AEFA6F02FEFA6F0000198
:104C56008A85010E32EFA6F000018A95000E120039
:104C660010BE38EFA6F03AEFA6F040EFA6F00FC060
:104C76000FF010C010F04CEFA6F00FC011F010C0EE
:104C860012F0111E121E114A122A11C00FF012C084
:104C960010F01200500E0201006F690E016FD90E5E
:104CA600066F020E076FBD0E086F010E096F000E2C
:104CB6000A6F960E0B6FBD0E146F010E156F000E68
:104CC600166F960E176F1200460E0201286F690EB8
:104CD600296FE50E2E6F020E2F6FCC0E306F010E70
:104CE600316F000E326F960E336FDB0E3C6F010E86
:104CF6003D6F000E3E6F960E3F6F1200000E076E60
:104D0600000E0724D96EDA6A040EDA22DF6A072A51
:104D1600070E076491EFA6F093EFA6F083EFA6F0D7
:104D2600A70E056E010E066ED0ECA3F0120068EC1D
:104D3600A2F011C08FF112C090F168ECA2F011C080
:104D46008FF112C090F168ECA2F011C08FF112C081
:104D560090F168ECA2F011C08FF112C090F1120030
:104D660010C005F011C006F0000E086E010E076EA9
:104D7600A1ECA7F0000E0B6E000E0C6E000E0D6E71
:104D8600000E0E6E000E0F6E6EECA8F0040E1200F2
:104D960010C005F011C006F0000E086E020E076E78
:104DA600A1ECA7F0000E0B6E000E0C6E000E0D6E41
:104DB600000E0E6E000E0F6E6EECA8F0020E1200C4
:104DC60010C005F011C006F0000E086E010E076E49
:104DD600A1ECA7F0000E0B6E000E0C6E000E0D6E11
:104DE600000E0E6E000E0F6E6EECA8F0020E120094
:104DF60010C005F011C006F0000E086E020E076E18
:104E0600A1ECA7F0000E0B6E000E0C6E000E0D6EE0
:104E1600000E0E6E000E0F6E6EECA8F0040E120061
:104E2600000E0001B96F000EB86F680EAB6F040E6E
:104E3600AC6F680EA96F040EAA6F000EA76F050E61
:104E4600A86F000EA56F050EA66F1200010E056E67
:104E5600000189B331EFA7F033EFA7F03DEFA7F0DC
:104E66008995826934ECA9F030ECA9F032ECA9F00E
:104E760088C005F005501200D70ECF6E4F0ECE6ECD
:104E8600CECF9BF0CFCF9CF09E909D806E0E056E90
:104E9600520E066E010E076EC0ECA8F0010ECD6E26
:104EA6001200096E09C0B4FE07C07EFE08C07FFE70
:104EB600F2CF0AF0000EF26E7ECEB6FE7FCEB7FEC1
:104EC6000AC0F2FF80ECA4F01200CDA46DEFA7F0AB
:104ED6006FEFA7F077EFA7F0CD900250CF6E01C02D
:104EE600CEFFCD807BEFA7F00250CF6E01C0CEFF84
:104EF600120005500702F3CF09F0F4CF0AF005506F
:104F06000802F3500A2606500702F3500A2609C083
:104F160005F00AC006F01200E00E0101736FC20E22
:104F2600746F1E0E756F4D0E766F620E056E510E06
:104F3600066E010E076EB9ECA8F01200000189A7F3
:104F4600A7EFA7F0A9EFA7F0B2EFA7F005C083F08F
:104F560006C084F007C085F008C086F08997120065
:104F66000001A951AB1909E1AA51AC19D8B4BEEF99
:104F7600A7F0C0EFA7F0C3EFA7F0010EC4EFA7F0AC
:104F8600000E120020EE0CF00550D9260650DA224B
:104F9600DF50076E20EE0CF00550D9260650DA22B7
:104FA600DF6A07501200FA0E056E4A0E066E010EF3
:104FB600076EC0ECA8F0700E056E520E066E010E5E
:104FC600076EC7ECA8F0120063BAECEFA7F0EEEF9D
:104FD600A7F0F7EFA7F0800E646E080E636E000E62
:104FE600626E190E656E638A1200E5FFD6FF7FFFBB
:104FF600C2FF4BFF8EFF6EFFC4FEB0FED8FE25FF3C
:1050060012FFB6FFFFFEECFE86FE1EECA9F07CEC5E
:10501600A8F0F3ECA4F0E0ECA8F03FECA7F0FBEC72
:10502600A5F017ECA8F0120020EC95F081ECA6F0A4
:1050360015ECA9F08FECA7F052ECA8F044ECA8F020
:105046006EEC9FF01200D80E426E000E3B6E000E04
:105056003C6ED6C03DF0D7C03EF0420E3F6ECEEC61
