:040000003AEF00F0E3
:100008005A82FACF03F0FBCF04F0F2AA0EEF00F009
:1000180010EF00F01BEF00F0F2A415EF00F017EF5F
:1000280000F01BEF00F034ECABF034EF00F0F2AC72
:1000380020EF00F022EF00F034EF00F09DA027EF52
:1000480000F029EF00F034EF00F09EA02EEF00F052
:1000580030EF00F034EF00F014ECABF034EF00F0C8
:1000680004C0FBFF03C0FAFF5A9211009CEF9EF0F8
:10F23200002BFB050074FA08009FF9090040FC014D
:10F24200003DFC01003AFC010037FC010034FC01E6
:10F252000031FC01002EFC01002BFC010028FC0106
:10F262000025FC010022FC01001FFC01001CFC0126
:10F272000019FC010016FC010013FC010010FC0146
:10F28200000DFC01000AFC010007FC010004FC0166
:10F292000001FC0100FEFB0100FBFB0100F8FB0189
:10F2A20000F5FB010023F71D003AFB05008CFA086C
:10F2B20000BAF909008EFC01008BFC010088FC01F8
:10F2C2000085FC010082FC01007FFC01007CFC0146
:10F2D2000079FC010076FC010073FC010070FC0166
:10F2E200006DFC01006AFC010067FC010064FC0186
:10F2F2000061FC01005EFC01005BFC010058FC01A6
:10F302000055FC010052FC01004FFC01004CFC01C5
:10F312000049FC010046FC010043FC01007AF71D94
:10F322000049FB0500A4FA0800D5F90900DCFC013C
:10F3320000D9FC0100D6FC0100D3FC0100D0FC0185
:10F3420000CDFC0100CAFC0100C7FC0100C4FC01A5
:10F3520000C1FC0100BEFC0100BBFC0100B8FC01C5
:10F3620000B5FC0100B2FC0100AFFC0100ACFC01E5
:10F3720000A9FC0100A6FC0100A3FC0100A0FC0105
:10F38200009DFC01009AFC010097FC010094FC0125
:10F392000091FC0100D1F71D0058FB0500BCFA08E2
:10F3A20000F0F909002AFD010027FD010024FD01FA
:10F3B2000021FD01001EFD01001BFD010018FD01E1
:10F3C2000015FD010012FD01000FFD01000CFD0101
:10F3D2000009FD010006FD010003FD010000FD0121
:10F3E20000FDFC0100FAFC0100F7FC0100F4FC0145
:10F3F20000F1FC0100EEFC0100EBFC0100E8FC0165
:10F4020000E5FC0100E2FC0100DFFC010028F81D20
:10F412000067FB0500D4FA08000BFA090078FD0129
:10F422000075FD010072FD01006FFD01006CFD0120
:10F432000069FD010066FD010063FD010060FD0140
:10F44200005DFD01005AFD010057FD010054FD0160
:10F452000051FD01004EFD01004BFD010048FD0180
:10F462000045FD010042FD01003FFD01003CFD01A0
:10F472000039FD010036FD010033FD010030FD01C0
:10F48200002DFD01007FF81D0076FB0500ECFA0857
:10F492000026FA0900C6FD0100C3FD0100C0FD01FE
:10F4A20000BDFD0100BAFD0100B7FD0100B4FD0180
:10F4B20000B1FD0100AEFD0100ABFD0100A8FD01A0
:10F4C20000A5FD0100A2FD01009FFD01009CFD01C0
:10F4D2000099FD010096FD010093FD010090FD01E0
:10F4E200008DFD01008AFD010087FD010084FD0100
:10F4F2000081FD01007EFD01007BFD0100D6F81DAB
:10F502000085FB050004FB080041FA090014FE0116
:10F512000011FE01000EFE01000BFE010008FE01BB
:10F522000005FE010002FE0100FFFD0100FCFD01DD
:10F5320000F9FD0100F6FD0100F3FD0100F0FD01FF
:10F5420000EDFD0100EAFD0100E7FD0100E4FD011F
:10F5520000E1FD0100DEFD0100DBFD0100D8FD013F
:10F5620000D5FD0100D2FD0100CFFD0100CCFD015F
:10F5720000C9FD01002DF91D000000000080DE28F9
:10F582000080C84D0000A7760000349E008012C79C
:10F5920000809FEE00007E1701805C400180E967D9
:10F5A2000100C890010055B801845C01265C011677
:10F5B2005C019444018E4701785C01524C01DC5C91
:10F5C20001D45C01CC5C01C45C01BC5C01B45C0193
:10F5D200AC5C016C5C018A4F010006010502050367
:10F5E200060405050506060705080609050A050BB2
:10F5F200050C060D050E050F051006110512051363
:10F60200061405150616051705414447484E53557D
:10F612005C5F6065696A7277787B7E1F1E1F1E1FA2
:10F622001F1E1F1E1F1F1D0A00000088130000C896
:10F63200000000E8030000B80B0000E8030000E847
:10F6420003000005000000D0070000C80000000A07
:10F6520000001CFB05005CFA080084F90900F2FBBB
:10F662000100EFFB0100ECFB0100E9FB0100E6FBFE
:10F672000100E3FB0100E0FB0100DDFB0100DAFB1E
:10F682000100D7FB0100D4FB0100D1FB0100CEFB3E
:10F692000100CBFB0100C8FB0100C5FB0100C2FB5E
:10F6A2000100BFFB0100BCFB0100B9FB0100B6FB7E
:10F6B2000100B3FB0100B0FB0100ADFB0100AAFB9E
:10F6C2000100A7FB0100CCF61D00000000010000B4
:10F6D200020000030000040000050000060000070D
:10F6E20000000800000900000A00000B00000C00E6
:10F6F200000D00000E00000F0000100000110000BD
:10F70200120000130000140000150000160000177C
:10F7120000001800001900001A00001B00001C0065
:10F7220000000000010000020000030000040000CD
:10F732000500000600000700000800000900000A9A
:10F7420000000B00000C00000D00000E00000F0076
:10F75200001000001100001200001300001400004D
:10F762001500001600001700001800001900001A0A
:10F7720000001B00001C000000000001000002004D
:10F78200000300000400000500000600000700005E
:10F792000800000900000A00000B00000C00000D28
:10F7A20000000E00000F0000100000110000120007
:10F7B20000130000140000150000160000170000DE
:10F7C2001800001900001A00001B00001C000000B5
:10F7D2000000010000020000030000040000050018
:10F7E200000600000700000800000900000A0000EF
:10F7F2000B00000C00000D00000E00000F000010B6
:10F802000000110000120000130000140000150097
:10F81200001600001700001800001900001A00006E
:10F822001B00001C00000000000100000200000399
:10F8320000000400000500000600000700000800A8
:10F84200000900000A00000B00000C00000D00007F
:10F852000E00000F00001000001100001200001343
:10F862000000140000150000160000170000180028
:10F87200001900001A00001B00001C00000000001C
:10F882000100000200000300000400000500000661
:10F8920000000700000800000900000A00000B0039
:10F8A200000C00000D00000E00000F000010000010
:10F8B20011000012000013000014000015000016D1
:10F8C20000001700001800001900001A00001B00B9
:10F8D200001C000000000001000002000003000004
:10F8E20004000005000006000007000008000009EF
:10F8F20000000A00000B00000C00000D00000E00CA
:10F90200000F0000100000110000120000130000A0
:10F91200140000150000160000170000180000195E
:10F9220000001A00001B00001C0000000000010083
:10F9320000020000030000040000050000060000B1
:10F942000700000800000900000A00000B00000C7C
:10F9520000000D00000E00000F000010000011005A
:10F962000012000013000014000015000016000031
:10F972001700001800001900001A00001B00001CEC
:10F9820000000200012000002100002200002300EC
:10F99200002700002800002900002A0000020001C0
:10F9A2002000002100002200002300002700002880
:10F9B20000002900002A00000200012000002100AE
:10F9C2000022000023000027000028000029000078
:10F9D2002A00000200012000002100002200002372
:10F9E20000002700002800002900002A0000020071
:10F9F2000120000021000022000023000027000057
:10FA02002800002900002A00000200012000002135
:10FA12000000220000230000270000280000290027
:10FA2200002A000002000120000021000022000044
:10FA32002300002700002800002900002A000002FD
:10FA42000001200000210000220000230000270006
:10FA5200002800002900002A000001000120000007
:10FA62002100002200012700012800012900002AAC
:10FA720000000100012000002100002200012700F7
:10FA8200012800012900002A0000010001200000D5
:10FA92002100002200012700012800012900002A7C
:10FAA20000000100012000002100002200012700C7
:10FAB200012800012900002A0000010001200000A5
:10FAC2002100002200012700012800012900002A4C
:10FAD2000000010001200000210000220001270097
:10FAE200012800012900002A000001000120000075
:10FAF2002100002200012700012800012900002A1C
:10FB02000000010001200000210000220001270066
:10FB1200012800012900002A000000000120000144
:10FB22002600002900012A00010000012000012610
:10FB320000002900012A0001000001200001260026
:10FB4200002900012A000100000120000126000016
:10FB52002900012A000100000120000126000029DD
:10FB620000012A00010000012000012600002900F6
:10FB7200012A0001000001200001260000290001E5
:10FB82002A00010000012000012600002900012AAC
:10FB92000001FFFFFFFFFFFF60EA000000474D5436
:10FBA20000E80300001C00011B00011A00011900FB
:10FBB20001180001170001160001150001140001CF
:10FBC2001300011200011100011000010F00010ECB
:10FBD20000010D00010C00010B00010A00010900E7
:10FBE20001080001070001060001050001040001EF
:10FBF2000300011C00011B00011A00011900011879
:10FC02000001170001160001150001140001130084
:10FC1200011200011100011000010F00010E00018C
:10FC22000D00010C00010B00010A0001090001088E
:10FC320000010700010600010500010400010300A4
:10FC4200011C00011B00011A00011900011800012A
:10FC52001700011600011500011400011300011222
:10FC620000011100011000010F00010E00010D0042
:10FC7200010C00010B00010A00010900010800014A
:10FC82000700010600010500010400010300011C38
:10FC920000011B00011A00011900011800011700E0
:10FCA20001160001150001140001130001120001E8
:10FCB2001100011000010F00010E00010D00010CE6
:10FCC20000010B00010A0001090001080001070000
:10FCD200010600010500010400010300011C0001EE
:10FCE2001B00011A0001190001180001170001167A
:10FCF200000115000114000113000112000111009E
:10FD0200011000010F00010E00010D00010C0001A5
:10FD12000B00010A000109000108000107000106A9
:10FD220000010500010400010300011C00011B0089
:10FD3200011A000119000118000117000116000143
:10FD4200150001140001130001120001110001103D
:10FD520000010F00010E00010D00010C00010B005B
:10FD6200010A000109000108000107000106000163
:10FD72000500010400010300011C00011B00011A1F
:10FD820000011900011800011700011600011500F9
:10FD92000114000113000112000111000110000101
:10FDA2000F00010E00010D00010C00010B00010A01
:10FDB2000001090001080001070001060001050019
:10FDC200010400010300011C00011B00011A0001D3
:10FDD2001900011800011700011600011500011495
:10FDE20000011300011200011100011000010F00B7
:10FDF200010E00010D00010C00010B00010A0001BF
:10FE020009000108000107000106000105000104C4
:10FE120000010300013C25643E25642025642D2554
:10FE22002E32642D252E326454252E32643A252E2C
:10FE320032643A252E32645A2025642E25642E25FA
:10FE4200642E2564202573202573202573202573B5
:10FE52005B25735D0D0A000A0A5374617274696E40
:10FE620067205379736C6F6720617420256C750A63
:10FE72000069636D702077726F6E6720636B736DBC
:10FE8200203A202578004541506F6C5F5041434B2A
:10FE920045545F4641494C555245003830322E3365
:10FEA200206C656E6774682030782530346C580099
:10FEB200444553545F49505F4E4F545F4D41544344
:10FEC20048454400495056345F434845434B5355D7
:10FED2004D5F4641494C530049434D505F434845AD
:10FEE200434B53554D5F4641494C53004152505F7D
:10FEF20049505F4E4F545F4D415443484544005072
:10FF02004F52545F4E4F545F415641494C41424C0F
:10FF120045005443505F434845434B53554D5F465C
:10FF220041494C53005544505F434845434B535558
:10FF32004D5F4641494C53003830322E332074799C
:10FF420070652030782530346C580054585F4C4F1F
:10FF52004749435F4E4F545F49444C450054252E58
:10FF620032643A252E32643A252E32645A004950C0
:10FF72005F57524F4E475F56455253494F4E004CC2
:10FF8200494E4B5F4E4F545F464F554E44004D41D4
:10FF9200435F4E4F545F464F554E44002025642E1A
:10FFA20025642E25642E25640025642D252E3264B9
:10FFB2002D252E326400444D415F54494D454F5525
:10FFC20054004255464645525F42555359003C251E
:10FFD200643E256420005355434345535300455224
:10FFE200524F52002025735B00202573006C640081
:0DFFF2006C69006C75005D002E002D000094
:020000040001F9
:10000000E0EF83F030C023F031C024F0A70E256E5E
:10001000870E266EB0EC87F030C023F031C024F09C
:10002000A70E256E880E266EB0EC87F020EE08F045
:100030003050D9263150DA2210EE0BF0DE50E12696
:10004000DD50E222000EE76E20EE14F03050D9268B
:100050003150DA2210EE0BF0DE50E126DD50E222C4
:10006000000EE76E20EE02F03050D9263150DA2231
:100070006D0EDF6E20EE01F03050D9263150DA22BD
:100080006C0EDF6EFAECADF020EE20F03050D92689
:100090003150DA2205C0DEFF06C0DEFF07C0DEFFFA
:1000A00008C0DEFF20EE24F03050D9263150DA228D
:1000B000E80EDE6E030EDE6E000EDE6E000EDD6EEE
:1000C00020EE02F03050D9263150DA22DF50126E85
:1000D000840E136E20EE24F03050D9263150DA22EF
:1000E000DECF05F0DECF06F0DECF07F0DECF08F082
:1000F000E80E096E030E0A6E000E0B6E000E0C6EFB
:100100001BECA4F00550146E30C0D9FF31C0DAFFEB
:10011000DF504FECA9F007EF84F020EE08F03050EC
:10012000D9263150DA2210EE0BF0DE50E126DD50F8
:10013000E222E604D8A49FEF80F0A1EF80F003EF65
:1001400081F020EE0BF03050D9263150DA22960E95
:10015000DE18D8A4AEEF80F0B0EF80F003EF81F0AE
:1001600020EE08F03050D9263150DA2210EE0BF094
:10017000DE50E126DD50E222000EE76E30C023F0B3
:1001800031C024F0A50E256E870E266EB0EC87F0E8
:1001900020EE0AF03050D9263150DA22010EDF6EFF
:1001A00020EE0BF03050D9263150DA22A80EDF6E47
:1001B00020EE0CF03050D9263150DA22E80EDE6EF7
:1001C000030EDE6E000EDE6E000EDD6EFAECADF09C
:1001D00020EE10F03050D9263150DA2205C0DEFF73
:1001E00006C0DEFF07C0DEFF08C0DEFF20EE04F021
:1001F0003050D9263150DA228E0EDF6E880E000183
:10020000FA6F11EF81F020EE08F03050D92631500E
:10021000DA2210EE0BF0DE50E126DD50E222000E75
:10022000E76E20EE14F03050D9263150DA2210EE6D
:100230000BF0DE50E126DD50E222E604D8A423EFE5
:1002400081F025EF81F087EF81F020EE17F030503C
:10025000D9263150DA22960EDE18D8A432EF81F07A
:1002600034EF81F087EF81F020EE14F03050D92682
:100270003150DA2210EE0BF0DE50E126DD50E222A2
:10028000000EE76E30C023F031C024F0A50E256EBD
:10029000880E266EB0EC87F020EE16F03050D9268E
:1002A0003150DA22010EDF6E20EE17F03050D926E1
:1002B0003150DA22A80EDF6E20EE18F03050D92629
:1002C0003150DA22E80EDE6E030EDE6E000EDE6EB8
:1002D000000EDD6EFAECADF020EE1CF03050D926A9
:1002E0003150DA2205C0DEFF06C0DEFF07C0DEFFA8
:1002F00008C0DEFF20EE04F03050D9263150DA225B
:100300008E0EDF6E880E0001FA6F95EF81F020EE01
:1003100014F03050D9263150DA2210EE0BF0DE50B6
:10032000E126DD50E222000EE76E20EE0BF03050A9
:10033000D9263150DA22A80EDE18D8B4A2EF81F007
:10034000A4EF81F0B3EF81F020EE17F03050D92602
:100350003150DA22A80EDE18D8A4B1EF81F0B3EF45
:1003600081F023EF82F020EE04F03050D926315096
:10037000DA228D0EDE18D8B4C0EF81F0C2EF81F022
:1003800023EF82F020EE02F03050D9263150DA22ED
:100390008D0EDF6E20EE01F03050D9263150DA227A
:1003A0006C0EDF6E20EE04F03050D9263150DA2288
:1003B0008D0EDF6EFAECADF020EE20F03050D92635
:1003C0003150DA2205C0DEFF06C0DEFF07C0DEFFC7
:1003D00008C0DEFF20EE24F03050D9263150DA225A
:1003E000B80EDE6E0B0EDE6E000EDE6E000EDD6EE3
:1003F00020EE02F03050D9263150DA22DF50126E52
:10040000840E136E20EE24F03050D9263150DA22BB
:10041000DECF05F0DECF06F0DECF07F0DECF08F04E
:10042000E80E096E030E0A6E000E0B6E000E0C6EC7
:100430001BECA4F00550146E30C0D9FF31C0DAFFB8
:10044000DF504FECA9F020EE0BF03050D9263150A0
:10045000DA22A60EDE18D8A430EF82F032EF82F056
:100460008DEF82F030C023F031C024F0A60E256E4F
:10047000870E266EB0EC87F020EE0BF03050D926B8
:100480003150DA22960EDF6E20EE0AF03050D92677
:100490003150DA22000EDF6E20EE02F03050D92605
:1004A0003150DA228F0EDF6E20EE01F03050D92667
:1004B0003150DA226C0EDF6EFAECADF020EE20F057
:1004C0003050D9263150DA2205C0DEFF06C0DEFFEB
:1004D00007C0DEFF08C0DEFF20EE24F03050D92632
:1004E0003150DA22B80EDE6E0B0EDE6E000EDE6EBE
:1004F000000EDD6E20EE01F03050D9263150DA22A8
:10050000DF50126EA60E136E870E146E30C0D9FF28
:1005100031C0DAFFDF504FECA9F020EE17F0305079
:10052000D9263150DA22A60EDE18D8A49AEF82F02E
:100530009CEF82F007EF84F030C023F031C024F04C
:10054000A60E256E880E266EB0EC87F020EE17F012
:100550003050D9263150DA22960EDF6E20EE16F09A
:100560003050D9263150DA22000EDF6E20EE02F034
:100570003050D9263150DA228F0EDF6E20EE01F096
:100580003050D9263150DA226C0EDF6EFAECADF025
:1005900020EE20F03050D9263150DA2205C0DEFF9F
:1005A00006C0DEFF07C0DEFF08C0DEFF20EE24F03D
:1005B0003050D9263150DA22B80EDE6E0B0EDE6EC8
:1005C000000EDE6E000EDD6E20EE01F03050D926FA
:1005D0003150DA22DF50126EA60E136E880E146EA2
:1005E00030C0D9FF31C0DAFFDF504FECA9F007EF80
:1005F00084F020EE0AF03050D9263150DA22DF5054
:10060000D8B405EF83F007EF83F026EF83F030C016
:1006100023F031C024F0A70E256E870E266EB0ECB5
:1006200087F020EE01F03050D9263150DA22DF5029
:10063000126EA70E136E870E146E30C0D9FF31C034
:10064000DAFFDF504FECA9F051EF83F020EE16F007
:100650003050D9263150DA22DF50D8B432EF83F04F
:1006600034EF83F051EF83F030C023F031C024F039
:10067000A70E256E880E266EB0EC87F020EE01F0F6
:100680003050D9263150DA22DF50126EA70E136E89
:10069000880E146E30C0D9FF31C0DAFFDF504FEC46
:1006A000A9F020EE01F03050D9263150DA226D0E3B
:1006B000DF6E20EE01F03050D9263150DA22DF50C3
:1006C000126E960E136E960E146E30C0D9FF31C0A6
:1006D000DAFFDF504FECA9F007EF84F030C023F0D1
:1006E00031C024F0A90E256E870E266EB0EC87F07F
:1006F00030C023F031C024F0A90E256E880E266E7E
:10070000B0EC87F020EE01F03050D9263150DA22DB
:10071000DF50126E960E136E960E146E30C0D9FF17
:1007200031C0DAFFDF504FECA9F020EE01F030507D
:10073000D9263150DA226D0EDF6E07EF84F020EEFD
:1007400020F03050D9263150DA22DECF32F0DECF21
:1007500033F0DECF34F0DECF35F0FAECADF03250CE
:10076000055C366E33500658376E34500758386E75
:1007700035500858396E20EE24F03050D9263150CB
:10078000DA223650DE5C3750DE583850DE583950A9
:10079000DE58D8B0CEEF83F0D0EF83F007EF84F0CF
:1007A00020EE02F03050D9263150DA2210EE01F05E
:1007B0003050E1263150E222DFCFE7FF07EF84F02F
:1007C00020EE01F03050D9263150DA22DF50326E5F
:1007D000336A3350000AD8B4F0EF83F007EF84F0A7
:1007E0003250690AD8B402EF80F0050AD8B49FEFFE
:1007F00083F0010AD8B48DEF80F0E00AD8B4F9EFA5
:1008000082F0020AD8B46EEF83F007EF84F0120092
:1008100088EF87F030C023F031C024F0A70E256E9A
:100820008C0E266EB0EC87F020EE08F03050D92602
:100830003150DA2210EE0BF0DE50E126DD50E222DC
:10084000000EE76E20EE02F03050D9263150DA2249
:100850006D0EDF6E20EE01F03050D9263150DA22D5
:100860006C0EDF6EFAECADF020EE20F03050D926A1
:100870003150DA2205C0DEFF06C0DEFF07C0DEFF12
:1008800008C0DEFF20EE24F03050D9263150DA22A5
:10089000E80EDE6E030EDE6E000EDE6E000EDD6E06
:1008A00020EE02F03050D9263150DA22DF50126E9D
:1008B000840E136E20EE24F03050D9263150DA2207
:1008C000DECF05F0DECF06F0DECF07F0DECF08F09A
:1008D000E80E096E030E0A6E000E0B6E000E0C6E13
:1008E0001BECA4F00550146E30C0D9FF31C0DAFF04
:1008F000DF504FECA9F0AFEF87F020EE08F030505A
:10090000D9263150DA2210EE0BF0DE50E126DD5010
:10091000E222E604D8A48FEF84F091EF84F0FEEF9A
:1009200084F020EE0BF03050D9263150DA22960EAA
:10093000DE18D8A49EEF84F0A0EF84F0FEEF84F0E0
:1009400020EE08F03050D9263150DA2210EE0BF0AC
:10095000DE50E126DD50E222000EE76E30C023F0CB
:1009600031C024F0A50E256E890E266EB0EC87F0FE
:1009700020EE04F03050D9263150DA228E0EDF6E90
:1009800020EE0AF03050D9263150DA22010EDF6E07
:1009900020EE0BF03050D9263150DA22A80EDF6E4F
:1009A00020EE0CF03050D9263150DA22E80EDE6EFF
:1009B000030EDE6E000EDE6E000EDD6EFAECADF0A4
:1009C00020EE10F03050D9263150DA2205C0DEFF7B
:1009D00006C0DEFF07C0DEFF08C0DEFF8C0E000190
:1009E000FA6F680EF919D8A4F8EF84F0FAEF84F0E2
:1009F0008BEF85F08C0EF96F8BEF85F020EE14F005
:100A00003050D9263150DA2210EE0BF0DE50E126BC
:100A1000DD50E222E604D8A410EF85F012EF85F055
:100A20007DEF85F020EE17F03050D9263150DA22D4
:100A3000960EDE18D8A41FEF85F021EF85F07DEF2C
:100A400085F020EE14F03050D9263150DA2210EE25
:100A50000BF0DE50E126DD50E222000EE76E30C0E2
:100A600023F031C024F0A50E256E8A0E266EB0EC60
:100A700087F020EE04F03050D9263150DA228E0E65
:100A8000DF6E20EE16F03050D9263150DA22010EFA
:100A9000DF6E20EE17F03050D9263150DA22A80E42
:100AA000DF6E20EE18F03050D9263150DA22E80EF1
:100AB000DE6E030EDE6E000EDE6E000EDD6EFAECF4
:100AC000ADF020EE1CF03050D9263150DA2205C0AE
:100AD000DEFF06C0DEFF07C0DEFF08C0DEFF8C0EB3
:100AE0000001FA6F680EF919D8A479EF85F07BEF51
:100AF00085F08BEF85F0FAEF84F020EE08F03050AF
:100B0000D9263150DA2210EE0BF0DE50E126DD500E
:100B1000E222000EE76E20EE0BF03050D926315065
:100B2000DA22A80EDE18D8B498EF85F09AEF85F097
:100B3000A9EF85F020EE17F03050D9263150DA2297
:100B4000A80EDE18D8A4A7EF85F0A9EF85F019EF5D
:100B500086F020EE04F03050D9263150DA228D0E86
:100B6000DE18D8B4B6EF85F0B8EF85F019EF86F04F
:100B700020EE02F03050D9263150DA228D0EDF6E91
:100B800020EE01F03050D9263150DA226C0EDF6EA3
:100B900020EE04F03050D9263150DA228D0EDF6E6F
:100BA000FAECADF020EE20F03050D9263150DA22A8
:100BB00005C0DEFF06C0DEFF07C0DEFF08C0DEFFA7
:100BC00020EE24F03050D9263150DA22B80EDE6EF5
:100BD0000B0EDE6E000EDE6E000EDD6E20EE02F0FD
:100BE0003050D9263150DA22DF50126E840E136E47
:100BF00020EE24F03050D9263150DA22DECF05F035
:100C0000DECF06F0DECF07F0DECF08F0E80E096E8B
:100C1000030E0A6E000E0B6E000E0C6E1BECA4F0A1
:100C20000550146E30C0D9FF31C0DAFFDF504FECF1
:100C3000A9F020EE0BF03050D9263150DA22A60E62
:100C4000DE18D8A426EF86F028EF86F083EF86F032
:100C500030C023F031C024F0A60E256E890E266E1A
:100C6000B0EC87F020EE0BF03050D9263150DA226C
:100C7000960EDF6E20EE0AF03050D9263150DA227F
:100C8000000EDF6E20EE02F03050D9263150DA220D
:100C90008F0EDF6E20EE01F03050D9263150DA226F
:100CA0006C0EDF6EFAECADF020EE20F03050D9265D
:100CB0003150DA2205C0DEFF06C0DEFF07C0DEFFCE
:100CC00008C0DEFF20EE24F03050D9263150DA2261
:100CD000B80EDE6E0B0EDE6E000EDE6E000EDD6EEA
:100CE00020EE01F03050D9263150DA22DF50126E5A
:100CF000A60E136E890E146E30C0D9FF31C0DAFF14
:100D0000DF504FECA9F020EE17F03050D9263150CB
:100D1000DA22A60EDE18D8A490EF86F092EF86F0C5
:100D2000AFEF87F030C023F031C024F0A60E256E5F
:100D30008A0E266EB0EC87F020EE17F03050D926E0
:100D40003150DA22960EDF6E20EE16F03050D926A2
:100D50003150DA22000EDF6E20EE02F03050D9263C
:100D60003150DA228F0EDF6E20EE01F03050D9269E
:100D70003150DA226C0EDF6EFAECADF020EE20F08E
:100D80003050D9263150DA2205C0DEFF06C0DEFF22
:100D900007C0DEFF08C0DEFF20EE24F03050D92669
:100DA0003150DA22B80EDE6E0B0EDE6E000EDE6EF5
:100DB000000EDD6E20EE01F03050D9263150DA22DF
:100DC000DF50126EA60E136E8A0E146E30C0D9FF5D
:100DD00031C0DAFFDF504FECA9F0AFEF87F030C041
:100DE00023F031C024F0A70E256E8C0E266EB0ECD9
:100DF00087F020EE01F03050D9263150DA226D0E06
:100E0000DF6E20EE01F03050D9263150DA22DF506B
:100E1000126E960E136E960E146E30C0D9FF31C04E
:100E2000DAFFDF504FECA9F0AFEF87F030C023F0CE
:100E300031C024F0A90E256E890E266EB0EC87F025
:100E400030C023F031C024F0A90E256E8A0E266E24
:100E5000B0EC87F020EE01F03050D9263150DA2284
:100E6000DF50126E960E136E960E146E30C0D9FFC0
:100E700031C0DAFFDF504FECA9F020EE01F0305026
:100E8000D9263150DA226D0EDF6EAFEF87F020EEFB
:100E900020F03050D9263150DA22DECF32F0DECFCA
:100EA00033F0DECF34F0DECF35F0FAECADF0325077
:100EB000055C366E33500658376E34500758386E1E
:100EC00035500858396E20EE24F03050D926315074
:100ED000DA223650DE5C3750DE583850DE58395052
:100EE000DE58D8B076EF87F078EF87F0AFEF87F075
:100EF00020EE02F03050D9263150DA2210EE01F007
:100F00003050E1263150E222DFCFE7FFAFEF87F02C
:100F100020EE01F03050D9263150DA22DF50326E07
:100F2000336A3350000AD8B498EF87F0AFEF87F0F8
:100F30003250690AD8B40AEF84F0050AD8B447EFF2
:100F400087F0010AD8B47DEF84F0E00AD8B4EFEF5F
:100F500086F0020AD8B416EF87F0AFEF87F01200E0
:100F600020EE06F02350D9262450DA2210EE02F0AB
:100F7000DE50E126DD50E222E7502C6E20EE06F036
:100F80002350D9262450DA2210EE05F0DE50E12657
:100F9000DD50E222E7502E6E20EE06F02350D926D7
:100FA0002450DA2210EE08F0DE50E126DD50E22275
:100FB000E7502D6E20EE06F02350D9262450DA2279
:100FC00010EE0BF0DE50E126DD50E222E7502F6EEE
:100FD000A3EF8AF0870E2618D8A4F1EF87F0F3EF7D
:100FE00087F024EF88F020EE06F02350D926245015
:100FF000DA22DECF27F0DDCF28F027C0D9FF28C0C6
:10100000DAFFDECF29F0DDCF2AF029C0D9FF2AC0D0
:10101000DAFF2C50DF122E50FF0A276E20EE06F06A
:101020002350D9262450DA2210EE03F0DE50E126B8
:10103000DD50E222E6CF28F0E5CF29F028C0D9FF25
:1010400029C0DAFF2750DF16880E2618D8A42BEF08
:1010500088F02DEF88F05EEF88F020EE06F0235048
:10106000D9262450DA22DECF27F0DDCF28F027C0A2
:10107000D9FF28C0DAFFDECF29F0DDCF2AF029C062
:10108000D9FF2AC0DAFF2D50DF122F50FF0A276E3A
:1010900020EE06F02350D9262450DA2210EE03F079
:1010A000DE50E126DD50E222E6CF28F0E5CF29F040
:1010B00028C0D9FF29C0DAFF2750DF16890E26186D
:1010C000D8A465EF88F067EF88F0B1EF88F02C5076
:1010D000FF0A276E20EE06F02350D9262450DA228C
:1010E00010EE03F0DE50E126DD50E222E6CF28F0DC
:1010F000E5CF29F028C0D9FF29C0DAFF2750DF1635
:1011000020EE06F02350D9262450DA2210EE03F008
:10111000DE50E126DD50E222E6CF27F0E5CF28F0D1
:1011200027C0D9FF28C0DAFF2E50DF122D50FF0A4A
:10113000276E20EE06F02350D9262450DA22DECF87
:1011400028F0DDCF29F028C0D9FF29C0DAFFDECF93
:101150002AF0DDCF2BF02AC0D9FF2BC0DAFF2750B1
:10116000DF168A0E2618D8A4B8EF88F0BAEF88F0F8
:10117000C0EF8AF020EE06F02350D9262450DA2260
:1011800010EE03F0DE50E126DD50E222E6CF27F03C
:10119000E5CF28F027C0D9FF28C0DAFF2C50DF1296
:1011A0002E50FF0A276E20EE06F02350D926245039
:1011B000DA2210EE03F0DE50E126DD50E222E6CF27
:1011C00028F0E5CF29F028C0D9FF29C0DAFF275041
:1011D000DF162F50FF0A276E20EE06F02350D92687
:1011E0002450DA2210EE03F0DE50E126DD50E22238
:1011F000E6CF28F0E5CF29F028C0D9FF29C0DAFFD3
:101200002750DF16C0EF8AF0C0EF8AF0870E26184D
:10121000D8A40DEF89F00FEF89F02CEF89F02C5056
:10122000FF0A276E20EE06F02350D9262450DA223A
:10123000DECF28F0DDCF29F028C0D9FF29C0DAFFA2
:10124000DECF2AF0DDCF2BF02AC0D9FF2BC0DAFF8A
:101250002750DF16C0EF8AF0880E2618D8A433EF87
:1012600089F035EF89F052EF89F02D50FF0A276E93
:1012700020EE06F02350D9262450DA22DECF28F0C3
:10128000DDCF29F028C0D9FF29C0DAFFDECF2AF050
:10129000DDCF2BF02AC0D9FF2BC0DAFF2750DF1695
:1012A000C0EF8AF08C0E2618D8A459EF89F05BEFB6
:1012B00089F0C0EF8AF02C50FF0A276E20EE06F06E
:1012C0002350D9262450DA2210EE03F0DE50E12616
:1012D000DD50E222E6CF28F0E5CF29F028C0D9FF83
:1012E00029C0DAFF2750DF162E50FF0A276E20EEA6
:1012F00006F02350D9262450DA2210EE03F0DE50F7
:10130000E126DD50E222E6CF28F0E5CF29F028C023
:10131000D9FF29C0DAFF2750DF16C0EF8AF0870E09
:101320002618D8A496EF89F098EF89F0B0EF89F0ED
:1013300020EE06F02350D9262450DA2210EE03F0D6
:10134000DE50E126DD50E222E6CF27F0E5CF28F09F
:1013500027C0D9FF28C0DAFF2E50DF12C0EF8AF075
:10136000880E2618D8A4B7EF89F0B9EF89F0D1EF2D
:1013700089F020EE06F02350D9262450DA2210EE10
:1013800003F0DE50E126DD50E222E6CF27F0E5CF84
:1013900028F027C0D9FF28C0DAFF2F50DF12C0EF96
:1013A0008AF0890E2618D8A4D8EF89F0DAEF89F0F0
:1013B000F2EF89F020EE06F02350D9262450DA22ED
:1013C00010EE03F0DE50E126DD50E222E6CF27F0FA
:1013D000E5CF28F027C0D9FF28C0DAFF2D50DF1253
:1013E000C0EF8AF08A0E2618D8A4F9EF89F0FBEF37
:1013F00089F004EF89F020EE06F02350D92624501E
:10140000DA2210EE03F0DE50E126DD50E222E6CFD4
:1014100027F0E5CF28F027C0D9FF28C0DAFF2F50EA
:10142000DF12C0EF8AF0870E2618D8A41AEF8AF0D0
:101430001CEF8AF037EF8AF02E50FF0A276E20EE5D
:1014400006F02350D9262450DA2210EE03F0DE50A5
:10145000E126DD50E222E6CF28F0E5CF29F028C0D2
:10146000D9FF29C0DAFF2750DF16C0EF8AF0880EB7
:101470002618D8A43EEF8AF040EF8AF05BEF8AF09E
:101480002F50FF0A276E20EE06F02350D926245055
:10149000DA2210EE03F0DE50E126DD50E222E6CF44
:1014A00028F0E5CF29F028C0D9FF29C0DAFF27505E
:1014B000DF16C0EF8AF0890E2618D8A462EF8AF0F2
:1014C00064EF8AF07FEF8AF02D50FF0A276E20EE3E
:1014D00006F02350D9262450DA2210EE03F0DE5015
:1014E000E126DD50E222E6CF28F0E5CF29F028C042
:1014F000D9FF29C0DAFF2750DF16C0EF8AF08A0E25
:101500002618D8A486EF8AF088EF8AF004EF89F0D5
:101510002F50FF0A276E20EE06F02350D9262450C4
:10152000DA2210EE03F0DE50E126DD50E222E6CFB3
:1015300028F0E5CF29F028C0D9FF29C0DAFF2750CD
:10154000DF16C0EF8AF02550276E286A2850000A5F
:10155000D8B4ADEF8AF0C0EF8AF02750A50AD8B40E
:10156000EAEF87F0030AD8B48FEF89F0010AD8B404
:1015700006EF89F00E0AD8B413EF8AF0C0EF8AF0B4
:10158000850E126E25C013F026C014F023C0D9FFBB
:1015900024C0DAFFDF504FECA9F0120046C0D9FF9B
:1015A00047C0DAFFDECFF6FFDDCFF7FF000EF86EA3
:1015B0000800F550250AD8A4E0EF8AF0E2EF8AF09F
:1015C00083EF8DF046C0D9FF47C0DAFFDE2A000E58
:1015D000DD22000E0001C36F000EC26FC2C0C6F054
:1015E000C3C0C7F0C469C56946C0D9FF47C0DAFFA8
:1015F000DECFF6FFDDCFF7FF000EF86E0800F550E6
:101600002E0AD8A406EF8BF008EF8BF08AEF8BF050
:10161000000EC56F000EC46F46C0D9FF47C0DAFF89
:10162000DE2A000EDD2246C0D9FF47C0DAFFDECF3A
:10163000F6FFDDCFF7FF000EF86E0800F5502A0A1E
:10164000D8A425EF8BF027EF8BF044EF8BF046C04A
:10165000D9FF47C0DAFFDE2A000EDD2248C0D9FFDD
:1016600049C0DAFFDFCF60F0020EDE26DFCF61F087
:10167000000EDD2260C0D9FF61C0DAFFDECFC4F00A
:10168000DDCFC5F08AEF8BF046C0D9FF47C0DAFF47
:10169000DECF0CF0DDCF0DF060EC99F00CC0C4F0A3
:1016A0000DC0C5F05BEF8BF046C0D9FF47C0DAFF35
:1016B000DE2A000EDD22D00E0001606FFF0E616F8A
:1016C00046C0D9FF47C0DAFFDECFF6FFDDCFF7FF18
:1016D000000EF86E0800F550626F636B6051622770
:1016E0006151632363510AE10A0E625DD8A07BEF6A
:1016F0008BF07EEF8BF0010E7FEF8BF0000E706FA2
:10170000716B70517111D8A488EF8BF08AEF8BF058
:1017100054EF8BF046C0D9FF47C0DAFFDECFF6FFAB
:10172000DDCFF7FF000EF86E0800F550640AD8B45C
:101730009CEF8BF09EEF8BF0B2EF8BF046C0D9FFA1
:1017400047C0DAFFDECFF6FFDDCFF7FF000EF86E01
:101750000800F550690AD8A4B0EF8BF0B2EF8BF017
:10176000F2EF8BF046C0D9FF47C0DAFFDE2A000E49
:10177000DD2248C0D9FF49C0DAFFDFCF60F0020E9A
:10178000DE26DFCF61F0000EDD2260C0D9FF61C030
:10179000DAFFDECF72F0DDCF73F0000E73BFFF0E05
:1017A000746F756F766F776F786F796F44C020F0C4
:1017B00045C021F072C022F073C023F074C024F041
:1017C00075C025F076C026F077C027F078C028F0E5
:1017D00079C029F0BDEC91F020C044F021C045F063
:1017E000A0EF8DF046C0D9FF47C0DAFFDECF05F08D
:1017F000DDCF06F0EF0E076EFF0E086E000E0A6ECC
:10180000020E096EAFEC9FF005500610D8B40BEF36
:101810008CF00DEF8CF028EF8CF046C0D9FF47C05C
:10182000DAFFDECF05F0DDCF06F0F20E076EFF0E19
:10183000086E000E0A6E020E096EAFEC9FF00550A6
:101840000610D8A426EF8CF028EF8CF06CEF8CF00B
:10185000020E46C0D9FF47C0DAFFDE26000EDD22A9
:1018600048C0D9FF49C0DAFFDFCF60F0040EDE26A2
:10187000DFCF61F0000EDD2260C0D9FF61C0DAFF6A
:10188000DECF62F0DECF63F0DECF64F0DECF65F056
:1018900062C066F063C067F064C068F065C069F05C
:1018A00000016A6B69BF6A696AC06BF06AC06CF05C
:1018B0006AC06DF066C072F067C073F068C074F003
:1018C00069C075F06AC076F06BC077F06CC078F0D4
:1018D0006DC079F0D6EF8BF046C0D9FF47C0DAFF74
:1018E000DECFF6FFDDCFF7FF000EF86E0800F550F3
:1018F000730AD8A47EEF8CF080EF8CF0ABEF8CF005
:1019000046C0D9FF47C0DAFFDE2A000EDD2248C0FC
:10191000D9FF49C0DAFFDFCF60F0020EDE26DFCF4D
:1019200061F0000EDD2260C0D9FF61C0DAFFDECFBA
:101930006EF0DDCF6FF044C00EF045C00FF06EC00A
:1019400010F06FC011F032EC9AF00EC044F00FC0EE
:1019500045F0A0EF8DF046C0D9FF47C0DAFFDECFDB
:10196000F6FFDDCFF7FF000EF86E0800F550750AA0
:10197000D8A4BDEF8CF0BFEF8CF001EF8DF046C026
:10198000D9FF47C0DAFFDE2A000EDD2248C0D9FFAA
:1019900049C0DAFFDFCF60F0020EDE26DFCF61F054
:1019A000000EDD2260C0D9FF61C0DAFFDECF62F039
:1019B000DDCF63F062C07AF063C07BF000017C6B26
:1019C0007D6B7E6B7F6B806B816B44C020F045C06C
:1019D00021F07AC022F07BC023F07CC024F07DC0CF
:1019E00025F07EC026F07FC027F080C028F081C09F
:1019F00029F084EC96F020C044F021C045F0A0EF1F
:101A00008DF046C0D9FF47C0DAFFDECF05F0DDCF4D
:101A100006F0F50E076EFF0E086E000E0A6E020E3F
:101A2000096EAFEC9FF005500610D8A41AEF8DF0A8
:101A30001CEF8DF04BEF8DF0020E46C0D9FF47C072
:101A4000DAFFDE26000EDD2248C0D9FF49C0DAFFEA
:101A5000DFCF60F0040EDE26DFCF61F0000EDD2266
:101A600060C0D9FF61C0DAFFDECF62F0DECF63F085
:101A7000DECF64F0DECF65F0000162517A6F635112
:101A80007B6F64517C6F65517D6F7E6B7F6B806B6C
:101A9000816BE5EF8CF046C0D9FF47C0DAFFDECF9F
:101AA000F6FFDDCFF7FF000EF86E0800F550250AAF
:101AB000D8A45DEF8DF05FEF8DF076EF8DF046C02E
:101AC000D9FF47C0DAFFDE2A000EDD22000E066EC7
:101AD000250E056E44C007F045C008F0E5ECA1F006
:101AE000000E456E010E446EA0EF8DF046C0D9FF8A
:101AF00047C0DAFFDE2A000EDD22000E456E000E22
:101B0000446EA0EF8DF046C0D9FF47C0DAFFDECFAC
:101B1000F6FFDDCFF7FF000EF86E0800F550056EFA
:101B2000066A44C007F045C008F0E5ECA1F046C0E5
:101B3000D9FF47C0DAFFDE2A000EDD2270EF8DF0FC
:101B40001200000E2E6E5850070D000EF324346E56
:101B5000070EF420356EFAECADF005C02FF006C08C
:101B600030F007C031F008C032F0B80E056E020E3A
:101B7000066E19ECADF00009D8B4C1EF8DF0C3EFDB
:101B80008DF0C7EF8DF0030E2E6EFBEF8DF0A90EDA
:101B9000056E020E066E19ECADF00009D8B4D3EF55
:101BA0008DF0D5EF8DF0D9EF8DF0040E2E6EFBEF9A
:101BB0008DF04D0E056E030E066E19ECADF00009AA
:101BC000D8B4E5EF8DF0E7EF8DF0EBEF8DF0060E7A
:101BD0002E6EFBEF8DF03E0E056E030E066E19ECB9
:101BE000ADF00009D8B4F7EF8DF0F9EF8DF0FBEF11
:101BF0008DF0050E2E6E2E50D8B401EF8EF003EF4F
:101C00008EF00BEF8EF02FC056F130C057F131C07F
:101C100058F132C059F12E50D8B411EF8EF013EFB5
:101C20008EF051EF8EF001015E51D8B41AEF8EF0B4
:101C30001CEF8EF051EF8EF020EE02F03450D926DA
:101C40003550DA22DF50D8B428EF8EF02AEF8EF02C
:101C500034EF8EF020EE01F03450D9263550DA22E0
:101C6000040EDF6E3CEF8EF020EE01F03450D926EA
:101C70003550DA22050EDF6E34C005F035C006F0AF
:101C8000040E076E32EC9FF0000E01015E6F2FC054
:101C900056F130C057F131C058F132C059F115EF4B
:101CA0008FF02E50D8B457EF8EF059EF8EF0F8EF3A
:101CB0008EF0060E2E18D8B460EF8EF062EF8EF024
:101CC000F8EF8EF034C005F035C006F0030E076E55
:101CD00032EC9FF0F8EF8EF01C0E5818D8A473EF7A
:101CE0008EF075EF8EF079EF8EF0000E586E7AEF71
:101CF0008EF0582A5850070D000EF324346E070E4C
:101D0000F420356E15EF8FF05850D8A48AEF8EF07E
:101D10008CEF8EF090EF8EF01C0E586E7AEF8EF0F6
:101D200058067AEF8EF05850286E296A0A0E282637
:101D3000000E2922295009E11D0E285CD8A0A3EF2E
:101D40008EF0A5EF8EF0ADEF8EF058501C082C6E83
:101D50002C500A08586E7AEF8EF00A0E58267AEF49
:101D60008EF020EE02F03450D9263550DA2210EEF3
:101D700002F03450E1263550E222E750D8B4C3EFE8
:101D80008EF0C6EF8EF0010EC7EF8EF0000EDF6E04
:101D900020EE02F03450D9263550DA22DF50D8A494
:101DA000D4EF8EF0D6EF8EF0DAEF8EF0050E2D6EBA
:101DB000DCEF8EF0040E2D6E20EE01F03450D926AB
:101DC0003550DA222DC0DFFF2FC056F130C057F159
:101DD00031C058F132C059F134C01EF035C01FF087
:101DE000CB0E206E070E216EE3ECA6F015EF8FF000
:101DF0002E50286E296A2950000AD8B402EF8FF0BD
:101E000015EF8FF02850030AD8B46CEF8EF0070A54
:101E1000D8B484EF8EF0010AD8B493EF8EF0030AA1
:101E2000D8B4B1EF8EF015EF8FF020EE01F0345002
:101E3000D9263550DA22050EDE18D8A422EF8FF00D
:101E400024EF8FF052EF8FF001014E512F5C286E7E
:101E50004F513058296E505131582A6E51513258D5
:101E60002B6E2850525D295053592A5054592B50EB
:101E70005559D8B03EEF8FF040EF8FF073EF8FF0F1
:101E80002FC04EF130C04FF131C050F132C051F18E
:101E900034C005F035C006F0060E076E32EC9FF038
:101EA00073EF8FF020EE01F03450D9263550DA224E
:101EB000040EDE18D8A45FEF8FF061EF8FF06BEFA8
:101EC0008FF034C005F035C006F0040E076E32EC1A
:101ED0009FF073EF8FF034C005F035C006F0030EAD
:101EE000076E32EC9FF0010156512F5C286E57515E
:101EF0003058296E585131582A6E595132582B6E2C
:101F000028505A5D29505B592A505C592B505D5915
:101F1000D8B08DEF8FF08FEF8FF0A1EF8FF05E5183
:101F2000D8A495EF8FF097EF8FF0A1EF8FF020EE10
:101F300001F03450D9263550DA22030EDF6E010E3F
:101F40005E6F000E336E3350040D010EF324D96E14
:101F5000020EF420DA6E3350050D220EF324E16EEA
:101F6000030EF420E26E3350040D000EF324E96EEC
:101F7000020EF420EA6EE650EE18D8A4C2EF8FF0FD
:101F8000C5EF8FF0010EC6EF8FF0000EDF6E3350FD
:101F9000040D030EF324D96E020EF420DA6E3350D2
:101FA000050D230EF324E16E030EF420E26E335090
:101FB000040D020EF324E96E020EF420EA6EE650E0
:101FC000EE18D8A4E6EF8FF0E9EF8FF0010EEAEFFC
:101FD0008FF0000EDF6E332A050E3364F2EF8FF0C0
:101FE000F4EF8FF0A3EF8FF0010193512F5C286E77
:101FF00094513058296E955131582A6E9651325865
:102000002B6E28508F5D295090592A5091592B5092
:102010009259D8B00EEF90F010EF90F01AEF90F0C8
:102020008DEC9CF02FC093F130C094F131C095F14C
:1020300032C096F1120083ECADF0F28EF28C61ECBE
:10204000ADF0EC0E056E5C0E066E010E076E29EC0F
:10205000AEF089ECACF010ECACF0F6ECABF0DCECF4
:10206000ABF0A2ECA0F08D68880E0001F96F39EF9B
:1020700090F08ABA3EEF90F041EF90F0010E42EFFF
:1020800090F0000EFF0A0001B46FB43BB4478A50D1
:10209000B419DF0BB4198A6ED851D8A452EF90F05E
:1020A00054EF90F086EF90F0D905D8A45AEF90F055
:1020B0005CEF90F068EF90F0BEECA4F0010E01012F
:1020C000F027000EF123F223F323000E0001D96F55
:1020D0000101F351F2110BE1E90EF05D030EF1592C
:1020E000D8A075EF90F077EF90F039EF90F0000EF8
:1020F000F06F000EF16F000EF26F000EF36F010E25
:102100000001D86F000E8D6E39EF90F0D851D8B421
:102110008CEF90F08EEF90F039EF90F0D905D8A4C5
:1021200094EF90F096EF90F039EF90F0BEECA4F0C1
:10213000A1EC8DF0BAEF90F0880EFA19D8A4A3EFB5
:1021400090F0A5EF90F0D0EF90F08C0EF96F640E48
:10215000FA6FD0EF90F08C0EFA19D8A4B2EF90F08D
:10216000B4EF90F0D0EF90F0880EF96F640EFA6F34
:10217000D0EF90F00001F951B46FB56BB551000A82
:10218000D8B4C5EF90F0D0EF90F0B451880AD8B42D
:102190009CEF90F0040AD8B4ABEF90F0D0EF90F041
:1021A000580E236E020E246E86EC97F0898A580E24
:1021B000306E020E316E00EC80F0899A300E236E84
:1021C000020E246E2FEC93F0898A300E306E020ED0
:1021D000316E08EC84F0899A8984AA0E0201186F86
:1021E0003C0E196F000E0001D76FD751D7250201A1
:1021F000F0110001D76FD751D7250201E11100017D
:10220000D76FD751D7250201D2110001D76FD7510F
:10221000D725D76FD751D725D76FD751D725D76FA8
:10222000D751D725D76FD751D725D76FD7C01AF237
:10223000000E02011B6F000E1C6F000E1D6F8994B3
:10224000010E01019727000E982399239A239A5192
:1022500099110BE1E70E975D030E9859D8A033EF63
:1022600091F035EF91F084EF91F0FAECADF005C00C
:10227000E6F306C0E7F307C0E8F308C0E9F3AA0EE7
:102280000201806F8169000E0301ED6F000EEC6F9B
:10229000820EEC25D96E020EED21DA6EEC39E842A1
:1022A000F80BE6C3B4F0E7C3B5F0E8C3B6F0E9C392
:1022B000B7F00001E82A62EF91F0D890B733B63357
:1022C000B533B433E82E5DEF91F0B451DF6E030106
:1022D000EC4BED2BED5109E1040EEC5DD8A073EF52
:1022E00091F075EF91F048EF91F0800E056E020EBF
:1022F000066EA6ECA9F0000E0101976F000E986F14
:10230000000E996F000E9A6F4FECADF0E806D8A45E
:102310008CEF91F08EEF91F0B6EF91F094ECA8F085
:1023200005C0EAF306C0EBF3030120EE01F0EA5129
:10233000D926EB51DA22080EDE18D8A4A2EF91F0CC
:10234000A4EF91F0B6EF91F089B8A9EF91F0ACEF5E
:1023500091F0010EADEF91F0000EFF0A0001B46F95
:10236000B43B8950B419EF0BB419896E000E00010B
:10237000D96F39EF90F03AEF00F022C03AF023C065
:102380003BF024C03CF025C03DF026C03EF027C005
:102390003FF028C040F029C041F041BED2EF91F09B
:1023A000D5EF91F0010ED6EF91F0000E386E396A3C
:1023B00038503910D8B4DFEF91F0E1EF91F0F1EF40
:1023C00091F0411E401E3F1E3E1E3D1E3C1E3B1E08
:1023D0003A6C000E3B223C223D223E223F2240220C
:1023E00041220001C5BFF7EF91F0F9EF91F0FAEF4C
:1023F00091F0C693C5BF07EF92F0C55106E1C40541
:10240000D8B005EF92F007EF92F00DEF92F0000ECA
:10241000356E010E346E11EF92F0C4C034F0C5C0B9
:1024200035F0C2C036F0C3C037F038503910D8A4E8
:102430001CEF92F01EEF92F025EF92F0C6A523EF6D
:1024400092F025EF92F028EF92F03606D8A03706EA
:10245000000E436E1F0E426E000E0301AA6FADEF19
:1024600092F04206D8A043068B0E4224D96E030E8A
:102470004320DA6E3AC005F03BC006F03CC007F0DE
:102480003DC008F03EC009F03FC00AF040C00BF06C
:1024900041C00CF00A0E0D6E000E0E6E000E0F6E97
:1024A000000E106E000E116E000E126E000E136EF6
:1024B000000E146E42EC9DF005C02AF006C02BF011
:1024C00007C02CF008C02DF009C02EF00AC02FF074
:1024D0000BC030F00CC031F02AC017F02CC018F03F
:1024E000F4ECAAF01750300FDF6E3406D8A0350692
:1024F0003606D8A037063AC005F03BC006F03CC00F
:1025000007F03DC008F03EC009F03FC00AF040C0EF
:102510000BF041C00CF00A0E0D6E000E0E6E000E98
:102520000F6E000E106E000E116E000E126E000E79
:10253000136E000E146EC9EC9BF005C03AF006C095
:102540003BF007C03CF008C03DF009C03EF00AC0B7
:102550003FF00BC040F00CC041F043BEB8EF92F02A
:10256000435008E14204D8A0B8EF92F0BAEF92F0DD
:10257000EBEF92F03A503B103C103D103E103F10F4
:1025800040104110D8A4C7EF92F0C9EF92F031EF9C
:1025900092F035BED6EF92F0355006E13404D8B053
:1025A000D4EF92F0D6EF92F031EF92F037BEE1EF38
:1025B00092F0375008E13604D8A0E1EF92F0E3EF53
:1025C00092F0EBEF92F00001C6B3E9EF92F0EBEF7F
:1025D00092F031EF92F038503910D8A4F2EF92F027
:1025E000F4EF92F0FCEF92F00001C6A5FAEF92F042
:1025F000FCEF92F01AEF93F04206D8A04306385051
:102600003910D8A406EF93F008EF93F00EEF93F093
:10261000000E336E2B0E326E12EF93F0000E336EFF
:102620002D0E326E8B0E4224D96E030E4320DA6ECD
:1026300032C0DFFF20C015F021C016F08B0E4224FF
:10264000176E030E4320186E36C019F037C01AF00B
:10265000AEECA2F015C020F016C021F01200FAEC8A
:10266000ADF005C031F006C032F007C033F008C04D
:1026700034F020EE0BF02350D9262450DA22A80E95
:10268000DE18D8A446EF93F048EF93F0D2EF93F022
:1026900020EE10F02350D9262450DA22DECF25F088
:1026A000DECF26F0DECF27F0DECF28F02550315CDC
:1026B000296E265032582A6E275033582B6E2850D8
:1026C00034582C6E20EE0CF02350D9262450DA22F8
:1026D0002950DE5C2A50DE582B50DE582C50DE5834
:1026E000D8B075EF93F077EF93F0D2EF93F08C0EB4
:1026F0000001F919D8A47FEF93F081EF93F0BCEFBC
:1027000093F0890EF419D8A488EF93F08AEF93F030
:10271000BCEF93F020EE0BF02350D9262450DA22A0
:10272000A60EDF6E20EE17F02350D9262450DA22B1
:10273000A80EDE18D8A49FEF93F0A1EF93F0A7EFB7
:1027400093F08A0EF46F680EFA6F680EF96F20EE40
:102750000BF02350D9262450DA22DF50126EA60E39
:10276000136E960E146E23C0D9FF24C0DAFFDF501B
:102770004FECA9F0D2EF93F020EE0BF02350D926C6
:102780002450DA22A80EDF6E20EE10F02350D92656
:102790002450DA2231C0DEFF32C0DEFF33C0DEFF5C
:1027A00034C0DEFF20EE17F02350D9262450DA2261
:1027B000A80EDE18D8A4DFEF93F0E1EF93F05CEF02
:1027C00094F020EE1CF02350D9262450DA22DECFDC
:1027D00025F0DECF26F0DECF27F0DECF28F0255023
:1027E000315C296E265032582A6E275033582B6E92
:1027F000285034582C6E20EE18F02350D92624503F
:10280000DA222950DE5C2A50DE582B50DE582C503C
:10281000DE58D8B00EEF94F010EF94F05CEF94F027
:102820008C0E0001F919D8A418EF94F01AEF94F067
:1028300046EF94F08A0EF419D8A421EF94F023EF18
:1028400094F046EF94F020EE17F02350D926245050
:10285000DA22A60EDF6E890EF46F680EFA6F680E2C
:10286000F96F20EE17F02350D9262450DA22DF50DA
:10287000126EA60E136E960E146E23C0D9FF24C0DE
:10288000DAFFDF504FECA9F05CEF94F020EE17F088
:102890002350D9262450DA22A80EDF6E20EE1CF039
:1028A0002350D9262450DA2231C0DEFF32C0DEFFA9
:1028B00033C0DEFF34C0DEFF120020EE07F005500B
:1028C000D9260650DA2210EE0AF00550E12606500D
:1028D000E222E750096E10EE08F00550E12606509E
:1028E000E222E6CF0AF0E5CF0BF00AC0E1FF0BC011
:1028F000E2FFE75009140009D8A481EF94F084EFB7
:1029000094F0010E85EF94F0000EDF6E20EE06F0DD
:102910000550D9260650DA2210EE07F00550E126C0
:102920000650E222DE50E618D8B499EF94F09BEFFF
:1029300094F06DEF95F020EE02F00550D926065088
:10294000DA22DE50DE10DE10DE10D8A4AAEF94F0FA
:10295000ACEF94F0C0EF94F007C0D9FF08C0DAFFE5
:1029600010EE02F00550E1260650E222DECFE6FF2F
:10297000DECFE6FFDECFE6FFDECFE6FF77EF95F0B6
:1029800020EE02F00550D9260650DA22DECF09F0FB
:10299000DECF0AF0DECF0BF0DECF0CF007C0D9FFA0
:1029A00008C0DAFFDECF0DF0DECF0EF0DECF0FF085
:1029B000DECF10F009500D5C116E0A500E58126EE9
:1029C0000B500F58136E0C501058146E05C0D9FFE1
:1029D00006C0DAFFDECF15F0DDCF16F01550176E0A
:1029E0001650186E196A1A6A1150175C125018584E
:1029F0001350195814501A58D8B001EF95F003EF3E
:102A000095F077EF95F020EE07F00550D9260650A7
:102A1000DA2210EE06F00550E1260650E222DFCF62
:102A2000E7FF20EE02F00550D9260650DA22DE6AD2
:102A3000DE6ADE6ADD6A20EE07F00550D926065010
:102A4000DA22DE04D8A427EF95F029EF95F03FEFC6
:102A500095F020EE0EF00550D9260650DA22DF5010
:102A6000D8B435EF95F037EF95F03FEF95F020EEC5
:102A70000BF00550D9260650DA22010EDF6E20EE4B
:102A800007F00550D9260650DA22DF50D8A44BEFC4
:102A900095F04DEF95F063EF95F020EE0DF00550B9
:102AA000D9260650DA22DF50D8B459EF95F05BEF03
:102AB00095F063EF95F020EE0BF00550D926065007
:102AC000DA22000EDF6E20EE0CF00550D9260650FB
:102AD000DA22010EDF6E77EF95F020EE02F005505E
:102AE000D9260650DA22DE6ADE6ADE6ADD6A120064
:102AF00000000001002C030101000001002C030272
:102B000002000001002C030403000001002C030854
:102B100004000001002C031005000001002C03201C
:102B200006000001002C034007000001002C038078
:102B300008000001002D030109000001002D03021F
:102B40000A000001002D03040B000001002D030802
:102B50000C000001002D03100D000001002D0320CA
:102B60000E000001002D03400F000001002D038026
:102B700010000001003103011100000100310302C7
:102B800012000001003103041300000100310308AA
:102B90001400000100310310150000010031032072
:102BA00016000001003103401700000100310380CE
:102BB0001800000100320301190000010032030275
:102BC0001A000001003203041B0000010032030858
:102BD0001C000001003203101D0000010032032020
:102BE0001E000001003203401F000001003203807C
:102BF0002000000000220301210000000022030247
:102C00002200000000220304230000000022030829
:102C100024000000002203102500000000220320F1
:102C2000260000000022034027000000002203804D
:102C300028000000002303012900000000230302F4
:102C40002A000000002303042B00000000230308D7
:102C50002C000000002303102D000000002303209F
:102C60002E000000002303402F00000000230380FB
:102C7000300000000027030131000000002703029C
:102C80003200000000270304330000010036030176
:102C90003400000100360302350000010036030451
:102CA000360000010036030837000001003603102B
:102CB00038000001003603203900000100360340CF
:102CC0003A000001003603803B0000010037030199
:102CD0003C000001003703023D00000100370304FF
:102CE0003E000001003703083F00000100370310D9
:102CF000400000010037032041000001003703407D
:102D000042000001003703800001C5BF8AEF96F042
:102D10008CEF96F08DEF96F0C693C5BF9AEF96F0C4
:102D2000C55106E1C405D8B098EF96F09AEF96F039
:102D3000A0EF96F0000E336E010E326EA4EF96F007
:102D4000C4C032F0C5C033F0C2C034F0C3C035F0E7
:102D500022C036F023C037F024C038F025C039F047
:102D600026C03AF027C03BF028C03CF029C03DF017
:102D7000000E3F6E1F0E3E6E000E0301AA6F37EF6E
:102D800097F03E06D8A03F068B0E3E24D96E030E68
:102D90003F20DA6E36C005F037C006F038C007F0C5
:102DA00039C008F03AC009F03BC00AF03CC00BF053
:102DB0003DC00CF00A0E0D6E000E0E6E000E0F6E72
:102DC000000E106E000E116E000E126E000E136ECD
:102DD000000E146E17ECA1F005C02AF006C02BF00F
:102DE00007C02CF008C02DF009C02EF00AC02FF04B
:102DF0000BC030F00CC031F02A50300FDF6E3206BD
:102E0000D8A033063406D8A0350636C005F037C042
:102E100006F038C007F039C008F03AC009F03BC0EE
:102E20000AF03CC00BF03DC00CF00A0E0D6E000E17
:102E30000E6E000E0F6E000E106E000E116E000E64
:102E4000126E000E136E000E146E2AECA0F005C078
:102E500036F006C037F007C038F008C039F009C0B6
:102E60003AF00AC03BF00BC03CF00CC03DF03E50C5
:102E70003F10D8B43EEF97F040EF97F071EF97F026
:102E800036503710381039103A103B103C103D10B6
:102E9000D8A44DEF97F04FEF97F0C1EF96F033BE07
:102EA0005CEF97F0335006E13204D8B05AEF97F058
:102EB0005CEF97F0C1EF96F035BE67EF97F03550B5
:102EC00008E13404D8A067EF97F069EF97F071EF4D
:102ED00097F00001C6B36FEF97F071EF97F0C1EF75
:102EE00096F020C015F021C016F08B0E3E24176E10
:102EF000030E3F20186E34C019F035C01AF0AEEC46
:102F0000A2F015C020F016C021F01200FAECADF0CE
:102F100005C031F006C032F007C033F008C034F00D
:102F200020EE0BF02350D9262450DA22A80EDE180A
:102F3000D8A49DEF97F09FEF97F00BEF98F020EE5D
:102F400010F02350D9262450DA22DECF25F0DECF30
:102F500026F0DECF27F0DECF28F02550315C296E39
:102F6000265032582A6E275033582B6E285034582A
:102F70002C6E20EE0CF02350D9262450DA22295052
:102F8000DE5C2A50DE582B50DE582C50DE58D8B06C
:102F9000CCEF97F0CEEF97F00BEF98F0880E000192
:102FA000F919D8A4D6EF97F0D8EF97F0F5EF97F08E
:102FB00020EE0BF02350D9262450DA22A60EDF6E25
:102FC00020EE0BF02350D9262450DA22DF50126E67
:102FD000A60E136E960E146E23C0D9FF24C0DAFF1E
:102FE000DF504FECA9F00BEF98F020EE0BF02350E0
:102FF000D9262450DA22A80EDF6E20EE10F02350DE
:10300000D9262450DA2231C0DEFF32C0DEFF33C0C1
:10301000DEFF34C0DEFF20EE17F02350D926245007
:10302000DA22A80EDE18D8A418EF98F01AEF98F05C
:1030300086EF98F020EE1CF02350D9262450DA2297
:10304000DECF25F0DECF26F0DECF27F0DECF28F072
:103050002550315C296E265032582A6E275033583D
:103060002B6E285034582C6E20EE18F02350D926A1
:103070002450DA222950DE5C2A50DE582B50DE58CC
:103080002C50DE58D8B047EF98F049EF98F086EF13
:1030900098F0880E0001F919D8A451EF98F053EF79
:1030A00098F070EF98F020EE17F02350D9262450B6
:1030B000DA22A60EDF6E20EE17F02350D926245018
:1030C000DA22DF50126EA60E136E960E146E23C017
:1030D000D9FF24C0DAFFDF504FECA9F086EF98F05B
:1030E00020EE17F02350D9262450DA22A80EDF6EE6
:1030F00020EE1CF02350D9262450DA2231C0DEFF06
:1031000032C0DEFF33C0DEFF34C0DEFF120000013C
:10311000B891B895B8997BECA9F0000E0001BB6F8F
:10312000000EBA6F000EC96F000EC86F000ED26E8F
:103130000E01FDB59EEF98F0A0EF98F098EF98F093
:10314000D2B6A5EF98F0A7EF98F0A0EF98F0ADEF0A
:1031500098F00001B893A1ECA5F060BCB2EF98F034
:10316000B4EF98F0A9EF98F0000E0E01FE6F00F09A
:1031700000F000F0A00E0E01FE6FFDA1C2EF98F06E
:10318000C4EF98F0BDEF98F00D0EA06F00F0B30EF5
:103190000E01A26F00F0000E0E01A36F00F0150EDD
:1031A0000E01A46F00F0000E0E01A76F120EA66FA5
:1031B00000F0140E0E01E56F160EE46F1F0EE76FA0
:1031C000E669000EE96F000EE86F140EEB6F150E46
:1031D000EA6F000E7B6E000E7A6E140EE36F160E11
:1031E000E26F140EED6F150EEC6F050EAB6FEE0E69
:1031F000AA6F4DECAEF005C016F006C017F016C071
:10320000D9FF17C0DAFFDF500E01846F00F020EE07
:1032100001F01650D9261750DA22DF500E01856FC3
:1032200000F020EE02F01650D9261750DA22DF50B7
:103230000E01826F00F020EE03F01650D9261750D1
:10324000DA22DF500E01836F00F020EE04F01650FA
:10325000D9261750DA22DF500E01806F00F020EEE1
:1032600005F01650D9261750DA22DF500E01816F73
:1032700000F0AB0E0E01D86F040ED26E010E086E78
:10328000000E076E000EDEECACF0010E086E100EA4
:10329000076E100EDEECACF01D0E086E4A0E076EC7
:1032A000140EDEECACF08DECABF0590E0E01FB6FA2
:1032B000000E086E120E076E120EDEECACF012005D
:1032C000000E1A6E000E196E000E136E000E126EB6
:1032D0006CEF99F00C4A0D2A010E186E0CC0F6FF27
:1032E0000DC0F7FF000EF86E0800F550200AD8B4A4
:1032F0007CEF99F07EEF99F09DEF99F0F70E0E6E4E
:10330000FF0E0F6E0CC0F6FF0DC0F7FF000EF86E3B
:103310000800F550106E116A0E5010260F50112241
:10332000115009E1050E105CD8A099EF99F09BEFC0
:1033300099F09DEF99F0000E186E18C014F0156A00
:1033400014501510D8A4A7EF99F0A9EF99F06AEFDF
:1033500099F0B3EF99F0000E136E010E126E0C4A45
:103360000D2AECEF99F00CC0F6FF0DC0F7FF000E30
:10337000F86E0800F5500E6E0F6A0F50000AD8B4B0
:10338000C4EF99F0ECEF99F00E502B0AD8B4AFEFE0
:1033900099F0060AD8B4ABEF99F0ECEF99F019C0A8
:1033A00005F01AC006F0000E086E0A0E076E06EC55
:1033B000ADF00CC0F6FF0DC0F7FF000EF86E080070
:1033C000F550055E000E065A300E0524196E000EEB
:1033D00006201A6EAFEF99F0D00E0E6EFF0E0F6E34
:1033E0000CC0F6FF0DC0F7FF000EF86E0800F55098
:1033F000106E116A0E5010260F50112211500AE162
:103400000A0E105CD8A007EF9AF00AEF9AF0010EAE
:103410000BEF9AF0000E166E176A16501710D8A40C
:1034200014EF9AF016EF9AF0CFEF99F012501310B4
:10343000D8A41DEF9AF01FEF9AF02DEF9AF019C063
:103440000EF01AC00FF00E1E0F1E0E4A0F2A0EC0ED
:103450000CF00FC00DF031EF9AF019C00CF01AC04B
:103460000DF0120022EEA2F010EE13F0060EDBCFEC
:10347000E3FFE806FCE210C01EF011C01FF01E5072
:103480001F10D8A446EF9AF048EF9AF04CEF9AF04C
:10349000130E1E6E000E1F6E1EC005F01FC006F03C
:1034A00022ECAAF005C022F006C023F0C4C020F030
:1034B000C5C021F021BE5FEF9AF061EF9AF076EF80
:1034C0009AF02250205C2150800A126E2350800A0C
:1034D0001258D8A06EEF9AF070EF9AF072EF9AF04F
:1034E00076EF9AF020C022F021C023F022C020F015
:1034F00023C021F0C2C01CF0C3C01DF00001C6B142
:1035000084EF9AF086EF9AF0A3EF9AF094EF9AF096
:10351000000E066E200E056E0EC007F00FC008F0FC
:10352000E5ECA1F0224A232A1C50225C2350800A99
:10353000126E1D50800A1258D8A0A1EF9AF0A3EF86
:103540009AF088EF9AF0000E1B6E000E1A6EC8EF0C
:103550009AF01EC0F6FF1FC0F7FF000EF86E0F0EA8
:10356000F76403D00800F55005D0F6CFE9FFF7CF98
:10357000EAFFEF50126E1250056E066A0EC007F099
:103580000FC008F0E5ECA1F01E4A1F2A1A4A1B2AB8
:1035900020501A5C1B50800A126E2150800A12586B
:1035A000D8A0D5EF9AF0D7EF9AF0A9EF9AF00001E2
:1035B000C6A1DDEF9AF0DFEF9AF0FCEF9AF0EDEFA5
:1035C0009AF0000E066E200E056E0EC007F00FC0BA
:1035D00008F0E5ECA1F0224A232A1C50225C23507B
:1035E000800A126E1D50800A1258D8A0FAEF9AF085
:1035F000FCEF9AF0E1EF9AF022C00EF023C00FF03A
:103600001200000E206EBFEF9BF0070E20640BEF40
:103610009BF00DEF9BF00FEF9BF0C8EF9BF00A0EB5
:10362000166E200E176E2050050D19C01CF01AC022
:103630001DF0F3501C26F4501D22040E1C24D96EDC
:10364000000E1D20DA6EDF50A6ECA6F0140E166EEA
:103650002050050D19C01CF01AC01DF0F3501C2697
:10366000F4501D22020E1C24D96E000E1D20DA6EAD
:10367000DF50176E2050050D19C01EF01AC01FF044
:10368000F3501E26F4501F22040E1E24D96E000E85
:103690001F20DA6EDF50A6ECA6F0150E166E205035
:1036A000050D19C01CF01AC01DF0F3501C26F45073
:1036B0001D22030E1C24D96E000E1D20DA6EDF5071
:1036C000176E2050050D19C01EF01AC01FF0F350E0
:1036D0001E26F4501F22040E1E24D96E000E1F2039
:1036E000DA6EDF50A6ECA6F0000E166E2050050D27
:1036F000F3CF1CF0F4CF1DF01C501924D96E1D50CF
:103700001A20DA6EDF50176E2050050D19C01EF01A
:103710001AC01FF0F3501E26F4501F22040E1E2460
:10372000D96E000E1F20DA6EDF50A6ECA6F0010E57
:10373000166E2050050D19C01CF01AC01DF0F35074
:103740001C26F4501D22010E1C24D96E000E1D20D3
:10375000DA6EDF50176E2050050D19C01EF01AC02A
:103760001FF0F3501E26F4501F22040E1E24D96EA3
:10377000000E1F20DA6EDF50A6ECA6F0202A1B50A8
:10378000205CD8A0C6EF9BF0C8EF9BF005EF9BF044
:103790001200000E166E14BED2EF9BF0D0EF9BF01D
:1037A000E4EF9BF0141E131E121E111E101E0F1E9E
:1037B0000E1E0D6C000E0E220F221022112212225C
:1037C00013221422010E166E0CBEEBEF9BF0E9EFF4
:1037D0009BF0FDEF9BF00C1E0B1E0A1E091E081E1F
:1037E000071E061E056C000E06220722082209226B
:1037F0000A220B220C22010E161A20EE17F0070ED9
:10380000DE6AE806FDE20D500E100F1010101110C8
:10381000121013101410D8B410EF9CF012EF9CF09B
:1038200064EF9CF0010E156E20EF9CF0D8900D36E1
:103830000E360F3610361136123613361436152A58
:1038400014AE25EF9CF027EF9CF016EF9CF0D8907B
:103850001736183619361A361B361C361D361E36E4
:103860000D50055C0E5006580F5007581050085860
:103870001150095812500A5813500B5814500C5834
:10388000D8A045EF9CF047EF9CF058EF9CF00D500E
:10389000055E0E50065A0F50075A1050085A115024
:1038A000095A12500A5A13500B5A14500C5A1780C6
:1038B000D890143213321232113210320F320E32CB
:1038C0000D32152E27EF9CF01650D8B46AEF9CF0FD
:1038D0006CEF9CF07CEF9CF01E1E1D1E1C1E1B1E20
:1038E0001A1E191E181E176C000E182219221A22F1
:1038F0001B221C221D221E2217C005F018C006F034
:1039000019C007F01AC008F01BC009F01CC00AF06B
:103910001DC00BF01EC00CF01200000E276E575099
:10392000040D010EF324D96E020EF420DA6EDF507E
:10393000D8B49DEF9CF09FEF9CF0C1EF9CF05750E6
:10394000050D200EF3241B6E030EF4201C6E0A0ED0
:103950001D6E5750050D220EF324D96E030EF42070
:10396000DA6EDF501E6E63ECA8F05750040D010EA6
:10397000F324D96E020EF420DA6E000EDF6E010E13
:10398000276E5750040D030EF324D96E020EF42057
:10399000DA6EDF50D8B4CFEF9CF0D1EF9CF0F3EFAC
:1039A0009CF05750050D200EF3241B6E030EF420DF
:1039B0001C6E0B0E1D6E5750050D230EF324D96E91
:1039C000030EF420DA6EDF501E6E63ECA8F0575041
:1039D000040D030EF324D96E020EF420DA6E000EED
:1039E000DF6E020E276E2704D8A4F9EF9CF0FBEFE0
:1039F0009CF00FEF9DF05750050D220EF324D96E69
:103A0000030EF420DA6E5750040D000EF324E16E1D
:103A1000020EF420E26EDFCFE7FF2AEF9DF0020EE8
:103A20002718D8A416EF9DF018EF9DF02AEF9DF00F
:103A30005750050D230EF324D96E030EF420DA6ED1
:103A40005750040D020EF324E16E020EF420E26ED4
:103A5000DFCFE7FF050E5718D8B431EF9DF033EFF5
:103A60009DF03BEF9DF0010E5724256E266A000E57
:103A700026223FEF9DF0000E266E000E256E25C01B
:103A800057F01200000E166E0CBE4BEF9DF049EF82
:103A90009DF05DEF9DF00C1E0B1E0A1E091E081EF8
:103AA000071E061E056C000E0622072208220922A8
:103AB0000A220B220C22010E166E14BE64EF9DF03A
:103AC00062EF9DF074EF9DF0141E131E121E111E66
:103AD000101E0F1E0E1E0D6C000E0E220F22102245
:103AE00011221222132214220D500E100F1010104A
:103AF0001110121013101410D8B481EF9DF083EF41
:103B00009DF0CBEF9DF0010E156E91EF9DF0D890DA
:103B10000D360E360F361036113612361336143671
:103B2000152A14AE96EF9DF098EF9DF087EF9DF06B
:103B30000D50055C0E5006580F500758105008588D
:103B40001150095812500A5813500B5814500C5861
:103B5000D8A0ADEF9DF0AFEF9DF0BFEF9DF00D5001
:103B6000055E0E50065A0F50075A1050085A115051
:103B7000095A12500A5A13500B5A14500C5AD89022
:103B8000143213321232113210320F320E320D3221
:103B9000152E98EF9DF01650D8B4D1EF9DF0D3EFCD
:103BA0009DF0E3EF9DF00C1E0B1E0A1E091E081E61
:103BB000071E061E056C000E062207220822092297
:103BC0000A220B220C2205C005F006C006F007C031
:103BD00007F008C008F009C009F00AC00AF00BC0DD
:103BE0000BF00CC00CF012001E0E1360FAEF9DF0EB
:103BF000FCEF9DF09BEF9EF01350040D540EF32448
:103C0000F66EF60EF420F76EF86A000EF822090040
:103C1000F5500900F510D8A410EF9EF012EF9EF0B9
:103C200014EF9EF09BEF9EF01350040D540EF324FE
:103C30001A6EF60EF4201B6E000E1D6E000E1C6E2A
:103C400082EF9EF01CC005F01DC006F0000E086E4D
:103C5000030E076E06ECADF01AC0F6FF1BC0F7FFAF
:103C6000000EF86E0900F5CF14F00900F5CF15F03D
:103C7000055014260650152214C0F6FF15C0F7FF94
:103C8000000EF86E0900F5CF16F00900F5CF17F019
:103C9000D89016361736D89016361736D89016366E
:103CA0001736165011240B6E175012200C6E1CC0C4
:103CB00005F01DC006F0000E086E030E076E06EC40
:103CC000ADF01AC0F6FF1BC0F7FF000EF86E09003A
:103CD000F5CF18F00900F5CF19F005501826065059
:103CE0001922020E1826000E192218C0F6FF19C05C
:103CF000F7FF000EF86E0800F5CF0DF072ECA3F0A0
:103D00001C4A1D2A020E1A24146E000E1B20156E6A
:103D100014C0F6FF15C0F7FF000EF86E0900F5504D
:103D20001C5C0900F5501D58D8A099EF9EF09BEF40
:103D30009EF022EF9EF01200F00EF66E2A0EF76E45
:103D4000010EF86E07EECBF012EE18F00900F5CF79
:103D5000EEFFE550E150FAE1E250F8E1FE0EF66EBA
:103D6000420EF76E010EF86E07EE00F010EECBF08B
:103D70000900F5CFEEFFE550E150FAE13C0EF66E9A
:103D80004E0EF76E010EF86E03EE00F010EE74F0BA
:103D90000900F5CFEEFFE550E150FAE1460EF66E70
:103DA000520EF76E010EF86E02EEA2F010EE58F011
:103DB0000900F5CFEEFFE550E150FAE1600EF66E36
:103DC0005C0EF76E010EF86E01EEECF010EE0CF0EA
:103DD0000900F5CFEEFFE550E150FAE1F40EF66E82
:103DE0005C0EF76E010EF86E00EEF4F010EE07F0C8
:103DF0000900F5CFEEFFE550E150FAE106EE00F0E4
:103E0000500EEE6AE806FDE105EE00F0B80EEE6A2F
:103E1000E806FDE104EE00F0E80EEE6AE806FDE1DA
:103E200003EE74F0720EEE6AE806FDE102EE00F0B9
:103E3000A20EEE6AE806FDE101EE00F0EC0EEE6A7D
:103E4000E806FDE100EEB8F03C0EEE6AE806FDE1A2
:103E5000596A586A576A566A556A5A905A920001C6
:103E60001BEF90F0060E0718D8A439EF9FF03BEF38
:103E70009FF061EF9FF020EE06F00550D926065026
:103E8000DA22DF50086E20EE04F00550D9260650E5
:103E9000DA22DECF09F0DDCF0AF009C0D9FF0AC06F
:103EA000DAFFDF5008140009D8A459EF9FF05BEF48
:103EB0009FF05FEF9FF0040E076E61EF9FF0030E1F
:103EC000076E040E0718D8A468EF9FF06AEF9FF002
:103ED00084EF9FF020EE06F00550D9260650DA2236
:103EE000DF50086E20EE04F00550D9260650DA2285
:103EF000DECF09F0DDCF0AF009C0D9FF0AC0DAFF32
:103F00000850DF12AEEF9FF0030E0718D8A48BEF16
:103F10009FF08DEF9FF0AEEF9FF020EE06F0055082
:103F2000D9260650DA22DF50D8B499EF9FF09DEFE2
:103F30009FF0086A082A9EEF9FF0086A20EE04F0BE
:103F40000550D9260650DA22DECF09F0DDCF0AF07F
:103F500009C0D9FF0AC0DAFF0850DF16120005C0F9
:103F60000CF006C00DF007C00EF008C00FF00906F7
:103F7000D8A00A06092806E10A28D8A4C2EF9FF0B3
:103F8000C4EF9FF0D1EF9FF0000E066E000E056E9D
:103F900029EFA0F00C4A0D2A0E4A0F2A0906D8A0D4
:103FA0000A060CC0F6FF0DC0F7FF000EF86E080001
:103FB000F5500009D8B4DFEF9FF0E1EF9FF013EF69
:103FC000A0F00EC0F6FF0FC0F7FF000EF86E08005D
:103FD000F5500009D8B4EFEF9FF0F1EF9FF013EF29
:103FE000A0F009500A10D8B4F8EF9FF0FAEF9FF054
:103FF00013EFA0F00CC0F6FF0DC0F7FF000EF86E37
:104000000800F5CF0BF00EC0F6FF0FC0F7FF000E53
:10401000F86E0800F5500B18D8B411EFA0F013EFAC
:10402000A0F0CAEF9FF00CC0F6FF0DC0F7FF000E26
:10403000F86E0800F5CF0BF00EC0F6FF0FC0F7FFCB
:10404000000EF86E0800F5500B5C056E066AD8A0ED
:104050000606120020EE15F0070EDE6AE806FDE205
:104060000D500E100F10101011101210131014100C
:10407000D8B43DEFA0F03FEFA0F091EFA0F0010E1B
:104080001D6E4DEFA0F0D8900D360E360F3610365F
:1040900011361236133614361D2A14AE52EFA0F024
:1040A00054EFA0F043EFA0F0D8901536163617362F
:1040B000183619361A361B361C360D50055C0E5054
:1040C00006580F50075810500858115009581250F0
:1040D0000A5813500B5814500C58D8A072EFA0F087
:1040E00074EFA0F085EFA0F00D50055E0E50065A5B
:1040F0000F50075A1050085A1150095A12500A5AB4
:1041000013500B5A14500C5A1580D8901432133295
:104110001232113210320F320E320D321D2E54EF88
:10412000A0F015C005F016C006F017C007F018C0C3
:1041300008F019C009F01AC00AF01BC00BF01CC02F
:104140000CF012008A968A86200E196E030E1A6EE3
:10415000060E1B6E01EC9BF0010E01015E6FFAEC86
:10416000ADF005C04EF106C04FF107C050F108C0D8
:1041700051F1FAECADF005C056F106C057F107C099
:1041800058F108C059F1C80E0101526F000E536F6B
:10419000000E546F000E556F880E5A6F130E5B6F32
:1041A000000E5C6F000E5D6FFAECADF005C093F190
:1041B00006C094F107C095F108C096F10A0E0101FE
:1041C0008F6F000E906F000E916F000E926F000EB9
:1041D000216E2150050D220EF324D96E030EF4201A
:1041E000DA6E2150040D000EF324E16E020EF4206D
:1041F000E26EDFCFE7FF2150050D230EF324D96EC9
:10420000030EF420DA6E2150040D020EF324E16E49
:10421000020EF420E26EDFCFE7FF212A050E2164B3
:1042200014EFA1F016EFA1F0E9EFA0F012000D508D
:104230000E100F1010101110121013101410D8B40B
:1042400024EFA1F026EFA1F06EEFA1F0010E156EA4
:1042500034EFA1F0D8900D360E360F3610361136E9
:10426000123613361436152A14AE39EFA1F03BEF8F
:10427000A1F02AEFA1F00D50055C0E5006580F502A
:104280000758105008581150095812500A58135026
:104290000B5814500C58D8A050EFA1F052EFA1F0D9
:1042A00062EFA1F00D50055E0E50065A0F50075AEE
:1042B0001050085A1150095A12500A5A13500B5AEA
:1042C00014500C5AD8901432133212321132103268
:1042D0000F320E320D32152E3BEFA1F005C005F066
:1042E00006C006F007C007F008C008F009C009F0D2
:1042F0000AC00AF00BC00BF00CC00CF01200000555
:1043000000003B0301010500003B03020205000021
:104310003B0304030500003B0308040500003B03C6
:1043200010050500003B0320060500003B03400785
:104330000500003B0380080500003C03010905005F
:10434000003C03020A0500003C03040B0500003C8E
:1043500003080C0500003C03100D0500003C032081
:104360000E0500003C03400F0500003C03801005D3
:1043700000002703081105000027031012050000A4
:10438000270320130500002703401405000027031E
:1043900080150500002803011605000028030217F8
:1043A000050000280304180500002803081905006B
:1043B000002803101A0500002803201B0500002810
:0943C00003401C050000280380E5
:1043CA0007500810D8B4ECEFA1F0EEEFA1F0F7EF28
:1043DA00A1F007500810D8A4F5EFA1F0F7EFA1F06B
:1043EA00FCEFA1F005509FECAEF049EFA2F020EEF1
:1043FA0004F00750D9260850DA22DE50DE10D8B46D
:10440A0009EFA2F00BEFA2F026EFA2F020EE04F0E3
:10441A000750D9260850DA2210EE02F00750E1269A
:10442A000850E222DE50E65CE650800A0D6EDE504D
:10443A00800A0D58D8B024EFA2F026EFA2F049EF77
:10444A00A2F020EE02F00750D9260850DA22DECF79
:10445A0009F0DDCF0AF007C0D9FF08C0DAFFDECFC6
:10446A000BF0DDCF0CF009500B24D96E0A500C204A
:10447A00DA6E05C0DFFF20EE02F00750D926085099
:10448A00DA22DE2A000EDD221200F0ECADF000097D
:10449A00D8B452EFA2F054EFA2F091EFA2F062EF7B
:1044AA00A2F06EECAEF0ADEFA2F06AECAEF0ADEFBA
:1044BA00A2F062ECAEF0ADEFA2F018C110F019C193
:1044CA0011F021EE09F002D875EFA2F00500FA6E9C
:1044DA00DE50FD6EDE50FE6EDE50FF6EFA501200A8
:1044EA00126E136A1350000AD8B47EEFA2F05EEF80
:1044FA00A2F01250010AD8B45EEFA2F0030AD8B4AF
:10450A0056EFA2F0010AD8B45AEFA2F0070AD8B4BB
:10451A005EEFA2F05EEFA2F00101299123C1D9FF5B
:10452A0024C1DAFF234B242BDF5072ECAEF00101D9
:10453A002507D8A0260725512611D8A4A7EFA2F04F
:10454A00A9EFA2F0ACEFA2F0060EADEFA2F0030EB7
:10455A0012000001C6A1B4EFA2F0B6EFA2F0C0EFBC
:10456A00A2F017C00EF018C00FF015C010F016C058
:10457A0011F06DECAAF01ABEC5EFA2F0C7EFA2F0D7
:10458A00CDEFA2F019C01EF01AC01FF0D1EFA2F0B1
:10459A00000E1F6E000E1E6E000E1D6E000E1C6EAB
:1045AA00E3EFA2F0000E066E200E056E15C007F0AE
:1045BA0016C008F0E5ECA1F01C4A1D2A1E501C5C2E
:1045CA001D50800A1B6E1F50800A1B58D8A0F0EF9E
:1045DA00A2F0F2EFA2F0D7EFA2F00001C6B1F8EF15
:1045EA00A2F0FAEFA2F004EFA3F017C00EF018C081
:1045FA000FF015C010F016C011F06DECAAF017C03C
:10460A0005F018C006F022ECAAF01E500524156E1B
:10461A001F500620166E1200000E056E000E066E62
:10462A0059ECA5F005C0ACF006C0ADF007C0AEF07D
:10463A0008C0AFF009C0B0F00AC0B1F00BC0B2F0C8
:10464A000CC0B3F0ACC050F0ADC051F0AEC052F0E7
:10465A00AFC053F0590E0001886FFE0E896F50C02B
:10466A008AF051C08BF052C08CF053C08DF0CAEC66
:10467A00ACF0000E546E5450020DDB0EF324F66EAD
:10468A00F50EF420F76EF86A000EF8220800F550CD
:10469A000001AC6FAD6B740EAC25D96E030EAD2163
:1046AA00DA6E5450020D010EF326000EF422DB0ED0
:1046BA00F324F66EF50EF420F76EF86A000EF8226F
:1046CA000800F5CFDFFF542A160E54646FEFA3F0EB
:1046DA0071EFA3F040EFA3F0120020EE03F00B50AD
:1046EA00D9260C50DA22DF50D8B47EEFA3F080EF3F
:1046FA00A3F08BEFA3F00D50D8B486EFA3F089EFA7
:10470A00A3F0010E8AEFA3F0000E0D6E0D50D8B47F
:10471A0091EFA3F093EFA3F0ADEFA3F020EE07F033
:10472A000B50D9260C50DA22DF500E6E20EE05F01F
:10473A000B50D9260C50DA22DECF0FF0DDCF10F065
:10474A000FC0D9FF10C0DAFF0E50DF12C6EFA3F078
:10475A0020EE07F00B50D9260C50DA22DF50FF0A60
:10476A000E6E20EE05F00B50D9260C50DA22DECF61
:10477A000FF0DDCF10F00FC0D9FF10C0DAFF0E50D6
:10478A00DF1612008BECAEF023C1D9FF24C1DAFF89
:10479A00DF6E0101234B242B2507D8A026072551BC
:1047AA002611D8B4DBEFA3F0DDEFA3F0E2EFA3F01C
:1047BA0081ECAEF0050E1AEFA4F02987EDEFA3F015
:1047CA0056ECAEF01AEFA4F05AECAEF01AEFA4F0E1
:1047DA0012C110F013C111F002D8FEEFA3F00500C8
:1047EA00FA6E0051FD6E0151FE6E0251FF6EFA50D3
:1047FA001200126E136A1350000AD8B407EFA4F01D
:10480A00E9EFA3F01250010AD8B4E9EFA3F0030AC2
:10481A00D8B4E5EFA3F0010AD8B4E5EFA3F0070A8C
:10482A00D8B4E9EFA3F0E9EFA3F01200000E0D6E81
:10483A00000E0E6E000E0F6E000E106E09500A105A
:10484A000B100C10D8B42CEFA4F02EEFA4F064EFE8
:10485A00A4F0010E116E38EFA4F0D89009360A368A
:10486A000B360C36112A0CAE3DEFA4F03FEFA4F044
:10487A0032EFA4F0D8900D360E360F3610360950A6
:10488A00055C0A5006580B5007580C500858D8A017
:10489A0051EFA4F053EFA4F05CEFA4F00950055EC9
:1048AA000A50065A0B50075A0C50085A0D80D890D5
:1048BA000C320B320A320932112E3FEFA4F00DC02E
:1048CA0005F00EC006F00FC007F010C008F0120085
:1048DA00056E010E066E010129B576EFA4F078EF98
:1048EA00A4F0BCEFA4F005C022F1299329852991EF
:1048FA000E0E276F010E216FF40E206F2987220EEC
:10490A00006F5D0E016F010E026F000E126F000E36
:10491A00136F220E036F5D0E046F010E056F000EFA
:10492A00146F000E156F220E066F5D0E076F010ED3
:10493A00086F000E166F000E176F220E096F5D0EBC
:10494A000A6F010E0B6F000E186F000E196F1E0E04
:10495A000C6F5D0E0D6F010E0E6F000E1A6F000EBA
:10496A001B6F9DECAEF072ECADF0000E066E0650B9
:10497A001200FAECADF005C01BF006C01CF007C02F
:10498A001DF008C01EF0E50E056E020E066E1B0E27
:10499A00076E000E086E5DEC94F0D60E056E020EE0
:1049AA00066E1B0E076E000E086E5DEC94F0C70EC5
:1049BA00056E020E066E1B0E076E000E086E5DEC8B
:1049CA0094F0B80E056E020E066E1B0E076E000EF0
:1049DA00086E5DEC94F0A90E056E020E066E1B0EB3
:1049EA00076E000E086E5DEC94F04D0E056E030E18
:1049FA00066E1B0E076E000E086E5DEC94F03E0EFE
:104A0A00056E030E066E1B0E076E000E086E5DEC39
:104A1A0094F01200B20E01012A6F010E2B6FA80E3C
:104A2A002C6FC00E2D6F000E366FFF0E376FFF0E04
:104A3A00386FFF0E396FFE0E3A6F010E3B6FA80EEC
:104A4A003C6FC00E3D6FFE0E2E6F010E2F6FA80E2B
:104A5A00306FC00E316F000E326F000E336F000ED2
:104A6A00346F000E356F000E056E0550040D420EB0
:104A7A00F324D96E010EF420DA6EDE6ADE6ADE6A8B
:104A8A00DD6A052A010E05644DEFA5F04FEFA5F08A
:104A9A003AEFA5F0000E01014A6F000E4B6F000EAF
:104AAA004C6F000E4D6F1200000EF2BE010E0D6E1D
:104ABA00F29E73C10EF074C10FF075C110F076C189
:104ACA0011F077C112F078C113F079C114F07AC1EC
:104ADA0015F00DB002D0F29E01D0F28E05500610EC
:104AEA00D8B47AEFA5F07CEFA5F090EFA5F005C059
:104AFA00D9FF06C0DAFF0EC0DEFF0FC0DEFF10C00E
:104B0A00DEFF11C0DEFF12C0DEFF13C0DEFF14C0DD
:104B1A00DEFF15C0DEFF0EC005F00FC006F010C0A4
:104B2A0007F011C008F012C009F013C00AF014C04F
:104B3A000BF015C00CF012000001B8930E01FE51E3
:104B4A004009FE6FFF0E056EFF0E066EC8C007F025
:104B5A00C9C008F00550072606500822E851075C2C
:104B6A00E9510858D8A0BCEFA5F0BEEFA5F0D5EFE3
:104B7A00A5F0FF0E056EFF0E066EC8C007F0C9C08D
:104B8A0008F005500726065008220750EA5D08502B
:104B9A00EB59D8B0D3EFA5F0D5EFA5F0DBEFA5F030
:104BAA00EACEECFEEBCEEDFEE5EFA5F0FF0E00013E
:104BBA00C8250E01EC6FFF0E0001C9210E01ED6F31
:104BCA00FB8D12000A6E055006100710D8B4F0EFDC
:104BDA00A5F0F2EFA5F00EEFA6F00A50030D000EB5
:104BEA00F324D96E010EF420DA6E05C0DEFF06C08A
:104BFA00DEFF07C0DEFF0A50020D120EF324D96E43
:104C0A00010EF420DA6E08C0DEFF09C0DDFF28EFCE
:104C1A00A6F00A50030D000EF324D96E010EF420FB
:104C2A00DA6E220EDE6E5D0EDE6E010EDE6E0A504A
:104C3A00020D120EF324D96E010EF420DA6E000E64
:104C4A00DE6E000EDD6E1200010129873AEFA6F032
:104C5A0066ECAEF067EFA6F089ECAEF0030E67EFF4
:104C6A00A6F062ECAEF067EFA6F012C110F013C125
:104C7A0011F002D84BEFA6F00500FA6E0051FD6E56
:104C8A000151FE6E0251FF6EFA501200126E136A43
