:040000003AEF00F0E3
:100008005782FACF03F0FBCF04F0F2AA0EEF00F00C
:1000180010EF00F01BEF00F0F2A415EF00F017EF5F
:1000280000F01BEF00F05FEC94F034EF00F0F2AC5E
:1000380020EF00F022EF00F034EF00F09DA027EF52
:1000480000F029EF00F034EF00F09EA02EEF00F052
:1000580030EF00F034EF00F03FEC94F034EF00F0B4
:1000680004C0FBFF03C0FAFF579211002EEF91F076
:10FD70000000000000000000000000000000000083
:10FD80000000000000000000000000000000000073
:10FD90000000000000000000000000000000000063
:10FDA0000000060105020503060405050506060711
:10FDB00005080609050A050B050C060D050E050FBD
:10FDC000051006110512051306140515061605176C
:10FDD00005414447484E53555C5F6065696A7277D8
:10FDE000787B7E1F1E1F1E1F1F1E1F1E1F1F1DE84C
:10FDF000030000B80B0000E8030000E80300000562
:10FE0000000000D0070000C80000000A0000FFFF4B
:10FE1000FFFFFFFF60EA000000E80300003C2564EC
:10FE20003E25642025642D252E32642D252E326436
:10FE300054252E32643A252E32643A252E32645AE5
:10FE40002025642E25642E25642E2564202573200C
:10FE500025732025732025735B25735D0D0A000A29
:10FE60000A5374617274696E67205379736C6F679B
:10FE700020617420256C750A0069636D70207772AB
:10FE80006F6E6720636B736D203A202578004541C3
:10FE9000506F6C5F5041434B45545F4641494C5550
:10FEA0005245003830322E33206C656E67746820FE
:10FEB00030782530346C5800444553545F49505FC6
:10FEC0004E4F545F4D4154434845440049505634C9
:10FED0005F434845434B53554D5F4641494C5300A2
:10FEE00049434D505F434845434B53554D5F464151
:10FEF000494C53004152505F49505F4E4F545F4D43
:10FF000041544348454400504F52545F4E4F545F54
:10FF1000415641494C41424C45005443505F43488F
:10FF200045434B53554D5F4641494C530055445052
:10FF30005F434845434B53554D5F4641494C530041
:10FF40003830322E33207479706520307825303483
:10FF50006C580054585F4C4F4749435F4E4F545FB5
:10FF600049444C450054252E32643A252E32643AD9
:10FF7000252E32645A0049505F57524F4E475F5604
:10FF8000455253494F4E004C494E4B5F4E4F545FC4
:10FF9000464F554E44004D41435F4E4F545F464FD0
:10FFA000554E44002025642E25642E25642E25649C
:10FFB0000025642D252E32642D252E326400444DFB
:10FFC000415F54494D454F555400425546464552B0
:10FFD0005F42555359003C25643E2564200053552B
:10FFE0004343455353004552524F52002025735B03
:10FFF00000474D5400202573005D002E002D0000A9
:020000040001F9
:10000000DEEF83F030C023F031C024F0A70E256E60
:10001000870E266EACEC87F030C023F031C024F0A0
:10002000A70E256E880E266EACEC87F020EE08F049
:100030003050D9263150DA2210EE0BF0DE50E12696
:10004000DD50E222000EE76E20EE14F03050D9268B
:100050003150DA2210EE0BF0DE50E126DD50E222C4
:10006000000EE76E20EE02F03050D9263150DA2231
:100070006D0EDF6E20EE01F03050D9263150DA22BD
:100080006C0EDF6EC1EC95F020EE20F03050D926DA
:100090003150DA2205C0DEFF06C0DEFF07C0DEFFFA
:1000A00008C0DEFF20EE24F03050D9263150DA228D
:1000B000E80EDE6E030EDE6E000EDE6E000EDD6EEE
:1000C00020EE02F03050D9263150DA22DF50126E85
:1000D000840E136E20EE24F03050D9263150DA22EF
:1000E000DECF05F0DECF06F0DECF07F0DECF08F082
:1000F000E80E096E030E0A6E000E0B6E000E0C6EFB
:10010000AFEC91F00550146E30C0D9FF31C0DAFF6A
:10011000DF5082EC93F005EF84F020EE08F03050D1
:10012000D9263150DA2210EE0BF0DE50E126DD50F8
:10013000E222E604D8A49FEF80F0A1EF80F002EF66
:1001400081F020EE0BF03050D9263150DA22960E95
:10015000DE18D8A4AEEF80F0B0EF80F002EF81F0AF
:1001600020EE08F03050D9263150DA2210EE0BF094
:10017000DE50E126DD50E222000EE76E30C023F0B3
:1001800031C024F0A50E256E870E266EACEC87F0EC
:1001900020EE0AF03050D9263150DA22010EDF6EFF
:1001A00020EE0BF03050D9263150DA22A80EDF6E47
:1001B00020EE0CF03050D9263150DA22E80EDE6EF7
:1001C000030EDE6E000EDE6E000EDD6EC1EC95F0ED
:1001D00020EE10F03050D9263150DA2205C0DEFF73
:1001E00006C0DEFF07C0DEFF08C0DEFF20EE04F021
:1001F0003050D9263150DA228E0EDF6E880E546EC2
:1002000010EF81F020EE08F03050D9263150DA227C
:1002100010EE0BF0DE50E126DD50E222000EE76E1C
:1002200020EE14F03050D9263150DA2210EE0BF0C7
:10023000DE50E126DD50E222E604D8A422EF81F070
:1002400024EF81F085EF81F020EE17F03050D926B1
:100250003150DA22960EDE18D8A431EF81F033EF58
:1002600081F085EF81F020EE14F03050D926315026
:10027000DA2210EE0BF0DE50E126DD50E222000E15
:10028000E76E30C023F031C024F0A50E256E880E35
:10029000266EACEC87F020EE16F03050D9263150A7
:1002A000DA22010EDF6E20EE17F03050D9263150E1
:1002B000DA22A80EDF6E20EE18F03050D926315029
:1002C000DA22E80EDE6E030EDE6E000EDE6E000E2B
:1002D000DD6EC1EC95F020EE1CF03050D926315087
:1002E000DA2205C0DEFF06C0DEFF07C0DEFF08C061
:1002F000DEFF20EE04F03050D9263150DA228E0E87
:10030000DF6E880E546E93EF81F020EE14F03050C3
:10031000D9263150DA2210EE0BF0DE50E126DD5006
:10032000E222000EE76E20EE0BF03050D92631505D
:10033000DA22A80EDE18D8B4A0EF81F0A2EF81F087
:10034000B1EF81F020EE17F03050D9263150DA228B
:10035000A80EDE18D8A4AFEF81F0B1EF81F021EF45
:1003600082F020EE04F03050D9263150DA228D0E82
:10037000DE18D8B4BEEF81F0C0EF81F021EF82F03B
:1003800020EE02F03050D9263150DA228D0EDF6E89
:1003900020EE01F03050D9263150DA226C0EDF6E9B
:1003A00020EE04F03050D9263150DA228D0EDF6E67
:1003B000C1EC95F020EE20F03050D9263150DA22F1
:1003C00005C0DEFF06C0DEFF07C0DEFF08C0DEFF9F
:1003D00020EE24F03050D9263150DA22B80EDE6EED
:1003E0000B0EDE6E000EDE6E000EDD6E20EE02F0F5
:1003F0003050D9263150DA22DF50126E840E136E3F
:1004000020EE24F03050D9263150DA22DECF05F02C
:10041000DECF06F0DECF07F0DECF08F0E80E096E83
:10042000030E0A6E000E0B6E000E0C6EAFEC91F018
:100430000550146E30C0D9FF31C0DAFFDF5082ECB6
:1004400093F020EE0BF03050D9263150DA22A60E70
:10045000DE18D8A42EEF82F030EF82F08BEF82F01E
:1004600030C023F031C024F0A60E256E870E266E14
:10047000ACEC87F020EE0BF03050D9263150DA2268
:10048000960EDF6E20EE0AF03050D9263150DA2277
:10049000000EDF6E20EE02F03050D9263150DA2205
:1004A0008F0EDF6E20EE01F03050D9263150DA2267
:1004B0006C0EDF6EC1EC95F020EE20F03050D926A6
:1004C0003150DA2205C0DEFF06C0DEFF07C0DEFFC6
:1004D00008C0DEFF20EE24F03050D9263150DA2259
:1004E000B80EDE6E0B0EDE6E000EDE6E000EDD6EE2
:1004F00020EE01F03050D9263150DA22DF50126E52
:10050000A60E136E870E146E30C0D9FF31C0DAFF0D
:10051000DF5082EC93F020EE17F03050D9263150A6
:10052000DA22A60EDE18D8A498EF82F09AEF82F0B5
:1005300005EF84F030C023F031C024F0A60E256E04
:10054000880E266EACEC87F020EE17F03050D926DE
:100550003150DA22960EDF6E20EE16F03050D9269A
:100560003150DA22000EDF6E20EE02F03050D92634
:100570003150DA228F0EDF6E20EE01F03050D92696
:100580003150DA226C0EDF6EC1EC95F020EE20F0D7
:100590003050D9263150DA2205C0DEFF06C0DEFF1A
:1005A00007C0DEFF08C0DEFF20EE24F03050D92661
:1005B0003150DA22B80EDE6E0B0EDE6E000EDE6EED
:1005C000000EDD6E20EE01F03050D9263150DA22D7
:1005D000DF50126EA60E136E880E146E30C0D9FF57
:1005E00031C0DAFFDF5082EC93F005EF84F020EEAB
:1005F0000AF03050D9263150DA22DF50D8B403EF58
:1006000083F005EF83F024EF83F030C023F031C096
:1006100024F0A70E256E870E266EACEC87F020EE38
:1006200001F03050D9263150DA22DF50126EA70E79
:10063000136E870E146E30C0D9FF31C0DAFFDF5061
:1006400082EC93F04FEF83F020EE16F03050D92675
:100650003150DA22DF50D8B430EF83F032EF83F03C
:100660004FEF83F030C023F031C024F0A70E256E89
:10067000880E266EACEC87F020EE01F03050D926C3
:100680003150DA22DF50126EA70E136E880E146EF0
:1006900030C0D9FF31C0DAFFDF5082EC93F020EE9A
:1006A00001F03050D9263150DA226D0EDF6E20EE87
:1006B00001F03050D9263150DA22DF50126E960EFA
:1006C000136E960E146E30C0D9FF31C0DAFFDF50C2
:1006D00082EC93F005EF84F030C023F031C024F0B9
:1006E000A90E256E870E266EACEC87F030C023F085
:1006F00031C024F0A90E256E880E266EACEC87F072
:1007000020EE01F03050D9263150DA22DF50126E3F
:10071000960E136E960E146E30C0D9FF31C0DAFFFC
:10072000DF5082EC93F020EE01F03050D9263150AA
:10073000DA226D0EDF6E05EF84F020EE20F03050EF
:10074000D9263150DA22DECF32F0DECF33F0DECFE1
:1007500034F0DECF35F0C1EC95F03250055C366EEA
:1007600033500658376E34500758386E3550085895
:10077000396E20EE24F03050D9263150DA2236502E
:10078000DE5C3750DE583850DE583950DE58D8B06D
:10079000CCEF83F0CEEF83F005EF84F020EE02F093
:1007A0003050D9263150DA2210EE01F03050E126D7
:1007B0003150E222DFCFE7FF05EF84F020EE01F0B9
:1007C0003050D9263150DA22DF50326E336A33503E
:1007D000000AD8B4EEEF83F005EF84F03250690AD6
:1007E000D8B402EF80F0050AD8B49DEF83F0010A77
:1007F000D8B48DEF80F0E00AD8B4F7EF82F0020AA7
:10080000D8B46CEF83F005EF84F0120084EF87F02A
:1008100030C023F031C024F0A70E256E8C0E266E5A
:10082000ACEC87F020EE08F03050D9263150DA22B7
:1008300010EE0BF0DE50E126DD50E222000EE76EF6
:1008400020EE02F03050D9263150DA226D0EDF6EE4
:1008500020EE01F03050D9263150DA226C0EDF6ED6
:10086000C1EC95F020EE20F03050D9263150DA223C
:1008700005C0DEFF06C0DEFF07C0DEFF08C0DEFFEA
:1008800020EE24F03050D9263150DA22E80EDE6E08
:10089000030EDE6E000EDE6E000EDD6E20EE02F048
:1008A0003050D9263150DA22DF50126E840E136E8A
:1008B00020EE24F03050D9263150DA22DECF05F078
:1008C000DECF06F0DECF07F0DECF08F0E80E096ECF
:1008D000030E0A6E000E0B6E000E0C6EAFEC91F064
:1008E0000550146E30C0D9FF31C0DAFFDF5082EC02
:1008F00093F0ABEF87F020EE08F03050D92631505E
:10090000DA2210EE0BF0DE50E126DD50E222E604A2
:10091000D8A48DEF84F08FEF84F0FBEF84F020EE0D
:100920000BF03050D9263150DA22960EDE18D8A4BA
:100930009CEF84F09EEF84F0FBEF84F020EE08F053
:100940003050D9263150DA2210EE0BF0DE50E1267D
:10095000DD50E222000EE76E30C023F031C024F0FB
:10096000A50E256E890E266EACEC87F020EE04F005
:100970003050D9263150DA228E0EDF6E20EE0AF08A
:100980003050D9263150DA22010EDF6E20EE0BF006
:100990003050D9263150DA22A80EDF6E20EE0CF04E
:1009A0003050D9263150DA22E80EDE6E030EDE6EAC
:1009B000000EDE6E000EDD6EC1EC95F020EE10F044
:1009C0003050D9263150DA2205C0DEFF06C0DEFFE6
:1009D00007C0DEFF08C0DEFF8C0E546E680E531891
:1009E000D8A4F5EF84F0F7EF84F087EF85F08C0E54
:1009F000536E87EF85F020EE14F03050D926315039
:100A0000DA2210EE0BF0DE50E126DD50E222E604A1
:100A1000D8A40DEF85F00FEF85F079EF85F020EE8B
:100A200017F03050D9263150DA22960EDE18D8A4AD
:100A30001CEF85F01EEF85F079EF85F020EE14F0C5
:100A40003050D9263150DA2210EE0BF0DE50E1267C
:100A5000DD50E222000EE76E30C023F031C024F0FA
:100A6000A50E256E8A0E266EACEC87F020EE04F003
:100A70003050D9263150DA228E0EDF6E20EE16F07D
:100A80003050D9263150DA22010EDF6E20EE17F0F9
:100A90003050D9263150DA22A80EDF6E20EE18F041
:100AA0003050D9263150DA22E80EDE6E030EDE6EAB
:100AB000000EDE6E000EDD6EC1EC95F020EE1CF037
:100AC0003050D9263150DA2205C0DEFF06C0DEFFE5
:100AD00007C0DEFF08C0DEFF8C0E546E680E531890
:100AE000D8A475EF85F077EF85F087EF85F0F7EF05
:100AF00084F020EE08F03050D9263150DA2210EE82
:100B00000BF0DE50E126DD50E222000EE76E20EE13
:100B10000BF03050D9263150DA22A80EDE18D8B4A6
:100B200094EF85F096EF85F0A5EF85F020EE17F0B5
:100B30003050D9263150DA22A80EDE18D8A4A3EFFF
:100B400085F0A5EF85F015EF86F020EE04F030502B
:100B5000D9263150DA228D0EDE18D8B4B2EF85F0E6
:100B6000B4EF85F015EF86F020EE02F03050D92674
:100B70003150DA228D0EDF6E20EE01F03050D92692
:100B80003150DA226C0EDF6E20EE04F03050D926A0
:100B90003150DA228D0EDF6EC1EC95F020EE20F0A0
:100BA0003050D9263150DA2205C0DEFF06C0DEFF04
:100BB00007C0DEFF08C0DEFF20EE24F03050D9264B
:100BC0003150DA22B80EDE6E0B0EDE6E000EDE6ED7
:100BD000000EDD6E20EE02F03050D9263150DA22C0
:100BE000DF50126E840E136E20EE24F03050D926A2
:100BF0003150DA22DECF05F0DECF06F0DECF07F08F
:100C0000DECF08F0E80E096E030E0A6E000E0B6EC2
:100C1000000E0C6EAFEC91F00550146E30C0D9FF91
:100C200031C0DAFFDF5082EC93F020EE0BF0305051
:100C3000D9263150DA22A60EDE18D8A422EF86F08B
:100C400024EF86F07FEF86F030C023F031C024F02F
:100C5000A60E256E890E266EACEC87F020EE0BF00A
:100C60003050D9263150DA22960EDF6E20EE0AF08F
:100C70003050D9263150DA22000EDF6E20EE02F01D
:100C80003050D9263150DA228F0EDF6E20EE01F07F
:100C90003050D9263150DA226C0EDF6EC1EC95F05F
:100CA00020EE20F03050D9263150DA2205C0DEFF88
:100CB00006C0DEFF07C0DEFF08C0DEFF20EE24F026
:100CC0003050D9263150DA22B80EDE6E0B0EDE6EB1
:100CD000000EDE6E000EDD6E20EE01F03050D926E3
:100CE0003150DA22DF50126EA60E136E890E146E8A
:100CF00030C0D9FF31C0DAFFDF5082EC93F020EE34
:100D000017F03050D9263150DA22A60EDE18D8A4BA
:100D10008CEF86F08EEF86F0ABEF87F030C023F0DB
:100D200031C024F0A60E256E8A0E266EACEC87F03C
:100D300020EE17F03050D9263150DA22960EDF6EB1
:100D400020EE16F03050D9263150DA22000EDF6E38
:100D500020EE02F03050D9263150DA228F0EDF6EAD
:100D600020EE01F03050D9263150DA226C0EDF6EC1
:100D7000C1EC95F020EE20F03050D9263150DA2227
:100D800005C0DEFF06C0DEFF07C0DEFF08C0DEFFD5
:100D900020EE24F03050D9263150DA22B80EDE6E23
:100DA0000B0EDE6E000EDE6E000EDD6E20EE01F02C
:100DB0003050D9263150DA22DF50126EA60E136E53
:100DC0008A0E146E30C0D9FF31C0DAFFDF5082ECDA
:100DD00093F0ABEF87F030C023F031C024F0A70EC2
:100DE000256E8C0E266EACEC87F020EE01F03050B4
:100DF000D9263150DA226D0EDF6E20EE01F0305030
:100E0000D9263150DA22DF50126E960E136E960EEE
:100E1000146E30C0D9FF31C0DAFFDF5082EC93F09E
:100E2000ABEF87F030C023F031C024F0A90E256E5F
:100E3000890E266EACEC87F030C023F031C024F070
:100E4000A90E256E8A0E266EACEC87F020EE01F01E
:100E50003050D9263150DA22DF50126E960E136EC2
:100E6000960E146E30C0D9FF31C0DAFFDF5082EC2D
:100E700093F020EE01F03050D9263150DA226D0E79
:100E8000DF6EABEF87F020EE20F03050D9263150E6
:100E9000DA22DECF32F0DECF33F0DECF34F0DECF39
:100EA00035F0C1EC95F03250055C366E3350065883
:100EB000376E34500758386E35500858396E20EE6A
:100EC00024F03050D9263150DA223650DE5C3750CB
:100ED000DE583850DE583950DE58D8B072EF87F0FF
:100EE00074EF87F0ABEF87F020EE02F03050D92698
:100EF0003150DA2210EE01F03050E1263150E2227A
:100F0000DFCFE7FFABEF87F020EE01F03050D926BE
:100F10003150DA22DF50326E336A3350000AD8B4CF
:100F200094EF87F0ABEF87F03250690AD8B408EF3E
:100F300084F0050AD8B443EF87F0010AD8B47BEFF8
:100F400084F0E00AD8B4EBEF86F0020AD8B412EFCE
:100F500087F0ABEF87F0120020EE06F02350D92681
:100F60002450DA2210EE02F0DE50E126DD50E222BB
:100F7000E7502C6E20EE06F02350D9262450DA22BA
:100F800010EE05F0DE50E126DD50E222E7502E6E35
:100F900020EE06F02350D9262450DA2210EE08F075
:100FA000DE50E126DD50E222E7502D6E20EE06F005
:100FB0002350D9262450DA2210EE0BF0DE50E12621
:100FC000DD50E222E7502F6E9FEF8AF0870E261841
:100FD000D8A4EDEF87F0EFEF87F020EF88F020EE58
:100FE00006F02350D9262450DA22DECF27F0DDCFB9
:100FF00028F027C0D9FF28C0DAFFDECF29F0DDCFE7
:101000002AF029C0D9FF2AC0DAFF2C50DF122E5057
:10101000FF0A276E20EE06F02350D9262450DA224C
:1010200010EE03F0DE50E126DD50E222E6CF28F09C
:10103000E5CF29F028C0D9FF29C0DAFF2750DF16F5
:10104000880E2618D8A427EF88F029EF88F05AEFE9
:1010500088F020EE06F02350D9262450DA22DECF85
:1010600027F0DDCF28F027C0D9FF28C0DAFFDECF78
:1010700029F0DDCF2AF029C0D9FF2AC0DAFF2D5090
:10108000DF122F50FF0A276E20EE06F02350D926DC
:101090002450DA2210EE03F0DE50E126DD50E22289
:1010A000E6CF28F0E5CF29F028C0D9FF29C0DAFF24
:1010B0002750DF16890E2618D8A461EF88F063EF59
:1010C00088F0ADEF88F02C50FF0A276E20EE06F076
:1010D0002350D9262450DA2210EE03F0DE50E12608
:1010E000DD50E222E6CF28F0E5CF29F028C0D9FF75
:1010F00029C0DAFF2750DF1620EE06F02350D9264C
:101100002450DA2210EE03F0DE50E126DD50E22218
:10111000E6CF27F0E5CF28F027C0D9FF28C0DAFFB7
:101120002E50DF122D50FF0A276E20EE06F02350BE
:10113000D9262450DA22DECF28F0DDCF29F028C0CE
:10114000D9FF29C0DAFFDECF2AF0DDCF2BF02AC08D
:10115000D9FF2BC0DAFF2750DF168A0E2618D8A435
:10116000B4EF88F0B6EF88F0BCEF8AF020EE06F01E
:101170002350D9262450DA2210EE03F0DE50E12667
:10118000DD50E222E6CF27F0E5CF28F027C0D9FFD7
:1011900028C0DAFF2C50DF122E50FF0A276E20EEF7
:1011A00006F02350D9262450DA2210EE03F0DE5048
:1011B000E126DD50E222E6CF28F0E5CF29F028C075
:1011C000D9FF29C0DAFF2750DF162F50FF0A276EFC
:1011D00020EE06F02350D9262450DA2210EE03F038
:1011E000DE50E126DD50E222E6CF28F0E5CF29F0FF
:1011F00028C0D9FF29C0DAFF2750DF16BCEF8AF0DC
:10120000BCEF8AF0870E2618D8A409EF89F00BEFFF
:1012100089F028EF89F02C50FF0A276E20EE06F0A7
:101220002350D9262450DA22DECF28F0DDCF29F052
:1012300028C0D9FF29C0DAFFDECF2AF0DDCF2BF09E
:101240002AC0D9FF2BC0DAFF2750DF16BCEF8AF087
:10125000880E2618D8A42FEF89F031EF89F04EEFD1
:1012600089F02D50FF0A276E20EE06F02350D92674
:101270002450DA22DECF28F0DDCF29F028C0D9FFB4
:1012800029C0DAFFDECF2AF0DDCF2BF02AC0D9FF4C
:101290002BC0DAFF2750DF16BCEF8AF08C0E261821
:1012A000D8A455EF89F057EF89F0BCEF8AF02C50A5
:1012B000FF0A276E20EE06F02350D9262450DA22AA
:1012C00010EE03F0DE50E126DD50E222E6CF28F0FA
:1012D000E5CF29F028C0D9FF29C0DAFF2750DF1653
:1012E0002E50FF0A276E20EE06F02350D9262450F8
:1012F000DA2210EE03F0DE50E126DD50E222E6CFE6
:1013000028F0E5CF29F028C0D9FF29C0DAFF2750FF
:10131000DF16BCEF8AF0870E2618D8A492EF89F06A
:1013200094EF89F0ACEF89F020EE06F02350D92637
:101330002450DA2210EE03F0DE50E126DD50E222E6
:10134000E6CF27F0E5CF28F027C0D9FF28C0DAFF85
:101350002E50DF12BCEF8AF0880E2618D8A4B3EF07
:1013600089F0B5EF89F0CDEF89F020EE06F023503B
:10137000D9262450DA2210EE03F0DE50E126DD50AB
:10138000E222E6CF27F0E5CF28F027C0D9FF28C01A
:10139000DAFF2F50DF12BCEF8AF0890E2618D8A48E
:1013A000D4EF89F0D6EF89F0EEEF89F020EE06F069
:1013B0002350D9262450DA2210EE03F0DE50E12625
:1013C000DD50E222E6CF27F0E5CF28F027C0D9FF95
:1013D00028C0DAFF2D50DF12BCEF8AF08A0E2618E3
:1013E000D8A4F5EF89F0F7EF89F000EF89F020EE4F
:1013F00006F02350D9262450DA2210EE03F0DE50F6
:10140000E126DD50E222E6CF27F0E5CF28F027C025
:10141000D9FF28C0DAFF2F50DF12BCEF8AF0870E09
:101420002618D8A416EF8AF018EF8AF033EF8AF066
:101430002E50FF0A276E20EE06F02350D9262450A6
:10144000DA2210EE03F0DE50E126DD50E222E6CF94
:1014500028F0E5CF29F028C0D9FF29C0DAFF2750AE
:10146000DF16BCEF8AF0880E2618D8A43AEF8AF06F
:101470003CEF8AF057EF8AF02F50FF0A276E20EEDC
:1014800006F02350D9262450DA2210EE03F0DE5065
:10149000E126DD50E222E6CF28F0E5CF29F028C092
:1014A000D9FF29C0DAFF2750DF16BCEF8AF0890E7A
:1014B0002618D8A45EEF8AF060EF8AF07BEF8AF0FE
:1014C0002D50FF0A276E20EE06F02350D926245017
:1014D000DA2210EE03F0DE50E126DD50E222E6CF04
:1014E00028F0E5CF29F028C0D9FF29C0DAFF27501E
:1014F000DF16BCEF8AF08A0E2618D8A482EF8AF095
:1015000084EF8AF000EF89F02F50FF0A276E20EE5B
:1015100006F02350D9262450DA2210EE03F0DE50D4
:10152000E126DD50E222E6CF28F0E5CF29F028C001
:10153000D9FF29C0DAFF2750DF16BCEF8AF025500B
:10154000276E286A2850000AD8B4A9EF8AF0BCEFA9
:101550008AF02750A50AD8B4E6EF87F0030AD8B47A
:101560008BEF89F0010AD8B402EF89F00E0AD8B4E3
:101570000FEF8AF0BCEF8AF0850E126E25C013F0D3
:1015800026C014F023C0D9FF24C0DAFFDF5082EC5C
:1015900093F012009EEC95F0F28EF28C7CEC95F0BC
:1015A000D00E056E2B0E066E010E076ED8EC95F070
:1015B00019EC95F000EC95F0B4EC94F09AEC94F002
:1015C0008DEC95F08D68880E536EE7EF8AF08ABA3D
:1015D000ECEF8AF0EFEF8AF0010EF0EF8AF0000EE8
:1015E000FF0A3E6E3E3A3E468A503E18DF0B3E18DA
:1015F0008A6E4950D8A4FFEF8AF001EF8BF031EFEB
:101600008BF04A04D8A407EF8BF009EF8BF014EFAE
:101610008BF001EC92F0010E0101B227000EB32312
:10162000B423B523000E4A6E0101B551B4110BE18C
:10163000E90EB25D030EB359D8A021EF8BF023EF72
:101640008BF0E7EF8AF0000EB26F000EB36F000E62
:10165000B46F000EB56F010E496E000E8D6EE7EF90
:101660008AF04950D8B437EF8BF039EF8BF0E7EFC1
:101670008AF04A04D8A43FEF8BF041EF8BF0E7EFFC
:101680008AF001EC92F0CEEC94F0500E056E050E4F
:10169000066E000E086E600E076E200E096E010EBB
:1016A0000A6E52EC92F073EF8BF0880E5418D8A4A7
:1016B0005CEF8BF05EEF8BF088EF8BF08C0E536E4F
:1016C000640E546E88EF8BF08C0E5418D8A46BEF18
:1016D0008BF06DEF8BF088EF8BF0880E536E640EFD
:1016E000546E88EF8BF053503E6E3F6A3F50000AB5
:1016F000D8B47DEF8BF088EF8BF03E50880AD8B4D9
:1017000055EF8BF0040AD8B464EF8BF088EF8BF0C0
:10171000680E236E010E246E2FEC90F0898A680EFD
:10172000306E010E316E00EC80F0899A400E236E0F
:10173000010E246EE8EC8DF0898A400E306E010EA9
:10174000316E06EC84F0899A8984AA0E01010C6F2F
:101750003C0E0D6F000E486E48504824DF11486E55
:1017600048504824D011486E48504824C111486E52
:1017700048504824486E48504824486E48504824F1
:10178000486E48504824486E48504824486E48C027
:101790000EF1000E0F6F000E106F000E116F899486
:1017A000010E2E27000E2F2330233123315130110B
:1017B0000BE1E70E2E5D030E2F59D8A0E2EF8BF060
:1017C000E4EF8BF031EF8CF0C1EC95F005C0C4F282
:1017D00006C0C5F207C0C6F208C0C7F2AA0E0101D2
:1017E000906F9169000E0201CB6F000ECA6F920ECE
:1017F000CA25D96E010ECB21DA6ECA39E842F80B40
:10180000C4C23EF0C5C23FF0C6C240F0C7C241F0FC
:10181000E82A10EF8CF0D890413240323F323E320D
:10182000E82E0BEF8CF03E50DF6ECA4BCB2BCB512A
:1018300009E1040ECA5DD8A020EF8CF022EF8CF0F5
:10184000F7EF8BF0900E056E010E066EAEEC93F086
:10185000000E01012E6F000E2F6F000E306F000E74
:10186000316F6AEC95F0E806D8A439EF8CF03BEFC5
:101870008CF062EF8CF051EC93F005C0C8F206C01A
:10188000C9F2020120EE01F0C851D926C951DA226D
:10189000080EDE18D8A44FEF8CF051EF8CF062EFF9
:1018A0008CF089B856EF8CF059EF8CF0010E5AEF9E
:1018B0008CF0000EFF0A3E6E3E3A89503E18EF0B48
:1018C0003E18896E000E4A6EE7EF8AF03AEF00F09C
:1018D000200000000022020121000000002202027C
:1018E000220000000022020423000000002202085F
:1018F0002400000000220210250000000022022027
:101900002600000000220240270000000022028082
:101910002800000000230201290000000023020229
:101920002A000000002302042B000000002302080C
:101930002C000000002302102D00000000230220D4
:101940002E000000002302402F0000000023028030
:1019500030000000002702013100000000270202D1
:1019600032000000002702043300000000270208B4
:10197000340000000027021035000000002702207C
:1019800036000000002702403700000000270280D8
:10199000380000000028020139000000002802027F
:1019A0003A000000002802043B0000000028020862
:1019B0003C000000002802103D000000002802202A
:1019C0003E000000002802403F0000000028028086
:1019D00040000000002C020141000000002C020227
:1019E00042000000002C020443000000002C02080A
:1019F00044000000002C021045000000002C0220D2
:101A000046000000002C024047000000002C02802D
:101A100048000000002D020149000000002D0202D4
:101A20004A000000002D02044B000000002D0208B7
:101A30004C000000002D02104D000000002D02207F
:101A40004E000000002D02404F000000002D0280DB
:101A5000000000000031020101000000003102021C
:101A600002000000003102040300000000310208FF
:101A700004000000003102100500000000310220C7
:101A80000600000000310240070000000031028023
:101A900008000000003202010900000000320202CA
:101AA0000A000000003202040B00000000320208AD
:101AB0000C000000003202100D0000000032022075
:101AC0000E000000003202400F00000000320280D1
:101AD0001000000000360201110000000036020272
:101AE0001200000000360204130000000036020855
:101AF000140000000036021015000000003602201D
:101B00001600000000360240170000000036028078
:101B1000180000000037020119000000003702021F
:101B20001A000000003702041B0000000037020802
:101B30001C000000003702101D00000000370220CA
:101B40001E000000003702401F0000000037028026
:101B500050000000003B020151000000003B020267
:101B600052000000003B020453000000003B02084A
:101B700054000000003B021055000000003B022012
:101B800056000000003B024057000000003B02806E
:101B900058000000003C020159000000003C020215
:101BA0005A000000003C02045B000000003C0208F8
:101BB0005C000000003C02105D000000003C0220C0
:101BC0005E000000003C02405F000000003C02801C
:101BD000C1EC95F005C031F006C032F007C033F01B
:101BE00008C034F020EE0BF02350D9262450DA221E
:101BF000A80EDE18D8A4FFEF8DF001EF8EF08AEF6B
:101C00008EF020EE10F02350D9262450DA22DECFB9
:101C100025F0DECF26F0DECF27F0DECF28F02550EE
:101C2000315C296E265032582A6E275033582B6E5D
:101C3000285034582C6E20EE0CF02350D926245016
:101C4000DA222950DE5C2A50DE582B50DE582C5008
:101C5000DE58D8B02EEF8EF030EF8EF08AEF8EF097
:101C60008C0E5318D8A437EF8EF039EF8EF074EF46
:101C70008EF0890E5018D8A440EF8EF042EF8EF00F
:101C800074EF8EF020EE0BF02350D9262450DA2288
:101C9000A60EDF6E20EE17F02350D9262450DA224C
:101CA000A80EDE18D8A457EF8EF059EF8EF05FEF34
:101CB0008EF08A0E506E680E546E680E536E20EED3
:101CC0000BF02350D9262450DA22DF50126EA60ED4
:101CD000136E960E146E23C0D9FF24C0DAFFDF50B6
:101CE00082EC93F08AEF8EF020EE0BF02350D92691
:101CF0002450DA22A80EDF6E20EE10F02350D926F1
:101D00002450DA2231C0DEFF32C0DEFF33C0DEFFF6
:101D100034C0DEFF20EE17F02350D9262450DA22FB
:101D2000A80EDE18D8A497EF8EF099EF8EF013EF7F
:101D30008FF020EE1CF02350D9262450DA22DECF7B
:101D400025F0DECF26F0DECF27F0DECF28F02550BD
:101D5000315C296E265032582A6E275033582B6E2C
:101D6000285034582C6E20EE18F02350D9262450D9
:101D7000DA222950DE5C2A50DE582B50DE582C50D7
:101D8000DE58D8B0C6EF8EF0C8EF8EF013EF8FF0AC
:101D90008C0E5318D8A4CFEF8EF0D1EF8EF0FDEF5C
:101DA0008EF08A0E5018D8A4D8EF8EF0DAEF8EF0AD
:101DB000FDEF8EF020EE17F02350D9262450DA22C2
:101DC000A60EDF6E890E506E680E546E680E536E4E
:101DD00020EE17F02350D9262450DA22DF50126E5D
:101DE000A60E136E960E146E23C0D9FF24C0DAFF20
:101DF000DF5082EC93F013EF8FF020EE17F02350BA
:101E0000D9262450DA22A80EDF6E20EE1CF02350D3
:101E1000D9262450DA2231C0DEFF32C0DEFF33C0C3
:101E2000DEFF34C0DEFF120020EE07F00550D92699
:101E30000650DA2210EE0AF00550E1260650E222A2
:101E4000E750096E10EE08F00550E1260650E22238
:101E5000E6CF0AF0E5CF0BF00AC0E1FF0BC0E2FFCE
:101E6000E75009140009D8A438EF8FF03BEF8FF04A
:101E7000010E3CEF8FF0000EDF6E20EE06F00550F5
:101E8000D9260650DA2210EE07F00550E12606505A
:101E9000E222DE50E618D8B450EF8FF052EF8FF008
:101EA00024EF90F020EE02F00550D9260650DA22F9
:101EB000DE50DE10DE10DE10D8A461EF8FF063EF8D
:101EC0008FF077EF8FF007C0D9FF08C0DAFF10EE70
:101ED00002F00550E1260650E222DECFE6FFDECF1B
:101EE000E6FFDECFE6FFDECFE6FF2EEF90F020EE3E
:101EF00002F00550D9260650DA22DECF09F0DECFF7
:101F00000AF0DECF0BF0DECF0CF007C0D9FF08C01F
:101F1000DAFFDECF0DF0DECF0EF0DECF0FF0DECF3A
:101F200010F009500D5C116E0A500E58126E0B50D5
:101F30000F58136E0C501058146E05C0D9FF06C010
:101F4000DAFFDECF15F0DDCF16F01550176E165004
:101F5000186E196A1A6A1150175C125018581350EB
:101F6000195814501A58D8B0B8EF8FF0BAEF8FF054
:101F70002EEF90F020EE07F00550D9260650DA2219
:101F800010EE06F00550E1260650E222DFCFE7FF13
:101F900020EE02F00550D9260650DA22DE6ADE6A0B
:101FA000DE6ADD6A20EE07F00550D9260650DA22F7
:101FB000DE04D8A4DEEF8FF0E0EF8FF0F6EF8FF0C5
:101FC00020EE0EF00550D9260650DA22DF50D8B4A4
:101FD000ECEF8FF0EEEF8FF0F6EF8FF020EE0BF0DE
:101FE0000550D9260650DA22010EDF6E20EE07F0EA
:101FF0000550D9260650DA22DF50D8A402EF90F01F
:1020000004EF90F01AEF90F020EE0DF00550D92675
:102010000650DA22DF50D8B410EF90F012EF90F0B3
:102020001AEF90F020EE0BF00550D9260650DA2278
:10203000000EDF6E20EE0CF00550D9260650DA2295
:10204000010EDF6E2EEF90F020EE02F00550D92643
:102050000650DA22DE6ADE6ADE6ADD6A1200C1EC50
:1020600095F005C031F006C032F007C033F008C06B
:1020700034F020EE0BF02350D9262450DA22A80E9B
:10208000DE18D8A446EF90F048EF90F0B3EF90F050
:1020900020EE10F02350D9262450DA22DECF25F08E
:1020A000DECF26F0DECF27F0DECF28F02550315CE2
:1020B000296E265032582A6E275033582B6E2850DE
:1020C00034582C6E20EE0CF02350D9262450DA22FE
:1020D0002950DE5C2A50DE582B50DE582C50DE583A
:1020E000D8B075EF90F077EF90F0B3EF90F0880EE6
:1020F0005318D8A47EEF90F080EF90F09DEF90F011
:1021000020EE0BF02350D9262450DA22A60EDF6EE3
:1021100020EE0BF02350D9262450DA22DF50126E25
:10212000A60E136E960E146E23C0D9FF24C0DAFFDC
:10213000DF5082EC93F0B3EF90F020EE0BF02350E1
:10214000D9262450DA22A80EDF6E20EE10F023509C
:10215000D9262450DA2231C0DEFF32C0DEFF33C080
:10216000DEFF34C0DEFF20EE17F02350D9262450C6
:10217000DA22A80EDE18D8A4C0EF90F0C2EF90F0DB
:102180002DEF91F020EE1CF02350D9262450DA22B6
:10219000DECF25F0DECF26F0DECF27F0DECF28F031
:1021A0002550315C296E265032582A6E27503358FC
:1021B0002B6E285034582C6E20EE18F02350D92660
:1021C0002450DA222950DE5C2A50DE582B50DE588B
:1021D0002C50DE58D8B0EFEF90F0F1EF90F02DEFEB
:1021E00091F0880E5318D8A4F8EF90F0FAEF90F021
:1021F00017EF91F020EE17F02350D9262450DA2261
:10220000A60EDF6E20EE17F02350D9262450DA22D6
:10221000DF50126EA60E136E960E146E23C0D9FFF9
:1022200024C0DAFFDF5082EC93F02DEF91F020EE26
:1022300017F02350D9262450DA22A80EDF6E20EEA4
:102240001CF02350D9262450DA2231C0DEFF32C0E0
:10225000DEFF33C0DEFF34C0DEFF1200D00EF66EAC
:10226000180EF76E010EF86E05EE50F013EE00F04A
:102270000900F5CFEEFFE550E150FAE1E250F8E158
:10228000440EF66E250EF76E010EF86E02EE00F0AB
:1022900010EE86F00900F5CFEEFFE550E150FAE1CF
:1022A0003A0EF66E280EF76E010EF86E01EEB2F0E1
:1022B00010EE43F00900F5CFEEFFE550E150FAE1F2
:1022C000C80EF66E2B0EF76E010EF86E00EEF8F0EB
:1022D00010EE07F00900F5CFEEFFE550E150FAE10E
:1022E000D60EF66E2B0EF76E010EF86E00EE50F065
:1022F00010EE05F00900F5CFEEFFE550E150FAE1F0
:1023000005EE00F0500EEE6AE806FDE104EE00F086
:10231000B80EEE6AE806FDE103EE00F0C80EEE6AC4
:10232000E806FDE102EE86F03E0EEE6AE806FDE10B
:1023300001EE00F0B20EEE6AE806FDE100EE60F09C
:102340008E0EEE6AE806FDE100EE42F00E0EEE6A39
:10235000E806FDE1579057920001CAEF8AF0000E9F
:102360000D6E000E0E6E000E0F6E000E106E0950F8
:102370000A100B100C10D8B4C0EF91F0C2EF91F01E
:10238000F8EF91F0010E116ECCEF91F0D890093674
:102390000A360B360C36112A0CAED1EF91F0D3EF82
:1023A00091F0C6EF91F0D8900D360E360F361036FC
:1023B0000950055C0A5006580B5007580C50085835
:1023C000D8A0E5EF91F0E7EF91F0F0EF91F0095030
:1023D000055E0A50065A0B50075A0C50085A0D80D9
:1023E000D8900C320B320A320932112ED3EF91F011
:1023F0000DC005F00EC006F00FC007F010C008F0C9
:102400001200C1EC95F005C01BF006C01CF007C01F
:102410001DF008C01EF0D40E056E010E066E1B0ED8
:10242000076E000E086E14EC8FF0C50E056E010EDF
:10243000066E1B0E076E000E086E14EC8FF0B60EC3
:10244000056E010E066E1B0E076E000E086E14EC74
:102450008FF06B0E056E020E066E1B0E076E000EE1
:10246000086E14EC8FF05C0E056E020E066E1B0EED
:10247000076E000E086E14EC8FF04D0E056E020E06
:10248000066E1B0E076E000E086E14EC8FF03E0EEB
:10249000056E020E066E1B0E076E000E086E14EC23
:1024A0008FF012000AC00FF00950080DF3CF0BF0A7
:1024B000F4CF0CF00B5005240D6E0C5006200E6E60
:1024C000030E0D24D96E000E0E20DA6EDF50D8B444
:1024D0006CEF92F06EEF92F079EF92F00F50D8B46B
:1024E00074EF92F077EF92F0010E78EF92F0000E19
:1024F0000F6E0950080DF3CF0BF0F4CF0CF00B501A
:1025000005240D6E0C5006200E6E020E0D24D96EA1
:10251000000E0E20DA6E0FC0DFFF0950080DF3CF5A
:102520000BF0F4CF0CF00B5005240D6E0C50062070
:102530000E6E040E0D24D96E000E0E20DA6E010E02
:10254000DF6E1200E6FFDEFF87FFCAFF53FF96FF34
:1025500076FFCCFEB8FEE0FE2DFF1AFFBEFF07FFA0
:10256000F4FE8EFE000000002100000000220000AA
:1025700000002300000000240000000025000000EF
:1025800000260500000000000000870F8000000109
:10259000000500000000000000870F40000001005F
:1025A0000500000000000000870F2000000100056A
:1025B00000000000000000870F10000001008D0FD8
:1025C000108D0F208D0F408D0F80EAC005F0EBC0FD
:1025D00006F0ECC007F0EDC008F02D0E096E7F0E7E
:1025E0000A6E950E0B6E4C0E0C6E1CEC93F0010EE9
:1025F00005240001EA6F000E0620EB6F000E072095
:10260000EC6F000E0820ED6FEAC013F0EBC014F081
:10261000ECC015F0EDC016F0120E14EF93F0D89048
:102620001632153214321332E82E0FEF93F013C026
:1026300011F014C012F01200000E0D6E000E0E6E9E
:10264000000E0F6E000E106E05A029EF93F02BEF19
:1026500093F033EF93F009500D260A500E220B50E1
:102660000F220C501022D89009360A360B360C3641
:10267000D89008320732063205320550061007108E
:102680000810D8A446EF93F048EF93F024EF93F0AE
:102690000DC005F00EC006F00FC007F010C008F026
:1026A00012000001F451F61909E1F551F719D8B4F7
:1026B0005CEF93F05EEF93F07DEF93F0F4C009F0E0
:1026C000F5C00AF00A0EF427000EF523680E076E17
:1026D000040E086E500E0726000E08220750F45D07
:1026E0000850F559D8A077EF93F079EF93F07DEF8C
:1026F00093F0680EF46F040EF56F09C005F00AC080
:1027000006F01200176EAA0E196E17C01AF012C04A
:102710001BF013C01CF014C01DF0030E186E1850EF
:10272000156E166A020E1526000E1622190E1524B5
:10273000D96E000E1620DA6E000EDF6E182A070E14
:102740001864A5EF93F0A7EF93F08FEF93F0190EB5
:10275000056E000E066EAEEC93F0120005C0D9FFB8
:1027600006C0DAFFF2C0E1FFF3C0E2FF090EDBCFE3
:10277000E3FFE806FCE20A0E0001F227000EF32355
:10278000000E076E050E086E500E0726000E08227A
:102790000750F25D0850F359D8A0D1EF93F0D3EF72
:1027A00093F0D7EF93F0000EF26F050EF36F120067
:1027B000000E8D6E000E916E000E8C6E000E896EF6
:1027C000000E8E6E000E8A6E000E8F6E000E8B6EE7
:1027D000000E906E000E966E9768000E926E9868CE
:1027E000C30E936E9968000E946E600E956E9A6893
:1027F0000F0EC1121200010E0001F827000EF9237E
:10280000FA23FB230101F551F611F711D8B40BEFB0
:1028100094F00DEF94F01CEF94F002D81AEF94F0BE
:102820000500FA6EF551FD6EF651FE6EF751FF6E22
:10283000FA5012001CEF94F0120001000000050095
:10284000000000000000880F0400000100050000E7
:102850000000000000880F020000010005000000D9
:1028600000000000880F01000001008D0F018D0F96
:0D287000028D0F048D0F0802000000000310
:10287E009E90EEC001F0EFC002F044EC95F0010125
:10288E00F851F911FA11D8B44FEF94F051EF94F0CA
:10289E005EEF94F002D85EEF94F00500FA6EF851F8
:1028AE00FD6EF951FE6EFA51FF6EFA5012001200D3
:1028BE00F2945650D76E55C0D6FF0101FB51FC1154
:1028CE00FD11D8B46DEF94F06FEF94F07CEF94F0AF
:1028DE0002D87CEF94F00500FA6EFB51FD6EFC51B0
:1028EE00FE6EFD51FF6EFA5012001200D59C610E65
:1028FE00D76E0D0ED66ED650D7CF08F0096A08C027
:10290E0009F0086A0810556E0950566EF294F28A54
:10291E00E40E056E2B0E066E010E076ECAEC95F0D8
:10292E00970ED56E1200500E0101406F690E416F69
:10293E007A0E466F020E476FB60E486F010E496F44
:10294E00000E4A6F960E4B6FB60E546F010E556FFA
:10295E00000E566F960E576F1200460E0101686FED
:10296E00690E696FE30E6E6F010E6F6FC50E706F9D
:10297E00010E716F000E726F960E736FD40E7C6F18
:10298E00010E7D6F000E7E6F960E7F6F12006B0E26
:10299E00056E020E066E58EC95F05C0E056E020E7C
:1029AE00066E58EC95F04D0E056E020E066E58EC46
:1029BE0095F03E0E056E020E066E58EC95F0120066
:1029CE00000E086EF6EF94F0070E0864F1EF94F027
:1029DE00F3EF94F0F5EF94F0FFEF94F0082A075020
:1029EE00085CD8A0FDEF94F0FFEF94F0EBEF94F0BD
:1029FE001200E5EC92F011C0FEF112C0FFF1E5EC11
:102A0E0092F011C0FEF112C0FFF1E5EC92F011C090
:102A1E00FEF112C0FFF1E5EC92F011C0FEF112C012
:102A2E00FFF11200000E4F6E000E4E6E680E00018A
:102A3E00F66F040EF76F680EF46F040EF56F000E4E
:102A4E00F26F050EF36F000EF06F050EF16F1200B0
:102A5E00D70ECF6E4F0ECE6ECECFEEF0CFCFEFF0B5
:102A6E009E909D80E00E056E2B0E066E010E076E7B
:102A7E00D1EC95F0010ECD6E1200CDA449EF95F07C
:102A8E004BEF95F053EF95F0CD900250CF6E01C005
:102A9E00CEFFCD8057EF95F00250CF6E01C0CEFF26
:102AAE00120020EE0CF00550D9260650DA22DF5027
:102ABE00076E20EE0CF00550D9260650DA22000ED5
:102ACE00DF6E075012000001F451F61909E1F551BD
:102ADE00F719D8B475EF95F077EF95F07AEF95F08A
:102AEE00010E7BEF95F0000E1200F60E056E270E0E
:102AFE00066E010E076ED1EC95F0E20E056E2B0EF2
:102B0E00066E010E076ED8EC95F012008A968A8634
:102B1E00200E056E020E066E060E076EE7EC94F0A2
:102B2E00010EE8CF52F5010EE8CF54F51200EEEC8F
:102B3E0095F0B7EC95F0D8EC93F0DFEC95F02FEC28
:102B4E0095F07DEC94F01200010E01011E27000E8F
:102B5E001F23202321232223232324232523120072
:102B6E00800E646E080E636E000E626E190E656E38
:102B7E00639A1200F8C005F0F9C006F0FAC007F02B
:102B8E00FBC008F0120005C0FBF106C0FCF107C047
:102B9E00FDF1120005C0F8F106C0F9F107C0FAF117
:102BAE00120005C0F5F106C0F6F107C0F7F11200EC
:102BBE00000ED36EC00E9B6E1200010000000101CC
:012BCE0019ED
:0B2BD000010E4A6E120089404188642B
:0A2BDC00D09E120012001200120039
:06FFF800A0F4C5FFF8F7BC
:00000001FF
