:020000040000FA
:0600000046EF93F0120030
:020006001200E6
:06000800C6EF84F01200B7
:02000E000004EC
:04001000A3102030E9
:0400140062801200F4
:06001800CFEF84F012009E
:02001E001200CE
:10002000C22801000703000001000000C1280100F0
:100030000603000001000000AA280100860200005B
:1000400017000000A92801000503000001000000BE
:10005000A2280100DF020000070000008F28010035
:10006000B10200001300000015280100000E00007E
:100070007A00000011280100F402000004000000D2
:100080000F280100FD020000020000000E28010000
:100090000403000001000000E2270100000200004C
:1000A0002C0000008B26010003030000010000006B
:1000B000C62701006A0200001C000000C2270100E0
:1000C000F002000004000000B8270100CE0200008A
:1000D0000A000000962701002C0200002200000008
:1000E00094270100FB0200000200000064270100C9
:0800F000A20000003000000036
:0800F800D9CFE6FFE1CFD9FFEB
:10010000FE0EDB503B0DF3CFE9FFF4CFEAFF000E0C
:10011000E9260E0EEA223A0EE926000EEA22EF6ADE
:10012000E66AFE0EDBCFE6FF00EC6AF0E552E55230
:10013000E66A020EE66EFE0EDBCFE6FFCDD9E55293
:10014000E552E552010EE66EFE0EDBCFE6FFE9D981
:10015000E552E5520E01BC0E3B6F020E3C6F0E01E4
:10016000580E3D6F020E3E6F0E01BC0E006F020E68
:10017000016F0E01580E026F020E036FFE0EDB5070
:100180003B0DF3CFE9FFF4CFEAFF000EE9260E0E98
:10019000EA22040EE926000EEA22EE6A020EED6E55
:1001A0000E01430E416F010E426F0E01A80E436F08
:1001B000010E446F0E01430E066F010E076F0E0114
:1001C000A80E086F010E096FFE0EDB503B0DF3CF3A
:1001D000E9FFF4CFEAFF000EE9260E0EEA220A0E2E
:1001E000E926000EEA22EE6A020EED6EFE0EDB50EC
:1001F0003B0DF3CFE9FFF4CFEAFF000EE9260E0E28
:10020000EA220C0EE926000EEA22050EEE6EED6AD9
:10021000FE0EDB503B0DF3CFE9FFF4CFEAFF000EFB
:10022000E9260E0EEA220E0EE926000EEA22F40E50
:10023000EE6E010EED6EFE0EDB503B0DF3CFE9FFCF
:10024000F4CFEAFF000EE9260E0EEA22100EE92690
:10025000000EEA227D0EEE6EED6AFE0EDB503B0DC7
:10026000F3CFE9FFF4CFEAFF000EE9260E0EEA22F3
:10027000120EE926000EEA22030EEE6EED6AFE0E65
:10028000DB503B0DF3CFE9FFF4CFEAFF000EE92688
:100290000E0EEA22140EE926000EEA22710EEE6E10
:1002A000020EED6EFE0EDB503B0DF3CFE9FFF4CFF7
:1002B000EAFF000EE9260E0EEA22300EE926000EB5
:1002C000EA22EE6AED6AFE0EDB503B0DF3CFE9FF4A
:1002D000F4CFEAFF000EE9260E0EEA22320EE926DE
:1002E000000EEA22EE6AED6AFE0EDB503B0DF3CF04
:1002F000E9FFF4CFEAFF000EE9260E0EEA22340EE3
:10030000E926000EEA22EE6AED6AFE0EDB503B0D96
:10031000F3CFE9FFF4CFEAFF000EE9260E0EEA2242
:10032000360EE926000EEA22EE6AED6AFE0EDB507A
:100330003B0DF3CFE9FFF4CFEAFF000EE9260E0EE6
:10034000EA22380EE926000EEA22EE6AED6A0E0174
:10035000200E516F030E526F0E01580E536F020E96
:10036000546F0E01200E166F030E176F0E01580EFC
:10037000186F020E196FFE0EDB503B0DF3CFE9FF35
:10038000F4CFEAFF000EE9260E0EEA221A0EE92645
:10039000000EEA22EE6A020EED6EDF0E0E01576FBE
:1003A000586B0E01A80E596F010E5A6FDF0E0E0129
:1003B0001C6F1D6B0E01A80E1E6F010E1F6FFE0E2F
:1003C000DB503B0DF3CFE9FFF4CFEAFF000EE92647
:1003D0000E0EEA22200EE926000EEA22EE6A020E36
:1003E000ED6EFE0EDB503B0DF3CFE9FFF4CFEAFFDD
:1003F000000EE9260E0EEA22220EE926000EEA225F
:10040000EE6AED6AFE0EDB503B0DF3CFE9FFF4CF51
:10041000EAFF000EE9260E0EEA22240EE926000E5F
:10042000EA22EE6AED6AFE0EDB503B0DF3CFE9FFE8
:10043000F4CFEAFF000EE9260E0EEA22260EE92688
:10044000000EEA22EE6AED6AFE0EDB503B0DF3CFA2
:10045000E9FFF4CFEAFF000EE9260E0EEA22280E8D
:10046000E926000EEA22EE6AED6AFE0EDB503B0D35
:10047000F3CFE9FFF4CFEAFF000EE9260E0EEA22E1
:100480002A0EE926000EEA22EE6AED6AFE0EDB5025
:100490003B0DF3CFE9FFF4CFEAFF000EE9260E0E85
:1004A000EA222C0EE926000EEA22EE6AED6AFE0E22
:1004B000DB503B0DF3CFE9FFF4CFEAFF000EE92656
:1004C0000E0EEA222E0EE926000EEA22EE6AED6AF0
:1004D000E552E7CFD9FF1200D9CFE6FFE1CFD9FF30
:1004E000FE0EDB500EE0010A01E016D0FC0EDBCF61
:1004F000E6FFFD0EDBCFE6FF13EC92F0E552E5528E
:100500000CD0FC0EDBCFE6FFFD0EDBCFE6FF42ECAE
:1005100092F0E552E55201D000D0E552E7CFD9FF85
:100520001200D9CFE6FFE1CFD9FFFE0EDB500EE07F
:10053000010A01E016D0FD0EDB5002E0000E01D0F2
:10054000010EE8B08684E8A086940CD0FD0EDB5046
:1005500002E0000E01D0010EE8B08280E8A0829097
:1005600001D000D0E552E7CFD9FF1200D9CFE6FF86
:10057000E1CFD9FFFE0EDB503B0DF3CFE9FFF4CF07
:10058000EAFF000EE9260E0EEA223A0EE926000ED8
:10059000EA22EF50080A02E173EF0EF00F0A02E1BF
:1005A00054EF0DF0010A02E103EF0DF0030A02E13E
:1005B00053EF0CF0010A02E18CEF08F0070A01E1A9
:1005C0007DD2010A01E196D1030A01E1B7D0010A07
:1005D00002E06FEF0FF0FE0EDBCFE6FF57EC68F0A6
:1005E000E552000910E1FE0EDBCFE6FFD4EC68F027
:1005F000E552000908E1FE0EDBCFE6FFA2EC68F051
:10060000E55200094FE0FE0EDB503B0DF3CFE9FF52
:10061000F4CFEAFF000EE9260E0EEA223A0EE92692
:10062000000EEA22EF6AE66AFE0EDBCFE6FF00EC80
:100630006AF0E552E552E66A020EE66EFE0EDBCF88
:10064000E6FF4ADFE552E552E552010EE66EFE0E88
:10065000DBCFE6FF66DFE552E552FE0EDBCFE6FFBD
:1006600057EC68F0E552000904E00E010C0E766FBD
:1006700017D0FE0EDBCFE6FFD4EC68F0E5520009A0
:1006800004E00E010D0E766F0BD0FE0EDBCFE6FF01
:10069000A2EC68F0E552000903E00E010E0E766F41
:1006A00083EF0FF00E017669FE0EDB503B0DF3CFAA
:1006B000E9FFF4CFEAFF000EE9260E0EEA22200E33
:1006C000E926000EEA22EECF14F0EFCF15F0FE0E71
:1006D000DB503B0DF3CFE9FFF4CFEAFF000EE92634
:1006E0000E0EEA22280EE926000EEA2214C0EEFFC2
:1006F00015C0EDFFE66AFE0EDBCFE6FF1AEC6AF0EE
:10070000E552E552010EE66EFE0EDBCFE6FF82EC0F
:100710006AF0E552E552FE0EDB503B0DF3CFE9FFE8
:10072000F4CFEAFF000EE9260E0EEA223A0EE92681
:10073000000EEA22010EEF6E83EF0FF00E017669D4
:10074000010EE66EFE0EDBCFE6FF00EC6AF0E5522E
:10075000E552E66AFE0EDBCFE6FFE3DEE552E55248
:10076000FE0EDB503B0DF3CFE9FFF4CFEAFF000EA6
:10077000E9260E0EEA22280EE926000EEA22EECF26
:10078000E6FFEFCFE6FFFE0EDBCFE6FFA5DEE5528C
:10079000E552E552FE0EDB503B0DF3CFE9FFF4CFFF
:1007A000EAFF000EE9260E0EEA22280EE926000EC8
:1007B000EA22EECF14F0EFCF15F0FE0EDB503B0D2A
:1007C000F3CFE9FFF4CFEAFF000EE9260E0EEA228E
:1007D0001C0EE926000EEA22EECF16F0EFCF17F03E
:1007E0001450165C1550175811E3FE0EDB503B0DEC
:1007F000F3CFE9FFF4CFEAFF000EE9260E0EEA225E
:100800003A0EE926000EEA22020EEF6EFE0EDB50D3
:100810003B0DF3CFE9FFF4CFEAFF000EE9260E0E01
:10082000EA222C0EE926000EEA22EECF14F0EFCFDA
:1008300015F0FE0EDB503B0DF3CFE9FFF4CFEAFFDE
:10084000000EE9260E0EEA22120EE926000EEA221A
:10085000EECF16F0EFCF17F01650145C1750155866
:1008600035E3FE0EDB503B0DF3CFE9FFF4CFEAFF9B
:10087000000EE9260E0EEA22280EE926000EEA22D4
:10088000EE06000EEF5AFE0EDB503B0DF3CFE9FFF4
:10089000F4CFEAFF000EE9260E0EEA22280EE92622
:1008A000000EEA22EE06000EEF5AFE0EDB503B0D64
:1008B000F3CFE9FFF4CFEAFF000EE9260E0EEA229D
:1008C0002C0EE926000EEA22EE6AED6AFE0EDB50DF
:1008D0003B0DF3CFE9FFF4CFEAFF000EE9260E0E41
:1008E000EA222C0EE926000EEA22EE2A000EEF2262
:1008F00083EF0FF0FE0EDBCFE6FF57EC68F0E5521A
:10090000000910E1FE0EDBCFE6FFD4EC68F0E55203
:10091000000908E1FE0EDBCFE6FFA2EC68F0E5522D
:10092000000950E0FE0EDBCFE6FF57EC68F0E55221
:10093000000904E00E010C0E766F17D0FE0EDBCF1F
:10094000E6FFD4EC68F0E552000904E00E010D0E5C
:10095000766F0BD0FE0EDBCFE6FFA2EC68F0E5521F
:10096000000903E00E010E0E766FFE0EDB503B0D0C
:10097000F3CFE9FFF4CFEAFF000EE9260E0EEA22DC
:100980003A0EE926000EEA22EF6A010EE66EFE0E2E
:10099000DBCFE6FF00EC6AF0E552E552E66A020EB4
:1009A000E66EFE0EDBCFE6FF97DDE552E552E5523F
:1009B000010EE66EFE0EDBCFE6FFB3DDE552E5523B
:1009C00083EF0FF00E017669FE0EDB503B0DF3CF87
:1009D000E9FFF4CFEAFF000EE9260E0EEA222C0E04
:1009E000E926000EEA22EE6AED6AFE0EDB503B0DB0
:1009F000F3CFE9FFF4CFEAFF000EE9260E0EEA225C
:100A00002A0EE926000EEA22EE2A000EEF22FE0E42
:100A1000DBCFE6FF0CEC68F0E55200094DE1FE0E7D
:100A2000DB503B0DF3CFE9FFF4CFEAFF000EE926E0
:100A30000E0EEA222A0EE926000EEA22EECF14F06C
:100A4000EFCF15F0FE0EDB503B0DF3CFE9FFF4CFF7
:100A5000EAFF000EE9260E0EEA220C0EE926000E31
:100A6000EA22EECF16F0EFCF17F01450165C1550B7
:100A7000175822E2FE0EDB503B0DF3CFE9FFF4CF17
:100A8000EAFF000EE9260E0EEA223A0EE926000ED3
:100A9000EA22030EEF6EFE0EDB503B0DF3CFE9FFB3
:100AA000F4CFEAFF000EE9260E0EEA222A0EE9260E
:100AB000000EEA22EE6AED6A83EF0FF0FE0EDBCF46
:100AC000E6FF57EC68F0E552000910E1FE0EDBCFBF
:100AD000E6FFD4EC68F0E552000908E1FE0EDBCF3A
:100AE000E6FFA2EC68F0E552000960E0FE0EDBCF05
:100AF000E6FF57EC68F0E552000904E00E010C0E29
:100B0000766F17D0FE0EDBCFE6FFD4EC68F0E5522F
:100B1000000904E00E010D0E766F0BD0FE0EDBCF48
:100B2000E6FFA2EC68F0E552000903E00E010E0EAC
:100B3000766FFE0EDB503B0DF3CFE9FFF4CFEAFFFB
:100B4000000EE9260E0EEA223A0EE926000EEA22EF
:100B5000EF6AE66AFE0EDBCFE6FF00EC6AF0E552D4
:100B6000E552FE0EDB503B0DF3CFE9FFF4CFEAFF79
:100B7000000EE9260E0EEA22380EE926000EEA22C1
:100B8000EE6AED6AE66A020EE66EFE0EDBCFE6FF67
:100B9000A3DCE552E552E552010EE66EFE0EDBCF18
:100BA000E6FFBFDCE552E55283EF0FF0FE0EDB50AF
:100BB0003B0DF3CFE9FFF4CFEAFF000EE9260E0E5E
:100BC000EA22320EE926000EEA22EECF14F0EFCF31
:100BD00015F0030E141801E1155001E105D2020EC3
:100BE000141801E1155001E17FD0010E141801E144
:100BF000155066E0145001E1155001E042D2FE0E9E
:100C0000DB5002E0000E01D0010EE96EEA6AE9BE97
:100C1000EA683B0EEA02F3CFEAFF3B0EE902F3CFAC
:100C2000E9FFF450EA26000EE9260E0EEA22380EFD
:100C3000E926000EEA22EE50ED1030E1FE0EDB5008
:100C40003B0DF3CFE9FFF4CFEAFF000EE9260E0ECD
:100C5000EA22380EE926000EEA22010EEE6EED6A57
:100C6000FE0EDB0403E1090EC26E05D0FE0EDB5062
:100C700002E10D0EC26EFE0EDB503B0DF3CFE9FF1D
:100C8000F4CFEAFF000EE9260E0EEA22320EE92624
:100C9000000EEA22010EEE6EED6A11D0FE0EDB5060
:100CA0003B0DF3CFE9FFF4CFEAFF000EE9260E0E6D
:100CB000EA22320EE926000EEA22EE6AED6AF3D14C
:100CC000C282FE0EDB503B0DF3CFE9FFF4CFEAFF0B
:100CD000000EE9260E0EEA22320EE926000EEA2266
:100CE000020EEE6EED6ADFD1C2B27DD1C450166E37
:100CF00016C017F0166AC35000011610146E17C004
:100D000015F0FE0EDB503B0DF3CFE9FFF4CFEAFF09
:100D1000000EE9260E0EEA22340EE926000EEA2223
:100D200014C0EEFF15C0EDFFFE0EDB503B0DF3CF00
:100D3000E9FFF4CFEAFF000EE9260E0EEA22340E98
:100D4000E926000EEA22EECF14F0EFCF15F0D00E18
:100D5000145C020E15582EE3FE0EDB503B0DF3CF54
:100D6000E9FFF4CFEAFF000EE9260E0EEA22280E74
:100D7000E926000EEA22EE2A000EEF22FE0EDB50DC
:100D80003B0DF3CFE9FFF4CFEAFF000EE9260E0E8C
:100D9000EA22280EE926000EEA22EECFE6FFEFCF88
:100DA000E6FFFE0EDBCFE6FF6CEC02F0E552E5520B
:100DB000E552A4D0FE0EDB503B0DF3CFE9FFF4CF9C
:100DC000EAFF000EE9260E0EEA22340EE926000E96
:100DD000EA22BC0ED880EE54020EED5465E3FE0EFE
:100DE000DB503B0DF3CFE9FFF4CFEAFF000EE9261D
:100DF0000E0EEA22340EE926000EEA22320ED880C8
:100E0000EE54000EED5450E2FE0EDB503B0DF3CFDE
:100E1000E9FFF4CFEAFF000EE9260E0EEA22360EB5
:100E2000E926000EEA22EE6AED6AFE0EDB503B0D6B
:100E3000F3CFE9FFF4CFEAFF000EE9260E0EEA2217
:100E4000280EE926000EEA22EE06000EEF5AFE0EEC
:100E5000DB503B0DF3CFE9FFF4CFEAFF000EE926AC
:100E60000E0EEA22280EE926000EEA22EECFE6FF59
:100E7000EFCFE6FFFE0EDBCFE6FF6CEC02F0E552B3
:100E8000E552E552FE0EDB503B0DF3CFE9FFF4CF08
:100E9000EAFF000EE9260E0EEA22360EE926000EC3
:100EA000EA22EE6AED6A2AD0FE0EDB503B0DF3CF4C
:100EB000E9FFF4CFEAFF000EE9260E0EEA22340E17
:100EC000E926000EEA22EECF14F0EFCF15F0320E35
:100ED000145C000E155812E2FE0EDB503B0DF3CFF2
:100EE000E9FFF4CFEAFF000EE9260E0EEA22360EE5
:100EF000E926000EEA22EE2A000EEF22FE0EDB505B
:100F00003B0DF3CFE9FFF4CFEAFF000EE9260E0E0A
:100F1000EA22360EE926000EEA22640ED880EE544C
:100F2000000EED543DE2FE0EDB503B0DF3CFE9FF2A
:100F3000F4CFEAFF000EE9260E0EEA22360EE9266D
:100F4000000EEA22EE6AED6AFE0EDB503B0DF3CF97
:100F5000E9FFF4CFEAFF000EE9260E0EEA223A0E70
:100F6000E926000EEA22050EEF6EFE0EDB503B0D69
:100F7000F3CFE9FFF4CFEAFF000EE9260E0EEA22D6
:100F8000080EE926000EEA22EECFE6FFEFCFE6FFDD
:100F9000FE0EDBCFE6FF6CEC02F0E552E552E552C7
:100FA000FE0EDB503B0DF3CFE9FFF4CFEAFF000E5E
:100FB000E9260E0EEA22320EE926000EEA22030E80
:100FC000EE6EED6AFE0EDB503B0DF3CFE9FFF4CF82
:100FD000EAFF000EE9260E0EEA22380EE926000E80
:100FE000EA22EE6AED6A5FD0FE0EDB503B0DF3CFD6
:100FF000E9FFF4CFEAFF000EE9260E0EEA22300EDA
:10100000E926000EEA22EECF14F0EFCF15F0050E20
:10101000145C000E155822E3FE0EDB503B0DF3CF9F
:10102000E9FFF4CFEAFF000EE9260E0EEA22300EA9
:10103000E926000EEA22EE6AED6AFE0EDB503B0D59
:10104000F3CFE9FFF4CFEAFF000EE9260E0EEA2205
:10105000320EE926000EEA22EE6AED6AFE0EDB5041
:101060003B0DF3CFE9FFF4CFEAFF000EE9260E0EA9
:10107000EA22300EE926000EEA22EE2A000EEF22C6
:1010800012D0FE0EDB503B0DF3CFE9FFF4CFEAFFA9
:10109000000EE9260E0EEA22320EE926000EEA22A2
:1010A000040EEE6EED6A0E017669FE0EDBCFE6FFF2
:1010B0000CEC68F0E55201082DE1FE0EDBCFE6FFF7
:1010C00051EC69F0E552146EFC0EDB50145C22E129
:1010D000FE0EDB503B0DF3CFE9FFF4CFEAFF000E2D
:1010E000E9260E0EEA22380EE926000EEA22EE6A02
:1010F000ED6AFE0EDB503B0DF3CFE9FFF4CFEAFFC4
:10110000000EE9260E0EEA223A0EE926000EEA2229
:10111000040EEF6E83EF0FF0FE0EDBCFE6FF57EC11
:1011200068F0E552000910E1FE0EDBCFE6FFD4ECDB
:1011300068F0E552000908E1FE0EDBCFE6FFA2EC05
:1011400068F0E552000972E0FE0EDBCFE6FF57ECD7
:1011500068F0E552000904E00E010C0E766F17D01E
:10116000FE0EDBCFE6FFD4EC68F0E552000904E0A8
:101170000E010D0E766F0BD0FE0EDBCFE6FFA2EC5C
:1011800068F0E552000903E00E010E0E766FFE0EC8
:10119000DB503B0DF3CFE9FFF4CFEAFF000EE92669
:1011A0000E0EEA223A0EE926000EEA22EF6AE66AFD
:1011B000FE0EDBCFE6FF00EC6AF0E552E552FE0ED4
:1011C000DB503B0DF3CFE9FFF4CFEAFF000EE92639
:1011D0000E0EEA22380EE926000EEA22EE6AED6AC9
:1011E000FE0EDB503B0DF3CFE9FFF4CFEAFF000E1C
:1011F000E9260E0EEA223A0EE926000EEA22EF6AEE
:10120000E66A020EE66EFE0EDBCFE6FF6CEC02F045
:10121000E552E552E552010EE66EFE0EDBCFE6FF2B
:1012200091EC02F0E552E55283EF0FF0FE0EDB5039
:101230003B0DF3CFE9FFF4CFEAFF000EE9260E0ED7
:10124000EA22320EE926000EEA22EECF14F0EFCFAA
:1012500015F0030E141801E1155001E105D2020E3C
:10126000141801E1155001E17FD0010E141801E1BD
:10127000155066E0145001E1155001E042D2FE0E17
:10128000DB5002E0000E01D0010EE96EEA6AE9BE11
:10129000EA683B0EEA02F3CFEAFF3B0EE902F3CF26
:1012A000E9FFF450EA26000EE9260E0EEA22380E77
:1012B000E926000EEA22EE50ED1030E1FE0EDB5082
:1012C0003B0DF3CFE9FFF4CFEAFF000EE9260E0E47
:1012D000EA22380EE926000EEA22010EEE6EED6AD1
:1012E000FE0EDB0403E1090EC26E05D0FE0EDB50DC
:1012F00002E10D0EC26EFE0EDB503B0DF3CFE9FF97
:10130000F4CFEAFF000EE9260E0EEA22320EE9269D
:10131000000EEA22010EEE6EED6A11D0FE0EDB50D9
:101320003B0DF3CFE9FFF4CFEAFF000EE9260E0EE6
:10133000EA22320EE926000EEA22EE6AED6AF3D1C5
:10134000C282FE0EDB503B0DF3CFE9FFF4CFEAFF84
:10135000000EE9260E0EEA22320EE926000EEA22DF
:10136000020EEE6EED6ADFD1C2B27DD1C450166EB0
:1013700016C017F0166AC35000011610146E17C07D
:1013800015F0FE0EDB503B0DF3CFE9FFF4CFEAFF83
:10139000000EE9260E0EEA22340EE926000EEA229D
:1013A00014C0EEFF15C0EDFFFE0EDB503B0DF3CF7A
:1013B000E9FFF4CFEAFF000EE9260E0EEA22340E12
:1013C000E926000EEA22EECF14F0EFCF15F0180E4A
:1013D000145C010E15582EE3FE0EDB503B0DF3CFCF
:1013E000E9FFF4CFEAFF000EE9260E0EEA22280EEE
:1013F000E926000EEA22EE2A000EEF22FE0EDB5056
:101400003B0DF3CFE9FFF4CFEAFF000EE9260E0E05
:10141000EA22280EE926000EEA22EECFE6FFEFCF01
:10142000E6FFFE0EDBCFE6FF6CEC02F0E552E55284
:10143000E552A4D0FE0EDB503B0DF3CFE9FFF4CF15
:10144000EAFF000EE9260E0EEA22340EE926000E0F
:10145000EA22040ED880EE54010EED5465E3FE0E30
:10146000DB503B0DF3CFE9FFF4CFEAFF000EE92696
:101470000E0EEA22340EE926000EEA22320ED88041
:10148000EE54000EED5450E2FE0EDB503B0DF3CF58
:10149000E9FFF4CFEAFF000EE9260E0EEA22360E2F
:1014A000E926000EEA22EE6AED6AFE0EDB503B0DE5
:1014B000F3CFE9FFF4CFEAFF000EE9260E0EEA2291
:1014C000280EE926000EEA22EE06000EEF5AFE0E66
:1014D000DB503B0DF3CFE9FFF4CFEAFF000EE92626
:1014E0000E0EEA22280EE926000EEA22EECFE6FFD3
:1014F000EFCFE6FFFE0EDBCFE6FF6CEC02F0E5522D
:10150000E552E552FE0EDB503B0DF3CFE9FFF4CF81
:10151000EAFF000EE9260E0EEA22360EE926000E3C
:10152000EA22EE6AED6A2AD0FE0EDB503B0DF3CFC5
:10153000E9FFF4CFEAFF000EE9260E0EEA22340E90
:10154000E926000EEA22EECF14F0EFCF15F0320EAE
:10155000145C000E155812E2FE0EDB503B0DF3CF6B
:10156000E9FFF4CFEAFF000EE9260E0EEA22360E5E
:10157000E926000EEA22EE2A000EEF22FE0EDB50D4
:101580003B0DF3CFE9FFF4CFEAFF000EE9260E0E84
:10159000EA22360EE926000EEA22640ED880EE54C6
:1015A000000EED543DE2FE0EDB503B0DF3CFE9FFA4
:1015B000F4CFEAFF000EE9260E0EEA22360EE926E7
:1015C000000EEA22EE6AED6AFE0EDB503B0DF3CF11
:1015D000E9FFF4CFEAFF000EE9260E0EEA223A0EEA
:1015E000E926000EEA22050EEF6EFE0EDB503B0DE3
:1015F000F3CFE9FFF4CFEAFF000EE9260E0EEA2250
:10160000080EE926000EEA22EECFE6FFEFCFE6FF56
:10161000FE0EDBCFE6FF6CEC02F0E552E552E55240
:10162000FE0EDB503B0DF3CFE9FFF4CFEAFF000ED7
:10163000E9260E0EEA22320EE926000EEA22030EF9
:10164000EE6EED6AFE0EDB503B0DF3CFE9FFF4CFFB
:10165000EAFF000EE9260E0EEA22380EE926000EF9
:10166000EA22EE6AED6A5FD0FE0EDB503B0DF3CF4F
:10167000E9FFF4CFEAFF000EE9260E0EEA22300E53
:10168000E926000EEA22EECF14F0EFCF15F0010E9E
:10169000145C000E155822E3FE0EDB503B0DF3CF19
:1016A000E9FFF4CFEAFF000EE9260E0EEA22300E23
:1016B000E926000EEA22EE6AED6AFE0EDB503B0DD3
:1016C000F3CFE9FFF4CFEAFF000EE9260E0EEA227F
:1016D000320EE926000EEA22EE6AED6AFE0EDB50BB
:1016E0003B0DF3CFE9FFF4CFEAFF000EE9260E0E23
:1016F000EA22300EE926000EEA22EE2A000EEF2240
:1017000012D0FE0EDB503B0DF3CFE9FFF4CFEAFF22
:10171000000EE9260E0EEA22320EE926000EEA221B
:10172000EE6AED6A00D0FE0EDB503B0DF3CFE9FF11
:10173000F4CFEAFF000EE9260E0EEA222A0EE92671
:10174000000EEA22EE2A000EEF22FE0EDB503B0DC9
:10175000F3CFE9FFF4CFEAFF000EE9260E0EEA22EE
:101760002A0EE926000EEA22C80ED880EE54000E9A
:10177000ED5401E395D0FE0EDB503B0DF3CFE9FFB6
:10178000F4CFEAFF000EE9260E0EEA222A0EE92621
:10179000000EEA22C80EEE6EED6AFE0EDBCFE6FF0B
:1017A0000CEC68F0E552010801E07AD0FE0EDB5047
:1017B0003B0DF3CFE9FFF4CFEAFF000EE9260E0E52
:1017C000EA22100EE926000EEA22EE06000EEF5A7B
:1017D000FE0EDB503B0DF3CFE9FFF4CFEAFF000E26
:1017E000E9260E0EEA22100EE926000EEA22EECFBE
:1017F00014F0EFCF15F0010E145C000E155850E2F6
:10180000FE0EDB503B0DF3CFE9FFF4CFEAFF000EF5
:10181000E9260E0EEA22380EE926000EEA22EE6ACA
:10182000ED6AFE0EDB503B0DF3CFE9FFF4CFEAFF8C
:10183000000EE9260E0EEA222A0EE926000EEA2202
:10184000EE6AED6AFE0EDB503B0DF3CFE9FFF4CFFD
:10185000EAFF000EE9260E0EEA22100EE926000E1F
:10186000EA227D0EEE6EED6AFE0EDB503B0DF3CFED
:10187000E9FFF4CFEAFF000EE9260E0EEA223A0E47
:10188000E926000EEA22060EEF6EE66A020EE66E0A
:10189000FE0EDBCFE6FF6CEC02F0E552E552E552BE
:1018A0000E01766930D3FE0EDBCFE6FF57EC68F011
:1018B000E552000910E1FE0EDBCFE6FFD4EC68F044
:1018C000E552000908E1FE0EDBCFE6FFA2EC68F06E
:1018D000E552000971E0FE0EDBCFE6FF57EC68F041
:1018E000E552000904E00E010C0E766F17D0FE0ED3
:1018F000DBCFE6FFD4EC68F0E552000904E00E010E
:101900000D0E766F0BD0FE0EDBCFE6FFA2EC68F07B
:10191000E552000903E00E010E0E766FFE0EDB505D
:101920003B0DF3CFE9FFF4CFEAFF000EE9260E0EE0
:10193000EA223A0EE926000EEA22EF6AE66AFE0E75
:10194000DBCFE6FF00EC6AF0E552E552FE0EDB501D
:101950003B0DF3CFE9FFF4CFEAFF000EE9260E0EB0
:10196000EA22380EE926000EEA22EE6AED6AFE0E41
:10197000DB503B0DF3CFE9FFF4CFEAFF000EE92681
:101980000E0EEA223A0EE926000EEA22EF6AE66A15
:10199000020EE66EFE0EDBCFE6FF6CEC02F0E552C7
:1019A000E552E552010EE66EFE0EDBCFE6FF91EC4E
:1019B00002F0E552E552A7D20E017669FE0EDBCFAA
:1019C000E6FF0CEC68F0E55201081CE1FE0EDB506E
:1019D0003B0DF3CFE9FFF4CFEAFF000EE9260E0E30
:1019E000EA223A0EE926000EEA22060EEF6EE66AB9
:1019F000020EE66EFE0EDBCFE6FF6CEC02F0E55267
:101A0000E552E55280D20E017669FE0EDB503B0DA9
:101A1000F3CFE9FFF4CFEAFF000EE9260E0EEA222B
:101A20002A0EE926000EEA22EE2A000EEF22FE0E12
:101A3000DB503B0DF3CFE9FFF4CFEAFF000EE926C0
:101A40000E0EEA222A0EE926000EEA22EECF14F04C
:101A5000EFCF15F0FE0EDB503B0DF3CFE9FFF4CFD7
:101A6000EAFF000EE9260E0EEA220E0EE926000E0F
:101A7000EA22EECF16F0EFCF17F01650145C175095
:101A8000155811E3FE0EDB503B0DF3CFE9FFF4CF09
:101A9000EAFF000EE9260E0EEA223A0EE926000EB3
:101AA000EA22070EEF6E2FD2FE0EDBCFE6FF57ECD9
:101AB00068F0E552000910E1FE0EDBCFE6FFD4EC42
:101AC00068F0E552000908E1FE0EDBCFE6FFA2EC6C
:101AD00068F0E552000971E0FE0EDBCFE6FF57EC3F
:101AE00068F0E552000904E00E010C0E766F17D085
:101AF000FE0EDBCFE6FFD4EC68F0E552000904E00F
:101B00000E010D0E766F0BD0FE0EDBCFE6FFA2ECC2
:101B100068F0E552000903E00E010E0E766FFE0E2E
:101B2000DB503B0DF3CFE9FFF4CFEAFF000EE926CF
:101B30000E0EEA223A0EE926000EEA22EF6AE66A63
:101B4000FE0EDBCFE6FF00EC6AF0E552E552FE0E3A
:101B5000DB503B0DF3CFE9FFF4CFEAFF000EE9269F
:101B60000E0EEA22380EE926000EEA22EE6AED6A2F
:101B7000FE0EDB503B0DF3CFE9FFF4CFEAFF000E82
:101B8000E9260E0EEA223A0EE926000EEA22EF6A54
:101B9000E66A020EE66EFE0EDBCFE6FF6CEC02F0AC
:101BA000E552E552E552010EE66EFE0EDBCFE6FF92
:101BB00091EC02F0E552E552A6D10E017669FE0ED7
:101BC000DBCFE6FF0CEC68F0E552010857E1E66A6E
:101BD000FE0EDBCFE6FF00EC6AF0E552E552FE0EAA
:101BE000DB503B0DF3CFE9FFF4CFEAFF000EE9260F
:101BF0000E0EEA223A0EE926000EEA22EF6AE66AA3
:101C0000020EE66EFE0EDBCFE6FF6CEC02F0E55254
:101C1000E552E552010EE66EFE0EDBCFE6FF91ECDB
:101C200002F0E552E552FE0EDB503B0DF3CFE9FF2B
:101C3000F4CFEAFF000EE9260E0EEA22380EE9265E
:101C4000000EEA22EE6AED6AFE0EDBCFE6FFCDEC77
:101C50003EF0E552010EE66EFE0EDBCFE6FF1AEC1B
:101C60006AF0E552E552E66AFE0EDBCFE6FF82EC53
:101C70006AF0E552E5520E01766B45D1FE0EDBCFE0
:101C8000E6FF0CEC68F0E55200092CE1FE0EDB509B
:101C90003B0DF3CFE9FFF4CFEAFF000EE9260E0E6D
:101CA000EA223A0EE926000EEA22080EEF6EFE0E38
:101CB000DB503B0DF3CFE9FFF4CFEAFF000EE9263E
:101CC0000E0EEA22020EE926000EEA22EECFE6FF11
:101CD000EFCFE6FFFE0EDBCFE6FF6CEC02F0E55245
:101CE000E552E55210D1FE0EDBCFE6FF70EC68F056
:101CF000E552000910E1FE0EDBCFE6FFD4EC68F000
:101D0000E552000908E1FE0EDBCFE6FFA2EC68F029
:101D1000E552000971E0FE0EDBCFE6FF70EC68F0E3
:101D2000E552000904E00E010A0E766F17D0FE0E90
:101D3000DBCFE6FFD4EC68F0E552000904E00E01C9
:101D40000D0E766F0BD0FE0EDBCFE6FFA2EC68F037
:101D5000E552000903E00E010E0E766FFE0EDB5019
:101D60003B0DF3CFE9FFF4CFEAFF000EE9260E0E9C
:101D7000EA223A0EE926000EEA22EF6AE66AFE0E31
:101D8000DBCFE6FF00EC6AF0E552E552FE0EDB50D9
:101D90003B0DF3CFE9FFF4CFEAFF000EE9260E0E6C
:101DA000EA22380EE926000EEA22EE6AED6AFE0EFD
:101DB000DB503B0DF3CFE9FFF4CFEAFF000EE9263D
:101DC0000E0EEA223A0EE926000EEA22EF6AE66AD1
:101DD000020EE66EFE0EDBCFE6FF6CEC02F0E55283
:101DE000E552E552010EE66EFE0EDBCFE6FF91EC0A
:101DF00002F0E552E55287D00E017669FE0EDBCF88
:101E0000E6FF0CEC68F0E552010868E1E66AFE0EB8
:101E1000DBCFE6FF00EC6AF0E552E552FE0EDB5048
:101E20003B0DF3CFE9FFF4CFEAFF000EE9260E0EDB
:101E3000EA223A0EE926000EEA22EF6AE66A020E6C
:101E4000E66EFE0EDBCFE6FF6CEC02F0E552E552EB
:101E5000E552010EE66EFE0EDBCFE6FF91EC02F0DE
:101E6000E552E552FE0EDB503B0DF3CFE9FFF4CF18
:101E7000EAFF000EE9260E0EEA222A0EE926000EDF
:101E8000EA22EE6AED6AFE0EDB503B0DF3CFE9FF6E
:101E9000F4CFEAFF000EE9260E0EEA22380EE926FC
:101EA000000EEA22EE6AED6AFE0EDBCFE6FFCDEC15
:101EB0003EF0E552010EE66EFE0EDBCFE6FF1AECB9
:101EC0006AF0E552E552E66AFE0EDBCFE6FF82ECF1
:101ED0006AF0E552E5520E01766B15D014D0FE0E75
:101EE000DB503B0DF3CFE9FFF4CFEAFF000EE9260C
:101EF0000E0EEA223A0EE926000EEA22EF6A0E01E1
:101F0000EE0E766F00D00E01765100D0E552E7CF8D
:101F1000D9FF1200D9CFE6FFE1CFD9FFFE0EDB508B
:101F20003B0DF3CFE9FFF4CFEAFF000EE9260E0EDA
:101F3000EA223A0EE926000EEA22EF50080A02E1F0
:101F400056EF1BF00F0A02E148EF1AF0010A02E116
:101F5000F7EF19F0030A02E157EF19F0010A02E165
:101F6000D1EF15F0070A01E171D2010A01E188D130
:101F7000030A01E1B9D0010A02E068EF1CF0FE0E8D
:101F8000DBCFE6FF57EC68F0E552000910E1FE0EEA
:101F9000DBCFE6FFD4EC68F0E552000908E1FE0E65
:101FA000DBCFE6FFA2EC68F0E552000951E0FE0E3F
:101FB000DB503B0DF3CFE9FFF4CFEAFF000EE9263B
:101FC0000E0EEA223A0EE926000EEA22EF6AE66ACF
:101FD000FE0EDBCFE6FF00EC6AF0E552E552E66A62
:101FE000020EE66EFE0EDBCFE6FF6CEC02F0E55271
:101FF000E552E552010EE66EFE0EDBCFE6FF91ECF8
:1020000002F0E552E552FE0EDBCFE6FF57EC68F03A
:10201000E552000904E00E010C0E776F17D0FE0E9A
:10202000DBCFE6FFD4EC68F0E552000904E00E01D6
:102030000D0E776F0BD0FE0EDBCFE6FFA2EC68F043
:10204000E552000903E00E010E0E776F7CEF1CF0E5
:102050000E017769FE0EDB503B0DF3CFE9FFF4CFA5
:10206000EAFF000EE9260E0EEA220A0EE926000E0D
:10207000EA22EECF14F0EFCF15F0FE0EDB503B0D51
:10208000F3CFE9FFF4CFEAFF000EE9260E0EEA22B5
:10209000240EE926000EEA2214C0EEFF15C0EDFF63
:1020A000E66AFE0EDBCFE6FF1AEC6AF0E552E55277
:1020B000010EE66EFE0EDBCFE6FF82EC6AF0E55223
:1020C000E552FE0EDB503B0DF3CFE9FFF4CFEAFF04
:1020D000000EE9260E0EEA223A0EE926000EEA224A
:1020E000010EEF6E7CEF1CF0010EE66EFE0EDBCFF4
:1020F000E6FF00EC6AF0E552E552E66AFE0EDBCF41
:10210000E6FF91EC02F0E552E552FE0EDB503B0D8E
:10211000F3CFE9FFF4CFEAFF000EE9260E0EEA2224
:10212000240EE926000EEA22EECFE6FFEFCFE6FF0F
:10213000FE0EDBCFE6FF6CEC02F0E552E552E55215
:10214000FE0EDB503B0DF3CFE9FFF4CFEAFF000EAC
:10215000E9260E0EEA22240EE926000EEA22EECF30
:1021600014F0EFCF15F0FE0EDB503B0DF3CFE9FF7F
:10217000F4CFEAFF000EE9260E0EEA22060EE9264B
:10218000000EEA22EECF16F0EFCF17F01450165CD7
:102190001550175811E3FE0EDB503B0DF3CFE9FF4E
:1021A000F4CFEAFF000EE9260E0EEA223A0EE926E7
:1021B000000EEA22020EEF6EFE0EDB503B0DF3CF57
:1021C000E9FFF4CFEAFF000EE9260E0EEA222C0EFC
:1021D000E926000EEA22EECF14F0EFCF15F0FE0E46
:1021E000DB503B0DF3CFE9FFF4CFEAFF000EE92609
:1021F0000E0EEA22120EE926000EEA22EECF16F0AB
:10220000EFCF17F01650145C1750155823E3FE0E4D
:10221000DB503B0DF3CFE9FFF4CFEAFF000EE926D8
:102220000E0EEA22240EE926000EEA22EE06000E29
:10223000EF5AFE0EDB503B0DF3CFE9FFF4CFEAFF80
:10224000000EE9260E0EEA222C0EE926000EEA22E6
:10225000EE6AED6AFE0EDB503B0DF3CFE9FFF4CFE3
:10226000EAFF000EE9260E0EEA222C0EE926000EE9
:10227000EA22EE2A000EEF220E0177697CEF1CF0B5
:10228000FE0EDBCFE6FF57EC68F0E552000910E1E7
:10229000FE0EDBCFE6FFD4EC68F0E552000908E162
:1022A000FE0EDBCFE6FFA2EC68F0E552000952E03B
:1022B000FE0EDBCFE6FF57EC68F0E552000904E0C4
:1022C0000E010C0E776F17D0FE0EDBCFE6FFD4ECBD
:1022D00068F0E552000904E00E010D0E776F0BD097
:1022E000FE0EDBCFE6FFA2EC68F0E552000903E04A
:1022F0000E010E0E776FFE0EDB503B0DF3CFE9FFA4
:10230000F4CFEAFF000EE9260E0EEA223A0EE92685
:10231000000EEA22EF6A010EE66EFE0EDBCFE6FF4C
:1023200000EC6AF0E552E552E66A020EE66EFE0E39
:10233000DBCFE6FF6CEC02F0E552E552E552010E10
:10234000E66EFE0EDBCFE6FF91EC02F0E552E552C1
:102350007CEF1CF00E017769FE0EDB503B0DF3CFD6
:10236000E9FFF4CFEAFF000EE9260E0EEA222C0E5A
:10237000E926000EEA22EE6AED6AFE0EDB503B0D06
:10238000F3CFE9FFF4CFEAFF000EE9260E0EEA22B2
:102390002A0EE926000EEA22EE2A000EEF22FE0E99
:1023A000DBCFE6FF0CEC68F0E55200094DE1FE0ED4
:1023B000DB503B0DF3CFE9FFF4CFEAFF000EE92637
:1023C0000E0EEA222A0EE926000EEA22EECF14F0C3
:1023D000EFCF15F0FE0EDB503B0DF3CFE9FFF4CF4E
:1023E000EAFF000EE9260E0EEA220C0EE926000E88
:1023F000EA22EECF16F0EFCF17F01450165C15500E
:10240000175822E2FE0EDB503B0DF3CFE9FFF4CF6D
:10241000EAFF000EE9260E0EEA223A0EE926000E29
:10242000EA22030EEF6EFE0EDB503B0DF3CFE9FF09
:10243000F4CFEAFF000EE9260E0EEA222A0EE92664
:10244000000EEA22EE6AED6A7CEF1CF0FE0EDBCF96
:10245000E6FF57EC68F0E552000910E1FE0EDBCF15
:10246000E6FFD4EC68F0E552000908E1FE0EDBCF90
:10247000E6FFA2EC68F0E552000962E0FE0EDBCF59
:10248000E6FF57EC68F0E552000904E00E010C0E7F
:10249000776F17D0FE0EDBCFE6FFD4EC68F0E55285
:1024A000000904E00E010D0E776F0BD0FE0EDBCF9E
:1024B000E6FFA2EC68F0E552000903E00E010E0E03
:1024C000776FFE0EDB503B0DF3CFE9FFF4CFEAFF51
:1024D000000EE9260E0EEA223A0EE926000EEA2246
:1024E000EF6A010EE66EFE0EDBCFE6FF00EC6AF04F
:1024F000E552E552FE0EDB503B0DF3CFE9FFF4CF82
:10250000EAFF000EE9260E0EEA223A0EE926000E38
:10251000EA22EF6AE66A020EE66EFE0EDBCFE6FF07
:102520006CEC02F0E552E552E552010EE66EFE0E4D
:10253000DBCFE6FF91EC02F0E552E5527CEF1CF0B8
:10254000FE0EDB503B0DF3CFE9FFF4CFEAFF000EA8
:10255000E9260E0EEA22320EE926000EEA22EECF1E
:1025600014F0EFCF15F0030E141801E1155001E13E
:1025700005D2020E141801E1155001E17FD0010EC1
:10258000141801E1155066E0145001E1155001E006
:1025900042D2FE0EDB5002E0000E01D0010EE96EC9
:1025A000EA6AE9BEEA683B0EEA02F3CFEAFF3B0EB5
:1025B000E902F3CFE9FFF450EA26000EE9260E0EF9
:1025C000EA22380EE926000EEA22EE50ED1030E144
:1025D000FE0EDB503B0DF3CFE9FFF4CFEAFF000E18
:1025E000E9260E0EEA22380EE926000EEA22010E36
:1025F000EE6EED6AFE0EDB0403E1090EC26E05D03D
:10260000FE0EDB5002E10D0EC26EFE0EDB503B0DE6
:10261000F3CFE9FFF4CFEAFF000EE9260E0EEA221F
:10262000320EE926000EEA22010EEE6EED6A11D09E
:10263000FE0EDB503B0DF3CFE9FFF4CFEAFF000EB7
:10264000E9260E0EEA22320EE926000EEA22EE6A92
:10265000ED6AF3D1C282FE0EDB503B0DF3CFE9FFF2
:10266000F4CFEAFF000EE9260E0EEA22320EE9262A
:10267000000EEA22020EEE6EED6ADFD1C2B27DD10B
:10268000C450166E16C017F0166AC350000116101B
:10269000146E17C015F0FE0EDB503B0DF3CFE9FFB3
:1026A000F4CFEAFF000EE9260E0EEA22340EE926E8
:1026B000000EEA2214C0EEFF15C0EDFFFE0EDB5047
:1026C0003B0DF3CFE9FFF4CFEAFF000EE9260E0E33
:1026D000EA22340EE926000EEA22EECF14F0EFCF04
:1026E00015F03A0E145C020E15582EE3FE0EDB5068
:1026F0003B0DF3CFE9FFF4CFEAFF000EE9260E0E03
:10270000EA22240EE926000EEA22EE2A000EEF222B
:10271000FE0EDB503B0DF3CFE9FFF4CFEAFF000ED6
:10272000E9260E0EEA22240EE926000EEA22EECF5A
:10273000E6FFEFCFE6FFFE0EDBCFE6FF6CEC02F02C
:10274000E552E552E552A4D0FE0EDB503B0DF3CF2F
:10275000E9FFF4CFEAFF000EE9260E0EEA22340E5E
:10276000E926000EEA22260ED880EE54020EED5421
:1027700065E3FE0EDB503B0DF3CFE9FFF4CFEAFF3C
:10278000000EE9260E0EEA22340EE926000EEA2299
:10279000320ED880EE54000EED5450E2FE0EDB50A7
:1027A0003B0DF3CFE9FFF4CFEAFF000EE9260E0E52
:1027B000EA22360EE926000EEA22EE6AED6AFE0EE5
:1027C000DB503B0DF3CFE9FFF4CFEAFF000EE92623
:1027D0000E0EEA22240EE926000EEA22EE06000E74
:1027E000EF5AFE0EDB503B0DF3CFE9FFF4CFEAFFCB
:1027F000000EE9260E0EEA22240EE926000EEA2239
:10280000EECFE6FFEFCFE6FFFE0EDBCFE6FF6CEC90
:1028100002F0E552E552E552FE0EDB503B0DF3CFE0
:10282000E9FFF4CFEAFF000EE9260E0EEA22360E8B
:10283000E926000EEA22EE6AED6A2AD0FE0EDB508F
:102840003B0DF3CFE9FFF4CFEAFF000EE9260E0EB1
:10285000EA22340EE926000EEA22EECF14F0EFCF82
:1028600015F0320E145C000E155812E2FE0EDB500D
:102870003B0DF3CFE9FFF4CFEAFF000EE9260E0E81
:10288000EA22360EE926000EEA22EE2A000EEF2298
:10289000FE0EDB503B0DF3CFE9FFF4CFEAFF000E55
:1028A000E9260E0EEA22360EE926000EEA22640E12
:1028B000D880EE54000EED543DE2FE0EDB503B0D91
:1028C000F3CFE9FFF4CFEAFF000EE9260E0EEA226D
:1028D000360EE926000EEA22EE6AED6AFE0EDB50A5
:1028E0003B0DF3CFE9FFF4CFEAFF000EE9260E0E11
:1028F000EA223A0EE926000EEA22050EEF6EFE0EDF
:10290000DB503B0DF3CFE9FFF4CFEAFF000EE926E1
:102910000E0EEA22080EE926000EEA22EECFE6FFAE
:10292000EFCFE6FFFE0EDBCFE6FF6CEC02F0E552E8
:10293000E552E552FE0EDB503B0DF3CFE9FFF4CF3D
:10294000EAFF000EE9260E0EEA22320EE926000EFC
:10295000EA22030EEE6EED6AFE0EDB503B0DF3CF66
:10296000E9FFF4CFEAFF000EE9260E0EEA22380E48
:10297000E926000EEA22EE6AED6A5FD0FE0EDB5019
:102980003B0DF3CFE9FFF4CFEAFF000EE9260E0E70
:10299000EA22300EE926000EEA22EECF14F0EFCF45
:1029A00015F0050E145C000E155822E3FE0EDB50E8
:1029B0003B0DF3CFE9FFF4CFEAFF000EE9260E0E40
:1029C000EA22300EE926000EEA22EE6AED6AFE0ED9
:1029D000DB503B0DF3CFE9FFF4CFEAFF000EE92611
:1029E0000E0EEA22320EE926000EEA22EE6AED6AA7
:1029F000FE0EDB503B0DF3CFE9FFF4CFEAFF000EF4
:102A0000E9260E0EEA22300EE926000EEA22EE2A10
:102A1000000EEF2212D0FE0EDB503B0DF3CFE9FF8C
:102A2000F4CFEAFF000EE9260E0EEA22320EE92666
:102A3000000EEA22040EEE6EED6AFE0EDB503B0D38
:102A4000F3CFE9FFF4CFEAFF000EE9260E0EEA22EB
:102A50002E0EE926000EEA22EECF14F0EFCF15F08D
:102A6000FE0EDB503B0DF3CFE9FFF4CFEAFF000E83
:102A7000E9260E0EEA22140EE926000EEA22EECF17
:102A800016F0EFCF17F01450165C1550175835E2BA
:102A9000FE0EDB503B0DF3CFE9FFF4CFEAFF000E53
:102AA000E9260E0EEA22380EE926000EEA22EE6A28
:102AB000ED6AFE0EDB503B0DF3CFE9FFF4CFEAFFEA
:102AC000000EE9260E0EEA222E0EE926000EEA225C
:102AD000EE6AED6AFE0EDB503B0DF3CFE9FFF4CF5B
:102AE000EAFF000EE9260E0EEA223A0EE926000E53
:102AF000EA22040EEF6E7CEF1CF0FE0EDBCFE6FF49
:102B00000CEC68F0E552010836E1FE0EDB503B0D9F
:102B1000F3CFE9FFF4CFEAFF000EE9260E0EEA221A
:102B2000380EE926000EEA22EE6AED6A010EE66E24
:102B3000FE0EDBCFE6FF00EC6AF0E552E552FE0E3A
:102B4000DB503B0DF3CFE9FFF4CFEAFF000EE9269F
:102B50000E0EEA223A0EE926000EEA22060EEF6E6B
:102B6000E66A020EE66EFE0EDBCFE6FF6CEC02F0CC
:102B7000E552E552E5520E017769FE0EDB503B0D42
:102B8000F3CFE9FFF4CFEAFF000EE9260E0EEA22AA
:102B90002E0EE926000EEA22EE2A000EEF227CEF2E
:102BA0001CF0FE0EDBCFE6FF57EC68F0E5520009A3
:102BB00010E1FE0EDBCFE6FFD4EC68F0E552000931
:102BC00008E1FE0EDBCFE6FFA2EC68F0E55200095B
:102BD00062E0FE0EDBCFE6FF57EC68F0E55200093D
:102BE00004E00E010C0E776F17D0FE0EDBCFE6FF70
:102BF000D4EC68F0E552000904E00E010D0E776F89
:102C00000BD0FE0EDBCFE6FFA2EC68F0E552000928
:102C100003E00E010E0E776FFE0EDB503B0DF3CF7F
:102C2000E9FFF4CFEAFF000EE9260E0EEA223A0E83
:102C3000E926000EEA22EF6A010EE66EFE0EDBCFF9
:102C4000E6FF00EC6AF0E552E552FE0EDB503B0D6C
:102C5000F3CFE9FFF4CFEAFF000EE9260E0EEA22D9
:102C60003A0EE926000EEA22EF6AE66A020EE66EE6
:102C7000FE0EDBCFE6FF6CEC02F0E552E552E552CA
:102C8000010EE66EFE0EDBCFE6FF91EC02F0E552A0
:102C9000E5527CEF1CF0FE0EDB503B0DF3CFE9FF5D
:102CA000F4CFEAFF000EE9260E0EEA22320EE926E4
:102CB000000EEA22EECF14F0EFCF15F0030E141839
:102CC00001E1155001E105D2020E141801E1155081
:102CD00001E17FD0010E141801E1155066E0145097
:102CE00001E1155001E042D2FE0EDB5002E0000E81
:102CF00001D0010EE96EEA6AE9BEEA683B0EEA021B
:102D0000F3CFEAFF3B0EE902F3CFE9FFF450EA26E6
:102D1000000EE9260E0EEA22380EE926000EEA22FF
:102D2000EE50ED1030E1FE0EDB503B0DF3CFE9FF2E
:102D3000F4CFEAFF000EE9260E0EEA22380EE9264D
:102D4000000EEA22010EEE6EED6AFE0EDB0403E1D8
:102D5000090EC26E05D0FE0EDB5002E10D0EC26EF2
:102D6000FE0EDB503B0DF3CFE9FFF4CFEAFF000E80
:102D7000E9260E0EEA22320EE926000EEA22010EA4
:102D8000EE6EED6A11D0FE0EDB503B0DF3CFE9FF86
:102D9000F4CFEAFF000EE9260E0EEA22320EE926F3
:102DA000000EEA22EE6AED6AF3D1C282FE0EDB501B
:102DB0003B0DF3CFE9FFF4CFEAFF000EE9260E0E3C
:102DC000EA22320EE926000EEA22020EEE6EED6ACB
:102DD000DFD1C2B27DD1C450166E16C017F0166A8C
:102DE000C35000011610146E17C015F0FE0EDB5014
:102DF0003B0DF3CFE9FFF4CFEAFF000EE9260E0EFC
:102E0000EA22340EE926000EEA2214C0EEFF15C0B5
:102E1000EDFFFE0EDB503B0DF3CFE9FFF4CFEAFFF1
:102E2000000EE9260E0EEA22340EE926000EEA22F2
:102E3000EECF14F0EFCF15F0180E145C010E1558FC
:102E40002EE3FE0EDB503B0DF3CFE9FFF4CFEAFF9C
:102E5000000EE9260E0EEA22240EE926000EEA22D2
:102E6000EE2A000EEF22FE0EDB503B0DF3CFE9FF02
:102E7000F4CFEAFF000EE9260E0EEA22240EE92620
:102E8000000EEA22EECFE6FFEFCFE6FFFE0EDBCF2D
:102E9000E6FF6CEC02F0E552E552E552A4D0FE0EDE
:102EA000DB503B0DF3CFE9FFF4CFEAFF000EE9263C
:102EB0000E0EEA22340EE926000EEA22040ED88015
:102EC000EE54010EED5465E3FE0EDB503B0DF3CFE7
:102ED000E9FFF4CFEAFF000EE9260E0EEA22340ED7
:102EE000E926000EEA22320ED880EE54000EED5490
:102EF00050E2FE0EDB503B0DF3CFE9FFF4CFEAFFCB
:102F0000000EE9260E0EEA22360EE926000EEA220F
:102F1000EE6AED6AFE0EDB503B0DF3CFE9FFF4CF16
:102F2000EAFF000EE9260E0EEA22240EE926000E24
:102F3000EA22EE06000EEF5AFE0EDB503B0DF3CFF9
:102F4000E9FFF4CFEAFF000EE9260E0EEA22240E76
:102F5000E926000EEA22EECFE6FFEFCFE6FFFE0EF7
:102F6000DBCFE6FF6CEC02F0E552E552E552FE0ED7
:102F7000DB503B0DF3CFE9FFF4CFEAFF000EE9266B
:102F80000E0EEA22360EE926000EEA22EE6AED6AFD
:102F90002AD0FE0EDB503B0DF3CFE9FFF4CFEAFF62
:102FA000000EE9260E0EEA22340EE926000EEA2271
:102FB000EECF14F0EFCF15F0320E145C000E155862
:102FC00012E2FE0EDB503B0DF3CFE9FFF4CFEAFF38
:102FD000000EE9260E0EEA22360EE926000EEA223F
:102FE000EE2A000EEF22FE0EDB503B0DF3CFE9FF81
:102FF000F4CFEAFF000EE9260E0EEA22360EE9268D
:10300000000EEA22640ED880EE54000EED543DE22C
:10301000FE0EDB503B0DF3CFE9FFF4CFEAFF000ECD
:10302000E9260E0EEA22360EE926000EEA22EE6AA4
:10303000ED6AFE0EDB503B0DF3CFE9FFF4CFEAFF64
:10304000000EE9260E0EEA223A0EE926000EEA22CA
:10305000050EEF6EFE0EDB503B0DF3CFE9FFF4CF14
:10306000EAFF000EE9260E0EEA22080EE926000EFF
:10307000EA22EECFE6FFEFCFE6FFFE0EDBCFE6FF64
:103080006CEC02F0E552E552E552FE0EDB503B0DD2
:10309000F3CFE9FFF4CFEAFF000EE9260E0EEA2295
:1030A000320EE926000EEA22030EEE6EED6AFE0EE7
:1030B000DB503B0DF3CFE9FFF4CFEAFF000EE9262A
:1030C0000E0EEA22380EE926000EEA22EE6AED6ABA
:1030D0005FD0FE0EDB503B0DF3CFE9FFF4CFEAFFEC
:1030E000000EE9260E0EEA22300EE926000EEA2234
:1030F000EECF14F0EFCF15F0050E145C000E15584E
:1031000022E3FE0EDB503B0DF3CFE9FFF4CFEAFFE5
:10311000000EE9260E0EEA22300EE926000EEA2203
:10312000EE6AED6AFE0EDB503B0DF3CFE9FFF4CF04
:10313000EAFF000EE9260E0EEA22320EE926000E04
:10314000EA22EE6AED6AFE0EDB503B0DF3CFE9FF9B
:10315000F4CFEAFF000EE9260E0EEA22300EE92631
:10316000000EEA22EE2A000EEF2212D0FE0EDB50F5
:103170003B0DF3CFE9FFF4CFEAFF000EE9260E0E78
:10318000EA22320EE926000EEA22EE6AED6A00D04B
:10319000FE0EDBCFE6FF0CEC68F0E552010801E023
:1031A00083D0FE0EDB503B0DF3CFE9FFF4CFEAFFF7
:1031B000000EE9260E0EEA22100EE926000EEA2283
:1031C000EE06000EEF5AFE0EDB503B0DF3CFE9FF8B
:1031D000F4CFEAFF000EE9260E0EEA22100EE926D1
:1031E000000EEA22EECF14F0EFCF15F0010E145CC2
:1031F000000E155859E2FE0EDB503B0DF3CFE9FFF0
:10320000F4CFEAFF000EE9260E0EEA22380EE92678
:10321000000EEA22EE6AED6A010EE66EFE0EDBCFCC
:10322000E6FF00EC6AF0E552E552FE0EDB503B0D86
:10323000F3CFE9FFF4CFEAFF000EE9260E0EEA22F3
:10324000100EE926000EEA227D0EEE6EED6AFE0EED
:10325000DB503B0DF3CFE9FFF4CFEAFF000EE92688
:103260000E0EEA222C0EE926000EEA22EE6AED6A24
:10327000FE0EDB503B0DF3CFE9FFF4CFEAFF000E6B
:10328000E9260E0EEA223A0EE926000EEA22060E82
:10329000EF6EE66A020EE66EFE0EDBCFE6FF6CEC2A
:1032A00002F0E552E552E5520E01776925D3FE0E94
:1032B000DBCFE6FF57EC68F0E552000910E1FE0EA7
:1032C000DBCFE6FFD4EC68F0E552000908E1FE0E22
:1032D000DBCFE6FFA2EC68F0E552000961E0FE0EEC
:1032E000DBCFE6FF57EC68F0E552000904E00E0181
:1032F0000C0E776F17D0FE0EDBCFE6FFD4EC68F034
:10330000E552000904E00E010D0E776F0BD0FE0EA2
:10331000DBCFE6FFA2EC68F0E552000903E00E0106
:103320000E0E776FFE0EDB503B0DF3CFE9FFF4CFAF
:10333000EAFF000EE9260E0EEA223A0EE926000EFA
:10334000EA22EF6A010EE66EFE0EDBCFE6FF00EC2E
:103350006AF0E552E552FE0EDB503B0DF3CFE9FF7C
:10336000F4CFEAFF000EE9260E0EEA223A0EE92615
:10337000000EEA22EF6AE66A020EE66EFE0EDBCF70
:10338000E6FF6CEC02F0E552E552E552010EE66E06
:10339000FE0EDBCFE6FF91EC02F0E552E552ACD237
:1033A0000E017769FE0EDBCFE6FF0CEC68F0E5520C
:1033B00001081CE1FE0EDB503B0DF3CFE9FFF4CF1B
:1033C000EAFF000EE9260E0EEA223A0EE926000E6A
:1033D000EA22060EEF6EE66A020EE66EFE0EDBCF06
:1033E000E6FF6CEC02F0E552E552E55285D2FE0EA6
:1033F000DB503B0DF3CFE9FFF4CFEAFF000EE926E7
:103400000E0EEA222A0EE926000EEA22EE2A000E0D
:10341000EF22FE0EDB503B0DF3CFE9FFF4CFEAFFC6
:10342000000EE9260E0EEA222A0EE926000EEA22F6
:10343000EECF14F0EFCF15F0FE0EDB503B0DF3CFC7
:10344000E9FFF4CFEAFF000EE9260E0EEA220E0E87
:10345000E926000EEA22EECF16F0EFCF17F0165055
:10346000145C1750155811E3FE0EDB503B0DF3CFE3
:10347000E9FFF4CFEAFF000EE9260E0EEA223A0E2B
:10348000E926000EEA22070EEF6E0E01776934D2AC
:10349000FE0EDBCFE6FF57EC68F0E552000910E1C5
:1034A000FE0EDBCFE6FFD4EC68F0E552000908E140
:1034B000FE0EDBCFE6FFA2EC68F0E552000960E00B
:1034C000FE0EDBCFE6FF57EC68F0E552000904E0A2
:1034D0000E010C0E776F17D0FE0EDBCFE6FFD4EC9B
:1034E00068F0E552000904E00E010D0E776F0BD075
:1034F000FE0EDBCFE6FFA2EC68F0E552000903E028
:103500000E010E0E776FFE0EDB503B0DF3CFE9FF81
:10351000F4CFEAFF000EE9260E0EEA223A0EE92663
:10352000000EEA22EF6AE66AFE0EDBCFE6FF00EC51
:103530006AF0E552E552FE0EDB503B0DF3CFE9FF9A
:10354000F4CFEAFF000EE9260E0EEA223A0EE92633
:10355000000EEA22EF6AE66A020EE66EFE0EDBCF8E
:10356000E6FF6CEC02F0E552E552E552010EE66E24
:10357000FE0EDBCFE6FF91EC02F0E552E552BCD146
:103580000E017769FE0EDBCFE6FF0CEC68F0E5522A
:10359000010857E1E66AFE0EDBCFE6FF00EC6AF0B9
:1035A000E552E552FE0EDB503B0DF3CFE9FFF4CFC1
:1035B000EAFF000EE9260E0EEA223A0EE926000E78
:1035C000EA22EF6AE66A020EE66EFE0EDBCFE6FF47
:1035D0006CEC02F0E552E552E552010EE66EFE0E8D
:1035E000DBCFE6FF91EC02F0E552E552FE0EDB5038
:1035F0003B0DF3CFE9FFF4CFEAFF000EE9260E0EF4
:10360000EA22380EE926000EEA22EE6AED6AFE0E84
:10361000DBCFE6FF89EC3EF0E552010EE66EFE0ED2
:10362000DBCFE6FF1AEC6AF0E552E552E66AFE0EE1
:10363000DBCFE6FF82EC6AF0E552E5520E01776BD4
:103640005BD1FE0EDBCFE6FF0CEC68F0E552000923
:103650002CE1FE0EDB503B0DF3CFE9FFF4CFEAFF88
:10366000000EE9260E0EEA223A0EE926000EEA22A4
:10367000080EEF6EFE0EDB503B0DF3CFE9FFF4CFEB
:10368000EAFF000EE9260E0EEA22020EE926000EDF
:10369000EA22EECFE6FFEFCFE6FFFE0EDBCFE6FF3E
:1036A0006CEC02F0E552E552E55226D1FE0EDBCF7E
:1036B000E6FF70EC68F0E552000910E1FE0EDBCF8A
:1036C000E6FFD4EC68F0E552000908E1FE0EDBCF1E
:1036D000E6FFA2EC68F0E552000960E0FE0EDBCFE9
:1036E000E6FF70EC68F0E552000904E00E010A0EF6
:1036F000776F17D0FE0EDBCFE6FFD4EC68F0E55213
:10370000000904E00E010D0E776F0BD0FE0EDBCF2B
:10371000E6FFA2EC68F0E552000903E00E010E0E90
:10372000776FFE0EDB503B0DF3CFE9FFF4CFEAFFDE
:10373000000EE9260E0EEA223A0EE926000EEA22D3
:10374000EF6AE66AFE0EDBCFE6FF00EC6AF0E552B8
:10375000E552FE0EDB503B0DF3CFE9FFF4CFEAFF5D
:10376000000EE9260E0EEA223A0EE926000EEA22A3
:10377000EF6AE66A020EE66EFE0EDBCFE6FF6CEC49
:1037800002F0E552E552E552010EE66EFE0EDBCF89
:10379000E6FF91EC02F0E552E552AED00E017769FA
:1037A000FE0EDBCFE6FF0CEC68F0E552010801E00D
:1037B0008ED0E66AFE0EDBCFE6FF00EC6AF0E55243
:1037C000E552FE0EDB503B0DF3CFE9FFF4CFEAFFED
:1037D000000EE9260E0EEA223A0EE926000EEA2233
:1037E000EF6AE66A020EE66EFE0EDBCFE6FF6CECD9
:1037F00002F0E552E552E552010EE66EFE0EDBCF19
:10380000E6FF91EC02F0E552E552FE0EDB503B0D77
:10381000F3CFE9FFF4CFEAFF000EE9260E0EEA220D
:103820002A0EE926000EEA22EE6AED6AFE0EDB5051
:103830003B0DF3CFE9FFF4CFEAFF000EE9260E0EB1
:10384000EA220A0EE926000EEA22EECF14F0EFCFAC
:1038500015F0FE0EDB503B0DF3CFE9FFF4CFEAFF8E
:10386000000EE9260E0EEA22240EE926000EEA22B8
:1038700014C0EEFF15C0EDFFFE0EDB503B0DF3CF85
:10388000E9FFF4CFEAFF000EE9260E0EEA22380E19
:10389000E926000EEA22EE6AED6AFE0EDBCFE6FFB5
:1038A00089EC3EF0E552010EE66EFE0EDBCFE6FF40
:1038B0001AEC6AF0E552E552E66AFE0EDBCFE6FF4F
:1038C00082EC6AF0E552E5520E01776B15D014D008
:1038D000FE0EDB503B0DF3CFE9FFF4CFEAFF000E05
:1038E000E9260E0EEA223A0EE926000EEA22EF6AD7
:1038F0000E01EE0E776F00D00E01775100D0E55229
:10390000E7CFD9FF1200D9CFE6FFE1CFD9FFFE0EF6
:10391000DB503B0DF3CFE9FFF4CFEAFF000EE926C1
:103920000E0EEA223A0EE926000EEA22EF50080AAD
:1039300002E116EF28F00F0A02E107EF27F0010A73
:1039400002E1B6EF26F0030A02E116EF26F0010AC3
:1039500002E15FEF22F0070A01E182D2010A01E1F0
:103960009AD1030A01E1B9D0010A02E002EF29F07D
:10397000FE0EDBCFE6FF70EC68F0E552000910E1C7
:10398000FE0EDBCFE6FFD4EC68F0E552000908E15B
:10399000FE0EDBCFE6FFA2EC68F0E552000951E035
:1039A000FE0EDB503B0DF3CFE9FFF4CFEAFF000E34
:1039B000E9260E0EEA223A0EE926000EEA22EF6A06
:1039C000E66AFE0EDBCFE6FF00EC6AF0E552E55258
:1039D000E66A020EE66EFE0EDBCFE6FF6CEC02F04E
:1039E000E552E552E552010EE66EFE0EDBCFE6FF34
:1039F00091EC02F0E552E552FE0EDBCFE6FF70ECF3
:103A000068F0E552000904E00E010A0E786F17D045
:103A1000FE0EDBCFE6FFD4EC68F0E552000904E0CF
:103A20000E010D0E786F0BD0FE0EDBCFE6FFA2EC81
:103A300068F0E552000903E00E010E0E786F16EFF4
:103A400029F00E017869FE0EDB503B0DF3CFE9FF44
:103A5000F4CFEAFF000EE9260E0EEA221A0EE9263E
:103A6000000EEA22EECF14F0EFCF15F0FE0EDB5081
:103A70003B0DF3CFE9FFF4CFEAFF000EE9260E0E6F
:103A8000EA22260EE926000EEA2214C0EEFF15C037
:103A9000EDFFE66AFE0EDBCFE6FF1AEC6AF0E552B8
:103AA000E552010EE66EFE0EDBCFE6FF82EC6AF019
:103AB000E552E552FE0EDB503B0DF3CFE9FFF4CFAC
:103AC000EAFF000EE9260E0EEA223A0EE926000E63
:103AD000EA22010EEF6E16EF29F00E017869010E51
:103AE000E66EFE0EDBCFE6FF00EC6AF0E552E55233
:103AF000E66AFE0EDBCFE6FF91EC02F0E552E552FE
:103B0000FE0EDB503B0DF3CFE9FFF4CFEAFF000ED2
:103B1000E9260E0EEA22260EE926000EEA22EECF54
:103B2000E6FFEFCFE6FFFE0EDBCFE6FF6CEC02F028
:103B3000E552E552E552FE0EDB503B0DF3CFE9FFB7
:103B4000F4CFEAFF000EE9260E0EEA22260EE92641
:103B5000000EEA22EECF14F0EFCF15F0FE0EDB5090
:103B60003B0DF3CFE9FFF4CFEAFF000EE9260E0E7E
:103B7000EA22160EE926000EEA22EECF16F0EFCF6B
:103B800017F01650145C1750155811E3FE0EDB5059
:103B90003B0DF3CFE9FFF4CFEAFF000EE9260E0E4E
:103BA000EA223A0EE926000EEA22020EEF6EFE0E1F
:103BB000DB503B0DF3CFE9FFF4CFEAFF000EE9261F
:103BC0000E0EEA222C0EE926000EEA22EECF14F0A9
:103BD000EFCF15F0FE0EDB503B0DF3CFE9FFF4CF36
:103BE000EAFF000EE9260E0EEA22120EE926000E6A
:103BF000EA22EECF16F0EFCF17F01650145C1750F4
:103C0000155835E3FE0EDB503B0DF3CFE9FFF4CF43
:103C1000EAFF000EE9260E0EEA22260EE926000E25
:103C2000EA22EE2A000EEF22FE0EDB503B0DF3CF10
:103C3000E9FFF4CFEAFF000EE9260E0EEA22260E77
:103C4000E926000EEA22EE2A000EEF22FE0EDB50DD
:103C50003B0DF3CFE9FFF4CFEAFF000EE9260E0E8D
:103C6000EA222C0EE926000EEA22EE6AED6AFE0E2A
:103C7000DB503B0DF3CFE9FFF4CFEAFF000EE9265E
:103C80000E0EEA222C0EE926000EEA22EE2A000E83
:103C9000EF2216EF29F0FE0EDBCFE6FF70EC68F0A6
:103CA000E552000910E1FE0EDBCFE6FFD4EC68F030
:103CB000E552000908E1FE0EDBCFE6FFA2EC68F05A
:103CC000E552000951E0FE0EDBCFE6FF70EC68F034
:103CD000E552000904E00E010A0E786F17D0FE0EBF
:103CE000DBCFE6FFD4EC68F0E552000904E00E01FA
:103CF0000D0E786F0BD0FE0EDBCFE6FFA2EC68F066
:103D0000E552000903E00E010E0E786FFE0EDB5047
:103D10003B0DF3CFE9FFF4CFEAFF000EE9260E0ECC
:103D2000EA223A0EE926000EEA22EF6AE66AFE0E61
:103D3000DBCFE6FF00EC6AF0E552E552E66A020EE0
:103D4000E66EFE0EDBCFE6FF6CEC02F0E552E552CC
:103D5000E552010EE66EFE0EDBCFE6FF91EC02F0BF
:103D6000E552E55216EF29F00E017869FE0EDB50A0
:103D70003B0DF3CFE9FFF4CFEAFF000EE9260E0E6C
:103D8000EA222C0EE926000EEA22EE6AED6AFE0E09
:103D9000DB503B0DF3CFE9FFF4CFEAFF000EE9263D
:103DA0000E0EEA222A0EE926000EEA22EE2A000E64
:103DB000EF22FE0EDBCFE6FF0CEC68F0E5520009C7
:103DC0004DE1FE0EDB503B0DF3CFE9FFF4CFEAFFF0
:103DD000000EE9260E0EEA222A0EE926000EEA223D
:103DE000EECF14F0EFCF15F0FE0EDB503B0DF3CF0E
:103DF000E9FFF4CFEAFF000EE9260E0EEA220C0ED0
:103E0000E926000EEA22EECF16F0EFCF17F014509D
:103E1000165C1550175822E2FE0EDB503B0DF3CF17
:103E2000E9FFF4CFEAFF000EE9260E0EEA223A0E71
:103E3000E926000EEA22030EEF6EFE0EDB503B0D6C
:103E4000F3CFE9FFF4CFEAFF000EE9260E0EEA22D7
:103E50002A0EE926000EEA22EE6AED6A16EF29F034
:103E6000FE0EDBCFE6FF70EC68F0E552000910E1D2
:103E7000FE0EDBCFE6FFD4EC68F0E552000908E166
:103E8000FE0EDBCFE6FFA2EC68F0E552000961E030
:103E9000FE0EDBCFE6FF70EC68F0E552000904E0AF
:103EA0000E010A0E786F17D0FE0EDBCFE6FFD4ECC2
:103EB00068F0E552000904E00E010D0E786F0BD09A
:103EC000FE0EDBCFE6FFA2EC68F0E552000903E04E
:103ED0000E010E0E786FFE0EDB503B0DF3CFE9FFA7
:103EE000F4CFEAFF000EE9260E0EEA223A0EE9268A
:103EF000000EEA22EF6AE66AFE0EDBCFE6FF00EC78
:103F00006AF0E552E552FE0EDB503B0DF3CFE9FFC0
:103F1000F4CFEAFF000EE9260E0EEA223A0EE92659
:103F2000000EEA22EF6AE66A020EE66EFE0EDBCFB4
:103F3000E6FF6CEC02F0E552E552E552010EE66E4A
:103F4000FE0EDBCFE6FF91EC02F0E552E55216EFF4
:103F500029F0FE0EDB503B0DF3CFE9FFF4CFEAFF73
:103F6000000EE9260E0EEA22320EE926000EEA22A3
:103F7000EECF14F0EFCF15F0030E141801E1155039
:103F800001E105D2020E141801E1155001E17FD0C4
:103F9000010E141801E1155066E0145001E11550AE
:103FA00001E042D2FE0EDB5002E0000E01D0010E15
:103FB000E96EEA6AE9BEEA683B0EEA02F3CFEAFF7D
:103FC0003B0EE902F3CFE9FFF450EA26000EE926A2
:103FD0000E0EEA22380EE926000EEA22EE50ED100F
:103FE00030E1FE0EDB503B0DF3CFE9FFF4CFEAFFEB
:103FF000000EE9260E0EEA22380EE926000EEA220D
:10400000010EEE6EED6AFE0EDB0403E1090EC26ED8
:1040100005D0FE0EDB5002E10D0EC26EFE0EDB502F
:104020003B0DF3CFE9FFF4CFEAFF000EE9260E0EB9
:10403000EA22320EE926000EEA22010EEE6EED6A49
:1040400011D0FE0EDB503B0DF3CFE9FFF4CFEAFFBA
:10405000000EE9260E0EEA22320EE926000EEA22B2
:10406000EE6AED6AF3D1C282FE0EDB503B0DF3CF58
:10407000E9FFF4CFEAFF000EE9260E0EEA22320E27
:10408000E926000EEA22020EEE6EED6ADFD1C2B220
:104090007DD1C450166E16C017F0166AC3500001C9
:1040A0001610146E17C015F0FE0EDB503B0DF3CF4B
:1040B000E9FFF4CFEAFF000EE9260E0EEA22340EE5
:1040C000E926000EEA2214C0EEFF15C0EDFFFE0E39
:1040D000DB503B0DF3CFE9FFF4CFEAFF000EE926FA
:1040E0000E0EEA22340EE926000EEA22EECF14F07C
:1040F000EFCF15F0D00E145C020E15582EE3FE0E15
:10410000DB503B0DF3CFE9FFF4CFEAFF000EE926C9
:104110000E0EEA22260EE926000EEA22EE06000E18
:10412000EF5AFE0EDB503B0DF3CFE9FFF4CFEAFF71
:10413000000EE9260E0EEA22260EE926000EEA22DD
:10414000EECFE6FFEFCFE6FFFE0EDBCFE6FF6CEC37
:1041500002F0E552E552E552A4D0FE0EDB503B0DD5
:10416000F3CFE9FFF4CFEAFF000EE9260E0EEA22B4
:10417000340EE926000EEA22BC0ED880EE54020E60
:10418000ED5465E3FE0EDB503B0DF3CFE9FFF4CFBA
:10419000EAFF000EE9260E0EEA22340EE926000E92
:1041A000EA22320ED880EE54000EED5450E2FE0E9C
:1041B000DB503B0DF3CFE9FFF4CFEAFF000EE92619
:1041C0000E0EEA22360EE926000EEA22EE6AED6AAB
:1041D000FE0EDB503B0DF3CFE9FFF4CFEAFF000EFC
:1041E000E9260E0EEA22260EE926000EEA22EE2A23
:1041F000000EEF22FE0EDB503B0DF3CFE9FFF4CFB4
:10420000EAFF000EE9260E0EEA22260EE926000E2F
:10421000EA22EECFE6FFEFCFE6FFFE0EDBCFE6FFB2
:104220006CEC02F0E552E552E552FE0EDB503B0D20
:10423000F3CFE9FFF4CFEAFF000EE9260E0EEA22E3
:10424000360EE926000EEA22EE6AED6A2AD0FE0E4C
:10425000DB503B0DF3CFE9FFF4CFEAFF000EE92678
:104260000E0EEA22340EE926000EEA22EECF14F0FA
:10427000EFCF15F0320E145C000E155812E2FE0E50
:10428000DB503B0DF3CFE9FFF4CFEAFF000EE92648
:104290000E0EEA22360EE926000EEA22EE2A000E63
:1042A000EF22FE0EDB503B0DF3CFE9FFF4CFEAFF28
:1042B000000EE9260E0EEA22360EE926000EEA224C
:1042C000640ED880EE54000EED543DE2FE0EDB503D
:1042D0003B0DF3CFE9FFF4CFEAFF000EE9260E0E07
:1042E000EA22360EE926000EEA22EE6AED6AFE0E9A
:1042F000DB503B0DF3CFE9FFF4CFEAFF000EE926D8
:104300000E0EEA223A0EE926000EEA22050EEF6EA4
:10431000FE0EDB503B0DF3CFE9FFF4CFEAFF000EBA
:10432000E9260E0EEA22020EE926000EEA22EECF60
:10433000E6FFEFCFE6FFFE0EDBCFE6FF6CEC02F010
:10434000E552E552E552FE0EDB503B0DF3CFE9FF9F
:10435000F4CFEAFF000EE9260E0EEA22320EE9261D
:10436000000EEA22030EEE6EED6AFE0EDB503B0DF0
:10437000F3CFE9FFF4CFEAFF000EE9260E0EEA22A2
:10438000380EE926000EEA22EE6AED6A5FD0FE0ED4
:10439000DB503B0DF3CFE9FFF4CFEAFF000EE92637
:1043A0000E0EEA22300EE926000EEA22EECF14F0BD
:1043B000EFCF15F0050E145C000E155822E3FE0E2B
:1043C000DB503B0DF3CFE9FFF4CFEAFF000EE92607
:1043D0000E0EEA22300EE926000EEA22EE6AED6A9F
:1043E000FE0EDB503B0DF3CFE9FFF4CFEAFF000EEA
:1043F000E9260E0EEA22320EE926000EEA22EE6AC5
:10440000ED6AFE0EDB503B0DF3CFE9FFF4CFEAFF80
:10441000000EE9260E0EEA22300EE926000EEA22F0
:10442000EE2A000EEF2212D0FE0EDB503B0DF3CF32
:10443000E9FFF4CFEAFF000EE9260E0EEA22320E63
:10444000E926000EEA22040EEE6EED6AFE0EDBCFC8
:10445000E6FF0CEC68F0E55201082DE1FE0EDBCF23
:10446000E6FF51EC69F0E552146EFC0EDB50145C73
:1044700022E1FE0EDB503B0DF3CFE9FFF4CFEAFF64
:10448000000EE9260E0EEA22380EE926000EEA2278
:10449000EE6AED6AFE0EDB503B0DF3CFE9FFF4CF81
:1044A000EAFF000EE9260E0EEA223A0EE926000E79
:1044B000EA22040EEF6E0E01786916EF29F0FE0E67
:1044C000DBCFE6FF70EC68F0E552000910E1FE0E6C
:1044D000DBCFE6FFD4EC68F0E552000908E1FE0E00
:1044E000DBCFE6FFA2EC68F0E552000962E0FE0EC9
:1044F000DBCFE6FF70EC68F0E552000904E00E0146
:104500000A0E786F17D0FE0EDBCFE6FFD4EC68F012
:10451000E552000904E00E010D0E786F0BD0FE0E7F
:10452000DBCFE6FFA2EC68F0E552000903E00E01E4
:104530000E0E786FFE0EDB503B0DF3CFE9FFF4CF8C
:10454000EAFF000EE9260E0EEA223A0EE926000ED8
:10455000EA22EF6AE66AFE0EDBCFE6FF00EC6AF0C5
:10456000E552E552FE0EDB503B0DF3CFE9FFF4CFF1
:10457000EAFF000EE9260E0EEA22380EE926000EAA
:10458000EA22EE6AED6AE66A020EE66EFE0EDBCF06
:10459000E6FF6CEC02F0E552E552E552010EE66EE4
:1045A000FE0EDBCFE6FF91EC02F0E552E55216EF8E
:1045B00029F0FE0EDB503B0DF3CFE9FFF4CFEAFF0D
:1045C000000EE9260E0EEA22320EE926000EEA223D
:1045D000EECF14F0EFCF15F0030E141801E11550D3
:1045E00001E105D2020E141801E1155001E17FD05E
:1045F000010E141801E1155066E0145001E1155048
:1046000001E042D2FE0EDB5002E0000E01D0010EAE
:10461000E96EEA6AE9BEEA683B0EEA02F3CFEAFF16
:104620003B0EE902F3CFE9FFF450EA26000EE9263B
:104630000E0EEA22380EE926000EEA22EE50ED10A8
:1046400030E1FE0EDB503B0DF3CFE9FFF4CFEAFF84
:10465000000EE9260E0EEA22380EE926000EEA22A6
:10466000010EEE6EED6AFE0EDB0403E1090EC26E72
:1046700005D0FE0EDB5002E10D0EC26EFE0EDB50C9
:104680003B0DF3CFE9FFF4CFEAFF000EE9260E0E53
:10469000EA22320EE926000EEA22010EEE6EED6AE3
:1046A00011D0FE0EDB503B0DF3CFE9FFF4CFEAFF54
:1046B000000EE9260E0EEA22320EE926000EEA224C
:1046C000EE6AED6AF3D1C282FE0EDB503B0DF3CFF2
:1046D000E9FFF4CFEAFF000EE9260E0EEA22320EC1
:1046E000E926000EEA22020EEE6EED6ADFD1C2B2BA
:1046F0007DD1C450166E16C017F0166AC350000163
:104700001610146E17C015F0FE0EDB503B0DF3CFE4
:10471000E9FFF4CFEAFF000EE9260E0EEA22340E7E
:10472000E926000EEA2214C0EEFF15C0EDFFFE0ED2
:10473000DB503B0DF3CFE9FFF4CFEAFF000EE92693
:104740000E0EEA22340EE926000EEA22EECF14F015
:10475000EFCF15F0180E145C010E15582EE3FE0E67
:10476000DB503B0DF3CFE9FFF4CFEAFF000EE92663
:104770000E0EEA22260EE926000EEA22EE06000EB2
:10478000EF5AFE0EDB503B0DF3CFE9FFF4CFEAFF0B
:10479000000EE9260E0EEA22260EE926000EEA2277
:1047A000EECFE6FFEFCFE6FFFE0EDBCFE6FF6CECD1
:1047B00002F0E552E552E552A4D0FE0EDB503B0D6F
:1047C000F3CFE9FFF4CFEAFF000EE9260E0EEA224E
:1047D000340EE926000EEA22040ED880EE54010EB3
:1047E000ED5465E3FE0EDB503B0DF3CFE9FFF4CF54
:1047F000EAFF000EE9260E0EEA22340EE926000E2C
:10480000EA22320ED880EE54000EED5450E2FE0E35
:10481000DB503B0DF3CFE9FFF4CFEAFF000EE926B2
:104820000E0EEA22360EE926000EEA22EE6AED6A44
:10483000FE0EDB503B0DF3CFE9FFF4CFEAFF000E95
:10484000E9260E0EEA22260EE926000EEA22EE2ABC
:10485000000EEF22FE0EDB503B0DF3CFE9FFF4CF4D
:10486000EAFF000EE9260E0EEA22260EE926000EC9
:10487000EA22EECFE6FFEFCFE6FFFE0EDBCFE6FF4C
:104880006CEC02F0E552E552E552FE0EDB503B0DBA
:10489000F3CFE9FFF4CFEAFF000EE9260E0EEA227D
:1048A000360EE926000EEA22EE6AED6A2AD0FE0EE6
:1048B000DB503B0DF3CFE9FFF4CFEAFF000EE92612
:1048C0000E0EEA22340EE926000EEA22EECF14F094
:1048D000EFCF15F0320E145C000E155812E2FE0EEA
:1048E000DB503B0DF3CFE9FFF4CFEAFF000EE926E2
:1048F0000E0EEA22360EE926000EEA22EE2A000EFD
:10490000EF22FE0EDB503B0DF3CFE9FFF4CFEAFFC1
:10491000000EE9260E0EEA22360EE926000EEA22E5
:10492000640ED880EE54000EED543DE2FE0EDB50D6
:104930003B0DF3CFE9FFF4CFEAFF000EE9260E0EA0
:10494000EA22360EE926000EEA22EE6AED6AFE0E33
:10495000DB503B0DF3CFE9FFF4CFEAFF000EE92671
:104960000E0EEA223A0EE926000EEA22050EEF6E3E
:10497000FE0EDB503B0DF3CFE9FFF4CFEAFF000E54
:10498000E9260E0EEA22020EE926000EEA22EECFFA
:10499000E6FFEFCFE6FFFE0EDBCFE6FF6CEC02F0AA
:1049A000E552E552E552FE0EDB503B0DF3CFE9FF39
:1049B000F4CFEAFF000EE9260E0EEA22320EE926B7
:1049C000000EEA22030EEE6EED6AFE0EDB503B0D8A
:1049D000F3CFE9FFF4CFEAFF000EE9260E0EEA223C
:1049E000380EE926000EEA22EE6AED6A5FD0FE0E6E
:1049F000DB503B0DF3CFE9FFF4CFEAFF000EE926D1
:104A00000E0EEA22300EE926000EEA22EECF14F056
:104A1000EFCF15F0010E145C000E155822E3FE0EC8
:104A2000DB503B0DF3CFE9FFF4CFEAFF000EE926A0
:104A30000E0EEA22300EE926000EEA22EE6AED6A38
:104A4000FE0EDB503B0DF3CFE9FFF4CFEAFF000E83
:104A5000E9260E0EEA22320EE926000EEA22EE6A5E
:104A6000ED6AFE0EDB503B0DF3CFE9FFF4CFEAFF1A
:104A7000000EE9260E0EEA22300EE926000EEA228A
:104A8000EE2A000EEF2212D0FE0EDB503B0DF3CFCC
:104A9000E9FFF4CFEAFF000EE9260E0EEA22320EFD
:104AA000E926000EEA22040EEE6EED6AFE0EDB50E1
:104AB0003B0DF3CFE9FFF4CFEAFF000EE9260E0E1F
:104AC000EA222A0EE926000EEA22EE2A000EEF2242
:104AD000FE0EDB503B0DF3CFE9FFF4CFEAFF000EF3
:104AE000E9260E0EEA222A0EE926000EEA22C80E58
:104AF000D880EE54000EED5401E395D0FE0EDB504D
:104B00003B0DF3CFE9FFF4CFEAFF000EE9260E0ECE
:104B1000EA222A0EE926000EEA22C80EEE6EED6A9F
:104B2000FE0EDBCFE6FF0CEC68F0E552010801E079
:104B30007AD0FE0EDB503B0DF3CFE9FFF4CFEAFF56
:104B4000000EE9260E0EEA22100EE926000EEA22D9
:104B5000EE06000EEF5AFE0EDB503B0DF3CFE9FFE1
:104B6000F4CFEAFF000EE9260E0EEA22100EE92627
:104B7000000EEA22EECF14F0EFCF15F0010E145C18
:104B8000000E155850E2FE0EDB503B0DF3CFE9FF4F
:104B9000F4CFEAFF000EE9260E0EEA22380EE926CF
:104BA000000EEA22EE6AED6AFE0EDB503B0DF3CFFB
:104BB000E9FFF4CFEAFF000EE9260E0EEA222A0EE4
:104BC000E926000EEA22EE6AED6AFE0EDB503B0D8E
:104BD000F3CFE9FFF4CFEAFF000EE9260E0EEA223A
:104BE000100EE926000EEA227D0EEE6EED6AFE0E34
:104BF000DB503B0DF3CFE9FFF4CFEAFF000EE926CF
:104C00000E0EEA223A0EE926000EEA22060EEF6E9A
:104C1000E66A020EE66EFE0EDBCFE6FF6CEC02F0FB
:104C2000E552E552E5520E01786900D3FE0EDBCF66
:104C3000E6FF70EC68F0E552000910E1FE0EDBCFF4
:104C4000E6FFD4EC68F0E552000908E1FE0EDBCF88
:104C5000E6FFA2EC68F0E552000961E0FE0EDBCF52
:104C6000E6FF70EC68F0E552000904E00E010A0E60
:104C7000786F17D0FE0EDBCFE6FFD4EC68F0E5527C
:104C8000000904E00E010D0E786F0BD0FE0EDBCF95
:104C9000E6FFA2EC68F0E552000903E00E010E0EFB
:104CA000786FFE0EDB503B0DF3CFE9FFF4CFEAFF48
:104CB000000EE9260E0EEA223A0EE926000EEA223E
:104CC000EF6AE66AFE0EDBCFE6FF00EC6AF0E55223
:104CD000E552FE0EDB503B0DF3CFE9FFF4CFEAFFC8
:104CE000000EE9260E0EEA22380EE926000EEA2210
:104CF000EE6AED6AE66A020EE66EFE0EDBCFE6FFB6
:104D00006CEC02F0E552E552E552010EE66EFE0E45
:104D1000DBCFE6FF91EC02F0E552E55287D20E01BF
:104D20007869FE0EDBCFE6FF0CEC68F0E552010877
:104D30001CE1FE0EDB503B0DF3CFE9FFF4CFEAFFA1
:104D4000000EE9260E0EEA223A0EE926000EEA22AD
:104D5000060EEF6EE66A020EE66EFE0EDBCFE6FF93
:104D60006CEC02F0E552E552E55260D20E01786932
:104D7000FE0EDB503B0DF3CFE9FFF4CFEAFF000E50
:104D8000E9260E0EEA222A0EE926000EEA22EE2A73
:104D9000000EEF22FE0EDB503B0DF3CFE9FFF4CF08
:104DA000EAFF000EE9260E0EEA222A0EE926000E80
:104DB000EA22EECF14F0EFCF15F0FE0EDB503B0DE4
:104DC000F3CFE9FFF4CFEAFF000EE9260E0EEA2248
:104DD0000E0EE926000EEA22EECF16F0EFCF17F006
:104DE0001650145C1750155811E3FE0EDB503B0DA6
:104DF000F3CFE9FFF4CFEAFF000EE9260E0EEA2218
:104E00003A0EE926000EEA22070EEF6E0FD2FE0ED2
:104E1000DBCFE6FF70EC68F0E552000910E1FE0E12
:104E2000DBCFE6FFD4EC68F0E552000908E1FE0EA6
:104E3000DBCFE6FFA2EC68F0E552000961E0FE0E70
:104E4000DBCFE6FF70EC68F0E552000904E00E01EC
:104E50000A0E786F17D0FE0EDBCFE6FFD4EC68F0B9
:104E6000E552000904E00E010D0E786F0BD0FE0E26
:104E7000DBCFE6FFA2EC68F0E552000903E00E018B
:104E80000E0E786FFE0EDB503B0DF3CFE9FFF4CF33
:104E9000EAFF000EE9260E0EEA223A0EE926000E7F
:104EA000EA22EF6AE66AFE0EDBCFE6FF00EC6AF06C
:104EB000E552E552FE0EDB503B0DF3CFE9FFF4CF98
:104EC000EAFF000EE9260E0EEA22380EE926000E51
:104ED000EA22EE6AED6AE66A020EE66EFE0EDBCFAD
:104EE000E6FF6CEC02F0E552E552E552010EE66E8B
:104EF000FE0EDBCFE6FF91EC02F0E552E55296D1D3
:104F00000E017869FE0EDBCFE6FF0CEC68F0E5528F
:104F1000010857E1E66AFE0EDBCFE6FF00EC6AF01F
:104F2000E552E552FE0EDB503B0DF3CFE9FFF4CF27
:104F3000EAFF000EE9260E0EEA223A0EE926000EDE
:104F4000EA22EF6AE66A020EE66EFE0EDBCFE6FFAD
:104F50006CEC02F0E552E552E552010EE66EFE0EF3
:104F6000DBCFE6FF91EC02F0E552E552FE0EDB509E
:104F70003B0DF3CFE9FFF4CFEAFF000EE9260E0E5A
:104F8000EA22380EE926000EEA22EE6AED6AFE0EEB
:104F9000DBCFE6FFABEC3EF0E552010EE66EFE0E17
:104FA000DBCFE6FF1AEC6AF0E552E552E66AFE0E48
:104FB000DBCFE6FF82EC6AF0E552E5520E01786B3A
:104FC00035D1FE0EDBCFE6FF0CEC68F0E5520009B0
:104FD0002CE1FE0EDB503B0DF3CFE9FFF4CFEAFFEF
:104FE000000EE9260E0EEA223A0EE926000EEA220B
:104FF000080EEF6EFE0EDB503B0DF3CFE9FFF4CF52
:10500000EAFF000EE9260E0EEA22080EE926000E3F
:10501000EA22EECFE6FFEFCFE6FFFE0EDBCFE6FFA4
:105020006CEC02F0E552E552E55200D1FE0EDBCF0A
:10503000E6FF57EC68F0E552000910E1FE0EDBCF09
:10504000E6FFD4EC68F0E552000908E1FE0EDBCF84
:10505000E6FFA2EC68F0E552000961E0FE0EDBCF4E
:10506000E6FF57EC68F0E552000904E00E010C0E73
:10507000786F17D0FE0EDBCFE6FFD4EC68F0E55278
:10508000000904E00E010D0E786F0BD0FE0EDBCF91
:10509000E6FFA2EC68F0E552000903E00E010E0EF7
:1050A000786FFE0EDB503B0DF3CFE9FFF4CFEAFF44
:1050B000000EE9260E0EEA223A0EE926000EEA223A
:1050C000EF6AE66AFE0EDBCFE6FF00EC6AF0E5521F
:1050D000E552FE0EDB503B0DF3CFE9FFF4CFEAFFC4
:1050E000000EE9260E0EEA22380EE926000EEA220C
:1050F000EE6AED6AE66A020EE66EFE0EDBCFE6FFB2
:105100006CEC02F0E552E552E552010EE66EFE0E41
:10511000DBCFE6FF91EC02F0E552E55287D00E01BD
:105120007869FE0EDBCFE6FF0CEC68F0E552010873
:1051300068E1E66AFE0EDBCFE6FF00EC6AF0E552BE
:10514000E552FE0EDB503B0DF3CFE9FFF4CFEAFF53
:10515000000EE9260E0EEA223A0EE926000EEA2299
:10516000EF6AE66A020EE66EFE0EDBCFE6FF6CEC3F
:1051700002F0E552E552E552010EE66EFE0EDBCF7F
:10518000E6FF91EC02F0E552E552FE0EDB503B0DDE
:10519000F3CFE9FFF4CFEAFF000EE9260E0EEA2274
:1051A0002A0EE926000EEA22EE6AED6AFE0EDB50B8
:1051B0003B0DF3CFE9FFF4CFEAFF000EE9260E0E18
:1051C000EA22380EE926000EEA22EE6AED6AFE0EA9
:1051D000DBCFE6FFABEC3EF0E552010EE66EFE0ED5
:1051E000DBCFE6FF1AEC6AF0E552E552E66AFE0E06
:1051F000DBCFE6FF82EC6AF0E552E5520E01786BF8
:1052000015D014D0FE0EDB503B0DF3CFE9FFF4CFE9
:10521000EAFF000EE9260E0EEA223A0EE926000EFB
:10522000EA22EF6A0E01EE0E786F00D00E0178517F
:1052300000D0E552E7CFD9FF1200D9CFE6FFE1CF8A
:10524000D9FFFE0EDB503B0DF3CFE9FFF4CFEAFFB1
:10525000000EE9260E0EEA223A0EE926000EEA2298
:10526000EF50080A02E1F9EF34F00F0A02E1E1EF32
:1052700033F0010A02E190EF33F0030A02E1E7EFB5
:1052800032F0010A02E161EF2FF0070A01E16ED26C
:10529000010A01E197D1030A01E1B9D0010A02E054
:1052A0000CEF36F0FE0EDBCFE6FF70EC68F0E55257
:1052B000000910E1FE0EDBCFE6FFD4EC68F0E5520A
:1052C000000908E1FE0EDBCFE6FFA2EC68F0E55234
:1052D000000951E0FE0EDB503B0DF3CFE9FFF4CFA8
:1052E000EAFF000EE9260E0EEA223A0EE926000E2B
:1052F000EA22EF6AE66AFE0EDBCFE6FF00EC6AF018
:10530000E552E552E66A020EE66EFE0EDBCFE6FFE0
:105310006CEC02F0E552E552E552010EE66EFE0E2F
:10532000DBCFE6FF91EC02F0E552E552FE0EDBCF5B
:10533000E6FF70EC68F0E552000904E00E010A0E89
:10534000796F17D0FE0EDBCFE6FFD4EC68F0E552A4
:10535000000904E00E010D0E796F0BD0FE0EDBCFBD
:10536000E6FFA2EC68F0E552000903E00E010E0E24
:10537000796F20EF36F00E017969FE0EDB503B0DA0
:10538000F3CFE9FFF4CFEAFF000EE9260E0EEA2282
:10539000040EE926000EEA22EECF14F0EFCF15F04E
:1053A000FE0EDB503B0DF3CFE9FFF4CFEAFF000E1A
:1053B000E9260E0EEA22220EE926000EEA2214C089
:1053C000EEFF15C0EDFFE66AFE0EDBCFE6FF1AEC3E
:1053D0006AF0E552E552010EE66EFE0EDBCFE6FF07
:1053E00082EC6AF0E552E552FE0EDB503B0DF3CF46
:1053F000E9FFF4CFEAFF000EE9260E0EEA223A0E8C
:10540000E926000EEA22010EEF6E20EF36F0010EC3
:10541000E66EFE0EDBCFE6FF00EC6AF0E552E552E9
:10542000E66AFE0EDBCFE6FF91EC02F0E552E552B4
:10543000FE0EDB503B0DF3CFE9FFF4CFEAFF000E89
:10544000E9260E0EEA22220EE926000EEA22EECF0F
:10545000E6FFEFCFE6FFFE0EDBCFE6FF6CEC02F0DF
:10546000E552E552E552FE0EDB503B0DF3CFE9FF6E
:10547000F4CFEAFF000EE9260E0EEA22220EE926FC
:10548000000EEA22EECF14F0EFCF15F0FE0EDB5047
:105490003B0DF3CFE9FFF4CFEAFF000EE9260E0E35
:1054A000EA22EECF16F0EFCF17F01650145C17502B
:1054B000155824E3FE0EDB503B0DF3CFE9FFF4CF8C
:1054C000EAFF000EE9260E0EEA223A0EE926000E49
:1054D000EA22020EEF6EFE0EDB503B0DF3CFE9FF2A
:1054E000F4CFEAFF000EE9260E0EEA222C0EE92682
:1054F000000EEA22EE6AED6A20EF36F0FE0EDB5077
:105500003B0DF3CFE9FFF4CFEAFF000EE9260E0EC4
:10551000EA222C0EE926000EEA22EECF14F0EFCF9D
:1055200015F0FE0EDB503B0DF3CFE9FFF4CFEAFFA1
:10553000000EE9260E0EEA22120EE926000EEA22DD
:10554000EECF16F0EFCF17F01650145C1750155829
:1055500023E3FE0EDB503B0DF3CFE9FFF4CFEAFF70
:10556000000EE9260E0EEA22220EE926000EEA229D
:10557000EE2A000EEF22FE0EDB503B0DF3CFE9FFCB
:10558000F4CFEAFF000EE9260E0EEA222C0EE926E1
:10559000000EEA22EE6AED6AFE0EDB503B0DF3CF01
:1055A000E9FFF4CFEAFF000EE9260E0EEA222C0EE8
:1055B000E926000EEA22EE2A000EEF220E0179699A
:1055C00020EF36F0FE0EDBCFE6FF70EC68F0E55220
:1055D000000910E1FE0EDBCFE6FFD4EC68F0E552E7
:1055E000000908E1FE0EDBCFE6FFA2EC68F0E55211
:1055F000000951E0FE0EDBCFE6FF70EC68F0E552EB
:10560000000904E00E010A0E796F17D0FE0EDBCF01
:10561000E6FFD4EC68F0E552000904E00E010D0E3F
:10562000796F0BD0FE0EDBCFE6FFA2EC68F0E552FF
:10563000000903E00E010E0E796FFE0EDB503B0DEC
:10564000F3CFE9FFF4CFEAFF000EE9260E0EEA22BF
:105650003A0EE926000EEA22EF6AE66AFE0EDBCF7A
:10566000E6FF00EC6AF0E552E552E66A020EE66EED
:10567000FE0EDBCFE6FF6CEC02F0E552E552E552A0
:10568000010EE66EFE0EDBCFE6FF91EC02F0E55276
:10569000E55220EF36F0FE0EDB503B0DF3CFE9FF75
:1056A000F4CFEAFF000EE9260E0EEA222A0EE926C2
:1056B000000EEA22EE2A000EEF22FE0EDBCFE6FFFE
:1056C0000CEC68F0E55200094DE1FE0EDB503B0D9D
:1056D000F3CFE9FFF4CFEAFF000EE9260E0EEA222F
:1056E0002A0EE926000EEA22EECF14F0EFCF15F0D5
:1056F000FE0EDB503B0DF3CFE9FFF4CFEAFF000EC7
:10570000E9260E0EEA220C0EE926000EEA22EECF62
:1057100016F0EFCF17F01450165C1550175822E210
:10572000FE0EDB503B0DF3CFE9FFF4CFEAFF000E96
:10573000E9260E0EEA223A0EE926000EEA22030EB0
:10574000EF6EFE0EDB503B0DF3CFE9FFF4CFEAFF27
:10575000000EE9260E0EEA222A0EE926000EEA22A3
:10576000EE6AED6A0E01796920EF36F0FE0EDBCFAE
:10577000E6FF70EC68F0E552000910E1FE0EDBCFA9
:10578000E6FFD4EC68F0E552000908E1FE0EDBCF3D
:10579000E6FFA2EC68F0E552000962E0FE0EDBCF06
:1057A000E6FF70EC68F0E552000904E00E010A0E15
:1057B000796F17D0FE0EDBCFE6FFD4EC68F0E55230
:1057C000000904E00E010D0E796F0BD0FE0EDBCF49
:1057D000E6FFA2EC68F0E552000903E00E010E0EB0
:1057E000796FFE0EDB503B0DF3CFE9FFF4CFEAFFFC
:1057F000000EE9260E0EEA223A0EE926000EEA22F3
:10580000EF6AE66AFE0EDBCFE6FF00EC6AF0E552D7
:10581000E552FE0EDB503B0DF3CFE9FFF4CFEAFF7C
:10582000000EE9260E0EEA22380EE926000EEA22C4
:10583000EE6AED6AE66A020EE66EFE0EDBCFE6FF6A
:105840006CEC02F0E552E552E552010EE66EFE0EFA
:10585000DBCFE6FF91EC02F0E552E55220EF36F0A7
:10586000FE0EDB503B0DF3CFE9FFF4CFEAFF000E55
:10587000E9260E0EEA22320EE926000EEA22EECFCB
:1058800014F0EFCF15F0030E141801E1155001E1EB
:1058900005D2020E141801E1155001E17FD0010E6E
:1058A000141801E1155066E0145001E1155001E0B3
:1058B00042D2FE0EDB5002E0000E01D0010EE96E76
:1058C000EA6AE9BEEA683B0EEA02F3CFEAFF3B0E62
:1058D000E902F3CFE9FFF450EA26000EE9260E0EA6
:1058E000EA22380EE926000EEA22EE50ED1030E1F1
:1058F000FE0EDB503B0DF3CFE9FFF4CFEAFF000EC5
:10590000E9260E0EEA22380EE926000EEA22010EE2
:10591000EE6EED6AFE0EDB0403E1090EC26E05D0E9
:10592000FE0EDB5002E10D0EC26EFE0EDB503B0D93
:10593000F3CFE9FFF4CFEAFF000EE9260E0EEA22CC
:10594000320EE926000EEA22010EEE6EED6A11D04B
:10595000FE0EDB503B0DF3CFE9FFF4CFEAFF000E64
:10596000E9260E0EEA22320EE926000EEA22EE6A3F
:10597000ED6AF3D1C282FE0EDB503B0DF3CFE9FF9F
:10598000F4CFEAFF000EE9260E0EEA22320EE926D7
:10599000000EEA22020EEE6EED6ADFD1C2B27DD1B8
:1059A000C450166E16C017F0166AC35000011610C8
:1059B000146E17C015F0FE0EDB503B0DF3CFE9FF60
:1059C000F4CFEAFF000EE9260E0EEA22340EE92695
:1059D000000EEA2214C0EEFF15C0EDFFFE0EDB50F4
:1059E0003B0DF3CFE9FFF4CFEAFF000EE9260E0EE0
:1059F000EA22340EE926000EEA22EECF14F0EFCFB1
:105A000015F03A0E145C020E15582EE3FE0EDB5014
:105A10003B0DF3CFE9FFF4CFEAFF000EE9260E0EAF
:105A2000EA22220EE926000EEA22EE06000EEF5AC6
:105A3000FE0EDB503B0DF3CFE9FFF4CFEAFF000E83
:105A4000E9260E0EEA22220EE926000EEA22EECF09
:105A5000E6FFEFCFE6FFFE0EDBCFE6FF6CEC02F0D9
:105A6000E552E552E552A4D0FE0EDB503B0DF3CFDC
:105A7000E9FFF4CFEAFF000EE9260E0EEA22340E0B
:105A8000E926000EEA22260ED880EE54020EED54CE
:105A900065E3FE0EDB503B0DF3CFE9FFF4CFEAFFE9
:105AA000000EE9260E0EEA22340EE926000EEA2246
:105AB000320ED880EE54000EED5450E2FE0EDB5054
