:020000040000FA
:06000000B6EF57F01200FC
:020006001200E6
:0600080085EF36F0120046
:02000E000004EC
:04001000A3102030E9
:0400140062801200F4
:060018008EEF36F012002D
:02001E001300CD
:10002000E4B000007803000001000000E3B000002D
:100030007703000001000000CCB0000000030000C6
:1000400017000000CBB000007603000001000000A4
:10005000C4B000003E03000007000000BBB0000079
:100060003503000009000000B7B00000660300007F
:1000700004000000B5B000007103000002000000A1
:1000800009970000750300000100000089B000001E
:10009000D30200002C000000E5AF00007403000054
:1000A0000100000085B000006203000004000000B1
:1000B0007AB00000520F00000B00000078B0000082
:1000C0006F030000020000004AB000002E0E000086
:1000D0002E00000046B000005E0300000400000097
:1000E00042B000005A030000040000003CB00000D1
:1000F0004B030000060000003AB000006D03000052
:0401000002000000F9
:0C010400D9CFE6FFE1CFD9FFFE0EDB50A3
:10011000170DF3CFE9FFF4CFEAFF2E0EE9260E0EFE
:10012000EA22EE52EE2A000EEF22FE0EDB50170DF1
:10013000F3CFE9FFF4CFEAFF2E0EE9260E0EEA22F6
:10014000EE52EECF14F0EFCF15F0880E145C130EC4
:1001500015582BE3FE0EDB50170DF3CFE9FFF4CF5C
:10016000EAFF2E0EE9260E0EEA22EE52EE6AED6A44
:10017000FE0EDB50170DF3CFE9FFF4CFEAFF2E0E92
:10018000E9260E0EEA22EF6AFE0EDB50170DF3CFC2
:10019000E9FFF4CFEAFF2E0EE9260E0EEA22150E35
:1001A000E926000EEA22010EEF6EE66ABBEC2CF0A7
:1001B000E552000928E1FE0EDB50170DF3CFE9FFF1
:1001C000F4CFEAFF2E0EE9260E0EEA22160EE926DD
:1001D000000EEA22EF0416E1FE0EDBCFE6FF52EC42
:1001E00008F0E552FE0EDB50170DF3CFE9FFF4CF18
:1001F000EAFF2E0EE9260E0EEA22160EE926000E62
:10020000EA22EF6A17D0E66ABBEC2CF0E55201084F
:1002100011E1FE0EDB50170DF3CFE9FFF4CFEAFF3B
:100220002E0EE9260E0EEA22160EE926000EEA220E
:10023000010EEF6EFE0EDBCFE6FF05D8E552E5526C
:10024000E7CFD9FF1200D9CFE6FFE1CFD9FFFE0EED
:10025000DB50170DF3CFE9FFF4CFEAFF2E0EE926AE
:100260000E0EEA22EF50040A02E18BEF06F0070AB5
:1002700002E160EF05F0010A01E1CFD2030A01E1DA
:1002800069D1010A02E0FDEF07F0FE0EDB0404E194
:100290000F014D0E5D6F06D0FE0EDB5003E10F0126
:1002A0005A0E5D6F0F015E51E8240F015E6FFE0E66
:1002B000DBCFE6FFE6EC2CF0E5520F015E110F01FB
:1002C0005E6F0F015E51E8240F015E6FFE0EDBCF03
:1002D000E6FFFFEC2CF0E5520F015E110F015E6F9F
:1002E0000F015E51E8240F015E6FFE0EDBCFE6FFCB
:1002F00018EC2DF0E5520F015E110F015E6F0F013A
:100300005E51E8240F015E6FFE0EDBCFE6FF31EC9D
:100310002DF0E5520F015E110F015E6F0F015E516E
:10032000E8240F015E6FFE0EDBCFE6FF4AEC2DF0F6
:10033000E5520F015E110F015E6F0F015E51E8245F
:100340000F015E6FFE0EDBCFE6FF63EC2DF0E55292
:100350000F015E110F015E6F0F015E51E8240F0166
:100360005E6FFE0EDBCFE6FF7CEC2DF0E5520F0159
:100370005E110F015E6F0F015E51E8240F015E6F89
:10038000010E0F015E110F015E6F0F015F6BFE0E1C
:10039000DB50170DF3CFE9FFF4CFEAFF2E0EE9266D
:1003A0000E0EEA22060EE926000EEA22E9CF14F02C
:1003B000EACF15F0FE0EDB50170DF3CFE9FFF4CFB7
:1003C000EAFF2E0EE9260E0EEA22EF50030D14501E
:1003D000F324E96E1550F420EA6EEF500F015D5DD5
:1003E0004EE1FE0EDB50170DF3CFE9FFF4CFEAFF2D
:1003F0002E0EE9260E0EEA22060EE926000EEA224D
:10040000E9CF16F0EACF17F0FE0EDB50170DF3CF51
:10041000E9FFF4CFEAFF2E0EE9260E0EEA22EF5096
:10042000030D1650F324E96E1750F420EA6E010E06
:10043000E926000EEA22EF500F015E5D20E1FE0E7C
:10044000DB50170DF3CFE9FFF4CFEAFF2E0EE926BC
:100450000E0EEA22150EE926000EEA22EF500FE1F9
:10046000FE0EDB50170DF3CFE9FFF4CFEAFF2E0E9F
:10047000E9260E0EEA22010EEF6E0AEF08F0FE0EDC
:10048000DB50170DF3CFE9FFF4CFEAFF2E0EE9267C
:100490000E0EEA22060EE926000EEA22E9CF14F03B
:1004A000EACF15F0FE0EDB50170DF3CFE9FFF4CFC6
:1004B000EAFF2E0EE9260E0EEA22EF50030D14502D
:1004C000F324E96E1550F420EA6E5DCFEFFFFE0EC7
:1004D000DB50170DF3CFE9FFF4CFEAFF2E0EE9262C
:1004E0000E0EEA22060EE926000EEA22E9CF14F0EB
:1004F000EACF15F0FE0EDB50170DF3CFE9FFF4CF76
:10050000EAFF2E0EE9260E0EEA22EF50030D1450DC
:10051000F324E96E1550F420EA6E010EE926000E70
:10052000EA225ECFEFFF5D0EE66E0F0EE66E70EC18
:1005300031F0E552E552FE0EDB50170DF3CFE9FF27
:10054000F4CFEAFF2E0EE9260E0EEA22010EEF6E20
:100550000AEF08F0FE0EDB0404E10F014C0E5D6FA4
:1005600006D0FE0EDB5003E10F01590E5D6F0F0147
:100570005E51E8240F015E6FFE0EDBCFE6FF2BEC31
:100580002EF0E552146E0F015E39F00B14100F01BE
:100590005E6F0F015E51E8240F015E6FFE0EDBCF30
:1005A000E6FFAEEC2DF0E5520F015E110F015E6F1C
:1005B0000F015E51E8240F015E6FFE0EDBCFE6FFF8
:1005C000C7EC2DF0E5520F015E110F015E6F0F01B8
:1005D0005E51E8240F015E6FFE0EDB50170DF3CF66
:1005E000E9FFF4CFEAFF2E0EE9260E0EEA22160EE0
:1005F000E926000EEA22EF5006E1010E0F015E111E
:100600000F015E6F1BD0FE0EDB50170DF3CFE9FF1D
:10061000F4CFEAFF2E0EE9260E0EEA22160EE92688
:10062000000EEA22EF040AE1FE0EDBCFE6FF12EC39
:100630002EF0E5520F015E110F015E6F0F015E514A
:10064000E8240F015E6F010E0F015E110F015E6F56
:100650000F015F6BFE0EDB50170DF3CFE9FFF4CFF8
:10066000EAFF2E0EE9260E0EEA22060EE926000EFD
:10067000EA22E9CF14F0EACF15F0FE0EDB50170D99
:10068000F3CFE9FFF4CFEAFF2E0EE9260E0EEA22A1
:10069000EF50030D1450F324E96E1550F420EA6E68
:1006A000EF500F015D5D4EE1FE0EDB50170DF3CFF5
:1006B000E9FFF4CFEAFF2E0EE9260E0EEA22060E1F
:1006C000E926000EEA22E9CF16F0EACF17F0FE0E77
:1006D000DB50170DF3CFE9FFF4CFEAFF2E0EE9262A
:1006E0000E0EEA22EF50030D1650F324E96E175058
:1006F000F420EA6E010EE926000EEA22EF500F0107
:100700005E5D20E1FE0EDB50170DF3CFE9FFF4CF65
:10071000EAFF2E0EE9260E0EEA22150EE926000E3D
:10072000EA22EF500FE1FE0EDB50170DF3CFE9FF89
:10073000F4CFEAFF2E0EE9260E0EEA22020EEF6E2D
:100740000AEF08F0FE0EDB50170DF3CFE9FFF4CFF0
:10075000EAFF2E0EE9260E0EEA22060EE926000E0C
:10076000EA22E9CF14F0EACF15F0FE0EDB50170DA8
:10077000F3CFE9FFF4CFEAFF2E0EE9260E0EEA22B0
:10078000EF50030D1450F324E96E1550F420EA6E77
:100790005DCFEFFFFE0EDB50170DF3CFE9FFF4CF77
:1007A000EAFF2E0EE9260E0EEA22060EE926000EBC
:1007B000EA22E9CF14F0EACF15F0FE0EDB50170D58
:1007C000F3CFE9FFF4CFEAFF2E0EE9260E0EEA2260
:1007D000EF50030D1450F324E96E1550F420EA6E27
:1007E000010EE926000EEA225ECFEFFF5D0EE66EF7
:1007F0000F0EE66E70EC31F0E552E552FE0EDB5066
:10080000170DF3CFE9FFF4CFEAFF2E0EE9260E0E07
:10081000EA22020EEF6E0AEF08F0FE0EDB0404E19E
:100820000F014B0E5D6F06D0FE0EDB5003E10F0192
:10083000580E5D6F0F015E51E8240F015E6FFE0ED2
:10084000DBCFE6FF5DEC2EF0E5520F015E110F01EC
:100850005E6F0F015E51E8240F015E6FFE0EDBCF6D
:10086000E6FF76EC2EF0E5520F015E110F015E6F90
:100870000F015E51E8240F015E6FFE0EDBCFE6FF35
:100880008FEC2EF0E5520F015E110F015E6F0F012C
:100890005E51E8240F015E6FFE0EDBCFE6FFA8EC91
:1008A0002EF0E5520F015E110F015E6F0F015E51D8
:1008B000E8240F015E6FFE0EDBCFE6FFC1EC2EF0E9
:1008C000E5520F015E110F015E6F0F015E51E824CA
:1008D0000F015E6F5ECF5EFF0F015E51E8240F01D6
:1008E0005E6F5ECF5EFF0F015E51E8240F015E6F09
:1008F000010E0F015E110F015E6F0F015F6BFE0EA7
:10090000DB50170DF3CFE9FFF4CFEAFF2E0EE926F7
:100910000E0EEA22060EE926000EEA22E9CF14F0B6
:10092000EACF15F0FE0EDB50170DF3CFE9FFF4CF41
:10093000EAFF2E0EE9260E0EEA22EF50030D1450A8
:10094000F324E96E1550F420EA6EEF500F015D5D5F
:100950004DE1FE0EDB50170DF3CFE9FFF4CFEAFFB8
:100960002E0EE9260E0EEA22060EE926000EEA22D7
:10097000E9CF16F0EACF17F0FE0EDB50170DF3CFDC
:10098000E9FFF4CFEAFF2E0EE9260E0EEA22EF5021
:10099000030D1650F324E96E1750F420EA6E010E91
:1009A000E926000EEA22EF500F015E5D1FE1FE0E08
:1009B000DB50170DF3CFE9FFF4CFEAFF2E0EE92647
:1009C0000E0EEA22150EE926000EEA22EF500EE185
:1009D000FE0EDB50170DF3CFE9FFF4CFEAFF2E0E2A
:1009E000E9260E0EEA22030EEF6E14D3FE0EDB5044
:1009F000170DF3CFE9FFF4CFEAFF2E0EE9260E0E16
:100A0000EA22060EE926000EEA22E9CF14F0EACF28
:100A100015F0FE0EDB50170DF3CFE9FFF4CFEAFF20
:100A20002E0EE9260E0EEA22EF50030D1450F32489
:100A3000E96E1550F420EA6E5DCFEFFFFE0EDB503D
:100A4000170DF3CFE9FFF4CFEAFF2E0EE9260E0EC5
:100A5000EA22060EE926000EEA22E9CF14F0EACFD8
:100A600015F0FE0EDB50170DF3CFE9FFF4CFEAFFD0
:100A70002E0EE9260E0EEA22EF50030D1450F32439
:100A8000E96E1550F420EA6E010EE926000EEA2206
:100A90005ECFEFFF5D0EE66E0F0EE66E70EC31F08E
:100AA000E552E552FE0EDB50170DF3CFE9FFF4CF10
:100AB000EAFF2E0EE9260E0EEA22040EEF6EAAD2EF
:100AC000FE0EDB0404E10F014A0E5D6F06D0FE0E40
:100AD000DB5003E10F01570E5D6F0F015E51E824FB
:100AE0000F015E6F5ECF5EFF0F015E51E8240F01C4
:100AF0005E6F5ECF5EFF0F015E51E8240F015E6FF7
:100B00005ECF5EFF0F015E51E8240F015E6F5ECF86
:100B10005EFF0F015E51E8240F015E6F5ECF5EFF46
:100B20000F015E51E8240F015E6F5ECF5EFF0F0183
:100B30005E51E8240F015E6F5ECF5EFF0F015E51D4
:100B4000E8240F015E6F010E0F015E110F015E6F51
:100B50000F015F6BFE0EDB50170DF3CFE9FFF4CFF3
:100B6000EAFF2E0EE9260E0EEA22060EE926000EF8
:100B7000EA22E9CF14F0EACF15F0FE0EDB50170D94
:100B8000F3CFE9FFF4CFEAFF2E0EE9260E0EEA229C
:100B9000EF50030D1450F324E96E1550F420EA6E63
:100BA000EF500F015D5D4DE1FE0EDB50170DF3CFF1
:100BB000E9FFF4CFEAFF2E0EE9260E0EEA22060E1A
:100BC000E926000EEA22E9CF16F0EACF17F0FE0E72
:100BD000DB50170DF3CFE9FFF4CFEAFF2E0EE92625
:100BE0000E0EEA22EF50030D1650F324E96E175053
:100BF000F420EA6E010EE926000EEA22EF500F0102
:100C00005E5D1FE1FE0EDB50170DF3CFE9FFF4CF61
:100C1000EAFF2E0EE9260E0EEA22150EE926000E38
:100C2000EA22EF500EE1FE0EDB50170DF3CFE9FF85
:100C3000F4CFEAFF2E0EE9260E0EEA22040EEF6E26
:100C4000E9D1FE0EDB50170DF3CFE9FFF4CFEAFF39
:100C50002E0EE9260E0EEA22060EE926000EEA22E4
:100C6000E9CF14F0EACF15F0FE0EDB50170DF3CFED
:100C7000E9FFF4CFEAFF2E0EE9260E0EEA22EF502E
:100C8000030D1450F324E96E1550F420EA6E5DCF85
:100C9000EFFFFE0EDB50170DF3CFE9FFF4CFEAFFB5
:100CA0002E0EE9260E0EEA22060EE926000EEA2294
:100CB000E9CF14F0EACF15F0FE0EDB50170DF3CF9D
:100CC000E9FFF4CFEAFF2E0EE9260E0EEA22EF50DE
:100CD000030D1450F324E96E1550F420EA6E010E52
:100CE000E926000EEA225ECFEFFF5D0EE66E0F0EE4
:100CF000E66E70EC31F0E552E552FE0EDB50170D5A
:100D0000F3CFE9FFF4CFEAFF2E0EE9260E0EEA221A
:100D1000040EEF6E7FD1FE0EDB0404E10F01490EDD
:100D20005D6F06D0FE0EDB5003E10F01560E5D6FC6
:100D30000F015E51E8240F015E6FFE0EDBCFE6FF70
:100D4000E0EC2DF0E5520F015E110F015E6F0F0117
:100D50005E51E8240F015E6FFE0EDBCFE6FFF9EC7B
:100D60002DF0E5520F015E110F015E6F0F015E5114
:100D7000E8240F015E6FFE0EDBCFE6FFBBEC2CF02C
:100D8000E5520F015E110F015E6F0F015E51E82405
:100D90000F015E6FFE0EDBCFE6FF95EC2DF0E55206
:100DA0000F015E110F015E6F0F015E51E8240F010C
:100DB0005E6FFE0EDBCFE6FF44EC2EF0E5520F0136
:100DC0005E110F015E6F0F015E51E8240F015E6F2F
:100DD0005ECF5EFF0F015E51E8240F015E6F5ECFB4
:100DE0005EFF0F015E51E8240F015E6F010E0F01DF
:100DF0005E110F015E6F0F015F6BFE0EDB50170D72
:100E0000F3CFE9FFF4CFEAFF2E0EE9260E0EEA2219
:100E1000060EE926000EEA22E9CF14F0EACF15F01B
:100E2000FE0EDB50170DF3CFE9FFF4CFEAFF2E0ED5
:100E3000E9260E0EEA22EF50030D1450F324E96E5A
:100E40001550F420EA6EEF500F015D5D4CE1FE0E8F
:100E5000DB50170DF3CFE9FFF4CFEAFF2E0EE926A2
:100E60000E0EEA22060EE926000EEA22E9CF16F05F
:100E7000EACF17F0FE0EDB50170DF3CFE9FFF4CFEA
:100E8000EAFF2E0EE9260E0EEA22EF50030D165051
:100E9000F324E96E1750F420EA6E010EE926000EE5
:100EA000EA22EF500F015E5D1EE1FE0EDB50170DD2
:100EB000F3CFE9FFF4CFEAFF2E0EE9260E0EEA2269
:100EC000150EE926000EEA22EF500DE1FE0EDB5072
:100ED000170DF3CFE9FFF4CFEAFF2E0EE9260E0E31
:100EE000EA22EF6A97D0FE0EDB50170DF3CFE9FF31
:100EF000F4CFEAFF2E0EE9260E0EEA22060EE926B0
:100F0000000EEA22E9CF14F0EACF15F0FE0EDB5016
:100F1000170DF3CFE9FFF4CFEAFF2E0EE9260E0EF0
:100F2000EA22EF50030D1450F324E96E1550F4201B
:100F3000EA6E5DCFEFFFFE0EDB50170DF3CFE9FF3A
:100F4000F4CFEAFF2E0EE9260E0EEA22060EE9265F
:100F5000000EEA22E9CF14F0EACF15F0FE0EDB50C6
:100F6000170DF3CFE9FFF4CFEAFF2E0EE9260E0EA0
:100F7000EA22EF50030D1450F324E96E1550F420CB
:100F8000EA6E010EE926000EEA225ECFEFFF5D0E4B
:100F9000E66E0F0EE66E70EC31F0E552E552FE0E95
:100FA000DB50170DF3CFE9FFF4CFEAFF2E0EE92651
:100FB0000E0EEA22EF6AFE0EDB50170DF3CFE9FFAB
:100FC000F4CFEAFF2E0EE9260E0EEA22150EE926D0
:100FD000000EEA22EF0410E1FE0EDB50170DF3CFF6
:100FE000E9FFF4CFEAFF2E0EE9260E0EEA22150ED7
:100FF000E926000EEA22EF6A0DD0FE0EDB50170D37
:10100000F3CFE9FFF4CFEAFF2E0EE9260E0EEA2217
:10101000EF6A00D0E552E7CFD9FF1200D9CFE6FF43
:10102000E1CFD9FFFE0EDB0404E10F01410E5D6F3D
:1010300006D0FE0EDB5003E10F01420E5D6F0F0183
:10104000010E5E6F0F015F6B5D0EE66E0F0EE66EBA
:1010500070EC31F0E552E552E552E7CFD9FF1200CE
:10106000D9CFE6FFE1CFD9FFFE0EDB0404E10F018B
:10107000410E5D6F06D0FE0EDB5003E10F01420E04
:101080005D6F0F01020E5E6F0F015F6B5D0EE66E0E
:101090000F0EE66E70EC31F0E552E552E552E7CF07
:1010A000D9FF1200D9CFE6FFE1CFD9FFFE0EDB0456
:1010B00004E10F01410E5D6F06D0FE0EDB5003E12F
:1010C0000F01420E5D6F0F01030E5E6F0F015F6B2C
:1010D0005D0EE66E0F0EE66E70EC31F0E552E552F5
:0810E000E552E7CFD9FF120031
:0810E800D9CFE6FFE1CFD9FFEB
:1010F000050EE12666C3DFFF010E67C3DBFF020EAC
:1011000068C3DBFF030E69C3DBFFFB0EDBCF14F00C
:10111000FC0EDBCF15F0FD0EDBCF16F0FE0EDBCFA5
:1011200017F014501510161017100BE1010EF36E86
:10113000FB0EF3CFDBFFFC0EDB6AFD0EDB6AFE0E5F
:10114000DB6AFB0EDBCF66F3FC0EDBCF67F3FD0E35
:10115000DBCF68F3FE0EDBCF69F3040EDB6A100E03
:10116000F36E040EDBCFF4FFF350F45C04E218D806
:10117000040EDB2AF4D7DECF06F0DECF07F0DECF99
:1011800008F0DDCF09F0DD52DD5200D0050EE15C44
:1011900002E2E16AE552E16EE552E7CFD9FF1200C3
:1011A000D9CFE6FFE1CFD9FFE652DF6A0F0EDF5C51
:1011B0003AE266C314F067C315F068C316F069C35A
:1011C00017F0D890173216321532143266C318F061
:1011D00067C319F068C31AF069C31BF0010E181633
:1011E000196A1A6A1B6A000E186C191E19221A1E37
:1011F0001A221B1E1B22010E1816196A1A6AD00E1B
:101200001B16145018180301666F155019180301A6
:10121000676F16501A180301686F17501B180301E7
:10122000696FDF2AC3D766C3F3FF67C3F4FF00D03B
:10123000E552E552E7CFD9FF1200D9CFE6FFE1CF63
:10124000D9FF140EE1260F0EC2CFDBFF100EC0CF68
:10125000DBFF110ED5CFDBFF130ED6CFDBFF120E57
:10126000D7CFDBFF010EC26E3F0EC06E880ED56E6B
:10127000DF6A070EDB6A080EDB6A090EDB6A0A0EFC
:10128000DB6A050EDB6A060EDB6A8ADFF3CF14F039
:10129000F4CF15F00B0E14C0DBFF0C0E15C0DBFFF6
:1012A0000D0EDB6A0E0EDB6AD76AD66AC2820400B4
:1012B000C2B2FED7030ED6CFDBFF040ED7CFDBFFC3
:1012C0006FDFDE52F3CFDEFFF4CFDDFFDD52030E22
:1012D000DBCF14F0040EDBCF15F0166A176AD95075
:1012E000070FE96EDACFEAFF1450EE261550EE2212
:1012F0001650EE221750EE22D950070FE96EDACFC2
:10130000EAFF1A0EEE5CF20EEE589E0EEE58000E3C
:10131000EE581DE345DFF3CF14F0F4CF15F0D950AC
:101320000B0FE96EDACFEAFF1450EE1A1550ED1AE2
:1013300037DFF3CF14F0F4CF15F0D9500D0FE96E6D
:10134000DACFEAFF1450EE1A1550ED1A5CD0050EF4
:10135000DBCF14F0060EDBCF15F0030EDB501418B4
:1013600003E1040EDB50151801E19ED7050EDBCF1B
:101370001AF0060EDBCF1BF0030EDB501A5C186E62
:10138000040EDB501B58196E010EDB501824146E2E
:10139000020EDB501920156E166A176A14C0E6FF9C
:1013A00015C0E6FF16C0E6FF17C0E6FF9DDEE5525A
:1013B000E552E552E552030EDBCF08F0040EDBCF19
:1013C00009F0050E08C0DBFF060E09C0DBFFD9508F
:1013D0000B0FE96EDACFEAFFD890EF36010EEB364D
:1013E000020EEB36030EEB36DBDEF350800B07E02C
:1013F000D9500B0FE96EDACFEAFFEE80ED52DF2A0B
:1014000001E101D051D70F0EDB50C26E100EDB5040
:10141000C06E120EDB50D76E130EDB50D66E110E5F
:10142000DB50D56E0B0EDBCF14F00C0EDBCF15F0BE
:101430000D0EDBCF16F00E0EDBCF17F014C006F04A
:1014400015C007F016C008F017C009F000D0140E40
:10145000E15C02E2E16AE552E16EE552E7CFD9FFD5
:101460001200D9CFE6FFE1CFD9FF070EE126050E26
:10147000DB6A060EDB6ADE6ADE6ADE6ADD6ADD5280
:10148000DD52FD0EDBCFE9FFDB2AFE0EDBCFEAFFEC
:1014900001E3DB2A040EEFCFDBFFEF5001E1BBD00D
:1014A000060EDB50030801E2B6D0300E146E040EB7
:1014B000DBCFE7FF1450E75E040EE7CFDBFF050E3E
:1014C000DB5007E1040EDB50090802E2000EE7D012
:1014D0008FD0050EDB50030844E1040EDB50FE08FC
:1014E00002E0000EDCD0D9CFE9FFDACFEAFFD880E6
:1014F000050EEE54050EEE54020EEE54000EEE54A0
:1015000002E2000ECCD0010EDB500A0DF3CF16F034
:10151000020EDB50640DF3501624DF24E66EFB0E42
:10152000DBCFE9FFFC0EDBCFEAFFE9CF14F0EACF17
:1015300015F0060EDBCFF3FFDB2AF3500F01142466
:10154000E96E000E1520EA6EE552E750EF6E050ECB
:10155000DB6ADE6ADE6ADE6ADD6ADD52DD5291D761
:1015600047D0040EDB50FE083DE1D9CFE9FFDACFCA
:10157000EAFFD880050EEE54050EEE54020EEE542E
:10158000000EEE5402E2000E8AD0010EDB500A0D6E
:10159000F3CF16F0020EDB50640DF3501624DF2457
:1015A000E66EFB0EDBCFE9FFFC0EDBCFEAFFE9CFF7
:1015B00014F0EACF15F0060EDBCFF3FFDB2AF35071
:1015C0000F011424E96E000E1520EA6EE552E75073
:1015D000EF6E050EDB6ADE6ADE6ADE6ADD6ADD5208
:1015E000DD524FD7040EDB50090802E2000E57D03F
:1015F000050EDB2AD9CFE9FFDACFEAFFEF50EE6A1A
:10160000EFCFF4FFEE6EEF50F4CFEEFFEF6E040E6F
:10161000DB50DF6E36D7040EDB5016E0040EDB50D5
:101620002F0812E0040EDB500D080EE0040EDB5014
:101630000A080AE0040EDB50200806E0040EDB5026
:10164000090802E0000E2BD0D9CFE9FFDACFEAFF7C
:10165000D880050EEE54050EEE54020EEE54000E28
:10166000EE5402E2000E1BD0010EDB500A0DF3CF48
:1016700014F0020EDB50640DF3501424DF24E66EE8
:10168000FB0EDBCFE9FFFC0EDBCFEAFF030EE92602
:10169000000EEA22E552E750EF6E010E00D0146E04
:1016A000070EE15C02E2E16AE552E16E1450E55298
:1016B000E7CFD9FF1200D9CFE6FFE1CFD9FF070E60
:1016C000E126050EDB6A060EDB6ADE6ADE6ADE6A8A
:1016D000DD6ADD52DD52D950FC0FE96EFF0EDA20D3
:1016E000EA6EEFCFF6FFEE2AEFCFF7FF000EEE2205
:1016F000EFCFF8FF000EEE220800040EF5CFDBFF5F
:10170000F55001E1BBD0060EDB50030801E2B6D074
:10171000300E146E040EDBCFE7FF1450E75E040EAC
:10172000E7CFDBFF050EDB5007E1040EDB500908B5
:1017300002E2000EE7D08FD0050EDB50030844E133
:10174000040EDB50FE0802E0000EDCD0D9CFE9FF2A
:10175000DACFEAFFD880050EEE54050EEE54020EE5
:10176000EE54000EEE5402E2000ECCD0010EDB501F
:101770000A0DF3CF16F0020EDB50640DF350162461
:10178000DF24E66EFA0EDBCFE9FFFB0EDBCFEAFFCC
:10179000E9CF14F0EACF15F0060EDBCFF3FFDB2A1A
:1017A000F3500F011424E96E000E1520EA6EE55285
:1017B000E750EF6E050EDB6ADE6ADE6ADE6ADD6A1E
:1017C000DD52DD5288D747D0040EDB50FE083DE1E4
:1017D000D9CFE9FFDACFEAFFD880050EEE54050E27
:1017E000EE54020EEE54000EEE5402E2000E8AD0C9
:1017F000010EDB500A0DF3CF16F0020EDB50640D24
:10180000F3501624DF24E66EFA0EDBCFE9FFFB0E61
:10181000DBCFEAFFE9CF14F0EACF15F0060EDBCFFD
:10182000F3FFDB2AF3500F011424E96E000E15209C
:10183000EA6EE552E750EF6E050EDB6ADE6ADE6A9D
:10184000DE6ADD6ADD52DD5246D7040EDB50090840
:1018500002E2000E57D0050EDB2AD9CFE9FFDACF1E
:10186000EAFFEF50EE6AEFCFF4FFEE6EEF50F4CFE9
:10187000EEFFEF6E040EDB50DF6E2DD7040EDB5053
:1018800016E0040EDB502F0812E0040EDB500D08AA
:101890000EE0040EDB500A080AE0040EDB502008BC
:1018A00006E0040EDB50090802E0000E2BD0D9CF71
:1018B000E9FFDACFEAFFD880050EEE54050EEE54AC
:1018C000020EEE54000EEE5402E2000E1BD0010E8A
:1018D000DB500A0DF3CF14F0020EDB50640DF35011
:1018E0001424DF24E66EFA0EDBCFE9FFFB0EDBCF1C
:1018F000EAFF030EE926000EEA22E552E750EF6EFA
:10190000010E00D0146E070EE15C02E2E16AE552BE
:10191000E16E1450E552E7CFD9FF1200D9CFE6FFB0
:10192000E1CFD9FF060EE126050EDB6AD950FD0F87
:10193000E96EFF0EDA20EA6EEE50ED1001E178D08C
:10194000DF6A100EF36E030EF3CFDBFF270EF36E8C
:10195000040EF3CFDBFF050EDF5C69E2FD0EDBCF8B
:1019600008F0FE0EDBCF09F0030EDBCF0DF0040E06
:10197000DBCF0EF028EC57F0DE5208C0DEFF09C0C6
:10198000DDFFDD52D950010FE96EDACFEAFFEE50EC
:10199000ED1003E1050EDB5036E0010EDBCF14F055
:1019A000020EDBCF15F0300E1426000E1522FB0EB2
:1019B000DBCFE9FFDB2AFC0EDBCFEAFF01E3DB2A0A
:1019C00014C0EFFF010EDBCF08F0020EDBCF09F0F1
:1019D000030EDBCF0DF0040EDBCF0EF09AEC54F0CB
:1019E00006C014F007C015F0D950FD0FE96EFF0EC8
:1019F000DA20EA6E1450EE5E1550ED5A010EF36EC9
:101A0000050EF3CFDBFFD950030FE96EDACFEAFF03
:101A10000A0E0D6E0E6AEECF08F0EDCF09F028EC3D
:101A200057F008C0EEFF09C0EDFFDF2A94D70BD0B6
:101A3000FB0EDBCFE9FFDB2AFC0EDBCFEAFF01E385
:101A4000DB2A300EEF6EFB0EDBCFE9FFFC0EDBCFA7
:101A5000EAFFEF6A060EE15C02E2E16AE552E16E3E
:101A6000E552E7CFD9FF1200D9CFE6FFE1CFD9FF8A
:101A7000FE0EDB5046080AE2200E146EFE0EDBCF8F
:101A8000E7FF1450E75EFE0EE7CFDBFFFD0EDB50F5
:101A900046080AE2200E146EFD0EDBCFE7FF14505D
:101AA000E75EFD0EE7CFDBFFFE0EDB5039080BE2F1
:101AB000370E146EFE0EDBCFE7FF1450E75EFE0E0E
:101AC000E7CFDBFF0AD0300E146EFE0EDBCFE7FF50
:101AD0001450E75EFE0EE7CFDBFFFD0EDB5039084A
:101AE0000BE2370E146EFD0EDBCFE7FF1450E75EFE
:101AF000FD0EE7CFDBFF0AD0300E146EFD0EDBCFFC
:101B0000E7FF1450E75EFD0EE7CFDBFFFD0EDBCFF6
:101B1000E6FFFE0EDB38F00BE552E71000D0E55291
:101B2000E7CFD9FF1200D9CFE6FFE1CFD9FFFE0EF4
:101B3000DB380F0BF36EFE0EF3CFDBFFFE0EDB5038
:101B4000090805E2FE0EDB50410FF60F03D0FE0E32
:101B5000DB50300F00D0E552E7CFD9FF1200D9CFCC
:101B6000E6FFE1CFD9FFFE0EDB98DB9ADB9CDB9E24
:101B7000FE0EDB50090805E2FE0EDB50410FF60FAA
:101B800003D0FE0EDB50300F00D0E552E7CFD9FF77
:101B90001200D9CFE6FFE1CFD9FF020EE126FD0EFC
:101BA000DBCFE9FFFE0EDBCFEAFFEFCFDFFFFA0E60
:101BB000DBCFF6FFFB0EDBCFF7FFFC0EDBCFF8FF32
:101BC0000800010EF5CFDBFFDF5054E0010EDB50C3
:101BD00051E0610EDF5C05E3DF507A0802E3200E7E
:101BE000DF5E610EF36E010EDBCFF4FFF350F45CA9
:101BF0000EE3010EDB507A080AE3200E146E010E8C
:101C0000DBCFE7FF1450E75E010EE7CFDBFF010EED
:101C1000DB50D880DF5402E2010E3BD0010EDB50D6
:101C2000DF5C02E2FF0E35D0FD0EDB2AFE0E01E383
:101C3000DB2AD950FA0FE96EFF0EDA20EA6EEE2A9F
:101C4000000EEE22000EEE22FD0EDBCFE9FFFE0EAF
:101C5000DBCFEAFFEFCFDFFFFA0EDBCFF6FFFB0EA5
:101C6000DBCFF7FFFC0EDBCFF8FF0800010EF5CF4E
:101C7000DBFFAAD7010EDB50D880DF5402E2010E51
:101C800008D0010EDB50DF5C02E2FF0E02D0000E36
:101C900000D0146E020EE15C02E2E16AE552E16EF0
:101CA0001450E552E7CFD9FF1200D9CFE6FFE1CFBC
:101CB000D9FF030EE126FD0EDBCFDEFFDBCFDDFF1C
:101CC000010EDB50E76E020EE7CFDBFF010EDFCF28
:101CD000DBFF020EDB50DF6EDECF14F0DDCF15F040
:101CE00014C0F3FF15C0F4FF00D0030EE15C02E264
:101CF000E16AE552E16EE552E7CFD9FF1200D9CF94
:101D0000E6FFE1CFD9FFFB0EDBCFE7FFFE0EDB5096
:101D1000E71AFB0EE7CFDBFFFE0EDBCFE7FFFB0E84
:101D2000DB50E71AFE0EE7CFDBFFFB0EDBCFE7FF52
:101D3000FE0EDB50E71AFB0EE7CFDBFFFC0EDBCF1E
:101D4000E7FFFD0EDB50E71AFC0EE7CFDBFFFD0ED1
:101D5000DBCFE7FFFC0EDB50E71AFD0EE7CFDBFF22
:101D6000FC0EDBCFE7FFFD0EDB50E71AFC0EE7CFE2
:101D7000DBFFFB0EDBCF14F0FC0EDBCF15F0FD0E0E
:101D8000DBCF16F0FE0EDBCF17F014C006F015C047
:101D900007F016C008F017C009F000D0E552E7CFF1
:101DA000D9FF1200D9CFE6FFE1CFD9FF080EE12617
:101DB000FB0EDBCF14F0FC0EDBCF15F0D890153204
:101DC000143214C0DEFF15C0DDFFFD0EDBCF08F0BE
:101DD000FE0EDBCF09F0020E08C0DBFF030E09C0C8
:101DE000DBFF040EDB6A050EDB6A060EDB6A070EFC
:101DF000DB6ADFCF14F0DF06010EDBCF15F001E266
:101E0000DB061450151025E0D950020FE96EDACF29
:101E1000EAFFEECFF3FFEDCFF4FF020EEE26000E49
:101E2000EF22F3CFE9FFF4CFEAFFEECF14F0EFCFCC
:101E300015F0166A176AD950040FE96EDACFEAFF77
:101E40001450EE261550EE221650EE221750EE22B8
:101E5000D0D7FB0EDB50010B18E0020EDBCFE9FF01
:101E6000030EDBCFEAFFEFCF14F0156A166A176A8C
:101E7000D950040FE96EDACFEAFF1450EE26155060
:101E8000EE221650EE221750EE22060EDBCF16F091
:101E9000070EDBCF17F0040EDB501624146E050E70
:101EA000DB501720156E040E14C0DBFF050E15C0A5
:101EB000DBFF060EDB6A070EDB6A060EDBCF14F0D3
:101EC000070EDBCF15F0D950040FE96EDACFEAFF29
:101ED0001450EE261550ED22040EDB1C146E050E78
:101EE000DB1C156E14C0F3FF15C0F4FF00D0080E04
:101EF000E15C02E2E16AE552E16EE552E7CFD9FF2B
:101F00001200D9CFE6FFE1CFD9FF020EE126FB0E8A
:101F1000DBCF56F3FC0EDBCF57F3FD0EDBCF58F3D0
:101F2000FE0EDBCF59F3FA0EDB50DF6E080EDF5CDE
:101F30000FE3010E59C3DBFF58C359F357C358F3DE
:101F400056C357F3010EDBCF56F3080EDF5EEED714
:101F5000DF500AE00301D89059BFD8805637573771
:101F600058375937DF06F4D756C306F057C307F082
:101F700058C308F059C309F000D0020EE15C02E238
:101F8000E16AE552E16EE552E7CFD9FF1200D9CF01
:101F9000E6FFE1CFD9FFE6520F0EE76EFD0EDBCF75
:101FA000E9FFFE0EDBCFEAFFE750E926000EEA224A
:101FB000EF6AFD0EDBCFE6FFFE0EDBCFE6FF49EC5E
:101FC0004CF0E552E552DF6A0F0EDF5C24E2DF5091
:101FD000E76EFD0EDBCFE9FFFE0EDBCFEAFFE75039
:101FE000E926000EEA22EF5014E10F0EDF5C10E24A
:101FF000DF50DF2AE76EFD0EDBCFE9FFFE0EDBCF01
:10200000EAFFE750E926000EEA22200EEF6EEDD738
:1020100002D0DF2AD9D7E552E552E7CFD9FF120027
:10202000D9CFE6FFE1CFD9FFE652FB0EDBCF14F0AC
:10203000DB06FC0EDBCF15F001E2DB0614501510B9
:1020400023E0FD0EDBCFE9FFDB2AFE0EDBCFEAFF4C
:1020500001E3DB2AEFCFDFFFDF5003E1F36AF46A2D
:1020600016D0FA0EDB50DF5C0EE1FD0EDB06DBCF97
:1020700014F0FE0E01E2DB06DBCF15F014C0F3FF17
:1020800015C0F4FF04D0D1D7F36AF46A00D0E5524A
:08209000E552E7CFD9FF120071
:08209800D9CFE6FFE1CFD9FF2B
:1020A000E652DF6A050EDF5C06E2DFCFE6FFE3D82B
:1020B000E552DF2AF7D70F014F83E552E552E7CF0C
:1020C000D9FF120003016F691200D9CFE6FFE1CFFB
:1020D000D9FF030EE126D950010FE96EDACFEAFFEE
:1020E000000EEE6E0F0EED6EDF6A050EDF5C01E393
:1020F000B4D0010EDBCFE9FF020EDBCFEAFF0C0EFE
:10210000E926000EEA22EECF14F0EFCF15F0166AA2
:10211000176A145015101610171001E093D0010E15
:10212000DBCFE9FF020EDBCFEAFF0C0EE926000E43
:10213000EA22FD0EDBCFEEFFFE0EDBCFEDFFD95026
:10214000FD0FE96EFF0EDA20EA6EEE50ED1027E18A
:102150000F01000ED8805055200E515506E30F0197
:10216000000E505D100E515904E20F01506B100E1D
:10217000516F0F0150CF14F051CF15F0502B000EBE
:102180005123010EDBCFE9FF020EDBCFEAFF0C0E7D
:10219000E926000EEA2214C0EEFF15C0EDFFD9506B
:1021A000FB0FE96EFF0EDA20EA6EEE50ED101EE036
:1021B0000A0EE66EE66AFB0EDBCFE6FFFC0EDBCF17
:1021C000E6FF010EDBCFE9FF020EDBCFEAFFE9CF2E
:1021D00014F0EACF15F014C0E6FF15C0E6FFAEEC30
:1021E0004BF0166E060EE15E165018D00A0EE66E23
:1021F000E66AE668010EDBCFE9FF020EDBCFEAFFFD
:10220000E9CF14F0EACF15F014C0E6FF15C0E6FFE1
:10221000FCEC4BF0166E050EE15E1650010EDBCFA6
:10222000E9FF020EDBCFEAFF0A0EE926000EEA22E2
:10223000F90EDBCFEEFFFA0EDBCFEDFFDFCF46FF6F
:10224000DF500DD0D950010FE96EDACFEAFF0E0E44
:10225000EE26000EEF22DF2A48D7FF0E00D0146EC4
:10226000030EE15C02E2E16AE552E16E1450E552D0
:10227000E7CFD9FF1200D9CFE6FFE1CFD9FF050E96
:10228000F36EFE0EDBCFF4FFF350F45C01E320D0DD
:10229000FE0EDB500E0DF3CFE9FFF4CFEAFF000E88
:1022A000E9260F0EEA220C0EE926000EEA22EE6A5B
:1022B000ED6AFE0EDB500E0DF3CFE9FFF4CFEAFF1F
:1022C000000EE9260F0EEA22EE6AEE6AEE6AEE6A68
:1022D000E552E7CFD9FF1200D9CFE6FFE1CFD9FF12
:1022E000080EE76EFD0EDBCF14F0FE0EDBCF15F00F
:1022F000E7501426000E1522166A176A0B0E1426D4
:102300001A0E1522000E1622000E17220E0E14268B
:10231000000E1522000E1622000E1722140E14268F
:10232000000E1522000E1622000E172214C0E6FF22
:1023300015C0E6FF33EC1AF0E552E552FD0EDBCF97
:102340004BFFFE0EDBCF4CFFE552E7CFD9FF12006B
:10235000D9CFE6FFE1CFD9FF080EE76EFD0EDBCF48
:1023600014F0FE0EDBCF15F0E7501426000E1522F8
:1023700014C0E6FF15C0E6FFD1EC44F0E552E5528B
:10238000FD0EDBCF4DFFFE0EDBCF4EFFE552E7CF5C
:10239000D9FF1200D9CFE6FFE1CFD9FFEBEC17F060
:1023A000000903E1F36AF46A31D0FE0EDB50030149
:1023B0006F5D0CE0FE0EDBCF6FF30F01476B486BD8
:1023C000000EE66EE66A88DFE552E552FE0EDBCFD0
:1023D00046FFC00E186E050E196E1A6A1B6A47CFAB
:1023E0001CF048CF1DF01E6A1F6A1C50185C146E4A
:1023F0001D501958156E1E501A58166E1F501B5836
:10240000176E14C0F3FF15C0F4FF00D0E552E7CFFC
:10241000D9FF1200D9CFE6FFE1CFD9FF4BCF14F09F
:102420004CCF15F0166A176AC00E145C050E1558CD
:10243000000E1658000E175802E3000E19D0FE0EBB
:10244000DBCFE6FF6EEC1DF0E5520F014B2B000ECB
:102450004C230F014B510F01475D0F014C510F01F0
:10246000485904E24BCF47FF4CCF48FF010E00D044
:10247000E552E7CFD9FF1200D9CFE6FFE1CFD9FF70
:10248000020EE126C00E186E050E196E1A6A1B6A3E
:102490004BCF1CF04CCF1DF01E6A1F6A1C50185CFD
:1024A000146E1D501958156E1E501A58166E1F5076
:1024B0001B58176E14C0DEFF15C0DDFFDECF14F011
:1024C000DDCF15F0FB0EDBCF16F0FC0EDBCF17F0E7
:1024D0001650145C175015580AE2D9CFE9FFDACF2D
:1024E000EAFFFB0EEECFDBFFFC0EEDCFDBFFFB0EBA
:1024F000DBCF08F0FC0EDBCF09F008500F014B27B3
:1025000009500F014C230F014B510F01475D0F0183
:102510004C510F01485904E24BCF47FF4CCF48FFC5
:10252000FB0EDBCFE6FFFC0EDBCFE6FFFD0EDBCFC5
:10253000E6FFFE0EDBCFE6FF7BEC1DF0E552E55239
:10254000E552E552FB0EDBCF14F0FC0EDBCF15F0AD
:1025500014C0F3FF15C0F4FF00D0020EE15C02E2EC
:10256000E16AE552E16EE552E7CFD9FF1200D9CF1B
:10257000E6FFE1CFD9FF020EE126C00E186E050E70
:10258000196E1A6A1B6A4BCF1CF04CCF1DF01E6AE5
:102590001F6A1C50185C146E1D501958156E1E5081
:1025A0001A58166E1F501B58176E14C0DEFF15C048
:1025B000DDFFDECF14F0DDCF15F0FA0EDBCF16F025
:1025C000FB0EDBCF17F01650145C175015580AE2BB
:1025D000D9CFE9FFDACFEAFFFA0EEECFDBFFFB0E31
:1025E000EDCFDBFFFA0EDBCF08F0FB0EDBCF09F0FF
:1025F00008500F014B2709500F014C230F014B517D
:102600000F01475D0F014C510F01485904E24BCFB8
:1026100047FF4CCF48FFFA0EDBCFE6FFFB0EDBCFC8
:10262000E6FFFC0EDBCFE6FFFD0EDBCFE6FFFE0E86
:10263000DBCFE6FF9DEC1DF0146E050EE15E14503D
:10264000FA0EDBCF14F0FB0EDBCF15F014C0F3FF56
:1026500015C0F4FF00D0020EE15C02E2E16AE5522F
:10266000E16EE552E7CFD9FF1200D9CFE6FFE1CF07
:10267000D9FFFD0EDBCF16F0FE0EDBCF17F016C034
:10268000E6FF17C0E6FFFD0EDBCFE6FFFE0EDBCF59
:10269000E6FF16EC4CF0E552E552F3CF18F0F4CF1C
:1026A00019F018C0E6FF19C0E6FFFD0EDBCFE6FF0C
:1026B000FE0EDBCFE6FFE0DEE552E552E552E552E5
:1026C000E552E7CF17F0E552E7CF16F01650F324A6
:1026D000146E1750F420156E14C0F3FF15C0F4FFEC
:1026E00000D0E552E7CFD9FF1200D9CFE6FFE1CF06
:1026F000D9FFFC0EDBCFE6FFFD0EDBCFE6FFFE0EC3
:10270000DBCFE6FF24EC4CF0E552E552E55207C082
:102710001AF008C01BF01AC0E6FF1BC0E6FFFC0E53
:10272000DBCFE6FFFD0EDBCFE6FFFE0EDBCFE6FFE5
:102730001EDF1C6E050EE15E1C50F3CF17F0F4CFC8
:1027400018F0196AD950FC0FE96EFF0EDA20EA6E14
:10275000EE501724146EEE501820156EEE5019200E
:10276000166E14C007F015C008F016C009F000D0AE
:10277000E552E7CFD9FF1200D9CFE6FFE1CFD9FF6D
:102780000C0EE1260F0146510E0DF3CF14F0F4CFDD
:1027900015F0000E14260F0E1522080E14C0DBFFD4
:1027A000090E15C0DBFF080E0F01156A4725146ED0
:1027B000485115220A0E14C0DBFF0B0E15C0DBFFBB
:1027C000080EDBCFE9FF090EDBCFEAFF0C0EE9268E
:1027D000000EEA22EECFE6FFEFCFE6FF55EC0EF05B
:1027E000E552E552F3CFDEFFF4CFDDFF080EDBCF7D
:1027F000E9FF090EDBCFEAFF0A0EE926000EEA2206
:10280000EECFE6FFEFCFE6FF55EC0EF0E552E552D6
:10281000020EF3CFDBFF030EF4CFDBFF0A0EDBCF9C
:10282000E6FF0B0EDBCFE6FF55EC0EF0E552E5526E
:10283000040EF3CFDBFF050EF4CFDBFF060EDB6AE1
:10284000070EDB6A190EE66E1A0EE66E33EC1AF00E
:10285000E552E5520A0EDBCFE6FF0B0EDBCFE6FFBB
:10286000110EE66E080EDBCFE9FF090EDBCFEAFFA3
:10287000E9CF14F0EACF15F014C0E6FF15C0E6FF6B
:102880001EEC44F0166E050EE15E1650080EE66E64
:10289000E66AD9CFE6FFDACFE6FF7BEC1DF0E55222
:1028A000E552E552E552D8EC19F00F01476B486B41
:1028B00003016F690C0EE15C02E2E16AE552E16E30
:1028C000E552E7CFD9FF1200D9CFE6FFE1CFD9FF1C
:1028D000FE0EDBCF46FFFE0EDB500301705D03E012
:1028E000F36AF46A19D00F014FA108D00F014F917C
:1028F000000EE66EE66A2CDDE552E5520F014D5101
:102900000F01495D146E4A510F014E55156E14C0EA
:10291000F3FF15C0F4FF00D0E552E7CFD9FF120056
:10292000D9CFE6FFE1CFD9FF0F0149510F014D5D2E
:102930000F014A510F014E5905E20F0146510301A3
:10294000705D02E0000E12D01BEC1DF0E66EFD0E75
:10295000DBCFE9FFFE0EDBCFEAFFE552E750EF6E7B
:102960000F014D2B000E4E23010E00D0E552E7CF94
:10297000D9FF1200D9CFE6FFE1CFD9FF020EE12641
:102980000F0149510F014D5D0F014A510F014E5981
:1029900005E20F0146510301705D03E0F36AF46A3A
:1029A00055D00F014D510F01495D146E4A510F0171
:1029B0004E55156E14C0DEFF15C0DDFFDECF14F0DE
:1029C000DDCF15F0FB0EDBCF16F0FC0EDBCF17F0E2
:1029D0001650145C175015580AE2D9CFE9FFDACF28
:1029E000EAFFFB0EEECFDBFFFC0EEDCFDBFFFB0EB5
:1029F000DBCFE6FFFC0EDBCFE6FFFD0EDBCFE6FF15
:102A0000FE0EDBCFE6FF1EEC1DF0E552E552E5526F
:102A1000E552FB0EF3CFDBFFFC0EF4CFDBFFFB0E2A
:102A2000DBCF08F0FC0EDBCF09F008500F014D277B
:102A300009500F014E23FB0EDBCF14F0FC0EDBCF51
:102A400015F014C0F3FF15C0F4FF00D0020EE15CD6
:102A500002E2E16AE552E16EE552E7CFD9FF1200EA
:102A60000F014FB309D008EC18F00F01496B4A6B06
:102A7000030170690F014F831200D9CFE6FFE1CF48
:102A8000D9FF190EE1260F01496B4A6B080EE66E5D
:102A9000E66AD9CFE6FFDACFE6FF1EEC1DF0E5527D
:102AA000E552E552E552DECFE6FFDDCFE6FF55EC1D
:102AB0000EF0E552E552F3CFDEFFF4CFDDFF020E5C
:102AC000DBCFE6FF030EDBCFE6FF55EC0EF0E55261
:102AD000E552020EF3CFDBFF030EF4CFDBFF040E53
:102AE000DBCFE6FF050EDBCFE6FF55EC0EF0E5523F
:102AF000E552F3CF14F0F4CF15F0080E145E000E7B
:102B0000155A040E14C0DBFF050E15C0DBFFD950AB
:102B1000060FE96EDACFEAFFEE50ED1001E18BD03F
:102B2000FD0EDBCFE9FFFE0EDBCFEAFF090EEECF95
:102B3000DBFF0A0EEECFDBFF0B0EEECFDBFF0C0E42
:102B4000EECFDBFFFB0EDBCFE9FFFC0EDBCFEAFFB6
:102B50000D0EEECFDBFF0E0EEECFDBFF0F0EEECF36
:102B6000DBFF100EEECFDBFF110EDB6A110EF36EF2
:102B7000120EF3CFDBFFF90EDBCF08F0FA0EDBCF3E
:102B800009F0130E08C0DBFF140E09C0DBFF130EA3
:102B9000DBCFE6FF140EDBCFE6FF55EC0EF0E5527F
:102BA000E552130EF3CFDBFF140EF4CFDBFF0C0E58
:102BB000E66EE66AD950090FE66E000EDA20E66E80
:102BC000D2EC0EF0E552E552E552E552F3CF14F0A7
:102BD000F4CF15F0141E151E150E14C0DBFF160ED3
:102BE00015C0DBFF000EE66EE66AD1EC44F0E5525C
:102BF000E552F90EDBCFE6FFFA0EDBCFE6FFDAECAB
:102C00001AF0E552E552170EF3CFDBFF180EF4CFA2
:102C1000DBFF150EDBCF14F0160EDBCF15F0170E11
:102C2000DB50141803E1180EDB50151804E008EC13
:102C300018F0000E31D0FB0EDBCFE6FFFC0EDBCF31
:102C4000E6FFFD0EDBCFE6FFFE0EDBCFE6FFD9CFC2
:102C5000E6FFDACFE6FF2CD8146E060EE15E1450C4
:102C6000E76E080EE7CFDBFF080EDB50FF0805E13B
:102C700008EC18F0000E10D00DD0080EDBCF70F36A
:102C8000040EDBCF49FF050EDBCF4AFF0F014F815A
:102C90000F014F93010E00D0146E190EE15C02E299
:102CA000E16AE552E16E1450E552E7CFD9FF120018
:102CB000D9CFE6FFE1CFD9FF040EE126FB0EDBCF33
:102CC000E9FFFC0EDBCFEAFFEE50020194190CE1A4
:102CD000EE500201951908E1EE500201961904E147
:102CE000EE500201971900E102E1FF0ED1D0010E72
:102CF000DB68D950020FE96EDACFEAFF000EEE6E04
:102D00000F0EED6EDF6A050EDF5C75E2020EDBCFA3
:102D1000E9FF030EDBCFEAFF0C0EE926000EEA22E4
:102D2000EECF14F0EFCF15F0FD0EDBCFE9FFFE0E76
:102D3000DBCFEAFF020EE926000EEA22EECF16F004
:102D4000EFCF17F01650141802E11750151848E18C
:102D5000020EDBCFE9FF030EDBCFEAFF0A0EE92606
:102D6000000EEA22EECF14F0EFCF15F0FD0EDBCF10
:102D7000E9FFFE0EDBCFEAFFEECF16F0EFCF17F044
:102D80001650141802E11750151827E1FB0EDBCF7F
:102D9000E9FFFC0EDBCFEAFFEECF14F0EECF15F02B
:102DA000EECF16F0EFCF17F0020EDBCFE9FF030EE8
:102DB000DBCFEAFFEE50000114180CE1EE500001E9
:102DC000151808E1EE500001161804E1EE5000015C
:102DD000171800E102E1DF505BD0010EDFCFDBFF0F
:102DE000D950020FE96EDACFEAFF0E0EEE26000E82
:102DF000EF22DF2A88D7010EDB50FF0846E0010EE4
:102E0000DB500E0DF3CF14F0F4CF15F0000E1426A6
:102E10000F0E1522020E14C0DBFF030E15C0DBFFE0
:102E20000A0EE66EE66AFB0EDBCFE6FFFC0EDBCF9A
:102E3000E6FF020EDBCFE9FF030EDBCFEAFFE9CFAF
:102E400014F0EACF15F014C0E6FF15C0E6FFAEECB3
:102E50004BF0166E060EE15E1650FD0EDBCFE9FF5D
:102E6000FE0EDBCFEAFFEECF14F0EFCF15F0020E2F
:102E7000DBCFE9FF030EDBCFEAFF0A0EE926000EE7
:102E8000EA2214C0EEFF15C0EDFF010EDB5000D0AA
:102E9000146E040EE15C02E2E16AE552E16E145048
:082EA000E552E7CFD9FF120053
:082EA800D9CFE6FFE1CFD9FF0D
:102EB000E652FC0E92160E01FE8B0E01FDA1FDD70F
:102EC0000E017C6B0E017C810E01786B796B0E011B
:102ED000E86BE96B0E01090EEC6F0E011A0EED6F37
:102EE0000E01090EEA6F1A0EEB6F0E010A0EE46F67
:102EF0001A0EE56F0E010A0EE26F1A0EE36FE66A14
:102F00006EEC1DF0E5520E010D0EA06F00000E01DB
:102F1000320EA26F00000E01120EA46F00000E010F
:102F2000400EA36F00000E01120EA66F00000E01EE
:102F30000C0EA76F00000E01EE0EAA6F00000E012E
:102F4000050EAB6F0000C1C284FE0000C2C285FE48
:102F50000000C3C282FE0000C4C283FE0000C5C2DE
:102F600080FE0000C6C281FE0000100EE66E010E5B
:102F7000E66E100EE66EF5EC1DF0E552E552E552F8
:102F8000720EE66E340EE66E140EE66EF5EC1DF073
:102F9000E552E552E552000EE66EE66AE66AF5ECA9
:102FA0001DF0E552E552E552D284E552E552E7CFF5
:102FB000D9FF1200010EE66EC8EC1DF0E552F3CF0A
:102FC00014F0F4CF15F0000100011450040B01E0DF
:102FD000010E00D01200D2B602D0010E18D099EC2A
:102FE0004EF00E017D51065C146E7E510758156E31
:102FF000166A176A7A0E145C000E1558000E1658E1
:10300000000E175802E3D296D3D9000E00D012005A
:10301000D9CFE6FFE1CFD9FF020EE1260E017CB148
:1030200037D00E017C8178CE14F079CE15F01406DD
:10303000000E155A14C0DEFF15C0DDFFDECF14F000
:10304000DDCF15F0166A176A000E145C000E1558D5
:10305000000E1658000E175810E3DECF18F0DDCF23
:1030600019F01A6A1B6AD880090E18541A0E1954DE
:10307000000E1A54000E1B5404E2090EDE6E1A0EE6
:10308000DD6E0E01FE8DDFCFECFE010EDBCFEDFE1F
:10309000020EE15C02E2E16AE552E16EE552E7CF41
:1030A000D9FF1200D9CFE6FFE1CFD9FF040EE12608
:1030B000D9CEDFFF020EEECEDBFF030EEFCEDBFF3D
:1030C000DF500E01D95DF4E1ECCEDEFFEDCEDDFF89
:1030D000020EDBCF14F0030EDBCF15F0DECF16F0BF
:1030E000DDCF17F01450165C1550175826E2090E64
:1030F000186E1A0E196E1A6A1B6A020EDBCF20F0C8
:10310000030EDBCF21F0DE50205C1C6EDD50215819
:103110001D6E1E6A1F6A1C50185C146E1D501958D3
:10312000156E1E501A58166E1F501B58176E14C07D
:10313000F3FF15C0F4FF28D027D0020EDBCF14F028
:10314000030EDBCF15F0DF50141803E1DE52DD5023
:10315000151806E1090EF36E1A0EF46E15D014D090
:10316000DECF16F0DDCF17F0020EDB50165C146ECA
:10317000030EDB501758156E1406000E155A14C0B6
:10318000F3FF15C0F4FF00D0040EE15C02E2E16A37
:10319000E552E16EE552E7CFD9FF1200D9CFE6FF45
:1031A000E1CFD9FF140EE1260E01D95102E1000E44
:1031B000AFD00E017C830E017CB103D029DF000E5D
:1031C000A7D078CE7AFE79CE7BFE7ACE7AFF7BCE00
:1031D0007BFF140EE66EE66AD9CFE6FFDACFE6FF94
:1031E0001EEC1DF0E552E552E552E552120EDBCF22
:1031F000E6FF130EDBCFE6FF55EC0EF0E552E5528D
:10320000120EF3CFDBFF130EF4CFDBFFDECF14F093
:10321000DDCF15F0166A176AD880090E14541A0EFD
:103220001554000E1654000E175431E3D9CFE9FFA0
:10323000DACFEAFFEF50010B2AE1D950020FE96E15
:10324000DACFEAFFEE52EE52EE52EF50800B1FE162
:10325000D950020FE96EDACFEAFFEE52EE52EF508C
:10326000100B15E1D950020FE96EDACFEAFFEE0E2E
:10327000D880EE54050EED540AE3D950020FE96EE2
:10328000DACFEAFFEE52EE52EF50800B01E1FF0081
:10329000DECF78FEDDCF79FE060EE66EE66AD95007
:1032A0000C0FE66E000EDA20E66EFD0EDBCFE9FFB6
:1032B000FE0EDBCFEAFFE9CF14F0EACF15F014C021
:1032C000E6FF15C0E6FFAEEC4BF0166E060EE15EB3
:1032D0001650FB0EDBCFE9FFFC0EDBCFEAFFEF68F9
:1032E000130EDB50080810E1120EDB5004E0120E42
:1032F000DB50060809E1FB0EDBCFE9FFFC0EDBCF5C
:10330000EAFF120EDBCFEFFF0E017C91010E00D021
:10331000146E140EE15C02E2E16AE552E16E1450B3
:10332000E552E7CFD9FF1200D9CFE6FFE1CFD9FFB1
:103330000E010B0EE26F1A0EE36FD950FA0FE96E11
:10334000FF0EDA20EA6E180EEE261A0EED22FA0EA5
:10335000DBCFE6FEFB0EDBCFE7FE060EE66EE66A8F
:10336000FD0EDBCFE6FFFE0EDBCFE6FFC4DBE55252
:10337000E552E552E552060EE66EE66AC10EE66ECD
:10338000020EE66EB8DBE552E552E552E552080E54
:10339000E66EA4DBE552FC0EDB5002E1000E01D02C
:1033A000060EE66E9BDBE552E552E7CFD9FF120031
:1033B000D9CFE6FFE1CFD9FFE652D28ED29E080EDA
:1033C000DF6EDF50DF06000901E0FBD76092D28696
:1033D00099EC4EF006C07DFE07C07EFEE552E55238
:1033E000E7CFD9FF1200D9CFE6FFE1CFD9FF020E18
:1033F000E126140E0E01176A7A25166E7B511722EC
:10340000FD0EDB501624146EFE0EDB501720156ED9
:1034100014C0DEFF15C0DDFFDECF14F0DDCF15F0E8
:10342000166A176AD880090E14541A0E1554000E25
:103430001654000E175408E2D9CFE9FFDACFEAFF9D
:103440000A0EEE5E1A0EED5ADF507A6E010EDB5058
:103450007B6E020EE15C02E2E16AE552E16EE5524A
:10346000E7CFD9FF1200D9CFE6FFE1CFD9FF020E97
:10347000E126E2CEDEFFE3CEDDFFFD0EDBCFE2FE96
:10348000FE0EDBCFE3FEDECF14F0DDCF15F014C06F
:10349000F3FF15C0F4FF00D0020EE15C02E2E16A26
:1034A000E552E16EE552E7CFD9FF1200D9CFE6FF32
:1034B000E1CFD9FF020EE1267ACFDEFF7BCFDDFF21
:1034C000FD0EDBCF7AFFFE0EDBCF7BFFDECF14F0ED
:1034D000DDCF15F014C0F3FF15C0F4FF00D0020ECD
:1034E000E15C02E2E16AE552E16EE552E7CFD9FF25
:1034F0001200D9CFE6FFE1CFD9FF040EE126140E6A
:103500000E01176A7A25166E7B511722FD0EDB50CD
:103510001624146EFE0EDB501720156E14C0DEFF4D
:1035200015C0DDFFDECF14F0DDCF15F0166A176A87
:10353000D880090E14541A0E1554000E1654000E9D
:10354000175408E2D9CFE9FFDACFEAFF0A0EEE5EA0
:103550001A0EED5A020E7ACFDBFF030E7BCFDBFF94
:10356000DECF7AFFDDCF7BFFFB0EDBCFE6FFFC0E6D
:10357000DBCFE6FF1FD8E552E552F3CFDEFFF4CFF5
:10358000DDFF020EDBCF7AFF030EDBCF7BFFDECF4A
:1035900014F0DDCF15F014C0F3FF15C0F4FF00D018
:1035A000040EE15C02E2E16AE552E16EE552E7CF2A
:1035B000D9FF1200D9CFE6FFE1CFD9FF1E0EE126D9
:1035C000020EDB6A030EDB6A040EDB6A050EDB6AA1
:1035D0007ACFDEFF7BCFDDFFD950FD0FE96EFF0E06
:1035E000DA20EA6EEE50ED1001E19AD0D950FD0FCD
:1035F000E96EFF0EDA20EA6E140ED880EE54000E4B
:10360000ED5404E2140E146E156A06D0FD0EDBCFE5
:1036100014F0FE0EDBCF15F0060E14C0DBFF070E14
:1036200015C0DBFF060EDBCFE6FF070EDBCFE6FFA4
:10363000D950080FE66E000EDA20E66EFFD9E5528B
:10364000E552E552E552060EDBCF14F0070EDBCF54
:1036500015F0D950FD0FE96EFF0EDA20EA6E145016
:10366000EE5E1550ED5AD950060FE96EDACFEAFF3B
:10367000EF50010B13E0D950080F146EDACF15F09C
:10368000060EDB501424E96E070EDB501520EA6E9F
:10369000EF6A060EDB2A070E01E3DB2AD950080F7A
:1036A000146EDACF15F01C0E14C0DBFF1D0E15C012
:1036B000DBFFD950060FE96EDACFEAFFEE50ED10CE
:1036C0002EE0D9501C0FE96EDACFEAFFEECFF3FF00
:1036D000EDCFF4FF020EEE26000EEF22F3CFE9FF4E
:1036E000F4CFEAFFEECF14F0EFCF15F0166A176AA9
:1036F000D950020FE96EDACFEAFF1450EE261550CA
:10370000EE221650EE221750EE22D950060FE96E27
:10371000DACFEAFF020EEE5E000EED5ACAD75CD792
:10372000DECF7AFFDDCF7BFF020EDBCF14F0030E7E
:10373000DBCF15F0166A176A040EDBCF18F0050E02
:10374000DBCF19F01A6A1B6A18501426195015227B
:103750001A5016221B501722020E14C0DBFF030E54
:1037600015C0DBFF040E16C0DBFF050E17C0DBFF24
:10377000040EDBCF14F0050EDBCF15F0D950020F8D
:10378000E96EDACFEAFF1450EE261550ED22020E54
:10379000DB1C146E030EDB1C156E14C0F3FF15C08A
:1037A000F4FF00D01E0EE15C02E2E16AE552E16E38
:1037B000E552E7CFD9FF1200D9CFE6FFE1CFD9FF1D
:1037C000060EE126040EDB6A050EDB6AD950FD0FFA
:1037D000E96EFF0EDA20EA6EFF0EEE1802E1FF0E30
:1037E000ED180BE1010EF36E040EF3CFDBFFFD0EBF
:1037F000E2CEDBFFFE0EE3CEDBFFD950FB0FE96E1E
:10380000FF0EDA20EA6EFF0EEE1802E1FF0EED1851
:103810000BE1010EF36E050EF3CFDBFFFB0E7ACF4B
:10382000DBFFFC0E7BCFDBFFD950F90FE96EFF0EFB
:10383000DA20EA6E010ED880EE54000EED5438E323
:103840007ACFDEFF7BCFDDFF020EE2CEDBFF030E81
:10385000E3CEDBFFFB0EDBCF7AFFFC0EDBCF7BFF83
:10386000FD0EDBCFE2FEFE0EDBCFE3FEF90EDBCF7B
:1038700014F0DB06FA0EDBCF15F001E2DB06145084
:10388000151005E0D8D8E66E29D9E552EFD7050E18
:10389000DB5004E1DECF7AFFDDCF7BFF040EDB508F
:1038A00006E1020EDBCFE2FE030EDBCFE3FEB2D079
:1038B000040EDB501AE0F90EDBCF16F0FA0EDBCF68
:1038C00017F0FD0EDB501624146EFE0EDB50172091
:1038D000156E020E14C0DBFF030E15C0DBFF020ED7
:1038E000DBCFE2FE030EDBCFE3FEFB0EDBCF14F0FB
:1038F000FC0EDBCF15F01406000E155AD950F90F47
:10390000E96EFF0EDA20EA6E1450EE261550ED2215
:10391000D2BAFED7FB0EDBCFF0FEFC0EDBCFF1FE02
:10392000FD0EDBCFF4FEFE0EDBCFF5FEFB0EDBCF94
:1039300014F0FC0EDBCF15F0166A176AD880090E5A
:1039400014541A0E1554000E1654000E17541CE38E
:10395000F90EDBCF18F0FA0EDBCF19F01A6A1B6AEA
:10396000D880090E18541A0E1954000E1A54000E5D
:103970001B540AE2D950F90FE96EFF0EDA20EA6E05
:103980000A0EEE5E1A0EED5AF90EDBCFF2FEFA0EBB
:10399000DBCFF3FED298D28AD2BAFED7050EDB5027
:1039A00039E0F90EDB2AFA0E01E3DB2AFB0EDBCF4E
:1039B00014F0FC0EDBCF15F0166A176AD880090EDA
:1039C00014541A0E1554000E1654000E17541CE30E
:1039D000F90EDBCF18F0FA0EDBCF19F01A6A1B6A6A
:1039E000D880090E18541A0E1954000E1A54000EDD
:1039F0001B540AE2D950F90FE96EFF0EDA20EA6E85
:103A00000A0EEE5E1A0EED5AF90EDBCF7AFFFA0EB1
:103A1000DBCF7BFF060EE15C02E2E16AE552E16E7C
:103A2000E552E7CFD9FF1200D250200B200A01E067
:103A3000010E00D01200615000D01200D9CFE6FF75
:103A4000E1CFD9FF030EE126FB0EDBCFDEFFDBCF9C
:103A5000DDFFD950FD0FE96EFF0EDA20EA6EEE5061
:103A6000ED1018E0DFCF14F0DF06010EDBCF15F00C
:103A700001E2DB06145015100CE0FD0EDBCFE9FF70
:103A8000DB2AFE0EDBCFEAFF01E3DB2A61CFEFFF8B
:103A9000E9D70FD0DFCF14F0DF06010EDBCF15F032
:103AA00001E2DB061450151004E0020E61CFDBFFCB
:103AB000F1D7FB0EDBCF14F0FC0EDBCF15F014C0FA
:103AC000F3FF15C0F4FF00D0030EE15C02E2E16AEF
:103AD000E552E16EE552E7CFD9FF1200D9CFE6FFFC
:103AE000E1CFD9FFFE0EDB50F36EF3CF61FFE5525D
:103AF000E7CFD9FF1200D9CFE6FFE1CFD9FFFB0E08
:103B0000DBCF14F0DB06FC0EDBCF15F001E2DB06A9
:103B1000145015100EE0FD0EDBCFE9FFDB2AFE0E80
:103B2000DBCFEAFF01E3DB2AEF50F36EF3CF61FF57
:103B3000E6D7E552E7CFD9FF1200D9CFE6FFE1CFB4
:103B4000D9FFFA0EDBCF14F0DB06FB0EDBCF15F04E
:103B500001E2DB061450151017E0D950FC0FE96E96
:103B6000FF0EDA20EA6EEFCFF6FFEE2AEFCFF7FF77
:103B7000000EEE22EFCFF8FF000EEE220800F55007
:103B8000F36EF3CF61FFDDD7E552E7CFD9FF120027
:103B9000D9CFE6FFE1CFD9FF020EE126FE0EDBCF43
:103BA000B4FE00000E01010EB26F00000E018AB1DA
:103BB000FDD70E01B26B0000B8CEDFFF0000010E92
:103BC000B9CEDBFFDECF14F0DDCF15F014C0F3FF6C
:103BD00015C0F4FF00D0020EE15C02E2E16AE5529A
:103BE000E16EE552E7CFD9FF1200D9CFE6FFE1CF72
:103BF000D9FFE652FE0EDBCFB4FEFC0EDB50F36EB7
:103C0000FD0EDB50F46EC00EF214DF6E3F0EF216A6
:103C1000F3CFB6FE0000F4CFB7FEDF50F2120E0174
:103C20008AB1FDD7E552E552E7CFD9FF1200D29411
:103C30000E01FDB5FDD7D2B6FED70E01FE9B1200D8
:103C40000E01FE8B0E01FDB102D0D284FBD7120013
:103C5000D9CFE6FFE1CFD9FFE652030176510BE160
:103C60000301010E766FDF6A010EDF5C04E20E01D4
:103C70005C69DF2AF9D7FF0E0E015C5D07E05CCEC0
:103C8000E6FF3BEC11F0E5520E015C690E01010EFE
:103C90005D6F0E015E6B0E015E890E015E83E55263
:103CA000E552E7CFD9FF1200D9CFE6FFE1CFD9FF28
:103CB000FF0E0E015C5D07E05CCEE6FF3BEC11F011
:103CC000E5520E015C690E015D6BE552E7CFD9FF4D
:103CD0001200D9CFE6FFE1CFD9FF0E015D5105E11A
:103CE0000E01010E5D6F0E015E91E552E7CFD9FF27
:103CF0001200D9CFE6FFE1CFD9FF0E015D5102E1FD
:103D0000000E01D0010E00D0E552E7CFD9FF12001E
:103D1000D9CFE6FFE1CFD9FF0E015E51010B00D0F4
:103D2000E552E7CFD9FF1200D9CFE6FFE1CFD9FFA7
:103D30000E015EA304D00E015E93010E02D0000EB0
:103D400000D0E552E7CFD9FF1200D9CFE6FFE1CF8F
:103D5000D9FF0E015E51080B01E0010E00D0E552C3
:103D6000E7CFD9FF1200D9CFE6FFE1CFD9FFE65266
:103D7000DF6A010EDF5C01E352D20E015D51080AD9
:103D800001E1EED1020A01E1EBD1060A01E1E8D13D
:103D90000B0A01E1C0D10E0A01E1BDD1020A01E125
:103DA000BAD10D0A01E165D1030A01E1F0D0010A9F
:103DB00001E1ADD0070A75E0010A1FE0030A04E043
:103DC000010A01E02AD229D2430EE66EE66A000E0D
:103DD000E66EE66A440EE66EE66A65EC10F0146E76
:103DE000060EE15E14500E015C6FFF0E0E015C5D6D
:103DF00001E113D20E01020E5D6F0E013C0E636FE6
:103E0000646B656B666B0E01776B0E015E910E0144
:103E10005E95DAEC17F0000901E1FFD15CCEE6FF18
:103E2000CAEC11F0E552F3CF14F0F4CF15F02C0EDC
:103E3000145C010E155801E2F0D10E015E790A0EF4
:103E4000E66EE66AE6680E015C510E0DF3CFE9FFFF
:103E5000F4CFEAFF000EE9260F0EEA22E9CF14F0B4
:103E6000EACF15F014C0E6FF15C0E6FFFCEC4BF0FE
:103E7000166E050EE15E1650E66A010EE66E3DEC2A
:103E800023F0E552E55299EC4EF006C05FFE07C004
:103E900060FE08C061FE09C062FE0E01030E5D6F88
:103EA000BCD15CCEE6FF64EC14F0E552F3CF14F025
:103EB000F4CF15F0FA0E145C000E15581FE299ECC1
:103EC0004EF00E015F51065C146E0E0160510758F2
:103ED000156E0E0161510858166E0E016251095897
:103EE000176EE40E145C3D0E1558010E1658000EA8
:103EF000175803E30E01020E5D6F8FD10E015E872E
:103F000093D9020801E089D10E01040E5D6F5CCEE9
:103F1000E6FFCAEC11F0E552F3CF14F0F4CF15F040
:103F2000020E145C010E155801E277D10A0EE66EFE
:103F3000E66AE6680E015C510E0DF3CFE9FFF4CF9F
:103F4000EAFF000EE9260F0EEA22E9CF14F0EACFCD
:103F500015F014C0E6FF15C0E6FFFCEC4BF0166E42
:103F6000050EE15E1650E66A030EE66E86DBE5524C
:103F7000E55299EC4EF006C05FFE07C060FE08C037
:103F800061FE09C062FE0E01050E5D6F46D15CCE7A
:103F9000E6FF64EC14F0E552F3CF14F0F4CF15F023
:103FA000FA0E145C000E15581FE299EC4EF00E014B
:103FB0005F51065C146E0E0160510758156E0E01BC
:103FC00061510858166E0E0162510958176EE40EC1
:103FD000145C3D0E1558010E1658000E175803E3D9
:103FE0000E01020E5D6F19D11FD9060A3DE0030ACA
:103FF00001E03ED05CCEE6FF3BEC11F0E5520E0155
:104000005C6999EC4EF006C05FFE07C060FE08C018
:1040100061FE09C062FE0E01060E5D6F0E015E8339
:104020000E015E810E0177A108D06BCE94F26CCEAA
:1040300095F26DCE96F26ECE97F20E0177A508D06E
:1040400073CE98F274CE99F275CE9AF276CE9BF238
:104050000E0177A308D06FCE9CF270CE9DF271CE88
:104060009EF272CE9FF204D00E01020E5D6F00D060
:10407000D4D099EC4EF00E015F51065C146E0E0127
:1040800060510758156E0E0161510858166E0E01E9
:1040900062510958176EF20E145C9E0E1558000EF0
:1040A0001658000E175801E2B8D0020E0E01635DDB
:1040B000000E6459000E6559000E665913E3F20EA6
:1040C0000E015F279E0E0E016023000E0E0161237C
:1040D000000E0E0162230E016307000E645B655B38
:1040E000665B9BD0430EE66EE66A000EE66EE66AFD
:1040F000440EE66EE66A65EC10F0146E060EE15EA4
:1041000014500E015C6FFF0E0E015C5D01E185D065
:104110000E01070E5D6F5CCEE6FFCAEC11F0E552B2
:10412000F3CF14F0F4CF15F0020E145C010E155805
:1041300001E273D0010EE66E030EE66E9EDAE552E2
:10414000E5520E015E9599EC4EF006C05FFE07C089
:1041500060FE08C061FE09C062FE0E015D2B5DD0ED
:104160005CCEE6FF64EC14F0E552F3CF14F0F4CF2C
:1041700015F0FA0E145C000E15582DE299EC4EF075
:104180000E015F51065C146E0E0160510758156EEA
:104190000E0161510858166E0E0162510958176ED2
:1041A000E40E145C3D0E1558010E1658000E1758FB
:1041B00011E30E015D2B0C0E0E01E76E5D19E8AEEA
:1041C00002D05D3503D0E750D8805D5503E20E0183
:1041D000020E5D6F22D028D8060A1AE0030A01E019
:1041E0001BD05CCEE6FF3BEC11F0E5520E015C69A2
:1041F00099EC4EF006C05FFE07C060FE08C061FE8D
:1042000009C062FE0E01060E5D6F0E015E8304D0D2
:104210000E01020E5D6F00D000D0DF2AAAD5E55254
:10422000E552E7CFD9FF1200D9CFE6FFE1CFD9FFA2
:10423000090EE126030EDB6AD9CFE6FFDACFE6FFEF
:1042400090EC14F0E552E552020EDF5C01E0D5D1AE
:104250001C0EE66EE66AA8EC11F0E552E552010E7E
:10426000DB6A060EF36E010EDBCFF4FFF350F45C55
:1042700016E2D9CFE6FFDACFE6FF90EC14F0E55274
:10428000E552010EDB50EA6AC10FE96E020EEA2226
:10429000EF50DF5C01E0E1D1010EDB2AE2D70E0135
:1042A0005EB516D0100EE66EE66AA8EC11F0E55287
:1042B000E552040EE66EE66A6B0EE66E0E0EE66ED4
:1042C000BAEC14F0E552E552E552E5520E01778161
:1042D000F00EE66EE66AA8EC11F0E552E552040E27
:1042E000DB6AD9CFE6FFDACFE6FF90EC14F0E552B7
:1042F000E552000906E1010EF36E040EF3CFDBFF79
:104300007CD1DF50330A01E1F7D0CC0A01E1EED0D5
:10431000C90A01E1B5D0350A5CE0020A24E0340A9A
:1043200001E04DD1D9CFE6FFDACFE6FF90EC14F0F3
:10433000E552E552DF0415E1D950030FE66E000E99
:10434000DA20E66E90EC14F0E552E5520E010E0113
:104350005E51040B05E0030EDB50020801E17DD144
:1043600001D07BD146D1D9CFE6FFDACFE6FF90EC82
:1043700014F0E552E552040EDF5C29E10E015EA562
:1043800016D0010EDB6A040EF36E010EDBCFF4FFD4
:10439000F350F45C0BE2D9CFE6FFDACFE6FF90EC06
:1043A00014F0E552E552010EDB2AEDD70FD0040ED2
:1043B000E66EE66A730EE66E0E0EE66EBAEC14F06A
:1043C000E552E552E552E5520E01778501D045D11F
:1043D00010D1D950020FE66E000EDA20E66E90EC96
:1043E00014F0E552E552040EF36E020EDBCFF4FF3B
:1043F000F350F45C29E30E015EA516D0010EDB6AD2
:10440000040EF36E010EDBCFF4FFF350F45C0BE20D
:10441000D9CFE6FFDACFE6FF90EC14F0E552E55293
:10442000010EDB2AEDD70FD0040EE66EE66A6F0EA2
:10443000E66E0E0EE66EBAEC14F0E552E552E55269
:10444000E5520E01778301D008D1040E146E020EDE
:10445000DBCFE7FF1450E75E020EE7CFDBFF020E73
:10446000DBCFF3FFDB06F350000909E0D9CFE6FF0D
:10447000DACFE6FF90EC14F0E552E552F0D7B9D070
:10448000D9CFE6FFDACFE6FF90EC14F0E552E55223
:10449000040EDF5C29E1D950080FE66E000EDA2029
:1044A000E66E90EC14F0E552E552D950070FE66E37
:1044B000000EDA20E66E90EC14F0E552E552D95089
:1044C000060FE66E000EDA20E66E90EC14F0E55270
:1044D000E552D950050FE66E000EDA20E66E90EC3C
:1044E00014F0E552E55201D0B8D083D0010EF36E3E
:1044F000040EF3CFDBFF7DD0D9CFE6FFDACFE6FFA6
:1045000090EC14F0E552E552040EDF5C56E10E012A
:104510005EA516D0010EDB6A040EF36E010EDBCF32
:10452000F4FFF350F45C0BE2D9CFE6FFDACFE6FFFD
:1045300090EC14F0E552E552010EDB2AEDD73CD0A9
:10454000660EE66E0E0EE66E90EC14F0E552E55245
:10455000650EE66E0E0EE66E90EC14F0E552E55236
:10456000640EE66E0E0EE66E90EC14F0E552E55227
:10457000630EE66E0E0EE66E90EC14F0E552E55218
:1045800063CE14F064CE15F065CE16F066CE17F04B
:10459000050ED8901732163215321432E806F9E1BA
:1045A00014500E01635F15500E01645B16500E012E
:1045B000655B17500E01665B01D04FD01AD0D95001
:1045C000020FE66E000EDA20E66E90EC14F0E55273
:1045D000E552020EDBCFF3FFDB06F350000909E0E2
:1045E000D9CFE6FFDACFE6FF90EC14F0E552E552C2
:1045F000F0D7040EDB5001E174D6030EDB50020845
:104600000FE1050EDBCF67FE060EDBCF68FE070E5F
:10461000DBCF69FE080EDBCF6AFE0E015E8518D087
:10462000D950050FE96EDACFEAFF0E016751EE1897
:104630000CE10E016851EE1808E10E016951EE1807
:1046400004E10E016A51EE1800E102E0030EDB6A9C
:1046500030EC15F0030EDB5004D030EC15F0000EFA
:1046600000D0146E090EE15C02E2E16AE552E16EEF
:104670001450E552E7CFD9FF1200D9CFE6FFE1CFC2
:10468000D9FF050EE126010EE66E0AEC12F0E552A6
:10469000010EE66E0AEC12F0E552060EE66E0AEC2A
:1046A00012F0E552E66A0AEC12F0E552120EE66EDE
:1046B0000AEC12F0E552230EE66E0AEC12F0E55217
:1046C000340EE66E0AEC12F0E552560EE66E0AEC77
:1046D00012F0E552E66A0AEC12F0E552E66A0AECDC
:1046E00012F0E5520E010E015E51100B02E0000EB9
:1046F00001D0800EE66E0AEC12F0E552E66A0AEC92
:1047000012F0E552FE0EDB50030811E1FD0EDB5006
:104710000EE0040EE66EE66A6B0EE66E0E0EE66EB8
:104720003CEC12F0E552E552E552E55210D0E66A53
:104730000AEC12F0E552E66A0AEC12F0E552E66A7B
:104740000AEC12F0E552E66A0AEC12F0E552DF6A72
:104750000C0EDF5C06E2E66A0AEC12F0E552DF2A94
:10476000F7D7060EE66EE66AC10EE66E020EE66E3C
:104770003CEC12F0E552E552E552E552DF6ACA0E12
:10478000DF5C06E2E66A0AEC12F0E552DF2AF7D7B0
:10479000630EE66E0AEC12F0E552820EE66E0AEC4B
:1047A00012F0E552530EE66E0AEC12F0E552630E7B
:1047B000E66E0AEC12F0E552350EE66E0AEC12F0E7
:1047C000E552010EE66E0AEC12F0E552FE0EDBCF6A
:1047D000E6FF0AEC12F0E552FE0EDB0402E10E01E8
:1047E0005E95FE0EDB50030821E1FD0EDB501EE15D
:1047F000360EE66E0AEC12F0E552040EE66E0AEC96
:1048000012F0E5526ACEE6FF0AEC12F0E55269CEEC
:10481000E6FF0AEC12F0E55268CEE6FF0AEC12F071
:10482000E55267CEE6FF0AEC12F0E552370EE66E6F
:104830000AEC12F0E552040EE66E0AEC12F0E552B4
:10484000010EE66E0AEC12F0E552030EE66E0AEC7B
:1048500012F0E552060EE66E0AEC12F0E5520C0E6E
:10486000E66E0AEC12F0E552FE0EDB50030803E19F
:10487000FD0EDB5009E0FE0EDB041DE10E016B5165
:104880006C116D116E1117E0320EE66E0AEC12F02B
:10489000E552040EE66E0AEC12F0E552040EE66EE6
:1048A000E66A6B0EE66E0E0EE66E3CEC12F0E5521A
:1048B000E552E552E552E6680AEC12F0E5520F01C6
:1048C0002C0E475D010E485905E2E66A0AEC12F02B
:1048D000E552F5D7010E94C2DBFF020E95C2DBFF55
:1048E000030E96C2DBFF040E97C2DBFFFD0EDB500A
:1048F00005E10201946B956B966B976BBCEC13F022
:10490000010EDBCF94F2020EDBCF95F2030EDBCF6C
:1049100096F2040EDBCF97F2050EE15C02E2E16A4B
:0C492000E552E16EE552E7CFD9FF12002E
:04492C00D2EC29F0B0
:10493000FB0EDBCFF3FFDB06F35000090AE020ECAF
:104940002AF0FA0E8BEC2AF0F3E1151CF1E1010ECE
:1049500001D0000E01EF2AF0D2EC29F03B0EE12449
:1049600002E3E168E652E16E010EDB6A020EDB6AE9
:10497000F90EDBCFF6FFFA0EDBCFF7FFFB0EDBCF36
:10498000F8FF0800F550DF6EDF5002E125EF29F057
:10499000250EDF5C02E018EF29F0030EDB6A040E3F
:1049A000DB6A050EDB6A060EDB6A070EDB6A3AEC91
:1049B00029F02D0EDF5C0CE02B0EDF5C09E0200EF1
:1049C000DF5C06E0230EDF5C03E0300EDF5C1AE103
:1049D000DF50300A14E0130A0FE0030A0AE00B0A62
:1049E00005E0060AE4E1030EDB80E1D7030EDB827B
:1049F000DED7030EDB84DBD7030EDB86D8D7030EAE
:104A0000DB88D5D72A0EDF5C1BE136EC29F084EC7D
:104A100029F010E0030EDB8008680968130EDBCF75
:104A20000DF0140EDBCF0EF0B8EC54F0040E06C0FF
:104A3000DBFF03D0130E6DEC29F03AEC29F00BD01C
:104A4000090EDB6ADBEC29F003E04FEC2AF0FAD721
:104A5000090E6DEC29F0030EDBB0DB982E0EDF5C47
:104A60001BE13AEC29F02A0EDF5C0BE136EC29F071
:104A700084EC29F003E1130EBFEC29F03AEC29F0A5
:104A80000BD0090EDB6ADBEC29F003E04FEC2AF0D7
:104A9000FAD7090EBFEC29F0680EDF5C07E13AECAB
:104AA00029F0680EDF5C1DE1030E18D0740EDF5C88
:104AB00017E07A0EDF5C14E0480EDF5C06E0540E6F
:104AC000DF5C03E05A0EDF5C02E1020E07D06C0EE1
:104AD000DF5C03E06A0EDF5C04E1010E12EC2AF0F9
:104AE000C9DBDF506E0A01E17FD31E0A01E192D1DA
:104AF000200A01E18FD13F0A01E149D11A0A01E1FF
:104B000046D10D0A01E143D1200A01E140D13A0A20
:104B100001E13DD1200A01E13AD1260A01E135D176
:104B20000D0A01E132D11A0A01E1D9D0200A4AE086
:104B3000300A1FE0460A0EE0250A01E083D3D9506F
:104B4000F90FE96EFF0EDA20EA6E010EEE5E000E3E
:104B5000EE5AEE5A20EC2AF0250EE66E95DB03E1C4
:104B6000151C01E169D31CEC2AF001E26BD3DB2AAE
:104B700069D3080EDB6A040EDB50010806E2040E5E
:104B8000DB04E4EC29F0DB508BDB080EDB5009E0A2
:104B9000030EDB50010B05E172DB01E04DD3080E83
:104BA000DB6A64DBEFCFDFFF94EC2AF003E1151C36
:104BB00001E142D31CEC2AF001E3DB2A60DB01E1D6
:104BC00041D33AD3070EDB5002080FE160EC2AF024
:104BD000030E27EC2AF00E0EEECFDBFF0F0EEECF0A
:104BE000DBFF100EEECFDBFF20D0F70EDBCF17F090
:104BF000F80EDBCF18F0020E175E000E185AF70EF3
:104C000017C0DBFFF80E18C0DBFF17C0E9FF18C0A4
:104C1000EAFF17EC2AF0166A0E0E14C0DBFF0F0E27
:104C200015C0DBFF100E16C0DBFF0E0EDBCFE6FF5C
:104C30000F0EDBCFE6FF100EDBCFE6FF24EC4CF0CF
:104C4000E552E552E552130E07C0DBFF140E08C013
:104C5000DBFF060EDB5005E0130E5BEC2AF001E2F1
:104C60006ADB7FEC2AF002E2130E37DB42EC2AF01B
:104C700006E0040E5BEC2AF002E2050E2EDB030ECA
:104C8000DBB005D0FCDA01E0D7D2080EDB6A090EF2
:104C9000DB6A0E0EDBCFF6FF0F0EDBCFF7FF100E39
:104CA000DBCFF8FF0800F550DF6EDF5014E085EC35
:104CB0002AF011E294EC2AF003E1151C01E1BCD2C8
:104CC000BBDB01E3DB2A090EDB2AD9500E0FE96EAC
:104CD000000ECBDBE7D7D3DA01E1B4D2ADD2C6DA2E
:104CE000110EEECFDBFF120EEDCFDBFF110EDBCF8F
:104CF000E6FF120EDBCFE6FF16EC4CF0E552E55274
:104D0000130EF3CFDBFF140EF4CFDBFF060EDB50E8
:104D100004E0130ED0DB01E20EDB7FEC2AF002E2AE
:104D2000130EDBDAAFDB05E0040EC5DB02E2050E95
:104D3000D4DA030EDBB005D0A2DA01E07DD2080E92
:104D4000DB6A090EDB6A110EDBCFE9FF120EDBCF47
:104D5000EAFFEFCFDFFFDF5014E0D7DB12E2E4DB46
:104D600003E1151C01E168D267DB01E3DB2A090ED0
:104D7000DB2A110EDB2ADBCFE9FF120EE8E3DB2A88
:104D8000E6D77DDA01E15ED257D2030EDB8E070E45
:104D9000DB0410E195DB040E5ADB0A0EEECFDBFFDD
:104DA0000B0EEECFDBFF0C0EEECFDBFF0D0EEECFCA
:104DB000DBFF6CD0070EDB5003082CE1030EDBAEEB
:104DC0000DD0B2DA020E76DAEFCF14F0156A166A59
:104DD000176A14AE39D01568166835D0F70EDBCFD8
:104DE00015F0F80EDBCF16F0020E155E000E165A07
:104DF000F70E15C0DBFFF80E16C0DBFF15C0E9FF8C
:104E000016C0EAFFEFCF14F00A0E14C0DBFF0B0E42
:104E1000DB6A38D0070EDB50020809E1030EDBAE77
:104E200004D059DB16AE10D00ED055DB0DD0030EDA
:104E3000DBAE12D079DA020E3DDAF9DA166A176AB9
:104E400015AE02D016681768E2DA0C0E16C0DBFF4A
:104E50000D0E17C0DBFF1AD0F70EDBCF16F0F80EE1
:104E6000DBCF17F0020E165E000E175AF70E16C0B3
:104E7000DBFFF80E17C0DBFF16C0E9FF17C0EAFF23
:104E8000D6DAC5DA0C0EDB6A0D0EDB6A060EDB50D5
:104E900005E1010EF36E050EF3CFDBFF150EDB6AA5
:104EA000160EDB6AD950370F146E000EDA20156E1D
:104EB000390E14C0DBFF3A0E15C0DBFF380EDB6A7B
:104EC000080EDB6A0A0EAEDADF50780A12E0200A1A
:104ED00010E0280A0CE0200A0AE03F0A06E00D0A6A
:104EE00002E0200A08E1020E05D0080E03D0080EE9
:104EF000DF26100E97DA030EDBBE02D0DB92DB94C6
:104F0000DB50800B24E08ADAD890030EEB50000AC5
:104F100008E6000EEE5C000EEE58000EEE58000E95
:104F2000EE5815E213DA0B680C680D680E682AEC6F
:104F300056F00A0E02C0DBFF0B0E03C0DBFF0C0EA7
:104F400004C0DBFF0D0E05C0DBFF2D0E08D0030EE5
:104F5000DBA202D02B0E03D0DBA408D0200EF36E10
:104F6000170EF3CFDBFF150EDB2A02D0170EDB6A1C
:104F7000050EDB5003E1B7D901E189D0D40E146EE0
:104F8000AF0E156E000E166E070EDBCF17F0186A07
:104F9000196A1A6A17C00BF018C00CF019C00DF08E
:104FA0001AC00EF0D3D904EC57F014500224F36E5B
:104FB00015500320F46E16500420F86EF4CFF7FF5E
:104FC000F3CFF6FF0800090EF5CFDBFF580EDF5CCC
:104FD0000FE1610EF36E090E7BD90AE3200E146E09
:104FE000090EDBCFE7FF1450E75E090EE7CFDBFFCA
:104FF000070EDBCF14F0156A166A176A0FDA14C0B1
:105000000BF015C00CF016C00DF017C00EF0EECF6F
:1050100006F0EECF07F0EECF08F0EFCF09F004EC8A
:1050200057F009C0EDFF08C0EDFF07C0EDFF06C057
:10503000EFFF390EDBCFE9FFDB063A0EDBCFEAFFED
:1050400001E2DB06090EDBCFEFFF150EDB2A4BD9A1
:1050500095E1030EDBA61DD06F0EDF5C06E1C1D922
:1050600018E3150EDB285BDA14D0780EDF5C09E05C
:10507000580EDF5C06E0620EDF5C03E0420EDF5C90
:1050800008E1020EF36E160EF3CFDBFF02D0150E11
:10509000DB6A030EDB50100B0EE0040EDBCF14F0C6
:1050A000050EDB50D880145406E2060EDB5003E1F7
:1050B000040EDB5034DA95D90AE2050EDBCFE7FFA8
:1050C000150EDB50E75E050EE7CFDBFF02D0050EC5
:1050D000DB6A040EDBCF14F0160E45D9D8801454C9
:1050E00014E2160EDBCFE6FF150EDBCFE6FF040E53
:1050F000DBCFE6FF050EDB50E552E75CE552D880DA
:10510000E754E552D880E7545FD9030EDB50010B1A
:105110000BE1080EDB5008E0B2D801E08DD0080E9C
:10512000DB50BED8080EDB6A170EDB5007E088D9CB
:10513000170EF1D903E1151C01E17ED0160EDB50EC
:1051400016E07ED9300EE66E9FD802E1151C74E0A1
:1051500077D9DFCFE6FFE5EC54F0E552E552E552B2
:10516000F4CF15F00001F31C02E1151C65E0050EFB
:10517000DBCF14F0160EDB50D880145409E2050E74
:10518000DBCFE7FF160EDB50E75E050EE7CFDBFF58
:10519000300EE66E050ECBD94FE1390EDB2ADBCFA0
:1051A000E9FF3A0E01E3DB2ADBCFEAFF090EEFCF7E
:1051B000DBFFDB500EE044D9090EADD902E1151C2E
:1051C0003BE0390EDB2ADBCFE9FF3A0EEDE3DB2AC9
:1051D000EBD755D831E1160EDBCFE6FF080EC3D86A
:1051E000E552E7245DD82ED0070EDB50030A1CE001
:1051F000010A14E0030A07E07BD9DBCFEEFF020EC1
:10520000DBCFEDFF1FD0F5D8196A17AE02D01868B2
:1052100019682CD8BCD819C0EEFF14D0EAD817BE34
:10522000186824D8B4D80ED063D9DBCFEFFF0AD0EA
:105230007BD905E1151C03E1F368F46810D0FCD8B4
:1052400001E3DB2A79D9C1EF24F0010EDBCF14F0A2
:10525000020EDBCF15F014C0F3FF15C0F4FF3B0EB8
:10526000E15C02E2E16AE552E16ECBD029D9020E9F
:1052700027EF2AF061D90800F550DF6E1200200EEA
:10528000E66E080E97EF2AF0E5EC54F0E552E55291
:10529000E552F3CF14F0F4CF15F00001F31C120027
:1052A000146E156AD950010F4DD91450EE261550C1
:1052B000ED221200185E000E195AF70E18C0DBFF1F
:1052C000F80E19C0DBFF18C0E9FF19C0EAFF120091
:1052D000DBCFF4FFF350F45C1200DB50E76E040EFA
:1052E000E7CFDBFF12000A0EDBCF14F00B0EDBCF93
:1052F00015F00C0EDBCF16F00D0EDBCF17F01450AF
:105300001510161017101200130EEECFDBFF140E3F
:10531000EDCFDBFF130EDBCF14F0140EDBCF15F057
:105320000001800E15141200F70EDBCF18F0F80EF6
:10533000DBCF19F01200050EDB50E66ED950130FCB
:1053400001D9E552E750EE6EED6A12000A0EDBCF8E
:1053500006F00B0EDBCF07F00C0EDBCF08F00D0EC6
:10536000DBCF09F01200DBCFE6FF150EDBCFE6FF47
:10537000050EDB50E552E724E552E7241200DB502E
:10538000CED8010EF36E060EF3CFDBFF1200EE5007
:10539000EFCFEAFFE96E16C0EEFF17C0EEFF18C0B0
:1053A000EEFF1200D9CFE6FFDACFE6FFE1CFD9FF5B
:1053B000E2CFDAFF1200DFCFE6FFE66A92EC57F0A9
:1053C000E552E552F3501200E76E080EE7CFDBFF1F
:1053D0001200EECF14F0EECF15F0EFCF16F0176AF3
:1053E0001200050EDBCF14F0150EDB50D8801454DC
:1053F0001200010EDBCF16F0020EDBCF17F0186A99
:105400001200E552E5CFDAFFE7CFD9FF12000A0E0E
:1054100014C0DBFF0B0E15C0DBFF1200D9500A0FC2
:10542000A2EF2AF0F36E070EF3CFDBFF1200EECFF0
:1054300014F0EFCF15F01200010EDB2A020E12005D
:10544000FC0EDBCFE6FFFD0EDBCFE6FF1200145EA5
:10545000000E155AF70E14C0DBFFF80E15C0DBFF67
:1054600014C0E9FF15C0EAFF1200DA20EA6EEF2A45
:10547000EECFF6FF000EEF22EECFF7FFEF22EECFDA
:10548000F8FF1200040EDBCFE6FF130EDB50E552EF
:10549000E75C9ADFDB5004DF060EDB501200090EDA
:1054A000DB500A0DF350DF24D00FE76E090EE7CF73
:1054B000DBFF3AEF29F0DB50F36E050E68EF29F0C1
:1054C000F70EDBCF14F0F80EDBCF15F01200DFCFB4
:1054D000E6FF44EF29F028DF030EECDEE9EF29F0C8
:1054E00096EC24F0E552E552E552E552000912002F
:1054F000BDDEEE50EFCFEAFFE96E010E1200130E93
:10550000DB50F36E040E68EF29F0040EDB50F36EEF
:10551000090E68EF29F0DBCFE6FF44EF29F0E76ED4
:10552000050EE7CFDBFF12008BDF67EF2AF0DBCF42
:10553000E6FF86DF70EF2AF0D950F90FE96EFF0E13
:0E55400035EF2AF0E96E000EDA20EA6E120056
:02554E00825089
:10555000020B01E0010E0201E96F8250020B01E033
:10556000010E0201D36F0F0E88140201EA6F0F0EB5
:1055700085140201D46F8850100B01E0010E020166
:10558000EB6F8550100B01E0010E0201D56F8850C2
:10559000200B01E0010E0201EC6F8550200B01E0B1
:1055A000010E0201D66F8650200B01E0010E0201B0
:1055B000ED6F8250200B01E0010E0201D76F865083
:1055C000800B01E0010E0201EE6F8250040B01E03E
:1055D000010E0201D86F8850800B01E0010E02011C
:1055E000EF6F8550800B01E0010E0201D96F8850EA
:1055F000400B01E0010E0201F06F8550400B01E00D
:10560000010E0201DA6F8650080B01E0010E020163
:10561000F16F8250080B01E0010E0201DB6F865032
:10562000100B100A01E0010E0201F26F8250100B04
:10563000100A01E0010E0201DC6F8650400B400AA7
:1056400001E0010E0201F36F8250010B010A020119
:10565000DD6F8750010B0201F46F8750100B01E0E2
:10566000010E0201DE6F8750020B01E0010E020104
:10567000F56F8750200B01E0010E0201DF6F8750AC
:10568000040B01E0010E0201F66F8750400B01E0B0
:10569000010E0201E06F8750080B01E0010E0201CC
:1056A000F76F8750800B01E0010E0201E16F0201EC
:1056B000FE51E8B0838EE8A0839E0201E851E8B075
:1056C0008384E8A083940201FD51E8B08484E8A0BB
:1056D00084940201E751E8B0848CE8A0849C020124
:1056E000FC51E8B08482E8A084920201E651E8B05F
:1056F000848AE8A0849A0201FB51E8B08480E8A083
:1057000084900201E551E8B08488E8A08498020101
:10571000FA51E8B08382E8A083920201E451E8B034
:105720008388E8A083980201F951E8B08380E8A05B
:1057300083900201E351E8B08386E8A083960201DA
:10574000EB0505E1010EE66E0ED8E55202D002012E
:10575000F86B0201D50504E1E66A05D8E55202D0EE
:105760000201E26B1200D9CFE6FFE1CFD9FFFE0EB6
:10577000DB50160DF3CFE9FFF4CFEAFFD30EE92695
:10578000020EEA22EE52EF500D0A01E1CDD0020ADC
:1057900001E1B8D0010A01E1A3D0020A01E18ED0F3
:1057A000080A01E179D0020A65E0010A51E0020A23
:1057B0003DE0040A29E0020A15E0010A01E0C6D032
:1057C000FE0EDB50160DF3CFE9FFF4CFEAFFD30E48
:1057D000E926020EEA220F0EE926000EEA22010E49
:1057E000EF6EC5D0FE0EDB50160DF3CFE9FFF4CF00
:1057F000EAFFD30EE926020EEA220F0EE926000E7A
:10580000EA22020EEF6EB3D0FE0EDB50160DF3CF80
:10581000E9FFF4CFEAFFD30EE926020EEA220F0ECB
:10582000E926000EEA22030EEF6EA1D0FE0EDB5039
:10583000160DF3CFE9FFF4CFEAFFD30EE926020EEF
:10584000EA220F0EE926000EEA22040EEF6E8FD038
:10585000FE0EDB50160DF3CFE9FFF4CFEAFFD30EB7
:10586000E926020EEA220F0EE926000EEA22050EB4
:10587000EF6E7DD0FE0EDB50160DF3CFE9FFF4CFB7
:10588000EAFFD30EE926020EEA220F0EE926000EE9
:10589000EA22060EEF6E6BD0FE0EDB50160DF3CF34
:1058A000E9FFF4CFEAFFD30EE926020EEA220F0E3B
:1058B000E926000EEA22070EEF6E59D0FE0EDB50ED
:1058C000160DF3CFE9FFF4CFEAFFD30EE926020E5F
:1058D000EA220F0EE926000EEA22080EEF6E47D0EC
:1058E000FE0EDB50160DF3CFE9FFF4CFEAFFD30E27
:1058F000E926020EEA220F0EE926000EEA22090E20
:10590000EF6E35D0FE0EDB50160DF3CFE9FFF4CF6E
:10591000EAFFD30EE926020EEA220F0EE926000E58
:10592000EA220A0EEF6E23D0FE0EDB50160DF3CFE7
:10593000E9FFF4CFEAFFD30EE926020EEA220F0EAA
:10594000E926000EEA220B0EEF6E11D0FE0EDB50A0
:10595000160DF3CFE9FFF4CFEAFFD30EE926020ECE
:10596000EA220F0EE926000EEA22EF6A00D0E55285
:10597000E7CFD9FF1200D9CFE6FFE1CFD9FFFE0E66
:10598000DB50160DF3CFE9FFF4CFEAFFD30EE92683
:10599000020EEA22EF5000D0E552E7CFD9FF120005
:1059A000D9CFE6FFE1CFD9FFFE0EDB50160DF3CFC6
:1059B000E9FFF4CFEAFFD30EE926020EEA22EE5207
:1059C000EF5000D0E552E7CFD9FF1200D9CFE6FF64
:1059D000E1CFD9FFFE0EDB50160DF3CFE9FFF4CF78
:1059E000EAFFD30EE926020EEA22020EE926000E95
:1059F000EA22EF5000D0E552E7CFD9FF1200D9CF0D
:105A0000E6FFE1CFD9FFFE0EDB50160DF3CFE9FF25
:105A1000F4CFEAFFD30EE926020EEA22030EE926AE
:105A2000000EEA22EF5000D0E552E7CFD9FF120076
:105A3000D9CFE6FFE1CFD9FFFE0EDB50160DF3CF35
:105A4000E9FFF4CFEAFFD30EE926020EEA22040EA4
:105A5000E926000EEA22EF5000D0E552E7CFD9FF49
:105A60001200D9CFE6FFE1CFD9FFFE0EDB50160DB5
:105A7000F3CFE9FFF4CFEAFFD30EE926020EEA22C4
:105A8000050EE926000EEA22EF5000D0E552E7CFDE
:105A9000D9FF1200D9CFE6FFE1CFD9FFFE0EDB50D0
