:1008400084316F2C080008007E1484314E01961EFE
:100850002A2C2B2C332C8C1E2E2C2F2C332C953108
:10086000E42584316D2C161E362C372C3F2C0C1EA3
:100870003A2C3B2C3F2C9431832484316D2C0B1F5C
:10088000422C432C6D2C191E462C472C522C0F1E2B
:100890004A2C4B2C522C42016F088A006E080A0029
:1008A00084316D2C991E552C562C612C8F1E592C81
:1008B0005A2C612C430157088A0056080A008431DB
:1008C0006D2C1A1C642C652C6D2C101C682C692C4A
:1008D0006D2C9531FB2584316D2C7E100900400173
:1008E0008431722CE030840093308500ED30860036
:1008F0000030870003309431352484318630840001
:1009000089308500203086000130870046309431E0
:1009100035248431F430840094308500C030860062
:10092000013087001030943135248431FA01FB0105
:10093000A0308400003085002F3094312F24843182
:100940006630840001308500083094312F248431D2
:10095000A030840001308500203094312F24843170
:100960007E1040018E31E82E4001A400A3016E2EBE
:100970000A30F20040012408953162258431273E77
:1009800086000130870081010A30F200400124080E
:10099000953162258431263E860001308700810131
:1009A000810A4001A3018B2E0130F8000A30F200C9
:1009B00040012408953162258431273E86000130AC
:1009C0008700780881070A30F20040012408953139
:1009D00062258431243E8600013087000A30F2000F
:1009E00040012408953162258431273E840001307E
:1009F0008500000801020318FE2CFF2C262D0A306A
:100A0000F20040012408953162258431273E86009A
:100A10000130870081010A30F2004001240895313D
:100A200062258431213E8600013087000A30F200C1
:100A300040012408953162258431283E840001302C
:100A400085000008810741310318810A0A30F2004D
:100A500040012408953162258431213E8600013011
:100A60008700403FF800413FF90000307902FF3035
:100A700003197802031C3D2D3E2D662D0A30F2002D
:100A800040012408953162258431213E86000130E1
:100A90008700FE30C03F0030C13F0A30F200400105
:100AA0002408953162258431263E86000130870076
:100AB000023081000A30F20040012408953162259D
:100AC0008431273E86000130870081014001A30167
:100AD000A30A8B2E0130F8000A30F20040012408EE
:100AE000953162258431273E8600013087007808E1
:100AF00081070A30F20040012408953162258431D3
:100B0000243E8600013087000A30F20040012408AC
:100B1000953162258431273E84000130850000082C
:100B200001020318942D952DBD2D0A30F2004001CD
:100B30002408953162258431273E860001308700E4
:100B400081010A30F2004001240895316225843188
:100B5000283E8600013087000A30F2004001240858
:100B6000953162258431213E8400013085000108E1
:100B700080020131031C80033F310A30F200400142
:100B80002408953162258431253E86000130870096
:100B9000FE3001060319CD2DCE2D0F2E0A30F200A6
:100BA00040012408953162258431213E86000130C0
:100BB0008700403FF800413FF900003079021F30C4
:100BC000031978020318E52DE62D0F2E0A30F200E6
:100BD00040012408953162258431213E8600013090
:100BE00087001E30C03F0030C13F0A30F200400194
:100BF0002408953162258431263E86000130870025
:100C00008101810A0A30F2004001240895316225F1
:100C10008431273E8600013087008101662D0A302D
:100C2000F20040012408953162258431253E86007A
:100C300001308700FE300106031D1F2E202E662D79
:100C40000A30F20040012408953162258431213EAA
:100C5000860001308700403FF800413FF900003036
:100C600079020230031978020318372E382E662DC8
:100C70000A30F20040012408953162258431213E7A
:100C80008600013087000130C03F0030C13F0A308C
:100C9000F20040012408953162258431263E860009
:100CA000013087008101810A0A30F20040012408E6
:100CB000953162258431273E86000130870081010D
:100CC000662D0A30F20040012408953162258431F6
:100CD000263E86000130870081018B2E0A30F2000B
:100CE0002408953162258431263E86000130870034
:100CF0000108F800F9017908003A0319802E612EE5
:100D00007808003A0319B82C013A0319D42C033A95
:100D100003196A2D612E400124088B311923843177
:100D20004001230808004001C5003A08CA003B08FA
:100D3000CB003C08CC003D08CD003E08CE003F086B
:100D4000CF004008D0004108D1004A308600003072
:100D50008700473FC200C21BAE2EB02E0130B12E1D
:100D600000304001D20052080319B72EB82ED62EFB
:100D7000CA09CB09CC09CD09CE09CF09D009D109BF
:100D8000CA0A031DD62ECB0A031DD62ECC0A031D7C
:100D9000D62ECD0A031DD62ECE0A031DD62ECF0A7F
:100DA000031DD62ED00A031DD62ED10A41013608C6
:100DB000803A4001C20080304202031DE22E013021
:100DC000410135020318E52EE62EEC2E01304001DC
:100DD000C6000030C700F42E410136084001C700AC
:100DE000410135084001C600410134084001C900F5
:100DF000410133084001C80052080319002F012F98
:100E0000152FFF30C807FF30C93D5208031D092FB9
:100E10000A2F0F2F2B30C3000030C400132F2D30AA
:100E2000C3000030C4004308D2001F30D30000309C
:100E3000D4004301BF01852FFF304001D307FF30AD
:100E4000D43D0A30A000A101A201A301A401A50183
:100E5000A601A7014A08A8004B08A9004C08AA004F
:100E60004D08AB004E08AC004F08AD005008AE0076
:100E70005108AF008C31FA24863140012108F60078
:100E80002008F5008831002086317508303E400189
:100E9000C2005308A03E860001308700420881004E
:100EA000FF30C607FF30C73DFF30C807FF30C93DE0
:100EB0000A30A000A101A201A301A401A501A6017D
:100EC000A7014A08A8004B08A9004C08AA004D0831
:100ED000AB004E08AC004F08AD005008AE00510802
:100EE000AF008D31E425863140012008CA00210879
:100EF000CB002208CC002308CD002408CE00250812
:100F0000CF002608D0002708D10040015408803ABD
:100F1000C20080304202031D8F2F01305302031C98
:100F2000922F932FAD2F40014A084B044C044D04DF
:100F30004E044F0450045104031D9F2FA02F1C2F5B
:100F40004708803AC20080304202031DA92F0130B9
:100F500046020318AC2FAD2F1C2F40015208031975
:100F6000B22FB32FBE2FFF30D307FF30D43D53082D
:100F7000A03E860001308700520881005308A03E41
:100F8000AB004908AD004808AC0045089731CB27B5
:100F90008631080000304001A3000030A20000307C
:100FA000A1000030A000721CD62FD72FE02F7608AA
:100FB0004001A0077708A13D7808A23D7908A33D2C
:100FC0000130F635F70DF80DF90D890BE12F0130E1
:100FD000F536F40CF30CF20C890BE82F7508740449
:100FE00073047204031DF52FF62FD32F400123083D
:100FF000F5002208F4002108F3002008F2000800A0
:101000007608803AF70080307702031D0928013006
:10101000750203180C280D2819287509F7007609A0
:10102000F800F70A0319F80A7708F5007808F600BF
:1010300019280800F8000A30F20078089531622576
:101040008831213E860001308700FE30C03F0030ED
:10105000C13F0A30F2007808953162258831243E7C
:1010600086000130870081010A30F200780895314E
:1010700062258831263E86000130870081010A30D2
:10108000F2007808953162258831273E86000130CC
:101090008700810178088B311923883101300800DD
:1010A0007B08A03E86008701810142011D1D592851
:1010B0005A2865287B08A03E8600870181144301D9
:1010C00055088A0054080A00883142019D1C69288D
:1010D0006A2875287B08A03E860087010115430118
:1010E00053088A0052080A0088317B08A03E860017
:1010F0008701010803197D287E28852843015108AE
:101100008A0050080A0088318828963112268831D2
:10111000080041015F08F5005E08F4005D08F30077
:101120005C08F2004C30F9009530F8007F30F70091
:101130002D30F6008731CA2788310130720741010E
:10114000DC000030733DDD000030743DDE00003017
:10115000753DDF005C084001A60041015D084001CB
:10116000A70041015E084001A80041015F0840015D
:10117000A9001130A936A80CA70CA60C890BBA2817
:101180002708A5002608A40008004E019912503037
:10119000F2000830F30094310B2488314E0119120B
:1011A0009E30F2001630F30094311124883108305B
:1011B00042019F0090309D0024309E0022309B0011
:1011C0009C01DB30F2001330F3009331FF238831B0
:1011D000E730F2001330F300943105248831E33016
:1011E000F2001330F3009331F92388314101CB0130
:1011F000CE01CD010830DB00FB01FA01CC014E012C
:10120000991608004001980199019A01073092004F
:10121000103093000230940002307E01CE00C301F2
:10122000B801C401B901CF01BA01C501D0011E3016
:10123000BB00C6013F30D1003F30BC00C7013F308A
:10124000D2004A1249164816DC30F2001330F3007F
:101250009431172489314E0116160F307E01A000FB
:1012600011307D01C3000B307E01A3000E309F00C2
:101270000A30A4000930A5000C30A6000D30A700EC
:1012800002307D01CB00080077080319482949295D
:101290004E297708031D4D294E295329750894318D
:1012A0002924893185297708083E860087011600A0
:1012B000010403195C295D297C297708083E860012
:1012C0008701403F4001A000413FA1007708023E56
:1012D00086008701403FA200413FA3002308803AD7
:1012E000A4002108803A2402031D78292008220244
:1012F00003187B297C2985297708023E860087010F
:101300000130810741310318810A0800003400349C
:10131000003400340034FE3400340034013400342E
:1013200001340034003400340034FE34003400341E
:1013300001340134023400340034003400341934F0
:1013400000340034013402340334003400340034F7
:1013500000341934003400340134033404340034CC
:101360000034003400345034003400340134043488
:101370000534003400340034003450340034003478
:1013800001340534003400340034003400340034B7
:1013900000340034003400344001A3000A30F2006D
:1013A0002308953162258931253E8600013087006A
:1013B0000108F800F9010A30F200400123089531D4
:1013C00062258931213E8600013087007808C03FC0
:1013D0007908C13F0A30F2004001230895316225A7
:1013E0008931243E86000130870081010A30F200F5
:1013F00040012308953162258931263E860001305F
:10140000870081010A30F2004001230895316225EE
:101410008931273E86000130870081014001230881
:101420008B3119238931013008004001A800A9013E
:10143000432A2508973196278A314001A9005F2A5F
:1014400025088931CC218A314001A9005F2A25086D
:1014500088311A208A314001A9005F2A2508953178
:1014600077258A314001A9005F2A25088431B424F8
:101470008A314001A9005F2A25088C3131248A3144
:101480004001A9005F2A2808A600A7012708003A02
:1014900003194B2A5F2A2608003A0319192A013A30
:1014A0000319202A033A0319272A013A03192E2A7D
:1014B000073A0319352A013A03193C2A5F2A2908F9
:1014C00008004001AC009E2A2C08031D682A692AE6
:1014D000B32A41014908031D6E2A6F2AB32ABB01B2
:1014E000BC0100308A31B4228A3101304001AA00A7
:1014F0002A084101C007B32A133041013C02893058
:1015000003193B02031C852A862AB32A4908031DB6
:101510008A2A8B2AB32A752A2C080319902A912A21
:10152000B32A41014908031D962A972AB32A01309C
:101530008A31B4228A314101C001B32A41014008F5
:101540004001AA00AB012B08003A0319A82AB32ACC
:101550002A08003A0319642A013A03197C2A033A3B
:1015600003198C2AB32A080040010D1EB82AB92A93
:10157000F22A4201B701B70AC101C10ACB01CB0A65
:10158000D501D50A403041015002003003194F0205
:10159000031CCB2ACC2AEE2A05304201A300FE30E0
:1015A000A1000030A200A6019630A4000530AD00D5
:1015B000AB01AC01B0019630AE000430CB00FF307F
:1015C000C9000030CA000230CE00CC010430D50082
:1015D0005030D3000030D400D801D6014001981219
:1015E0001A150D2B03304201B7000330C100A301CF
:1015F000AD01CB01CB0AD501D50A3F3041015002E4
:10160000FF3003194F020318062B072B0A2B40014A
:1016100098160C2B400198121A11883189208A31B2
:10162000400125084101D000400124084101CF00BC
:1016300008004001A0000A30F20020089531622520
:101640008B31213E860001308700403FF600413F4C
:10165000F700F635F70DF635F70D76084001A100D5
:101660007708A200692B40012208F3002108F2004C
:10167000953127258B318F2B40012208F30021085B
:10168000F20095313A258B318F2B40012208F3006F
:101690002108F20095318C258B318F2B40012208D7
:1016A000F3002108F2009531A2258B318F2B4001E8
:1016B0002208F3002108F2009531B8258B318F2BD9
:1016C00040012208F3002108F2009531CE258B312C
:1016D0008F2B0A30F2002008953162258B31293E8C
:1016E0008600013087000108F600F7017708003A0C
:1016F00003197B2B8F2B7608003A0319332B013A01
:1017000003193C2B033A0319452B013A03194E2BBD
:10171000073A0319572B013A0319602B8F2B080046
:101720004001E300550886008701403FD700413F54
:10173000D80057088400580885001200253A031D78
:10174000A22BA32B182C5508860087010130810796
:1017500041310318810A4101B301B4010310003083
:1017600003180130BF00FF30B500FF30B600400164
:10177000550886008701403FE400413FE5006408CA
:101780008400650885001200643A0319C82BC92B30
:10179000D32B64088400650885001200693A031D94
:1017A000D22BD32B0E2C560886008701010884000B
:1017B000850102308107003FD700013FD80057085C
:1017C000DB005808DC00890D893B8909DD00DE005B
:1017D000DF00E000E100E2006408013ED7000030D5
:1017E000653DD8005508860087015708C03F580856
:1017F000C13F5B08BA005C08BB005D08BC005E0826
:10180000BD005F08BE006008BF006108C00062083C
:10181000C1006308863193268B31302C4001550876
:10182000860087010130810741310318810A302C7D
:10183000550886008701403FD700413FD800570830
:101840008400580885000008D900DA015908F5001D
:101850005A08F6006308F700893144218B310E2CB9
:1018600008004001A400A301D82C0A30F200400176
:101870002408953162258C31273E8600013087008F
:1018800081010A30F20040012408953162258C3133
:10189000263E8600013087008101810A4001A301B4
:1018A000F22C0130F8000A30F20040012408953192
:1018B00062258C31273E8600013087007808810739
:1018C0000A30F20040012408953162258C31243E13
:1018D0008600013087000A30F2004001240895316B
:1018E00062258C31273E840001308500000801020A
:1018F00003187B2C7C2CBA2C0A30F20040012408FF
:10190000953162258C31273E8600013087008101A8
:101910000A30F20040012408953162258C31213EC5
:101920008600013087001600FE3AF8001600F80421
:10193000031D9B2C9C2CAB2C0A30F2004001240888
:10194000953162258C31213E8600013087000030C0
:10195000C03FC13FBA2C0A30F20040012408953143
:1019600062258C31213E860001308700FE30C03F69
:101970000030C13F0A30F200400124089531622551
:101980008C31263E8600013087008101810A4001AA
:10199000A301A30AF22C0A30F20040012408953179
:1019A00062258C31263E8600013087008101F22CB1
:1019B0000A30F2002408953162258C31263E8600DB
:1019C000013087000108F800F9017908003A03198D
:1019D000EA2CCB2C7808003A0319352C013A03196C
:1019E000512CCB2C400124088B3119238C31400120
:1019F00023080800F4012830860000308700473FA4
:101A0000F200F21F042D052D262D4001A809A90979
:101A1000AA09AB09AC09AD09AE09AF09A80A031DB3
:101A2000242DA90A031D242DAA0A031D242DAB0A67
:101A3000031D242DAC0A031D242DAD0A031D242DE6
:101A4000AE0A031D242DAF0AF401F40A20308600EB
:101A500000308700473FF200F21F2F2D302D4F2D11
:101A60004001A009A109A209A309A409A509A60981
:101A7000A709A00A031D4F2DA10A031D4F2DA20A7D
:101A8000031D4F2DA30A031D4F2DA40A031D4F2D27
:101A9000A50A031D4F2DA60A031D4F2DA70A4001BD
:101AA00020082104220423042404250426042704F6
:101AB00003195B2D5C2DAF2DF301F30A6B2DA035BF
:101AC000A10DA20DA30DA40DA50DA60DA70D01300E
:101AD000F2007208F307A71F6E2D6F2D5F2D2708E8
:101AE0002F02031D8D2D26082E02031D8D2D250886
:101AF0002D02031D8D2D24082C02031D8D2D23087E
:101B00002B02031D8D2D22082A02031D8D2D210875
:101B10002902031D8D2D20082802031C902D912DD4
:101B2000A12D2008A8022108A93B2208AA3B2308CE
:101B3000AB3B2408AC3B2508AD3B2608AE3B270851
:101B4000AF3BA736A60CA50CA40CA30CA20CA10CB1
:101B5000A00C0130F302031DAE2DAF2D6F2D7408C4
:101B60000319B32DB42DD22DA809A909AA09AB09CF
:101B7000AC09AD09AE09AF09A80A031DD22DA90A07
:101B8000031DD22DAA0A031DD22DAB0A031DD22D8F
:101B9000AC0A031DD22DAD0A031DD22DAE0A031DC2
:101BA000D22DAF0A40012808A0002908A1002A0868
:101BB000A2002B08A3002C08A4002D08A5002E08C5
:101BC000A6002F08A70008004001B10120308600C0
:101BD00000308700473FF200F21FEF2DF02D122E4C
:101BE0004001A009A109A209A309A409A509A60900
:101BF000A709A00A031D0F2EA10A031D0F2EA20A7A
:101C0000031D0F2EA30A031D0F2EA40A031D0F2E62
:101C1000A50A031D0F2EA60A031D0F2EA70A4001B9
:101C2000B101B10A2830860000308700473FF2003A
:101C3000F21F1B2E1C2E402E4001A809A909AA093B
:101C4000AB09AC09AD09AE09AF09A80A031D3B2ECB
:101C5000A90A031D3B2EAA0A031D3B2EAB0A031D36
:101C60003B2EAC0A031D3B2EAD0A031D3B2EAE0AD4
:101C7000031D3B2EAF0A0130F20072084001B1068D
:101C800032308600003087000830F20000301E003D
:101C9000F20B472E400120082104220423042404CF
:101CA0002504260427040319562E572EB32EB001FF
:101CB000B00A662EA035A10DA20DA30DA40DA50D91
:101CC000A60DA70D0130F2007208B007A71F692EFC
:101CD0006A2E5A2EB235B30DB40DB50DB60DB70D33
:101CE000B80DB90D27082F02031D902E26082E02CD
:101CF000031D902E25082D02031D902E24082C0272
:101D0000031D902E23082B02031D902E22082A0269
:101D1000031D902E21082902031D902E2008280261
:101D2000031C932E942EA52E2008A8022108A93B5F
:101D30002208AA3B2308AB3B2408AC3B2508AD3B5B
:101D40002608AE3B2708AF3B3214A736A60CA50CDD
:101D5000A40CA30CA20CA10CA00C0130B002031D1A
:101D6000B22EB32E6A2E31080319B72EB82ED62EF6
:101D7000B209B309B409B509B609B709B809B9096F
:101D8000B20A031DD62EB30A031DD62EB40A031DB4
:101D9000D62EB50A031DD62EB60A031DD62EB70AB7
:101DA000031DD62EB80A031DD62EB90A40013208EB
:101DB000A0003308A1003408A2003508A3003608AB
:101DC000A4003708A5003808A6003908A7000800B5
:101DD000973134278E318B170B17EB30F20013300D
:101DE000F30094311D248E314230F2001430F300A0
:101DF000943123248E31B230F2001430F300943148
:101E000017248E3111309431BD248E3196312B261A
:101E10008E319A304101E0009830E100953115256E
:101E20008E31410148080319162F172F212F9731A2
:101E300062278E31013A031D1E2F1F2F212F4101D2
:101E4000C80141016E08031D262F272F2B2F4A089A
:101E50008A3161228E31410147080319302F312F19
:101E6000F02FDF2F9331DD238E314101C501C50AEB
:101E7000F02F94313B248E31003A0319402F412F2B
:101E8000F02F9331F3238E3173084101BA007208A9
:101E9000B9004435C03E8600013087003908C03F94
:101EA0003A08C13F01304001EE006E084101C4070D
:101EB00008304402031C5D2F5E2F5F2FC401B70161
:101EC000B801EC016C35C03E860001308700403F10
:101ED0004001EE00413FEF006E084101B7074001AD
:101EE0006F084101B83D01304001EE006E0841012C
:101EF000EC0708306C02031C7E2F7F2F622F3808FE
:101F00004001EF00410137084001EE00EF36EE0CD2
:101F1000EF36EE0CEF36EE0C6E084101B7004001D3
:101F20006F084101B80002303802EE300319370261
:101F300003189B2F9C2F9E2FC601C60AC701C501FF
:101F40009A30E0009830E100953115258E318930C6
:101F50004101E0009830E10038084001EF00410104
:101F600037084001EE00EE35EF0DEE35EF0D6E084F
:101F70004101E20040016F084101E3009531152560
:101F80008E3177304101E0009830E1003A08E300FB
:101F90003908E200953115258E3194318C248E312B
:101FA000003A0319D42FD52FF02F9631E5268E3124
:101FB00097310C278E31F02F4101C501F02F4508D4
:101FC0004001EE00EF016F08003A0319E82FDC2F03
:101FD0006E08003A0319322F013A0319392FDC2F0A
:101FE000410146080319F52FF62F112F95314D2584
:101FF0008E314101C601C901C90A112F84316F2CEC
:10200000FF3FFF3FFF3FFF3FFF3FFF3FFF3FFF3FE0
:10201000FF3FFF3FFF3FFF3FFF3FFF3FFF3FFF3FD0
:10202000FF3FFF3FFF3FFF3FFF3FFF3FFF3FFF3FC0
:10203000FF3FFF3FFF3FFF3FFF3FFF3FFF3FFF3FB0
:1027B000FF3FFF3FFF3F0800080041019D14080054
:1027C000013401340134963112269331080042015C
:1027D0001D121D1608004101C701C70A08008230FA
:1027E00052018C00080041011C08F3001B08F20094
:1027F000080073084301D1007208D0000800730874
:102800004301D5007208D400080073084301D300C7
:102810007208D200080073084301D7007208D6007E
:10282000080073084201EF007208EE000800730808
:102830004101DA007208D900080073084101D6008E
:102840007208D500080073084101D2007208D10057
:102850000800F400740897310C27943108006400D4
:1028600080010131890B302C0034FE0012001E0063
:10287000FE0B362C0034031041019D1C0314003064
:10288000093D08004101C801C80A0130BB070030FA
:10289000BC3D08008F3046018E0001308D008F3026
:1028A0008C0008008F3046019200013091008F307B
:1028B0009000080080304601960063309500C030DB
:1028C00094000800803046019A0063309900C030BF
:1028D00098000800803046019E0063309D00C030A3
:1028E0009C000800803047018E0063308D00C030AE
:1028F0008C000800410158084B019D004101570818
:102900004B019C0008007E014A1E872C882C8B2CD2
:102910009431E5249431080041014C08031D912CA9
:10292000932C0130942C00300800E33041019E00CC
:102930009F019B019C0101309D0008007208FF3E31
:102940004101DC00FF30733DDD00DE01DF010800E6
:10295000603051018D008F0191010530930090018D
:1029600092010800003040010D1A01304101CA00F7
:10297000EE0194317A2494310800F3007308F200D8
:10298000F20DF20D41011D087206033972069D0019
:102990001D14080002304F01960080309700473028
:1029A0009800990191309A001E309B000800013078
:1029B000450190008F019101C7308D008C014E01BF
:1029C0009010803045018E000800410159085A04DA
:1029D0000319EB2CEC2CF12C5A088A0059080A0038
:1029E00094317E014A120800FF340334FF3403346B
:1029F000FF340334FF340334FF340334FF3403342F
:102A0000FF340334FF34033444010E1D082D092D17
:102A1000102D0E1071088D0070088C000E14142DEE
:102A200071088D0070088C000800E2304001ED0054
:102A3000410161084001E700410160084001E600F2
:102A40006D30E80000309631622695310800FF3085
:102A5000F2050330F30546010E1E2F2D302D352DC6
:102A60000630F235F30D890B312D73088D00720895
:102A70008C000800FF30F2050330F3054601121EFA
:102A8000422D432D482D0630F235F30D890B442D90
:102A90007308910072089000080040019812181203
:102AA0009912191314154201B701C1010530A30091
:102AB000FE30A1000030A2009630A400AD01CB0191
:102AC000D5010800F500F401751C672D682D6C2DEB
:102AD0007208F3007308F4070310F20D0310F50CED
:102AE0007508031D742D752D642D74080800F800F9
:102AF0000A30F2007808953162259531213E860032
:102B0000013087007F30C03F0030C13F78088B31F3
:102B100019239531013008007308F5007208F4009C
:102B2000F536F40CF536F40C74084601950072087D
:102B30000339F4000530F435FF3E031D9B2D743539
:102B4000940008007308F5007208F400F536F40CE0
:102B5000F536F40C74084601990072080339F40044
:102B60000530F435FF3E031DB12D74359800080083
:102B70007308F5007208F400F536F40CF536F40C21
:102B8000740846019D0072080339F4000530F435DD
:102B9000FF3E031DC72D74359C0008007308F50027
:102BA0007208F400F536F40CF536F40C740847019D
:102BB0008D0072080339F4000530F435FF3E031D23
:102BC000DD2D74358C0008004E018C12410158082F
:102BD0004B019D00410157084B019C0041015508E4
:102BE00056040319F42DF52DFA2D56088A005508C0
:102BF0000A00953108004E01101041015408F100FF
:102C00005308F000953104259531410151085204D3
:102C100003190B2E0C2E112E52088A0051080A009F
:102C2000963108007B08663E86000130870042012D
:102C3000190881000130F0007008FB0708307B02A2
:102C4000031C232E242E252EFB010130F0007008DA
:102C50004101CC0708000D30F2000030F300943140
:102C60009E24963188318920963140012508410102
:102C7000D000400124084101CF004030CF009C30FB
:102C8000D00001308A31B422963108004A304B011D
:102C90009F00FC309D002F309C001D084101D80092
:102CA0004B011C084101D7004E018C1296162230B0
:102CB000F2000430F30094311D24963190304B0122
:102CC0009E0008004001EA006708EC006608EB007F
:102CD000712E6B30D5006808D6006A088B319023BE
:102CE000963140016B0884006C0885001200031DBA
:102CF0007A2E7B2E692EE601E701080044018F0140
:102D0000900101309100FE308D0070308C004E013A
:102D1000101044010D084101D40044010C08410188
:102D2000D3004E011A142330F2000430F300943122
:102D300023249631013044018E00080008304101FF
:102D40005B020318A42EA52EBD2E4D08A83E8600BA
:102D50008701010842019A000130F000700841012A
:102D6000CD0708304D02031CB62EB72EB82ECD016C
:102D70000130F0007008DB07BF2E4E011912080069
:102D80004001A700A901AA01D62E2808A500A60186
:102D90002508F5002608F6007808F7008931442157
:102DA000963101304001A9070030AA3D29082707C4
:102DB000A50025088600013087000108A800280822
:102DC000031DE32EE42EC52E080041014C08031913
:102DD000EA2EEB2EE52E7A08A03E86008701010838
:102DE000CB007A08663E8600013087000108F300B8
:102DF0000130F2007208FA0708307A02031C012F32
:102E0000022F032FFA014E01991201304101CC0229
:102E10004E01991673080800F30041015B0803197D
:102E2000122F132F0D2F4E01191A172F182F1C2F89
:102E3000730842019A00312F191241014E08A83E31
:102E400086008701730881000130F2007208CE0706
:102E500008304E02031C2D2F2E2F2F2FCE010130B4
:102E6000DB024E01191608009431CA2497318931CA
:102E7000022197319431A82497319331EF23973170
:102E80009431522497319431622497319431D7246C
:102E90009731963146269731943172249731943187
:102EA0004A24973194319524973194315A2497319B
:102EB00094316A24973196317E2697318831C52026
:102EC000973108004101C1014001AC01AD010A3058
:102ED000F2002D08953162259731233E860001309E
:102EE000870001084001AB002D08A5002B088A319E
:102EF000152297314001AA002A08AC070130AA0028
:102F00002A08AD0706302D02031C872F882F672F54
:102F100005302C02031C8D2F8E2F922F4101C101F1
:102F2000C10A942F4101C10141080800F8000A308C
:102F3000F2007808953162259731213E86000130F4
:102F400087000030C03FC13F0A30F2007808953159
:102F500062259731243E86000130870081010A30C6
:102F6000F2007808953162259731263E86000130BF
:102F7000870081010A30F200780895316225973187
:102F8000273E860001308700810178088B311923A4
:102F90009731013008004001B200AD1BD02FD12F76
:102FA000D62F2D08B1002C08B000D82FB001B101E8
:102FB000AE01AF01EA2F2030F5000030F6004001ED
:102FC0003208F70089314421973101304001AE07C2
:102FD0000030AF3D2F08803AF9003108803A79027D
:102FE000031DF42F30082E02031CF72FF82FDB2FC0
:102FF00040013208F8002B089631C02697310800AE
:103000004C34653464342034233420347C3420340C
:10301000503472346F34673420347C342034493473
:103020006E34743465346E34733469347434793482
:1030300020347C342034503472346F3467345F343D
:103040005334743461347434653420347C34203423
:10305000533470346534653464340A340D340034C8
:1030600025346434203420342034203420347C341B
:1030700020342534643420342034203420347C340B
:103080002034253464342034203420342034203457
:103090002034203420347C342034253464342034EB
:1030A0002034203420342034203420342034203480
:1030B0007C342034253464340A340D3400345334E1
:1030C00065346C346534633474342034503457348C
:1030D0004D3431342D3436342034773469347434FB
:1030E0006834203461342D3466342E340034413455
:1030F0004434433420343D34203425346434203483
:103100005B346434653463345D342E340A340D34F6
:10311000003441344434433420343D3420342534A5
:10312000643420345B346D3456345D342E340A34C8
:103130000D3400341B345B3432344A341B345B347A
:1031400031343B34313448340034FF3FFF3FFF3FDC
:10315000FF3FFF3FFF3FFF3FFF3FFF3FFF3FFF3F7F
:10316000FF3FFF3FFF3FFF3FFF3FFF3FFF3FFF3F6F
:10317000FF3FFF3FFF3FFF3FFF3FFF3FFF3FFF3F5F
:10318000FF3FFF3FFF3FFF3FFF3FFF3FFF3FFF3F4F
:103EF000FF3FFF3FFF3FFF3FFF3FFF3F4D3F6E3F15
:020000040001F9
:08000000FF3FFF3FFF3FFF3F00
:0A000E00EC3FFD359F3FEF1FFF3F61
:00000001FF
