:040000003AEF00F0E3
:100008005B82FACF03F0FBCF04F0F2AA0EEF00F008
:1000180010EF00F01BEF00F0F2A415EF00F017EF5F
:1000280000F01BEF00F010ECC1F034EF00F0F2AC80
:1000380020EF00F022EF00F034EF00F09DA027EF52
:1000480000F029EF00F034EF00F09EA02EEF00F052
:1000580030EF00F034EF00F089ECC1F034EF00F03D
:1000680004C0FBFF03C0FAFF5B921100EAEFB1F096
:10FD9A000000060105020503060405050506060717
:10FDAA0005080609050A050B050C060D050E050FC3
:10FDBA000510061105120513061405150616051772
:10FDCA0005414447484E53555C5F6065696A7277DE
:10FDDA00787B7E1F1E1F1E1F1F1E1F1E1F1F1DB882
:10FDEA000B0000F4010000F4010000545241434B9F
:10FDFA00434F4E54524F4C4C45520044001A0F0187
:10FE0A000070F68701FFFFFFFFFFFF640000003C60
:10FE1A0025643E25642025642D252E32642D252E49
:10FE2A00326454252E32643A252E32643A252E3213
:10FE3A00645A2025642E25642E25642E25642025E7
:10FE4A00732025732025732025735B25735D0D0AA6
:10FE5A00000A0A5374617274696E67205379736C6D
:10FE6A006F6720617420256C750A0069636D7020C4
:10FE7A0077726F6E6720636B736D203A2025780066
:10FE8A004541506F6C5F5041434B45545F46414971
:10FE9A004C555245003830322E33206C656E6774EB
:10FEAA00682030782530346C5800444553545F49F3
:10FEBA00505F4E4F545F4D415443484544004950AA
:10FECA0056345F434845434B53554D5F4641494C71
:10FEDA00530049434D505F434845434B53554D5F8B
:10FEEA004641494C53004152505F49505F4E4F546E
:10FEFA005F4D41544348454400504F52545F4E4F62
:10FF0A00545F415641494C41424C45005443505F6D
:10FF1A00434845434B53554D5F4641494C53005561
:10FF2A0044505F434845434B53554D5F4641494C06
:10FF3A0053003830322E332074797065203078259A
:10FF4A0030346C580054585F4C4F4749435F4E4F0A
:10FF5A00545F49444C450054252E32643A252E32CA
:10FF6A00643A252E32645A0049505F57524F4E4721
:10FF7A005F56455253494F4E004C494E4B5F4E4FC8
:10FF8A00545F464F554E44004D41435F4E4F545FB8
:10FF9A00464F554E44002025642E25642E25642E96
:10FFAA0025640025642D252E32642D252E32640009
:10FFBA00444D415F54494D454F55540042554646BC
:10FFCA0045525F42555359003C25643E2564200042
:10FFDA0053554343455353004552524F520020252F
:10FFEA00735B006C6C7300474D5400202573005DF1
:06FFFA00002D002E0000A6
:020000040001F9
:1000000046C0D9FF47C0DAFFDECFF6FFDDCFF7FFEE
:10001000000EF86E0800F550250AD8A412EF80F003
:1000200014EF80F0CBEF83F046C0D9FF47C0DAFF72
:10003000DE2A000EDD22000E0101C56F000EC46F26
:10004000C4C1FAF00001F669F769000E6F6F000E87
:100050006E6F57EF80F0FA8346C0D9FF47C0DAFFD2
:10006000DE2A000EDD2257EF80F0000E6F6F010ECA
:100070006E6F57EF80F046C0D9FF47C0DAFFDECF82
:10008000F6FFDDCFF7FF000EF86E0800F550606F49
:10009000616B6151000AD8B450EF80F035EF80F009
:1000A0006051300AD8B42BEF80F035EF80F06E51FC
:1000B0006F11D8B45EEF80F060EF80F03BEF80F01E
:1000C00046C0D9FF47C0DAFFDECFF6FFDDCFF7FF2E
:1000D000000EF86E0800F5502A0AD8A472EF80F0DE
:1000E00074EF80F0A0EF80F046C0D9FF47C0DAFF80
:1000F000DE2A000EDD2248C0D9FF49C0DAFFDFCF7B
:1001000060F0020EDE26DFCF61F0000EDD2260C05F
:10011000D9FF61C0DAFFDECFC4F1DDCFC5F1010147
:10012000C5BF97EF80F095EF80F0D6EF80F000012B
:10013000FA810101C46DC51FD8B0C52BD6EF80F080
:1001400046C0D9FF47C0DAFFDECF0BF0DDCF0CF0A1
:100150006FECAFF00BC0C4F10CC0C5F1B7EF80F08D
:1001600046C0D9FF47C0DAFFDE2A000EDD2246C0B6
:10017000D9FF47C0DAFFDECFF6FFDDCFF7FF000E75
:10018000F86E0800F5CF60F0D00E00016025616FB9
:10019000626BFF0E6223625109E10A0E615DD8A015
:1001A000D4EF80F0D6EF80F0B0EF80F046C0D9FFFA
:1001B00047C0DAFFDECFF6FFDDCFF7FF000EF86EA7
:1001C0000800F5502E0AD8A4E8EF80F0EAEF80F09E
:1001D0005DEF81F0000E0001F76F000EF66F46C074
:1001E000D9FF47C0DAFFDE2A000EDD2246C0D9FF64
:1001F00047C0DAFFDECFF6FFDDCFF7FF000EF86E67
:100200000800F5502A0AD8A408EF81F00AEF81F01F
:1002100027EF81F046C0D9FF47C0DAFFDE2A000E83
:10022000DD2248C0D9FF49C0DAFFDFCF60F0020EFF
:10023000DE26DFCF61F0000EDD2260C0D9FF61C095
:10024000DAFFDECFF6F0DDCFF7F05DEF81F046C0EC
:10025000D9FF47C0DAFFDECF0BF0DDCF0CF06FEC3B
:10026000AFF00BC0F6F00CC0F7F03EEF81F046C0E7
:10027000D9FF47C0DAFFDE2A000EDD2246C0D9FFD3
:1002800047C0DAFFDECFF6FFDDCFF7FF000EF86ED6
:100290000800F5CF60F0D00E00016025616F626B41
:1002A000FF0E6223625109E10A0E615DD8A05BEF87
:1002B00081F05DEF81F037EF81F046C0D9FF47C094
:1002C000DAFFDECF7BF0DDCF7CF07BC0F6FF7CC0B9
:1002D000F7FF000EF86E0800F5CF7AF07CEF81F0A2
:1002E0007B4B7C2BA2EF81F0690E7A6FA2EF81F03D
:1002F000000E7A6FA2EF81F000017A51606F616B9E
:100300006151000AD8B487EF81F078EF81F0605135
:10031000580AD8B474EF81F03C0AD8B474EF81F075
:100320000D0AD8B474EF81F0050AD8B470EF81F0EB
:10033000190AD8B474EF81F00D0AD8B474EF81F0C3
:1003400078EF81F07BC0F6FF7CC0F7FF000EF86EFF
:100350000800F550640AD8B4B0EF81F0B2EF81F034
:100360001EEF82F07BC0F6FF7CC0F7FF000EF86E38
:100370000800F550690AD8A4C0EF81F0C2EF81F0FF
:1003800059EF82F01EEF82F048C0D9FF49C0DAFF72
:10039000DFCF60F0020EDE26DFCF61F0000EDD223F
:1003A00060C0D9FF61C0DAFFDECF72F0DDCF73F03D
:1003B000000E73BFFF0E746F756F766F776F786F77
:1003C000796F33EF82F048C0D9FF49C0DAFFDFCF41
:1003D00060F0040EDE26DFCF61F0000EDD2260C08B
:1003E000D9FF61C0DAFFDECF62F0DECF63F0DECF8F
:1003F00064F0DECF65F062C066F063C067F064C091
:1004000068F065C069F06A6B69BF6A696AC06BF0C1
:100410006AC06CF06AC06DF066C072F067C073F0BD
:1004200068C074F069C075F06AC076F06BC077F090
:100430006CC078F06DC079F033EF82F07A51606F64
:10044000616B6151000AD8B428EF82F033EF82F07B
:100450006051690AD8B4C4EF81F0050AD8B4E3EF5B
:1004600081F033EF82F0010E7B25606F000E7C215E
:10047000616F46C0D9FF47C0DAFF60C0DEFF61C0D0
:10048000DDFF44C020F045C021F072C022F073C0EF
:1004900023F074C024F075C025F076C026F077C034
:1004A00027F078C028F079C029F0F3EC99F0E1EF5B
:1004B00083F07BC0F6FF7CC0F7FF000EF86E0800EB
:1004C000F550780AD8B467EF82F069EF82F0D1EF87
:1004D00082F07BC0F6FF7CC0F7FF000EF86E0800CC
:1004E000F550580AD8B477EF82F079EF82F0D1EF67
:1004F00082F07BC0F6FF7CC0F7FF000EF86E0800AC
:10050000F550750AD8A487EF82F089EF82F04FEF9B
:1005100083F0D1EF82F048C0D9FF49C0DAFFDFCFC6
:1005200060F0020EDE26DFCF61F0000EDD2260C03B
:10053000D9FF61C0DAFFDECF62F0DDCF63F062C0C9
:1005400072F063C073F0746B756B766B776B786B5E
:10055000796BE6EF82F048C0D9FF49C0DAFFDFCF00
:1005600060F0040EDE26DFCF61F0000EDD2260C0F9
:10057000D9FF61C0DAFFDECF62F0DECF63F0DECFFD
:1005800064F0DECF65F06251726F6351736F645136
:10059000746F6551756F766B776B786B796BE6EF7F
:1005A00082F07A51606F616B6151000AD8B4DBEF61
:1005B00082F0E6EF82F06051690AD8B48BEF82F0E6
:1005C000050AD8B4ABEF82F0E6EF82F0010E7B258E
:1005D000606F000E7C21616F46C0D9FF47C0DAFF13
:1005E00060C0DEFF61C0DDFF2FEF83F044C020F06C
:1005F00045C021F072C022F073C023F074C024F013
:1006000075C025F076C026F077C027F078C028F0B6
:1006100079C029F0B1ECA3F0E1EF83F044C020F001
:1006200045C021F072C022F073C023F074C024F0E2
:1006300075C025F076C026F077C027F078C028F086
:1006400079C029F07BC0F6FF7CC0F7FF000EF86E82
:100650000800F5CF2AF099ECA2F0E1EF83F07BC01F
:10066000F6FF7CC0F7FF000EF86E0800F550606FD3
:10067000616B6151000AD8B440EF83F04FEF83F013
:100680006051580AD8B40EEF83F02D0AD8B4F6EFB3
:1006900082F00D0AD8B40EEF83F04FEF83F046C01E
:1006A000D9FF47C0DAFFDECFF6FFDDCFF7FF000E40
:1006B000F86E0800F550730AD8B461EF83F063EF69
:1006C00083F07EEF83F046C0D9FF47C0DAFFDECF6C
:1006D00005F0DDCF06F0ED0E076EFF0E086E000E82
:1006E0000A6E030E096E99ECB4F005500610D8A4FA
:1006F0007CEF83F07EEF83F0C2EF83F046C0D9FF3A
:1007000047C0DAFFDECFF6FFDDCFF7FF000EF86E51
:100710000800F550730AD8B490EF83F092EF83F09D
:1007200099EF83F0000E0001716F030E706F9EEF62
:1007300083F0000E0001716F010E706F46C0D9FF8B
:1007400047C0DAFF7051DE267151DD2244C00EF041
:1007500045C00FF048C0D9FF49C0DAFFDFCF60F0D5
:10076000020EDE26DFCF61F0000EDD2260C0D9FF71
:1007700061C0DAFFDECF10F0DDCF11F04CECAAF053
:10078000E1EF83F046C0D9FF47C0DAFFDE2A000E52
:10079000DD22E1EF83F046C0D9FF47C0DAFFDECFAC
:1007A000F6FFDDCFF7FF000EF86E0800F550056E7E
:1007B000066A44C007F045C008F022ECB8F0C2EF6A
:1007C00083F012006A0E056E000E066E000E086EB3
:1007D0001C0E076EA8ECBDF005C060F006C061F00D
:1007E0001C0E000160196111D8A4F9EF83F0FBEF32
:1007F00083F08CEF87F0000E626F170E686F050EA6
:10080000696F6A51206E1F6A6AC021F06BC022F0C6
:1008100022C021F0226AFF0E2116000E22161F5060
:100820002110236E20502210246E23042410D8B4EB
:100830001CEF84F01EEF84F022EF84F08CEF87F041
:100840008CEF87F06C51206E1F6A20EE6CF0DECFCB
:1008500021F0DDCF22F022C021F0226AFF0E211606
:10086000000E22161F502110236E20502210246EDD
:10087000080E24182310D8B440EF84F042EF84F01F
:1008800044EF84F08CEF87F0060E6E19D8B44BEF6E
:1008900084F04DEF84F04FEF84F08CEF87F0040E7E
:1008A0006F19D8B456EF84F058EF84F05AEF84F003
:1008B0008CEF87F0080E666F20EE06F06851D9269F
:1008C0006951DA22FF0E7815236E000E7915246E19
:1008D000000E7A15256E000E7B15266E23C026F0BD
:1008E000256A246A236A10EE78F0000EE614276E5B
:1008F000FF0EE614286E000EE614296E000EE614B4
:100900002A6E29C02AF028C029F027C028F0276ABB
:1009100078C02BF079C02CF07AC02DF07BC02EF07F
:100920002CC02BF02DC02CF02EC02DF02E6A000E06
:100930002B142F6EFF0E2C14306E000E2D14316E02
:10094000000E2E14326E78C033F079C034F07AC0C5
:1009500035F07BC036F0190EB3EF84F0D890363204
:10096000353234323332E82EAEEF84F0FF0E3314DA
:10097000376E000E3414386E000E3514396E000ECA
:1009800036143A6E2F5037103B6E305038103C6E94
:10099000315039103D6E32503A103E6E27503B10A8
:1009A0003F6E28503C10406E29503D10416E2A5039
:1009B0003E10426E23503F10436E24504010446E50
:1009C00025504110456E26504210466EDE504318A9
:1009D0000DE1DE5044180AE1DE50451807E1DE5013
:1009E0004618D8A4F6EF84F0F8EF84F021EF85F0F4
:1009F00020EE0AF06851D9266951DA22DE506C19CE
:100A000007E1DE506D19D8A408EF85F00AEF85F0F4
:100A100021EF85F020EE0CF06851D9266951DA22D9
:100A2000000EDF6E20EE72F068C0E1FF69C0E2FFE9
:100A3000050EDBCFE3FFE806FCE2010E626F2EEF4E
:100A400085F00D0E6827000E692366076651D8A44D
:100A50002CEF85F02EEF85F05CEF84F002018651DB
:100A6000871188118911D8B438EF85F03AEF85F0F5
:100A70008CEF87F0FF0E000182151F6E000E8315AC
:100A8000206E000E8415216E000E8515226E1FC08B
:100A900022F0216A206A1F6A20EE82F0000EDE1426
:100AA000236EFF0EDE14246E000EDE14256E000E83
:100AB000DE14266E25C026F024C025F023C024F0C5
:100AC000236A82C027F083C028F084C029F085C043
:100AD0002AF028C027F029C028F02AC029F02A6A65
:100AE000000E27142B6EFF0E28142C6E000E2914F6
:100AF0002D6E000E2A142E6E82C02FF083C030F0AF
:100B000084C031F085C032F0190E8CEF85F0D8909A
:100B10003232313230322F32E82E87EF85F0FF0E3D
:100B20002F14336E000E3014346E000E3114356EF7
:100B3000000E3214366E2B503310376E2C5034109A
:100B4000386E2D503510396E2E5036103A6E2350B7
:100B500037103B6E245038103C6E255039103D6ED6
:100B600026503A103E6E1F503B103F6E20503C10F6
:100B7000406E21503D10416E22503E10426E0201E7
:100B800086513F180DE1875140180AE188514118FC
:100B900007E189514218D8A4D0EF85F0D2EF85F053
:100BA0008CEF87F000016251D8A4D9EF85F0DBEF1C
:100BB00085F0BAEF86F0170E686F050E696F170E95
:100BC000646F050E656F080E676F20EE0CF06451C0
:100BD000D9266551DA2210EE0CF06851E1266951F0
:100BE000E222DE50E65CD8B0F8EF85F0FAEF85F04F
:100BF000FEEF85F064C068F065C069F00D0E6427F3
:100C0000000E652367076751D8A409EF86F00BEF44
:100C100086F0E5EF85F020EE0CF06851D926695199
:100C2000DA22000EDF6E20EE72F068C0E1FF69C0CC
:100C3000E2FF050EDBCFE3FFE806FCE2FF0E7815CE
:100C40001F6E000E7915206E000E7A15216E000EB3
:100C50007B15226E1FC022F0216A206A1F6A20EED7
:100C600078F0000EDE14236EFF0EDE14246E000EEC
:100C7000DE14256E000EDE14266E25C026F024C07C
:100C800025F023C024F0236A78C027F079C028F02B
:100C90007AC029F07BC02AF028C027F029C028F0AC
:100CA0002AC029F02A6A000E27142B6EFF0E281482
:100CB0002C6E000E29142D6E000E2A142E6E78C094
:100CC0002FF079C030F07AC031F07BC032F0190ECD
:100CD0006FEF86F0D8903232313230322F32E82E38
:100CE0006AEF86F0FF0E2F14336E000E3014346E50
:100CF000000E3114356E000E3214366E2B50331048
:100D0000376E2C503410386E2D503510396E2E50F1
:100D100036103A6E235037103B6E245038103C6E1C
:100D2000255039103D6E26503A103E6E1F503B1034
:100D30003F6E20503C10406E21503D10416E2250BD
:100D40003E10426E20EE06F06851D9266951DA2233
:100D50003FC0DEFF40C0DEFF41C0DEFF42C0DEFF1D
:100D600020EE0AF06851D9266951DA226CC0DEFF04
:100D70006DC0DDFF71057011D8A4C1EF86F0C3EF1F
:100D800086F08CEF87F0720E176E000E186E080E4C
:100D90001A6E060E196E43ECA0F00001636F630536
:100DA000D8A4D5EF86F0D7EF86F020EF84F020EEC0
:100DB00072F010EE7CF0050EDBCFE3FFE806FCE2FC
:100DC000720E056E000E066EF00E076E020E086EB5
:100DD000000E0A6E060E096ED0ECBFF078C082F0ED
:100DE00079C083F07AC084F07BC085F0FF0E0201E9
:100DF00086151F6E000E8715206E000E8815216E59
:100E0000000E8915226E1FC022F0216A206A1F6A17
:100E1000000E8615236EFF0E8715246E000E8815B2
:100E2000256E000E8915266E25C026F024C025F0FB
:100E300023C024F0236A86C227F087C228F088C224
:100E400029F089C22AF028C027F029C028F02AC03A
:100E500029F02A6A000E27142B6EFF0E28142C6E20
:100E6000000E29142D6E000E2A142E6E86C22FF04D
:100E700087C230F088C231F089C232F0190E46EFD5
:100E800087F0D8903232313230322F32E82E41EFB3
:100E900087F0FF0E2F14336E000E3014346E000EE8
:100EA0003114356E000E3214366E2B503310376EFF
:100EB0002C503410386E2D503510396E2E5036109F
:100EC0003A6E235037103B6E245038103C6E25503C
:100ED00039103D6E26503A103E6E1F503B100001F7
:100EE000786F20503C10796F21503D107A6F22505E
:100EF0003E107B6F020E716F000E706F6A0E056EF2
:100F0000000E066E000E086E1C0E076EF8ECBFF0A9
:100F1000BCECB7F08CEF87F01200000E0001A76F59
:100F2000B6EF87F0010EAF6F000EAC6F000EB06F22
:100F3000000EB16FD5EF87F0000EAF6F010EAC6FF2
:100F4000010EB06F010EB16FD5EF87F0000EAF6FDD
:100F5000010EB06F010EB16FD5EF87F0000EAF6FCD
:100F6000000EB06F000EB16FD5EF87F00101CA51CE
:100F700000018A6F8B6B8B51000AD8B4C2EF87F0E7
:100F800092EF87F08A51000AD8B492EF87F0010AF5
:100F9000D8B49CEF87F0030AD8B4A6EF87F0010A13
:100FA000D8B4AEEF87F092EF87F0AF51D8A4DBEF63
:100FB00087F0DDEF87F0F5EF87F0AC51D8A4E3EFD1
:100FC00087F0E5EF87F0F5EF87F0B051D8A4EBEFAD
:100FD00087F0EDEF87F0F5EF87F0B151D8B4F3EF7C
:100FE00087F0F5EF87F02CEF8BF025EE97F010EE01
:100FF000B7F02F0EDBCFE3FFE806FCE220C2D7F00C
:1010000021C2D8F022C2D9F023C2DAF089BF12EF90
:1010100088F0895109E1F10E885DD8A012EF88F0BF
:1010200014EF88F012EF8BF044ECC0F0050407E1F8
:10103000020E0618D8A41FEF88F021EF88F05BEFAE
:101040008AF048ECC2F0060AD8A429EF88F02BEF0A
:1010500088F05BEF8AF048ECC2F077ECBEF002015A
:10106000205105180DE1215106180AE122510718F7
:1010700007E123510818D8A440EF88F042EF88F028
:101080005BEF8AF044ECC0F044ECC0F077ECBEF0CB
:1010900077ECBEF005C0B7F006C0B8F007C0B9F0F5
:1010A00008C0BAF00001B7290CE1B8290AE1B92952
:1010B00008E1BA29D8B45FEF88F061EF88F05BEF00
:1010C0008AF0B7050BE17F0EBA19B811B911D8B47F
:1010D0006CEF88F06EEF88F05BEF8AF077ECBEF093
:1010E00005C0A8F006C0A9F007C0AAF008C0ABF080
:1010F0000001A8290CE1A9290AE1AA2908E1AB29E4
:10110000D8B485EF88F087EF88F05BEF8AF0A80508
:101110000BE17F0EAB19A911AA11D8B492EF88F098
:1011200094EF88F05BEF8AF077ECBEF08E0E056EE0
:10113000000E066E000E086E100E076EA8ECBDF0D5
:101140008E0E056E000E066EF00E076E020E086E15
:10115000000E0A6E060E096E55ECB7F0055006102B
:10116000D8B4B5EF88F0B7EF88F0DDEF88F08E0ED9
:10117000056E000E066E0F0E076EFE0E086E000E58
:101180000A6E060E096E55ECB7F005500610D8B47D
:10119000CCEF88F0CEEF88F0DDEF88F08E0E056E94
:1011A000000E066EA8ECBFF005500610D8A4DBEFC9
:1011B00088F0DDEF88F02CEF8BF0000E066E400E0D
:1011C000056E80ECBFF0000E066E800E056E80ECA2
:1011D000BFF077ECBEF0630E05180DE1530E061854
:1011E0000AE1820E071807E1630E0818D8A4FBEF86
:1011F00088F0FDEF88F05BEF8AF00001100E882781
:10120000FF0E89234BEF8AF048ECC2F00001A66F75
:1012100048ECC2F00001B66FB6518A6F8B6B020EBC
:101220008A27000E8B238A51885F8B51895B22EFBE
:101230008AF077ECBEF005C0BBF006C0BCF007C07A
:10124000BDF008C0BEF04BEF8AF077ECBEF005C0F1
:10125000BFF006C0C0F007C0C1F008C0C2F04BEF3D
:101260008AF0000EAD6F5FEF89F077ECBEF005C03D
:101270009EF006C09FF007C0A0F008C0A1F0020ECB
:101280000001AD6146EF89F048EF89F05DEF89F02C
:10129000AD51040D0C0EF326000EF422B70EF3240C
:1012A000D96E000EF420DA6E9EC0DEFF9FC0DEFF16
:1012B000A0C0DEFFA1C0DEFFAD2B040EB65F040EA2
:1012C000B66165EF89F067EF89F035EF89F04BEF94
:1012D0008AF0000EAE6F97EF89F077ECBEF005C094
:1012E000A2F006C0A3F007C0A4F008C0A5F0020E4B
:1012F0000001AE617EEF89F080EF89F095EF89F013
:10130000AE51040D140EF326000EF422B70EF32492
:10131000D96E000EF420DA6EA2C0DEFFA3C0DEFF9D
:10132000A4C0DEFFA5C0DEFFAE2B040EB65F040E28
:10133000B6619DEF89F09FEF89F06DEF89F04BEF7B
:101340008AF0030EB665A7EF89F0A9EF89F04BEF9D
:101350008AF077ECBEF005C0B2F006C0B3F007C06B
:10136000B4F008C0B5F0B2C08AF0B3C08BF0B4C01E
:101370008CF0B5C08DF00001D8908D338C338B3359
:101380008A338AC0DBF08BC0DCF08CC0DDF08DC00E
:10139000DEF0DBC0DFF0DCC0E0F0DDC0E1F0DEC09D
:1013A000E2F0DBC08AF0DCC08BF0DDC08CF0DEC088
:1013B0008DF0D8908D338C338B338A338AC0B2F062
:1013C0008BC0B3F08CC0B4F08DC0B5F0B251DF2744
:1013D000B351E023B451E123B551E223B2C08AF006
:1013E000B3C08BF0B4C08CF0B5C08DF0D8908D3305
:1013F0008C338B338A338A51DF278B51E0238C5116
:10140000E1238D51E223040E0001B65F4BEF8AF019
:1014100077ECBEF005C0E3F006C0E4F007C0E5F0ED
:1014200008C0E6F003EF8AF048ECC2F00001A76FB5
:10143000B6074BEF8AF0B6C005F0066A80ECBFF045
:101440004BEF8AF0A6518A6F8B6B8B51000AD8B490
:101450002CEF8AF01BEF8AF08A51010AD8B419EFF9
:1014600089F0020AD8B425EF89F0050AD8B431EF23
:1014700089F02C0AD8B469EF89F0190AD8B4A1EF21
:1014800089F0060AD8B414EF8AF0030AD8B408EF3A
:101490008AF01BEF8AF0000189BF59EF8AF0895169
:1014A00006E18805D8B057EF8AF059EF8AF004EFCB
:1014B00089F012EF8BF012EF8BF0AF51D8B463EFDD
:1014C0008AF065EF8AF073EF8AF020EEB7F012EE43
:1014D00000F02F0EDBCFE3FFE806FCE258ECC4F08F
:1014E000010E0101CA6F0001AC51D8B47AEF8AF045
:1014F0007CEF8AF02CEF8BF054ECC4F02CEF8BF0E7
:10150000B151D8B486EF8AF088EF8AF02CEF8BF0D7
:10151000DBC024F2DCC025F2DDC026F2DEC027F2FB
:10152000DFC028F2E0C029F2E1C02AF2E2C02BF2CB
:1015300000C286F201C287F202C288F203C289F2B7
:101540000CC28AF20DC28BF20EC28CF20FC28DF267
:1015500010C28EF211C28FF212C290F213C291F237
:1015600008C296F209C297F20AC298F20BC299F227
:101570001CC29AF21DC29BF21EC29CF21FC29DF2B7
:1015800004C292F205C293F206C294F207C295F227
:1015900002011451151116111711D8B4D2EF8AF0A7
:1015A000D4EF8AF0EFEF8AF014C29EF215C29FF2D8
:1015B00016C2A0F217C2A1F2185119111A111B116B
:1015C000D8B4E5EF8AF0E7EF8AF0EFEF8AF018C2BF
:1015D000A2F219C2A3F21AC2A4F21BC2A5F2030E10
:1015E0000101CA6F2CEF8BF0B051D8B4FAEF8AF03A
:1015F000FCEF8AF02CEF8BF0040E0201246F000E3A
:10160000256F000E266F000E276F020E286F000E4A
:10161000296F000E2A6F000E2B6F000E0101CA6F9A
:101620002CEF8BF00001A7518A6F8B6B8B51000A56
:10163000D8B41DEF8BF02CEF8BF08A51020AD8B48E
:101640005DEF8AF0070AD8B480EF8AF0030AD8B4B5
:10165000F4EF8AF02CEF8BF012000B04D8B433EFC8
:101660008BF035EF8BF03EEF8BF00A0E0B18D8A401
:101670003CEF8BF03EEF8BF0D2EF8BF020EE0CF0D6
:101680000950D9260A50DA2210EE02F0DE50E12687
:10169000DD50E222E7500C6E20EE0CF00950D92606
:1016A0000A50DA22DECF0DF0DDCF0EF00DC0D9FFEB
:1016B0000EC0DAFFDECF0FF0DDCF10F00FC0D9FF84
:1016C00010C0DAFF0C50DF1220EE0CF00950D926C2
:1016D0000A50DA2210EE05F0DE50E126DD50E2225B
:1016E000E7500C6E20EE0CF00950D9260A50DA2291
:1016F00010EE03F0DE50E126DD50E222E6CF0DF0E1
:10170000E5CF0EF00DC0D9FF0EC0DAFF0C50DF128E
:1017100020EE0CF00950D9260A50DA2210EE08F01B
:10172000DE50E126DD50E222E7500C6E20EE0CF098
:101730000950D9260A50DA2210EE06F0DE50E126D2
:10174000DD50E222E6CF0DF0E5CF0EF00DC0D9FF5F
:101750000EC0DAFF0C50DF1220EE0CF00950D92633
:101760000A50DA2210EE0BF0DE50E126DD50E222C4
:10177000E7500C6E20EE0CF00950D9260A50DA2200
:1017800010EE09F0DE50E126DD50E222E6CF0DF04A
:10179000E5CF0EF00DC0D9FF0EC0DAFF0C50DF12FE
:1017A000BAEF8DF0030E0B18D8B4D9EF8BF0DBEF46
:1017B0008BF0E4EF8BF00C0E0B18D8A4E2EF8BF05B
:1017C000E4EF8BF07CEF8CF020EE0CF00950D92682
:1017D0000A50DA2210EE02F0DE50E126DD50E2225D
:1017E000E750FF0A0C6E20EE0CF00950D9260A5083
:1017F000DA22DECF0DF0DDCF0EF00DC0D9FF0EC026
:10180000DAFFDECF0FF0DDCF10F00FC0D9FF10C030
:10181000DAFF0C50DF1620EE0CF00950D9260A50E2
:10182000DA2210EE05F0DE50E126DD50E222E7502C
:10183000FF0A0C6E20EE0CF00950D9260A50DA226D
:1018400010EE03F0DE50E126DD50E222E6CF0DF08F
:10185000E5CF0EF00DC0D9FF0EC0DAFF0C50DF1639
:1018600020EE0CF00950D9260A50DA2210EE08F0CA
:10187000DE50E126DD50E222E750FF0A0C6E20EE3A
:101880000CF00950D9260A50DA2210EE06F0DE508C
:10189000E126DD50E222E6CF0DF0E5CF0EF00DC0DF
:1018A000D9FF0EC0DAFF0C50DF1620EE0CF0095005
:1018B000D9260A50DA2210EE0BF0DE50E126DD5078
:1018C000E222E750FF0A0C6E20EE0CF00950D926F8
:1018D0000A50DA2210EE09F0DE50E126DD50E22255
:1018E000E6CF0DF0E5CF0EF00DC0D9FF0EC0DAFF48
:1018F0000C50DF16BAEF8DF0020E0B18D8A483EF50
:101900008CF085EF8CF01BEF8DF020EE0CF0095081
:10191000D9260A50DA2210EE02F0DE50E126DD5020
:10192000E222E750FF0A0C6E20EE0CF00950D92697
:101930000A50DA22DECF0DF0DDCF0EF00DC0D9FF58
:101940000EC0DAFFDECF0FF0DDCF10F00FC0D9FFF1
:1019500010C0DAFF0C50DF1620EE0CF00950D9262B
:101960000A50DA2210EE05F0DE50E126DD50E222C8
:10197000E7500C6E20EE0CF00950D9260A50DA22FE
:1019800010EE03F0DE50E126DD50E222E6CF0DF04E
:10199000E5CF0EF00DC0D9FF0EC0DAFF0C50DF12FC
:1019A00020EE0CF00950D9260A50DA2210EE08F089
:1019B000DE50E126DD50E222E750FF0A0C6E20EEF9
:1019C0000CF00950D9260A50DA2210EE06F0DE504B
:1019D000E126DD50E222E6CF0DF0E5CF0EF00DC09E
:1019E000D9FF0EC0DAFF0C50DF1620EE0CF00950C4
:1019F000D9260A50DA2210EE0BF0DE50E126DD5037
:101A0000E222E7500C6E20EE0CF00950D9260A5065
:101A1000DA2210EE09F0DE50E126DD50E222E6CFB8
:101A20000DF0E5CF0EF00DC0D9FF0EC0DAFF0C505F
:101A3000DF12BAEF8DF00B0E0B18D8A422EF8DF049
:101A400024EF8DF0BAEF8DF020EE0CF00950D9267E
:101A50000A50DA2210EE02F0DE50E126DD50E222DA
:101A6000E7500C6E20EE0CF00950D9260A50DA220D
:101A7000DECF0DF0DDCF0EF00DC0D9FF0EC0DAFFC6
:101A8000DECF0FF0DDCF10F00FC0D9FF10C0DAFFAE
:101A90000C50DF1220EE0CF00950D9260A50DA2241
:101AA00010EE05F0DE50E126DD50E222E750FF0A9D
:101AB0000C6E20EE0CF00950D9260A50DA2210EEF6
:101AC00003F0DE50E126DD50E222E6CF0DF0E5CF57
:101AD0000EF00DC0D9FF0EC0DAFF0C50DF1620EE5D
:101AE0000CF00950D9260A50DA2210EE08F0DE5028
:101AF000E126DD50E222E7500C6E20EE0CF009509A
:101B0000D9260A50DA2210EE06F0DE50E126DD502A
:101B1000E222E6CF0DF0E5CF0EF00DC0D9FF0EC0EA
:101B2000DAFF0C50DF1220EE0CF00950D9260A50D3
:101B3000DA2210EE0BF0DE50E126DD50E222E75013
:101B4000FF0A0C6E20EE0CF00950D9260A50DA225A
:101B500010EE09F0DE50E126DD50E222E6CF0DF076
:101B6000E5CF0EF00DC0D9FF0EC0DAFF0C50DF1626
:101B7000BAEF8DF020EE0EF00950D9260A50DA2285
:101B80000B50DE18D8B4C7EF8DF0C9EF8DF0C6EF5B
:101B90008EF020EE0EF00950D9260A50DA220BC042
:101BA000DFFF20EE0FF00950D9260A50DA220BC0D1
:101BB000DFFF20EE10F00950D9260A50DA2210EE8D
:101BC00002F0DE50E126DD50E222E750FF0A0C6E03
:101BD00020EE10F00950D9260A50DA22DECF0DF09F
:101BE000DDCF0EF00DC0D9FF0EC0DAFFDECF0FF053
:101BF000DDCF10F00FC0D9FF10C0DAFF0C50DF1698
:101C000020EE10F00950D9260A50DA2210EE05F025
:101C1000DE50E126DD50E222E7500C6E20EE10F09F
:101C20000950D9260A50DA2210EE03F0DE50E126E0
:101C3000DD50E222E6CF0DF0E5CF0EF00DC0D9FF6A
:101C40000EC0DAFF0C50DF1220EE10F00950D9263A
:101C50000A50DA2210EE08F0DE50E126DD50E222D2
:101C6000E750FF0A0C6E20EE10F00950D9260A50FA
:101C7000DA2210EE06F0DE50E126DD50E222E6CF59
:101C80000DF0E5CF0EF00DC0D9FF0EC0DAFF0C50FD
:101C9000DF1620EE10F00950D9260A50DA2210EE95
:101CA0000BF0DE50E126DD50E222E7500C6E20EE14
:101CB00010F00950D9260A50DA2210EE09F0DE5051
:101CC000E126DD50E222E6CF0DF0E5CF0EF00DC0AB
:101CD000D9FF0EC0DAFF0C50DF1220EE10F00950D1
:101CE000D9260A50DA2210EE0EF0DE50E126DD5041
:101CF000E222E750FF0A0C6E20EE10F00950D926C0
:101D00000A50DA2210EE0CF0DE50E126DD50E2221D
:101D1000E6CF0DF0E5CF0EF00DC0D9FF0EC0DAFF13
:101D20000C50DF1620EE10F00950D9260A50DA22A6
:101D300010EE11F0DE50E126DD50E222E7500C6E8D
:101D400020EE10F00950D9260A50DA2210EE0FF0DA
:101D5000DE50E126DD50E222E6CF0DF0E5CF0EF0B9
:101D60000DC0D9FF0EC0DAFF0C50DF12D5ECC3F066
:101D700020EE12F00950D9260A50DA2205C0DEFF03
:101D800006C0DEFF07C0DEFF08C0DEFF12003CEF2A
:101D900092F020EE02F01F50D9262050DA2210EEE9
:101DA0000AF0DE50E126DD50E222000EE76E20EE62
:101DB00004F01F50D9262050DA2210EE0AF0DE502F
:101DC000E126DD50E222000EE76E20EE06F01F5005
:101DD000D9262050DA22DECF05F0DDCF06F0010E45
:101DE000076E04ECBDF020EE23F01F50D9262050E2
:101DF000DA22DECF05F0DDCF06F0010E076E04EC2F
:101E0000BDF020EE34F01F50D9262050DA22DECF6C
:101E100005F0DDCF06F0010E076E04ECBDF020EEFC
:101E200045F01F50D9262050DA22DECF05F0DDCF55
:101E300006F0010E076E04ECBDF01FC009F020C0D3
:101E40000AF0030E0B6E2DEC8BF01FC009F020C0C2
:101E50000AF00C0E0B6E2DEC8BF020EE47F01F50AD
:101E6000D9262050DA2210EE0AF0DE50E126DD50AD
:101E7000E222E750D8B43FEF8FF041EF8FF079EFD7
:101E80008FF020EE3BF01F50D9262050DA22010EB1
:101E9000DF6E20EE38F01F50D9262050DA220A0ECD
:101EA000DF6E20EE0AF01F50D9262050DA2210EE05
:101EB0000AF0DE50E126DD50E222E750D8B463EFAD
:101EC0008FF065EF8FF06FEF8FF020EE01F01F5075
:101ED000D9262050DA22080EDF6ED5EF8FF020EEE3
:101EE00001F01F50D9262050DA22060EDF6ED5EF02
:101EF0008FF020EE08F01F50D9262050DA2210EE85
:101F00000AF0DE50E126DD50E222E750D8B48BEF34
:101F10008FF08DEF8FF0C5EF8FF020EE0AF01F509D
:101F2000D9262050DA2210EE0AF0DE50E126DD50EC
:101F3000E222E750D8B49FEF8FF0A1EF8FF0B3EF1C
:101F40008FF020EE38F01F50D9262050DA22090EEB
:101F5000DF6E20EE01F01F50D9262050DA22050E48
:101F6000DF6ED5EF8FF020EE38F01F50D9262050CD
:101F7000DA220B0EDF6E20EE01F01F50D926205022
:101F8000DA22070EDF6ED5EF8FF020EE38F01F500B
:101F9000D9262050DA220D0EDF6E20EE01F01F5000
:101FA000D9262050DA22040EDF6E20EE25F01F50D5
:101FB000D9262050DA2210EE0AF0DE50E126DD505C
:101FC000E222E750D8B4E7EF8FF0E9EF8FF0FBEFB4
:101FD0008FF020EE19F01F50D9262050DA22010E82
:101FE000DF6E20EE16F01F50D9262050DA220C0E9C
:101FF000DF6E03EF90F020EE16F01F50D926205030
:10200000DA220D0EDF6E20EE36F01F50D92620505A
:10201000DA2210EE0AF0DE50E126DD50E222E7502F
:10202000D8B415EF90F017EF90F029EF90F020EE74
:102030002AF01F50D9262050DA22010EDF6E20EE42
:1020400027F01F50D9262050DA220C0EDF6E31EF18
:1020500090F020EE27F01F50D9262050DA220D0EE6
:10206000DF6E1FC0D9FF20C0DAFF010EDF6E55EF13
:1020700092F020EE0AF01F50D9262050DA2210EEFE
:102080000AF0DE50E126DD50E222E750D8A44BEF03
:1020900090F04DEF90F082EF90F020EE16F01F5090
:1020A000D9262050DA220A0EDE18D8B45AEF90F062
:1020B0005CEF90F07AEF90F020EE27F01F50D926D9
:1020C0002050DA220A0EDE18D8B469EF90F06BEFD8
:1020D00090F07AEF90F020EE38F01F50D926205083
:1020E000DA220A0EDE18D8A478EF90F07AEF90F09A
:1020F00082EF90F020EE01F01F50D9262050DA2216
:10210000060EDF6E20EE08F01F50D9262050DA228E
:1021100010EE0AF0DE50E126DD50E222E604D8A4FB
:1021200094EF90F096EF90F0B7EF90F020EE16F06D
:102130001F50D9262050DA220D0EDE18D8A4A3EFA6
:1021400090F0A5EF90F0B7EF90F020EE16F01F5052
:10215000D9262050DA22090EDF6E20EE01F01F5042
:10216000D9262050DA22050EDF6E55EF92F020EED0
:1021700008F01F50D9262050DA2210EE0AF0DE5067
:10218000E126DD50E222E604D8A4C9EF90F0CBEFBF
:1021900090F0ECEF90F020EE27F01F50D926205061
:1021A000DA220D0EDE18D8A4D8EF90F0DAEF90F016
:1021B000ECEF90F020EE27F01F50D9262050DA22C5
:1021C000090EDF6E20EE01F01F50D9262050DA22D2
:1021D000050EDF6E55EF92F020EE08F01F50D92665
:1021E0002050DA2210EE0AF0DE50E126DD50E22225
:1021F000E604D8A4FEEF90F000EF91F032EF92F0F9
:1022000020EE0AF01F50D9262050DA2210EE0AF0F4
:10221000DE50E126DD50E222E750D8A412EF91F023
:1022200014EF91F032EF92F020EE38F01F50D926E3
:102230002050DA220D0EDE18D8A421EF91F023EF02
:1022400091F032EF92F020EE38F01F50D926205056
:10225000DA220B0EDF6E20EE01F01F50D92620503F
:10226000DA22070EDF6E55EF92F020EE01F01F50DC
:10227000D9262050DA22040EDF6E55EF92F01FC0EF
:1022800011F020C012F016EC97F0216E226A21BEE8
:1022900022062250000AD8B454EF91F0FF0AD8B4B5
:1022A0005FEF91F032EF92F02150010AD8B435EF90
:1022B00091F0030AD8B432EF92F032EF92F021504D
:1022C000FF0AD8B432EF92F032EF92F020EE01F034
:1022D0001F50D9262050DA22040EDF6E55EF92F0FF
:1022E0001FC011F020C012F0D7EC9DF0216E226AC1
:1022F00021BE22062250000AD8B485EF91F0FF0AD1
:10230000D8B490EF91F032EF92F02150010AD8B496
:1023100066EF91F0030AD8B432EF92F032EF92F008
:102320002150FF0AD8B432EF92F032EF92F020EE53
:1023300001F01F50D9262050DA22040EDF6E55EF2F
:1023400092F01FC011F020C012F00EEC9FF0216E31
:10235000226A21BE22062250000AD8B4B6EF91F0BC
:10236000FF0AD8B4C1EF91F032EF92F02150010A88
:10237000D8B497EF91F0030AD8B432EF92F032EF6D
:1023800092F02150FF0AD8B432EF92F032EF92F07F
:1023900020EE0AF01F50D9262050DA2210EE0AF063
:1023A000DE50E126DD50E222E750D8B4DAEF91F0BA
:1023B000DCEF91F0DEEF91F055EF92F020EE38F087
:1023C0001F50D9262050DA220A0EDE18D8A4EBEFCF
:1023D00091F0EDEF91F0F7EF91F020EE01F01F504A
:1023E000D9262050DA22060EDF6E55EF92F020EE4D
:1023F00001F01F50D9262050DA22040EDF6E55EF6F
:1024000092F020EE01F01F50D9262050DA22040E5F
:10241000DF6E55EF92F020EE01F01F50D9262050CC
:10242000DA22DF50216E226A2250000AD8B41BEF54
:1024300092F001EF92F02150040AD8B439EF90F0F5
:10244000010AD8B43FEF91F0030AD8B470EF91F0CD
:10245000010AD8B4A1EF91F00F0AD8B4C8EF91F0F7
:1024600001EF92F055EF92F01FC0D9FF20C0DAFFC4
:10247000000EDF6E55EF92F01FC0D9FF20C0DAFFCB
:10248000DF50216E226A2250000AD8B44AEF92F03F
:1024900034EF92F02150000AD8B4C9EF8EF0010A4F
:1024A000D8B40BEF92F034EF92F01200000E01015D
:1024B000496F000E486F4DECC1F001014A6F4AC1EF
:1024C00017F0186A000E1A6E000E196EFCECB9F0C7
:1024D00017C04BF118C04CF101014B514C11D8B44D
:1024E00074EF92F076EF92F078EF92F021EF95F0A2
:1024F000DD0E056E010E066E000E086E140E076EE0
:10250000A8ECBDF00101DD390F0B040AD8B48BEF44
:1025100092F08DEF92F08FEF92F021EF95F0FF0E99
:10252000ED15006F000EEE15016F000EEF15026F36
:10253000000EF015036F00C103F1026B016B006B1D
:1025400021EEEDF0000EDE14046FFF0EDE14056FB9
:10255000000EDE14066F000EDE14076F06C107F1D1
:1025600005C106F104C105F1046BEDC108F1EEC12E
:1025700009F1EFC10AF1F0C10BF109C108F10AC17B
:1025800009F10BC10AF10B6B000E08150C6FFF0E61
:1025900009150D6F000E0A150E6F000E0B150F6F4B
:1025A000EDC110F1EEC111F1EFC112F1F0C113F163
:1025B000190EE0EF92F0D890133312331133103329
:1025C000E82EDBEF92F0FF0E1015146F000E1115C0
:1025D000156F000E1215166F000E1315176F0C51A4
:1025E0001411186F0D511511196F0E5116111A6F24
:1025F0000F5117111B6F045118111C6F0551191140
:102600001D6F06511A111E6F07511B111F6F0051CC
:102610001C11ED6F01511D11EE6F02511E11EF6F74
:1026200003511F11F06FFF0EE915006F000EEA1540
:10263000016F000EEB15026F000EEC15036F00C169
:1026400003F1026B016B006B21EEE9F0000EDE146A
:10265000046FFF0EDE14056F000EDE14066F000E11
:10266000DE14076F06C107F105C106F104C105F1CB
:10267000046BE9C108F1EAC109F1EBC10AF1ECC14F
:102680000BF109C108F10AC109F10BC10AF10B6B89
:10269000000E08150C6FFF0E09150D6F000E0A15C0
:1026A0000E6F000E0B150F6FE9C110F1EAC111F1A9
:1026B000EBC112F1ECC113F1190E64EF93F0D89055
:1026C0001333123311331033E82E5FEF93F0FF0E04
:1026D0001015146F000E1115156F000E1215166FE0
:1026E000000E1315176F0C511411186F0D511511A1
:1026F000196F0E5116111A6F0F5117111B6F0451DC
:1027000018111C6F055119111D6F06511A111E6FFA
:1027100007511B111F6F00511C11E96F01511D1151
:10272000EA6F02511E11EB6F03511F11EC6FE92983
:102730000AE1EA2908E1EB2906E1EC29D8A4A3EF94
:1027400093F0A5EF93F0A7EF93F021EF95F002013E
:1027500086510101ED1915E1020187510101EE19C0
:1027600010E1020188510101EF190BE102018951C9
:102770000101F019D8B4BFEF93F0C1EF93F056EF19
:1027800094F0ED51EE11EF11F011D8B4CAEF93F0BF
:10279000CCEF93F056EF94F0ED290CE1EE290AE12D
:1027A000EF2908E1F029D8B4D8EF93F0DAEF93F0ED
:1027B00056EF94F0FF0E020186110101006FFF0E2B
:1027C000020187110101016FFF0E02018811010151
:1027D000026F000E020189110101036FED51001912
:1027E0000FE1EE5101190CE1EF51021909E1F0512D
:1027F0000319D8B4FEEF93F000EF94F056EF94F085
:10280000FF0E020186110101006FFF0E0201871108
:102810000101016F000E020188110101026F000E1B
:10282000020189110101036FED5100190FE1EE5111
:1028300001190CE1EF51021909E1F0510319D8B463
:1028400024EF94F026EF94F056EF94F0FF0E02017F
:1028500086110101006F020187510101016F020120
:1028600088510101026F020189510101036FED518D
:1028700000190FE1EE5101190CE1EF51021909E1C4
:10288000F0510319D8B447EF94F049EF94F056EFA4
:1028900094F0ED0509E1E00EF019EE11EF11D8A466
:1028A00054EF94F056EF94F021EF95F0DF51016F63
:1028B000006B21EEDFF0DECF02F1DDCF03F103C1CB
:1028C00002F1036BFF0E0217000E031700510211F5
:1028D000DF6F01510311E06FDD510F0B006FD890D6
:1028E0000037D89000354A6FDD510F0B006F050E91
:1028F00000617DEF94F07FEF94F081EF94F021EF91
:1029000095F0DD510F0B006F050E00658AEF94F016
:102910008CEF94F00BEF95F0EC0E4A25056E066AED
:10292000FF0E062280ECBFF00BEF95F0ED51EE119B
:10293000EF11F011D8A49FEF94F0A1EF94F0A3EF62
:1029400094F021EF95F04A51DF5D486FE051D8A037
:10295000E005496F48C117F049C118F0000E1A6E22
:10296000000E196EFCECB9F017C04BF118C04CF119
:1029700001014B514C11D8A4C0EF94F0C2EF94F078
:10298000CBEF94F0DD0E00018E6F010E8F6F91EC96
:10299000B3F021EF95F0200E0001836F010E846FDC
:1029A000750E856FFE0E866F4BC187F04CC188F0A7
:1029B0002EECBFF021EF95F04A51DF5D486FE051FA
:1029C000D8A0E005496F48C105F049C106F08CEC7C
:1029D000B5F005C04BF106C04CF148C117F049C134
:1029E00018F04BC119F04CC11AF0FCECB9F017C04B
:1029F0004BF118C04CF14BC1E7F04CC1E8F0A6EC2C
:102A0000A6F021EF95F0DFC105F0E0C106F080EC03
:102A1000BFF021EF95F00101E651006F016B01510C
:102A2000000AD8B416EF95F003EF95F00051010AB3
:102A3000D8B496EF94F0100AD8B4DCEF94F003EF1A
:102A400095F01200EAEF96F020EE10F00550D9262E
:102A50000650DA2210EE02F0DE50E126DD50E222CE
:102A6000E750076E20EE10F00550D9260650DA2206
:102A7000DECF08F0DDCF09F008C0D9FF09C0DAFFCA
:102A8000DECF0AF0DDCF0BF00AC0D9FF0BC0DAFFB2
:102A90000750DF1220EE10F00550D9260650DA223A
:102AA00010EE05F0DE50E126DD50E222E750FF0A8D
:102AB000076E20EE10F00550D9260650DA2210EEEF
:102AC00003F0DE50E126DD50E222E6CF08F0E5CF4C
:102AD00009F008C0D9FF09C0DAFF0750DF1615EF6B
:102AE00097F020EE10F00550D9260650DA2210EEAD
:102AF00008F0DE50E126DD50E222E750076E20EEBE
:102B000010F00550D9260650DA2210EE06F0DE50FD
:102B1000E126DD50E222E6CF08F0E5CF09F008C05B
:102B2000D9FF09C0DAFF0750DF1220EE10F0055080
:102B3000D9260650DA2210EE0BF0DE50E126DD50E9
:102B4000E222E750FF0A076E20EE10F00550D9266A
:102B50000650DA2210EE09F0DE50E126DD50E222C6
:102B6000E6CF08F0E5CF09F008C0D9FF09C0DAFFC9
:102B70000750DF1615EF97F020EE10F00550D9261C
:102B80000650DA2210EE0EF0DE50E126DD50E22291
:102B9000E750076E20EE10F00550D9260650DA22D5
:102BA00010EE0CF0DE50E126DD50E222E6CF08F018
:102BB000E5CF09F008C0D9FF09C0DAFF0750DF12DE
:102BC00020EE10F00550D9260650DA2210EE11F052
:102BD000DE50E126DD50E222E750FF0A076E20EECC
:102BE00010F00550D9260650DA2210EE0FF0DE5014
:102BF000E126DD50E222E6CF08F0E5CF09F008C07B
:102C0000D9FF09C0DAFF0750DF1615EF97F020EE65
:102C100010F00550D9260650DA2210EE02F0DE50F0
:102C2000E126DD50E222E750076E20EE10F005505D
:102C3000D9260650DA22DECF08F0DDCF09F008C031
:102C4000D9FF09C0DAFFDECF0AF0DDCF0BF00AC0F2
:102C5000D9FF0BC0DAFF0750DF1220EE10F005504D
:102C6000D9260650DA2210EE05F0DE50E126DD50BE
:102C7000E222E750FF0A076E20EE10F00550D92639
:102C80000650DA2210EE03F0DE50E126DD50E2229B
:102C9000E6CF08F0E5CF09F008C0D9FF09C0DAFF98
:102CA0000750DF1615EF97F020EE10F00550D926EB
:102CB0000650DA2210EE08F0DE50E126DD50E22266
:102CC000E750076E20EE10F00550D9260650DA22A4
:102CD00010EE06F0DE50E126DD50E222E6CF08F0ED
:102CE000E5CF09F008C0D9FF09C0DAFF0750DF12AD
:102CF00020EE10F00550D9260650DA2210EE0BF027
:102D0000DE50E126DD50E222E750FF0A076E20EE9A
:102D100010F00550D9260650DA2210EE09F0DE50E8
:102D2000E126DD50E222E6CF08F0E5CF09F008C049
:102D3000D9FF09C0DAFF0750DF1615EF97F020EE34
:102D400010F00550D9260650DA2210EE0EF0DE50B3
:102D5000E126DD50E222E750076E20EE10F005502C
:102D6000D9260650DA2210EE0CF0DE50E126DD50B6
:102D7000E222E6CF08F0E5CF09F008C0D9FF09C08C
:102D8000DAFF0750DF1220EE10F00550D92606506A
:102D9000DA2210EE11F0DE50E126DD50E222E7509B
:102DA000FF0A076E20EE10F00550D9260650DA22F1
:102DB00010EE0FF0DE50E126DD50E222E6CF08F003
:102DC000E5CF09F008C0D9FF09C0DAFF0750DF16C8
:102DD00015EF97F020EE0FF00550D9260650DA22B5
:102DE000DF50076E086A0850000AD8B4FAEF96F070
:102DF00015EF97F00750010AD8B424EF95F0030AB5
:102E0000D8B471EF95F0010AD8B4BCEF95F0090A77
:102E1000D8B407EF96F0010AD8B454EF96F0070A39
:102E2000D8B49FEF96F015EF97F0120020EE16F051
:102E30001150D9261250DA22090EDE18D8A423EF39
:102E400097F025EF97F02DEF97F0160E1124596E9D
:102E5000000E12205A6E6EEF98F020EE27F01150FF
:102E6000D9261250DA22090EDE18D8A43AEF97F0CC
:102E70003CEF97F044EF97F0270E1124596E000EA7
:102E800012205A6E6EEF98F020EE38F01150D926CD
:102E90001250DA22090EDE18D8A451EF97F053EF42
:102EA00097F05BEF97F0380E1124596E000E122048
:102EB0005A6E6EEF98F0020E92EF98F011C009F082
:102EC00012C00AF020EE04F05950D9265A50DA22E6
:102ED000DF500B6E2DEC8BF0D5ECC3F020EE05F03F
:102EE0005950D9265A50DA2205C0DEFF06C0DEFF4F
:102EF00007C0DEFF08C0DEFF20EE09F05950D926DA
:102F00005A50DA22F40EDE6E010EDE6E000EDE6E18
:102F1000000EDD6E20EE02F05950D9265A50DA220A
:102F2000100EDF6E20EE01F05950D9265A50DA22E9
:102F30000F0EDF6E91EF98F020EE0DF05950D9266C
:102F40005A50DA22DECF05F0DDCF06F0000E076E14
:102F500004ECBDF020EE06F01150D9261250DA2212
:102F6000DECF05F0DDCF06F0000E076E04ECBDF0FD
:102F700020EE01F05950D9265A50DA22110EDF6E98
:102F800091EF98F020EE0FF05950D9265A50DA22DE
:102F900010EE0AF0DE50E126DD50E222E750D8B410
:102FA000D4EF97F0D6EF97F091EF98F020EE0DF078
:102FB0005950D9265A50DA22DECF05F0DDCF06F07F
:102FC000010E076E04ECBDF020EE06F01150D9267C
:102FD0001250DA22DECF05F0DDCF06F0010E076ECB
:102FE00004ECBDF020EE03F05950D9265A50DA22F5
:102FF000010EDF6E20EE01F05950D9265A50DA2228
:103000000E0EDF6E59C0D9FF5AC0DAFF0C0EDF6E0C
:10301000D5ECC3F020EE05F05950D9265A50DA22EB
:1030200005C0DEFF06C0DEFF07C0DEFF08C0DEFF12
:1030300020EE09F05950D9265A50DA22B80EDE6E29
:103040000B0EDE6E000EDE6E000EDD6E000E596E93
:10305000000E5A6E010E92EF98F020EE05F05950D6
:10306000D9265A50DA22DECF13F0DECF14F0DECFAD
:1030700015F0DECF16F0D5ECC3F01350055C176EDB
:1030800014500658186E15500758196E16500858E7
:103090001A6E20EE09F05950D9265A50DA221750EC
:1030A000DE5C1850DE581950DE581A50DE58D8B081
:1030B0005CEF98F05EEF98F091EF98F020EE02F060
:1030C0005950D9265A50DA2210EE01F05950E12613
:1030D0005A50E222DFCFE7FF91EF98F020EE01F0A7
:1030E0005950D9265A50DA22DF50136E146A145000
:1030F000000AD8B47EEF98F091EF98F013500E0AC2
:10310000D8B45EEF97F0010AD8B42DEF98F01F0AFB
:10311000D8B49CEF97F0010AD8B4C2EF97F091EFC2
:1031200098F0FF0E1200010E0001626F000E616F39
:10313000000E646F080E636F060E656F040E666FF7
:10314000010E686F000E676F690E056E000E066E49
:10315000F00E076E020E086E000E0A6E060E096E65
:10316000D0ECBFF0FF0E02018615236E000E87150E
:10317000246E000E8815256E000E8915266E23C05C
:1031800026F0256A246A236A000E8615276EFF0E34
:103190008715286E000E8815296E000E89152A6E77
:1031A00029C02AF028C029F027C028F0276A86C243
:1031B0002BF087C22CF088C22DF089C22EF02CC0D3
:1031C0002BF02DC02CF02EC02DF02E6A000E2B14EB
:1031D0002F6EFF0E2C14306E000E2D14316E000E6B
:1031E0002E14326E86C233F087C234F088C235F0B6
:1031F00089C236F0190E02EF99F0D8903632353286
:1032000034323332E82EFDEF98F0FF0E3314376E70
:10321000000E3414386E000E3514396E000E36145C
:103220003A6E2F5037103B6E305038103C6E315094
:1032300039103D6E32503A103E6E27503B103F6EB3
:1032400028503C10406E29503D10416E2A503E10CF
:10325000426E23503F1000016F6F24504010706F7A
:1032600025504110716F26504210726FFF0E1F14CF
:10327000236E000E2014246E000E2114256E000E05
:103280002214266E23C026F0256A246A236A000EC3
:103290001F14276EFF0E2014286E000E2114296EB5
:1032A000000E22142A6E29C02AF028C029F027C057
:1032B00028F0276A1FC02BF020C02CF021C02DF071
:1032C00022C02EF02CC02BF02DC02CF02EC02DF0E3
:1032D0002E6A000E2B142F6EFF0E2C14306E000E73
:1032E0002D14316E000E2E14326E1FC033F020C02C
:1032F00034F021C035F022C036F0190E85EF99F078
:10330000D8903632353234323332E82E80EF99F0AD
:10331000FF0E3314376E000E3414386E000E351461
:10332000396E000E36143A6E2F5037103B6E305007
:1033300038103C6E315039103D6E32503A103E6EAE
:1033400027503B103F6E28503C10406E29503D10D6
:10335000416E2A503E10426E23503F10796F245028
:1033600040107A6F255041107B6F265042107C6FC1
:10337000000E736F000E746F000E756F000E766F87
:10338000000E776F000E786F0F0E176EFE0E186E20
:10339000080E1A6E060E196E43ECA0F00001606F65
:1033A0006005D8A4D6EF99F0D8EF99F0F1EF99F035
:1033B000610E056E000E066E000E086E1C0E076E86
:1033C000F8ECBFF0BCECB7F00001606F6005D8A46A
:1033D000ECEF99F0EEEF99F0F1EF99F0050EF2EFC6
:1033E00099F06051120022C038F023C039F024C097
:1033F0003AF025C03BF026C03CF027C03DF028C085
:103400003EF029C03FF03FBE08EF9AF00BEF9AF074
:10341000010E0CEF9AF0000E406E4050D8B413EF3E
:103420009AF015EF9AF025EF9AF03F1E3E1E3D1ED2
:103430003C1E3B1E3A1E391E386C000E39223A22C1
:103440003B223C223D223E223F220001F7BF2BEFD0
:103450009AF02DEF9AF02EEF9AF0FA93F7BF3BEF28
:103460009AF0F75106E1F605D8B039EF9AF03BEF44
:103470009AF041EF9AF0000E356E010E346E45EF72
:103480009AF0F6C034F0F7C035F0C4C136F0C5C1CB
:1034900037F04050D8B44FEF9AF051EF9AF068EF00
:1034A0009AF03606D8A037064050D8A45AEF9AF0C2
:1034B0005CEF9AF062EF9AF0000E336E2B0E326ED4
:1034C00066EF9AF0000E336E2D0E326E32C040F071
:1034D000000E426E1F0E416E000E0401E76FEDEF0D
:1034E0009AF04106D8A04206C80E4124D96E040EB7
:1034F0004220DA6E38C005F039C006F03AC007F055
:103500003BC008F03CC009F03DC00AF03EC00BF0E3
:103510003FC00CF00A0E0D6E000E0E6E000E0F6E08
:10352000000E106E000E116E000E126E000E136E65
:10353000000E146E0EECAEF005C02AF006C02BF0A3
:1035400007C02CF008C02DF009C02EF00AC02FF0E3
:103550000BC030F00CC031F02AC017F02BC018F0AF
:10356000F0ECC0F01750300FDF6E3406D8A03506EF
:103570003606D8A0370638C005F039C006F03AC084
:1035800007F03BC008F03CC009F03DC00AF03EC067
:103590000BF03FC00CF00A0E0D6E000E0E6E000E0A
:1035A0000F6E000E106E000E116E000E126E000EE9
:1035B000136E000E146E17ECABF005C038F006C0A9
:1035C00039F007C03AF008C03BF009C03CF00AC02F
:1035D0003DF00BC03EF00CC03FF042BEF8EF9AF059
:1035E000425008E14104D8A0F8EF9AF0FAEF9AF0BF
:1035F0002BEF9BF0385039103A103B103C103D1027
:103600003E103F10D8A407EF9BF009EF9BF071EF3D
:103610009AF035BE16EF9BF0355006E13404D8B071
:1036200014EF9BF016EF9BF071EF9AF037BE21EF8D
:103630009BF0375008E13604D8A021EF9BF023EF30
:103640009BF02BEF9BF00001FAB329EF9BF02BEFDF
:103650009BF071EF9AF04050D8B431EF9BF033EF0C
:103660009BF03EEF9BF04106D8A04206C80E4124D5
:10367000D96E040E4220DA6E40C0DFFF20C015F084
:1036800021C016F0C80E4124176E040E4220186E99
:1036900036C019F037C01AF0A5ECB9F01200000ED0
:1036A000056E000E066EF1ECBAF005C08BF006C098
:1036B0008CF007C08DF008C08EF009C08FF00AC0F2
:1036C00090F00BC091F00CC092F00201BA510001D1
:1036D0008B5D0201BB5100018C590201BC510001FC
:1036E0008D590201BD5100018E590201BE510001E8
:1036F0008F590201BF51000190590201C0510001D0
:1037000091599251800A896F0201C151800A0001CA
:103710008959D8A08EEF9BF090EF9BF072EF9CF050
:1037200053EF9CF0040E0201246F000E256F000E73
:10373000266F000E276F020E286F000E296F000EF5
:103740002A6F000E2B6F010E0101CB6F72EF9CF000
:10375000DEECC1F00009D8A4B0EF9BF0B2EF9BF013
:10376000C3EF9BF0020E0201246F000E256F000EC6
:10377000266F000E276F040E286F000E296F000EB3
:103780002A6F000E2B6F020E02012419251126113B
:103790002711D8A4CEEF9BF0D0EF9BF0DDEF9BF08C
:1037A000000E866F000E876F000E886F000E896F07
:1037B000030E0101CB6FE2EF9BF02407000E255BA7
:1037C000265B275B020E0201281929112A112B11F1
:1037D000D8A4EDEF9BF0EFEF9BF0F4EF9BF0020E1F
:1037E0000101CB6F72EF9CF02807000E295B2A5B6A
:1037F0002B5B72EF9CF039ECBBF00009D8B403EFFF
:103800009CF005EF9CF072EF9CF00A0E0201286F0D
:10381000000E296F000E2A6F000E2B6FFF0E246F13
:10382000FF0E256FFF0E266F7F0E276F000E010122
:10383000CA6F010ECB6F72EF9CF0DEECC1F0000995
:10384000D8B425EF9CF027EF9CF072EF9CF058EC79
:10385000C4F00009D8B42FEF9CF031EF9CF072EF68
:103860009CF00F0E0201246F000E256F000E266FD4
:10387000000E276F030E0101CA19D8A442EF9CF075
:1038800044EF9CF048EF9CF0020ECA6F4AEF9CF0A8
:10389000010ECA6F010ECB6F72EF9CF0000E01019A
:1038A000CB6F72EF9CF00101CB510001896F8A6BE5
:1038B0008A51000AD8B45FEF9CF04EEF9CF089511A
:1038C000000AD8B492EF9BF0010AD8B4A8EF9BF09D
:1038D000030AD8B4FBEF9BF0010AD8B41DEF9CF0AB
:1038E0004EEF9CF0010E00018B250201BA6F000E15
:1038F00000018C210201BB6F000E00018D2102012D
:10390000BC6F000E00018E210201BD6F000E000190
:103910008F210201BE6F000E000190210201BF6FD6
:10392000000E000191210201C06F000E00019221E2
:103930000201C16F1200000E566E020186518711FE
:1039400088118911D8A4A7EF9CF0A9EF9CF0B2EFE1
:103950009CF0110E4718D8A4B0EF9CF0B2EF9CF089
:1039600072EF9DF086050BE17F0E89198711881192
:10397000D8B4BDEF9CF0BFEF9CF072EF9DF04328F0
:103980000CE144280AE1452808E14628D8B4CBEFE9
:103990009CF0CDEF9CF075EF9DF0000E4310486E4B
:1039A000000E4410496E000E45104A6EFF0E461080
:1039B0004B6E48280CE149280AE14A2808E14B28C7
:1039C000D8B4E5EF9CF0E7EF9CF075EF9DF0000EAA
:1039D0004310486E000E4410496EFF0E45104A6EAB
:1039E000FF0E46104B6E48280CE149280AE14A2890
:1039F00008E14B28D8B4FFEF9CF001EF9DF075EF84
:103A00009DF0000E4310486EFF0E4410496EFF0EED
:103A100045104A6EFF0E46104B6E48280CE14928AF
:103A20000AE14A2808E14B28D8B419EF9DF01BEFB2
:103A30009DF075EF9DF043508619486E44508719EC
:103A4000496E455088194A6E465089194B6E9251FD
:103A500048144C6E935149144D6E94514A144E6E55
:103A600095514B144F6E4C504D104E104F10D8A422
:103A70003CEF9DF03EEF9DF048EF9DF043C050F0CD
:103A800044C051F045C052F046C053F050EF9DF095
:103A900096C250F097C251F098C252F099C253F0BA
:103AA00050C005F051C006F052C007F053C008F0F6
:103AB0003CECBDF005C054F006C055F05450551014
:103AC000D8A465EF9DF067EF9DF079EF9DF050C0B1
:103AD0001FF051C020F052C021F053C022F093ECEF
:103AE00098F0566E5650D6EF9DF00F0E546EFE0EA7
:103AF000556E54C017F055C018F0080E1A6E000E1F
:103B0000196E43ECA0F0566E5604D8A48AEF9DF0CF
:103B10008CEF9DF072EF9DF0450E066E000E056E67
:103B200002ECC4F0000E066E000E056E02ECC4F04E
:103B3000000E056E400E066E550E076EAA0E086E3C
:103B4000A8ECC3F0400E4FECC4F047504FECC4F06B
:103B5000000E066E000E056E02ECC4F086C205F083
:103B600087C206F088C207F089C208F0A8ECC3F04B
:103B700043C005F044C006F045C007F046C008F059
:103B8000A8ECC3F086C2E9F187C2EAF188C2EBF182
:103B900089C2ECF143C0EDF144C0EEF145C0EFF154
:103BA00046C0F0F147C0E6F172EF9DF0120020EE42
:103BB00038F01150D9261250DA220A0EDE18D8A495
:103BC000E4EF9DF0E6EF9DF0EEEF9DF0380E11244E
:103BD000596E000E12205A6EE9EF9EF020EE16F09C
:103BE0001150D9261250DA220A0EDE18D8A4FBEFA3
:103BF0009DF0FDEF9DF005EF9EF0160E1124596E1D
:103C0000000E12205A6EE9EF9EF020EE27F01150C0
:103C1000D9261250DA220A0EDE18D8A412EF9EF02E
:103C200014EF9EF01CEF9EF0270E1124596E000E2B
:103C300012205A6EE9EF9EF0020E0DEF9FF011C0B8
:103C400009F012C00AF020EE04F05950D9265A505B
:103C5000DA22DF500B6E2DEC8BF0D5ECC3F020EEAA
:103C600005F05950D9265A50DA2205C0DEFF06C0A9
:103C7000DEFF07C0DEFF08C0DEFF20EE09F059506E
:103C8000D9265A50DA22F40EDE6E010EDE6E000ED8
:103C9000DE6E000EDD6E20EE02F05950D9265A502D
:103CA000DA22100EDF6E20EE01F05950D9265A505C
:103CB000DA220F0EDF6E0CEF9FF020EE0DF0595060
:103CC000D9265A50DA22DECF05F0DDCF06F0000EFD
:103CD000076E04ECBDF020EE01F05950D9265A5081
:103CE000DA22110EDF6E0CEF9FF020EE0FF059502C
:103CF000D9265A50DA2210EE0AF0DE50E126DD50C5
:103D0000E222E750D8B487EF9EF089EF9EF08BEF68
:103D10009EF00CEF9FF020EE03F05950D9265A5038
:103D2000DA22000EDF6E59C0D9FF5AC0DAFF0D0E3D
:103D3000DF6E20EE01F05950D9265A50DA220E0ECD
:103D4000DF6E000E596E000E5A6E010E0DEF9FF0E1
:103D500020EE05F05950D9265A50DA22DECF13F062
:103D6000DECF14F0DECF15F0DECF16F0D5ECC3F0C9
:103D70001350055C176E14500658186E15500758EE
:103D8000196E165008581A6E20EE09F05950D926AF
:103D90005A50DA221750DE5C1850DE581950DE589F
:103DA0001A50DE58D8B0D7EF9EF0D9EF9EF00CEF46
:103DB0009FF020EE02F05950D9265A50DA2210EE28
:103DC00001F05950E1265A50E222DFCFE7FF0CEF15
:103DD0009FF020EE01F05950D9265A50DA22DF50D8
:103DE000136E146A1450000AD8B4F9EF9EF00CEF69
:103DF0009FF013500E0AD8B41FEF9EF0010AD8B4FA
:103E0000A8EF9EF01F0AD8B45DEF9EF0010AD8B467
:103E100075EF9EF00CEF9FF0FF0E1200380E11248C
:103E2000596E000E12205A6E1AEFA0F011C009F060
:103E300012C00AF020EE04F05950D9265A50DA2266
:103E4000DF500B6E2DEC8BF0D5ECC3F020EE05F0BF
:103E50005950D9265A50DA2205C0DEFF06C0DEFFCF
:103E600007C0DEFF08C0DEFF20EE09F05950D9265A
:103E70005A50DA22F40EDE6E010EDE6E000EDE6E99
:103E8000000EDD6E20EE02F05950D9265A50DA228B
:103E9000100EDF6E20EE01F05950D9265A50DA226A
:103EA0000F0EDF6E41EFA0F020EE0DF05950D92635
:103EB0005A50DA22DECF05F0DDCF06F0000E076E95
:103EC00004ECBDF020EE06F01150D9261250DA2293
:103ED000DECF05F0DDCF06F0000E076E04ECBDF07E
:103EE00020EE01F05950D9265A50DA22110EDF6E19
:103EF00041EFA0F020EE0FF05950D9265A50DA22A7
:103F000010EE0AF0DE50E126DD50E222E750D8B490
:103F10008CEF9FF08EEF9FF041EFA0F020EE06F0C7
:103F20001150D9261250DA22DECF05F0DDCF06F08F
:103F3000010E076E04ECBDF020EE01F05950D926B9
:103F40005A50DA22120EDF6E41EFA0F020EE0FF091
:103F50005950D9265A50DA2210EE0AF0DE50E126E6
:103F6000DD50E222E750D8B4B8EF9FF0BAEF9FF0EF
:103F7000BCEF9FF041EFA0F020EE03F05950D9269E
:103F80005A50DA22000EDF6E59C0D9FF5AC0DAFF4C
:103F90000D0EDF6E20EE01F05950D9265A50DA226C
:103FA0000E0EDF6E000E596E000E5A6E010E42EFBD
:103FB000A0F020EE05F05950D9265A50DA22DECF73
:103FC00013F0DECF14F0DECF15F0DECF16F0D5EC17
:103FD000C3F01350055C176E14500658186E155038
:103FE0000758196E165008581A6E20EE09F05950ED
:103FF000D9265A50DA221750DE5C1850DE58195074
:10400000DE581A50DE58D8B008EFA0F00AEFA0F042
:1040100041EFA0F020EE02F05950D9265A50DA2292
:1040200010EE01F05950E1265A50E222DFCFE7FFAF
:1040300041EFA0F020EE01F05950D9265A50DA2273
:10404000DF50136E146A1450000AD8B42AEFA0F09F
:1040500041EFA0F013500E0AD8B416EF9FF0010AFA
:10406000D8B4D9EF9FF01F0AD8B454EF9FF0010ADB
:10407000D8B47AEF9FF0030AD8B4A6EF9FF041EFCF
:10408000A0F0FF0E12000101B7B549EFA0F04BEF11
:10409000A0F04EEFA0F0020E72EFA1F057505810B2
:1040A000D8B455EFA0F057EFA0F069EFA0F057C0DB
:1040B000D9FF58C0DAFFDECF1BF0DDCF1CF01BA00C
:1040C00064EFA0F066EFA0F069EFA0F0030E72EFCE
:1040D000A1F00C0E0E01E25D1A0EE359D8A073EFA9
:1040E000A0F075EFA0F08FEFA0F0D2A67AEFA0F0CD
:1040F0007CEFA0F07FEFA0F0040E72EFA1F090EC47
:10410000A8F00C0E0E01E25D1A0EE359D8A08BEF59
:10411000A0F08DEFA0F08FEFA0F066EFA0F0ABEC79
:10412000A5F005C01DF006C01EF01D501E10D8A43D
:104130009CEFA0F09EEFA0F0A0EFA0F066EFA0F043
:104140001DC0D9FF1EC0DAFFDECF1BF0DDCF1CF093
:10415000010E1B12000E1C121DC0D9FF1EC0DAFF7B
:104160001BC0DEFF1CC0DDFF20EE02F01D50D92673
:104170001E50DA22DECFE2FEDDCFE3FE45ECC4F0D6
:10418000060E63ECC4F017C0F6FF18C0F7FF000E70
:10419000F86E0F0EF76403D00800F55005D0F6CF87
:1041A000E9FFF7CFEAFFEF5063ECC4F0010E1724EC
:1041B0001B6E000E18201C6E1BC0F6FF1CC0F7FF04
:1041C000000EF86E0F0EF76403D00800F55005D00E
:1041D000F6CFE9FFF7CFEAFFEF5063ECC4F0020E31
:1041E00017241B6E000E18201C6E1BC0F6FF1CC08F
:1041F000F7FF000EF86E0F0EF76403D00800F550BD
:1042000005D0F6CFE9FFF7CFEAFFEF5063ECC4F03B
:10421000030E17241B6E000E18201C6E1BC0F6FF29
:104220001CC0F7FF000EF86E0F0EF76403D00800F5
:10423000F55005D0F6CFE9FFF7CFEAFFEF5063EC7A
:10424000C4F0040E17241B6E000E18201C6E1BC039
:10425000F6FF1CC0F7FF000EF86E0F0EF76403D0D8
:104260000800F55005D0F6CFE9FFF7CFEAFFEF5091
:1042700063ECC4F0050E17241B6E000E18201C6E94
:104280001BC0F6FF1CC0F7FF000EF86E0F0EF764A0
:1042900003D00800F55005D0F6CFE9FFF7CFEAFFCD
:1042A000EF5063ECC4F00E01845163ECC4F00E01D6
:1042B000855163ECC4F00E01825163ECC4F00E0131
:1042C000835163ECC4F00E01805163ECC4F00E0125
:1042D000815163ECC4F01A5063ECC4F0195063ECE4
:1042E000C4F0010E12000001876FFF0E00017D6F08
:1042F000FF0E7E6FFF0E7F6FFF0E806F000E826FCE
:10430000440E816F000E846F430E836F44ECBEF049
:104310000001866F8605D8A490EFA1F092EFA1F07E
:1043200097EFA2F0000E056E060E066E010E076EE8
:10433000010E086EA8ECC3F020C205F021C206F001
:1043400022C207F023C208F0A8ECC3F0000E056EED
:10435000800E066E000E076E000E086EA8ECC3F00D
:10436000030E00018719D8A4B8EFA1F0BAEFA1F0AD
:10437000C6EFA1F0000E056E000E066E000E076E71
:10438000000E086EA8ECC3F0D0EFA1F000C205F05B
:1043900001C206F002C207F003C208F0A8ECC3F0A5
:1043A000000E056E000E066E000E076E000E086E03
:1043B000A8ECC3F0000E056E000E066E000E076E30
:1043C000000E086EA8ECC3F0000E056E000E066E1F
:1043D000000E076E000E086EA8ECC3F0F00E056E1E
:1043E000020E066E000E086E060E076EF8ECBFF0A9
:1043F000000E076ECA0E066E36ECC3F0630E056E35
:10440000530E066E820E076E630E086EA8ECC3F0A4
:104410000C0E4FECC4F0F50E056EFD0E066EA8EC0A
:10442000BFF005504FECC4F0F50E056EFD0E066EA4
:1044300046ECBCF02A0E4FECC4F0040E4FECC4F076
:10444000000E056E000E066E000E076E000E086E62
:10445000A8ECC3F0350E4FECC4F0010E4FECC4F0E5
:10446000000187514FECC4F0030E00018719D8A456
:104470003CEFA2F03EEFA2F05EEFA2F0320E4FEC66
:10448000C4F0040E4FECC4F000C205F001C206F007
:1044900002C207F003C208F0A8ECC3F0360E4FECDE
:1044A000C4F0040E4FECC4F02CC205F02DC206F08F
:1044B0002EC207F02FC208F0A8ECC3F0370E4FEC65
:1044C000C4F0040E4FECC4F0010E4FECC4F0030E28
:1044D0004FECC4F0060E4FECC4F00F0E4FECC4F0DE
:1044E000390E4FECC4F0020E4FECC4F0020E066E13
:1044F000000E056E02ECC4F03D0E4FECC4F0070E4A
:104500004FECC4F0010E4FECC4F0F00E056E020E3D
:10451000066E000E086E060E076EF8ECBFF0FF0E7A
:104520004FECC4F004ECB6F0010E98EFA2F0000ED0
:1045300012000001F7BF9FEFA2F0A1EFA2F0A2EFDF
:10454000A2F0FA93F7BFAFEFA2F0F75106E1F6053C
:10455000D8B0ADEFA2F0AFEFA2F0B5EFA2F0000E31
:10456000366E010E356EB9EFA2F0F6C035F0F7C029
:1045700036F0C4C137F0C5C138F022C039F023C0CD
:104580003AF024C03BF025C03CF026C03DF027C0E7
:104590003EF028C03FF029C040F0000E426E1F0ED2
:1045A000416E000E0401E76F61EFA3F04106D8A051
:1045B000420639500F0B436E090E4364E2EFA2F03E
:1045C000E4EFA2F0ECEFA2F0570E4324336E346A0E
:1045D000000E3422F2EFA2F0300E4324336E346A20
:1045E000000E342233C043F0BF0E2A242B6E2C6AF7
:1045F000FF0E2C222C5007E11A0E2B5CD8B003EFD3
:10460000A3F005EFA3F024EFA3F043502B6E2C6A28
:10461000200E2B12000E2C129F0E2B242D6EFF0E3F
:104620002C202E6E2E5007E11A0E2D5CD8B01BEFF9
:10463000A3F01DEFA3F024EFA3F043C009F00A6A32
:10464000A6ECC1F00950436EC80E4124D96E040E89
:104650004220DA6E43C0DFFF3506D8A036063706A3
:10466000D8A0380639C02BF03AC02CF03BC02DF052
:104670003CC02EF03DC02FF03EC030F03FC031F0C6
:1046800040C032F0050E4EEFA3F0D89032323132F6
:1046900030322F322E322D322C322B32E82E45EF93
:1046A000A3F02BC039F02CC03AF02DC03BF02EC047
:1046B0003CF02FC03DF030C03EF031C03FF032C082
:1046C00040F042BE6DEFA3F0425009E1020E415CA2
:1046D000D8A06DEFA3F06FEFA3F0A0EFA3F03950D7
:1046E0003A103B103C103D103E103F104010D8A433
:1046F0007CEFA3F07EEFA3F0D6EFA2F036BE8BEFF7
:10470000A3F0365006E13504D8B089EFA3F08BEF63
:10471000A3F0D6EFA2F038BE96EFA3F0385008E130
:104720003704D8A096EFA3F098EFA3F0A0EFA3F082
:104730000001FAB39EEFA3F0A0EFA3F0D6EFA2F032
:1047400020C015F021C016F0C80E4124176E040ECB
:104750004220186E37C019F038C01AF0A5ECB9F035
:1047600012000001F7BFB7EFA3F0B9EFA3F0BAEF63
:10477000A3F0FA93F7BFC7EFA3F0F75106E1F605F0
:10478000D8B0C5EFA3F0C7EFA3F0CDEFA3F0000EB4
:10479000336E010E326ED1EFA3F0F6C032F0F7C0E7
:1047A00033F0C4C134F0C5C135F022C036F023C0A7
:1047B00037F024C038F025C039F026C03AF027C0C1
:1047C0003BF028C03CF029C03DF0000E3F6E1F0EAC
:1047D0003E6E000E0401E76F64EFA4F03E06D8A021
:1047E0003F06C80E3E24D96E040E3F20DA6E36C056
:1047F00005F037C006F038C007F039C008F03AC0FD
:1048000009F03BC00AF03CC00BF03DC00CF00A0EB2
:104810000D6E000E0E6E000E0F6E000E106E000E6E
:10482000116E000E126E000E136E000E146EEDEC83
:10483000B6F005C02AF006C02BF007C02CF008C067
:104840002DF009C02EF00AC02FF00BC030F00CC0C4
:1048500031F02A50300FDF6E3206D8A0330634060E
:10486000D8A0350636C005F037C006F038C007F0CE
:1048700039C008F03AC009F03BC00AF03CC00BF068
:104880003DC00CF00A0E0D6E000E0E6E000E0F6E87
:10489000000E106E000E116E000E126E000E136EE2
:1048A000000E146E14ECB5F005C036F006C037F0FB
:1048B00007C038F008C039F009C03AF00AC03BF030
:1048C0000BC03CF00CC03DF03E503F10D8B46BEF35
:1048D000A4F06DEFA4F09EEFA4F03650371038101E
:1048E00039103A103B103C103D10D8A47AEFA4F0D8
:1048F0007CEFA4F0EEEFA3F033BE89EFA4F03350C9
:1049000006E13204D8B087EFA4F089EFA4F0EEEF0F
:10491000A3F035BE94EFA4F0355008E13404D8A0DC
:1049200094EFA4F096EFA4F09EEFA4F00001FAB388
:104930009CEFA4F09EEFA4F0EEEFA3F020C015F0E2
:1049400021C016F0C80E3E24176E040E3F20186ECC
:1049500034C019F035C01AF0A5ECB9F01200D5EC4E
:10496000C3F005C018F006C019F007C01AF008C05F
:104970001BF020EE06F00950D9260A50DA2210EE7C
:1049800009F00950E1260A50E222E7500B6E10EEC2
:1049900007F00950E1260A50E222E6CF0CF0E5CFFD
:1049A0000DF00CC0E1FF0DC0E2FFE7500B14000951
:1049B000D8A4DDEFA4F0E0EFA4F0010EE1EFA4F045
:1049C000000EDF6E20EE05F00950D9260A50DA22DB
:1049D00010EE06F00950E1260A50E222DE50E618F9
:1049E000D8B4F5EFA4F0F7EFA4F016EFA5F020EEA1
:1049F00001F00950D9260A50DA22DE50DE10DE100E
:104A0000DE10D8A406EFA5F008EFA5F016EFA5F08C
:104A100020EE01F00950D9260A50DA2218C0DEFF34
:104A200019C0DEFF1AC0DEFF1BC0DEFF20EE01F062
:104A30000950D9260A50DA22DECF0BF0DECF0CF077
:104A4000DECF0DF0DECF0EF00B50185C0F6E0C5069
:104A50001958106E0D501A58116E0E501B58126EC8
:104A600009C0D9FF0AC0DAFFDF50136E13C014F07B
:104A7000156A166A176A0F50145C105015581150B9
:104A8000165812501758D8B048EFA5F04AEFA5F0C5
:104A9000AAEFA5F020EE06F00950D9260A50DA2236
:104AA00010EE05F00950E1260A50E222DFCFE7FFC1
:104AB00020EE01F00950D9260A50DA22DE6ADE6AB9
:104AC000DE6ADD6A20EE06F00950D9260A50DA22A5
:104AD000DE04D8A46EEFA5F070EFA5F086EFA5F088
:104AE00020EE0CF00950D9260A50DA22DF50D8B453
:104AF0007CEFA5F07EEFA5F086EFA5F020EE0AF0A2
:104B00000950D9260A50DA22010EDF6E20EE06F097
:104B10000950D9260A50DA22DF50D8A492EFA5F026
:104B200094EFA5F0AAEFA5F020EE0BF00950D926DE
:104B30000A50DA22DF50D8B4A0EFA5F0A2EFA5F01A
:104B4000AAEFA5F020EE0AF00950D9260A50DA2281
:104B5000000EDF6E1200000E096E140E0101DB194B
:104B6000D8A4B5EFA5F0B7EFA5F09BEFA6F0000E27
:104B7000056E000E066EA5EFA6F009500A0D000E98
:104B8000F324D96E060EF420DA6EDECF07F0DDCF07
:104B900008F007B4CEEFA5F0D0EFA5F09AEFA6F09D
:104BA00009500A0D000EF324D96E060EF420DA6EB9
:104BB000000EDE6E000EDD6E09500A0D000EF324AD
:104BC000D96E060EF420DA6EDECF07F0DDCF08F0E6
:104BD000040E0712000E081209500A0D000EF324ED
:104BE000D96E060EF420DA6E07C0DEFF08C0DDFFC6
:104BF00009500A0D040EF324D96E060EF420DA6E65
:104C0000FF0EDE6E1F0EDD6E09500A0D060EF32438
:104C1000D96E060EF420DA6E000EDE6E000EDD6E2A
:104C200009500A0D080EF324D96E060EF420DA6E30
:104C300057C0DEFF58C0DDFF57505810D8B423EFDF
:104C4000A6F025EFA6F071EFA6F009500A0D000EB0
:104C5000F324076E060EF420086E20EE06F057507F
:104C6000D9265850DA2207C0DEFF08C0DDFF20EE4B
:104C700004F05750D9265850DA22DECF07F0DDCFA6
:104C800008F0070E0726000E082209500A0D020E32
:104C9000F324D96E060EF420DA6E07C0DEFF08C0DA
:104CA000DDFF09500A0D020EF324D96E060EF42022
:104CB000DA6EDECF07F0DDCF08F007A062EFA6F0D6
:104CC00064EFA6F086EFA6F009500A0D020EF32459
:104CD000D96E060EF420DA6EDE2A000EDD2286EF93
:104CE000A6F009500A0D020EF324D96E060EF42028
:104CF000DA6E160EDE6E140EDD6E09500A0D000E11
:104D0000F3240001F86F060EF420F96F09500A0D24
:104D1000000EF324576E060EF420586E0101DB2BB3
:104D200009500A0D000EF324056E060EF420066EDF
:104D3000A5EFA6F0092A130E0964A1EFA6F0A3EFD0
:104D4000A6F0BDEFA5F0B7EFA5F01200F10E056ECD
:104D5000010E066E000E086E080E076EA8ECBDF080
:104D60000101F751F811D8B4B8EFA6F0BAEFA6F0E8
:104D7000C4EFA6F00001E751E811D8A4C2EFA6F0F5
:104D8000C4EFA6F09FEFA7F00101F3510001EA6F15
:104D9000E96B21EEF3F0DECFEBF0DDCFECF0ECC011
:104DA000EBF0EC6BFF0EEB17000EEC17E951EB117B
:104DB0000101F36F0001EA51EC110101F46FF151AF
:104DC0000001EA6FE96BF1C1EBF0F2C1ECF0ECC06D
:104DD000EBF0EC6BFF0EEB17000EEC17E951EB114B
:104DE0000101C86F0001EA51EC110101C96FF551D1
:104DF0000001EA6FE96B21EEF5F0DECFEBF0DDCFDD
:104E0000ECF0ECC0EBF0EC6BFF0EEB17000EEC17C8
:104E1000E951EB110101F56F0001EA51EC110101BB
:104E2000F66F0D0E0001ED6F31ECC4F005C0EEF031
:104E300006C0EFF074EFA7F0EEC0F6FFEFC0F7FF8B
:104E4000000EF86E0101F3510900F51808E1F45164
:104E50000900F518D8A42FEFA7F031EFA7F06AEFFB
:104E6000A7F0DEECC3F00101F551051807E1F6519A
:104E70000618D8A43EEFA7F040EFA7F065EFA7F023
:104E8000F80EF5250001886FFF0E0101F6210001E3
:104E9000896F020EEE25E96F000EEF21EA6FE9C07F
:104EA000F6FFEAC0F7FF000EF86E02D865EFA7F034
:104EB0000500FA6E0900F550FD6E0900F550FE6E12
:104EC0000900F550FF6EFA501200010E0001ED6F5F
:104ED0007EEFA7F0EEC005F0EFC006F06BECC1F07E
:104EE00005C0EEF006C0EFF00001EE51EF11D8A4BE
:104EF0007CEFA7F07EEFA7F01CEFA7F00D0EED19E9
:104F0000D8A485EFA7F087EFA7F09FEFA7F0EDC13A
:104F10007DF0EEC17EF0EFC17FF0F0C180F0E9C11D
:104F200081F0EAC182F0EBC183F0ECC184F0000EA5
:104F3000866F400E856F79ECB2F09FEFA7F01200FC
:104F4000D5ECC3F005C00DF006C00EF007C00FF0A1
:104F500008C010F00C0E03015F19D8A4B2EFA7F03F
:104F6000B4EFA7F0D1EFA7F064510D5C096E655165
:104F70000E580A6E66510F580B6E675110580C6E22
:104F80000950685D0A5069590B506A590C506B59A9
:104F9000D8B0CDEFA7F0CFEFA7F0D1EFA7F00A0E72
:104FA0005F6F0C0E7019D8A4D8EFA7F0DAEFA7F056
:104FB000F7EFA7F075510D5C096E76510E580A6E29
:104FC00077510F580B6E785110580C6E0950795D5F
:104FD0000A507A590B507B590C507C59D8B0F3EFDA
:104FE000A7F0F5EFA7F0F7EFA7F00A0E706F0C0E21
:104FF0008119D8A4FEEFA7F000EFA8F01DEFA8F0EC
:1050000086510D5C096E87510E580A6E88510F58F3
:105010000B6E895110580C6E09508A5D0A508B59DD
:105020000B508C590C508D59D8B019EFA8F01BEFCC
:10503000A8F01DEFA8F00A0E816F0C0E1619D8A467
:1050400024EFA8F026EFA8F043EFA8F01B510D5C69
:10505000096E1C510E580A6E1D510F580B6E1E51D1
:1050600010580C6E09501F5D0A5020590B502159E1
:105070000C502259D8B03FEFA8F041EFA8F043EF11
:10508000A8F00A0E166F0C0E2719D8A44AEFA8F044
:105090004CEFA8F069EFA8F02C510D5C096E2D5172
:1050A0000E580A6E2E510F580B6E2F5110580C6E61
:1050B0000950305D0A5031590B5032590C50335958
:1050C000D8B065EFA8F067EFA8F069EFA8F00A0E76
:1050D000276F0C0E3819D8A470EFA8F072EFA8F063
:1050E0008FEFA8F03D510D5C096E3E510E580A6ECF
:1050F0003F510F580B6E405110580C6E0950415DD6
:105100000A5042590B5043590C504459D8B08BEFB8
:10511000A8F08DEFA8F08FEFA8F00A0E386F1200FC
:10512000000120EE02F0F851D926F951DA22DECF43
:105130000BF0DDCF0CF020EE04F05750D92658507C
:10514000DA22DECF0DF0DDCF0EF00B500D5C136ECA
:105150000C500E58146ED8901334116E1434126E15
:10516000B3EFA8F000F0D2AAB8EFA8F0BAEFA8F019
:10517000C6EFA8F01106D8A0120611501210D8A43C
:10518000C4EFA8F0C6EFA8F0B2EFA8F0D2BACBEF08
:10519000A8F0CDEFA8F071EFA9F0140E0E01F56F95
:1051A000160EF46F000120EE02F0F851D926F951E5
:1051B000DA22DECFF0FEDDCFF1FE20EE04F0575014
:1051C000D9265850DA22DECFF2FEDDCFF3FED29898
:1051D000D28A13C005F014C006F0000E086E280E27
:1051E000076E23ECC3F005C011F006C012F0FAEF11
:1051F000A8F000F0D2AAFFEFA8F001EFA9F00DEFA0
:10520000A9F01106D8A0120611501210D8A40BEF65
:10521000A9F00DEFA9F0F9EFA8F0D2BA12EFA9F0BA
:1052200014EFA9F071EFA9F057C015F058C016F0AF
:10523000000120EE02F0F851D926F951DA22DECF32
:105240000FF0DDCF10F05FEFA9F020EE02F0155067
:10525000D9261650DA22DECF0BF0DDCF0CF00F503E
:105260000B5E10500C5A20EE02F01550D926165045
:10527000DA220BC0DEFF0CC0DDFF20EE04F015507B
:10528000D9261650DA22DECF0BF0DDCF0CF00F500E
:105290000B5E10500C5A20EE04F01550D926165013
:1052A000DA220BC0DEFF0CC0DDFF20EE08F0155047
:1052B000D9261650DA22DECF15F0DDCF16F01550C4
:1052C0001610D8A466EFA9F068EFA9F025EFA9F0B1
:1052D000160E13240E01E26F140E1420E36F72EF0A
:1052E000A9F0FF0012000101B791B795B799D8EC6A
:1052F000BEF0000E0101BA6F000EB96F000ECF6F45
:10530000000ECE6F000ED26E0E01FDB58AEFA9F031
:105310008CEFA9F084EFA9F0D2B691EFA9F093EF4A
:10532000A9F08CEFA9F099EFA9F00101B79388ECEF
:10533000BCF060BC9EEFA9F0A0EFA9F095EFA9F03A
:10534000000E0E01FE6F00F000F000F0A00E0E0146
:10535000FE6FFDA1AEEFA9F0B0EFA9F0A9EFA9F0A3
:105360000D0EA06F00F0B30E0E01A26F00F0000E44
:105370000E01A36F00F0150E0E01A46F00F0000ED9
:105380000E01A76F120EA66F00F0140E0E01E56F4E
:10539000160EE46F1F0EE76FE669000EE96F000E50
:1053A000E86F140EEB6F150EEA6F000E7B6E000EA9
:1053B0007A6E140EE36F160EE26F140EED6F150E7B
:1053C000EC6F050EAB6FEE0EAA6F22ECC4F005C0B9
:1053D00014F006C015F014C0D9FF15C0DAFFDF5075
:1053E0000E01846F00F020EE01F01450D926155004
:1053F000DA22DF500E01856F00F020EE02F014502B
:10540000D9261550DA22DF500E01826F00F020EE0F
:1054100003F01450D9261550DA22DF500E01836FA5
:1054200000F020EE04F01450D9261550DA22DF5097
:105430000E01806F00F020EE05F01450D9261550B3
:10544000DA22DF500E01816F00F0AB0E0E01D86F33
:10545000040ED26E010E086E000E076E000EFBECFD
:10546000C2F0010E086E100E076E100EFBECC2F0BB
:105470001D0E086E4A0E076E140EFBECC2F0DEEC39
:10548000C1F0590E0E01FB6F000E086E120E076E72
:10549000120EFBECC2F0120022EE30F010EE13F010
:1054A000060EDBCFE3FFE806FCE210C01EF011C0E1
:1054B0001FF01E501F10D8A460EFAAF062EFAAF0F0
:1054C00066EFAAF0130E1E6E000E1F6E1EC005F0D2
:1054D0001FC006F0A8ECBFF005C022F006C023F004
:1054E000F6C020F0F7C021F021BE79EFAAF07BEFE3
:1054F000AAF090EFAAF02250205C2150800A126E90
:105500002350800A1258D8A088EFAAF08AEFAAF098
:105510008CEFAAF090EFAAF020C022F021C023F077
:1055200022C020F023C021F0C4C11CF0C5C11DF071
:105530000001FAB19EEFAAF0A0EFAAF0BDEFAAF029
:10554000AEEFAAF0000E066E200E056E0EC007F03C
:105550000FC008F022ECB8F0224A232A1C50225C2B
:105560002350800A126E1D50800A1258D8A0BBEF3B
:10557000AAF0BDEFAAF0A2EFAAF0000E1B6E000E7B
:105580001A6EE2EFAAF01EC0F6FF1FC0F7FF000E72
:10559000F86E0F0EF76403D00800F55005D0F6CF73
:1055A000E9FFF7CFEAFFEF50126E1250056E066A60
:1055B0000EC007F00FC008F022ECB8F01E4A1F2AF8
:1055C0001A4A1B2A20501A5C1B50800A126E215066
:1055D000800A1258D8A0EFEFAAF0F1EFAAF0C3EFBB
:1055E000AAF00001FAA1F7EFAAF0F9EFAAF016EF7E
:1055F000ABF007EFABF0000E066E200E056E0EC08E
:1056000007F00FC008F022ECB8F0224A232A1C5001
:10561000225C2350800A126E1D50800A1258D8A0B6
:1056200014EFABF016EFABF0FBEFAAF01200000E98
:10563000166E14BE20EFABF01EEFABF032EFABF006
:10564000141E131E121E111E101E0F1E0E1E0D6C98
:10565000000E0E220F2210221122122213221422D7
:10566000010E166E0CBE39EFABF037EFABF04BEF1F
:10567000ABF00C1E0B1E0A1E091E081E071E061E7E
:10568000056C000E06220722082209220A220B229C
:105690000C22010E161A20EE17F0070EDE6AE8063D
:1056A000FDE20D500E100F101010111012101310FB
:1056B0001410D8B45EEFABF060EFABF0B2EFABF02C
:1056C000010E156E6EEFABF0D8900D360E360F361C
:1056D00010361136123613361436152A14AE73EFFF
:1056E000ABF075EFABF064EFABF0D890173618362F
:1056F00019361A361B361C361D361E360D50055C03
:105700000E5006580F50075810500858115009589D
:1057100012500A5813500B5814500C58D8A093EF3D
:10572000ABF095EFABF0A6EFABF00D50055E0E5071
:10573000065A0F50075A1050085A1150095A125061
:105740000A5A13500B5A14500C5A1780D89014321E
:1057500013321232113210320F320E320D32152E38
:1057600075EFABF01650D8B4B8EFABF0BAEFABF0C2
:10577000CAEFABF01E1E1D1E1C1E1B1E1A1E191E7C
:10578000181E176C000E182219221A221B221C2226
:105790001D221E2217C005F018C006F019C007F020
:1057A0001AC008F01BC009F01CC00AF01DC00BF0A5
:1057B0001EC00CF012009BECC3F0F28EF28C6CEC6D
:1057C000C3F0B80E056E880E066E010E076E10EC63
:1057D000C4F056ECADF0130E0201AA6F010EAB6FD0
:1057E000A80EAC6FC00EAD6FFF0EAF6FFD0EAE6FAB
:1057F000FF0EB16FFB0EB06F00EFACF07AECB6F0BD
