:0400000080312728FC
:1000060008007E14803120007F08F2000B1F222892
:100016002E00991A8F1E1628210065088A0064088A
:100026000A00803122281A19101D1D288731DA2767
:10003600803122281A18101C22288F31EB277208CB
:100046002000FF007E100900803129288731FE2715
:100056008031FA008F3109278031EC008F310A2771
:100066008031ED008F310B278031EE008F310C2768
:100076008031EF00F801F90120308400003085005E
:100086003B308F3131278031A0308400003085002D
:100096003C308F313127803120308400013085009B
:1000A60018308F3131277E1020008731AC2F210088
:1000B600DF01E001DC01E101E201E301DD01DE0136
:1000C60020002308DB00DC012208DD00DE015D08DC
:1000D600DE00DD015B085D072100DF0020005C0813
:1000E6005E3D2100E00020002508DB00DC0124083D
:1000F600DD00DE015D08DE00DD015B085D07210035
:10010600E10020005C085E3D2100E2002000260898
:10011600DB005B082100DC00200020087806031DB8
:10012600D7282100E30163082000DB00DC01210061
:10013600620820005C02031DA4282100610820003B
:100146005B020318080021006335063E223E860046
:10015600870101082000DB00DC0121006335053E34
:10016600223E8600870101082000DD00DE015D08D1
:10017600DE00DD015B085D072100DD0020005C0874
:100186005E3D2100DE0063085F0709073C3E8600EE
:1001960087015D08C03F5E08C13F01302000DB00DB
:1001A6005B082100E3079628210061085F0720000D
:1001B600DB0021006208603D2000DC0000305C02AC
:1001C600083003195B02031CF0281030DB005B08C3
:1001D600F300033087313C27080010302000DB0095
:1001E6005B082100A1007A082000DB005B082100E3
:1001F600A0000430BA000030BB0020002208DB005B
:100206005B082100A20020002308DB005B08210018
:10021600A30020002408DB005B082100A4002000C6
:100226002508DB005B082100A500E3016308200028
:10023600DB00DC012100620820005C02031D272987
:100246002100610820005B0203185A29210063354A
:10025600063E223E8600870101082000DB00DC0105
:1002660021006335053E223E8600870101082000F5
:10027600DD00DE015D08DE00DD015B085D072100B3
:10028600DD0020005C085E3D2100DE0063085F079C
:1002960009073C3E860087015D08C03F5E08C13FF6
:1002A60001302000DB005B082100E307192901303B
:1002B600C8070030C93D8F31562708000034C034C6
:1002C600C1340134C33403340234C234C634063470
:1002D6000734C7340534C534C4340434CC340C3440
:1002E6000D34CD340F34CF34CE340E340A34CA3400
:1002F600CB340B34C93409340834C834D8341834F0
:100306001934D9341B34DB34DA341A341E34DE346F
:10031600DF341F34DD341D341C34DC341434D4345F
:10032600D5341534D73417341634D634D23412347F
:100336001334D3341134D134D0341034F03430344F
:100346003134F1343334F334F23432343634F6346F
:10035600F7343734F53435343434F4343C34FC343F
:10036600FD343D34FF343F343E34FE34FA343A34FF
:100376003B34FB343934F934F83438342834E8342F
:10038600E9342934EB342B342A34EA34EE342E346F
:100396002F34EF342D34ED34EC342C34E43424345F
:1003A6002534E5342734E734E63426342234E2347F
:1003B600E3342334E13421342034E034A03460348F
:1003C6006134A1346334A334A23462346634A6346F
:1003D600A7346734A53465346434A4346C34AC343F
:1003E600AD346D34AF346F346E34AE34AA346A34FF
:1003F6006B34AB346934A934A83468347834B834EF
:10040600B9347934BB347B347A34BA34BE347E346E
:100416007F34BF347D34BD34BC347C34B43474345E
:100426007534B5347734B734B63476347234B2347E
:10043600B3347334B13471347034B03450349034CE
:10044600913451349334533452349234963456346E
:100456005734973455349534943454349C345C343E
:100466005D349D345F349F349E345E345A349A34FE
:100476009B345B349934593458349834883448342E
:10048600493489344B348B348A344A344E348E346E
:100496008F344F348D344D344C348C34443484345E
:1004A600853445348734473446348634823442347E
:1004B6004334833441348134803440340034C1348D
:1004C600813440340134C034803441340134C03482
:1004D600803441340034C134813440340134C03472
:1004E600803441340034C134813440340034C13462
:1004F600813440340134C034803441340134C03452
:10050600803441340034C134813440340034C13441
:10051600813440340134C034803441340034C13431
:10052600813440340134C034803441340134C03421
:10053600803441340034C134813440340134C03411
:10054600803441340034C134813440340034C13401
:10055600813440340134C034803441340034C134F1
:10056600813440340134C034803441340134C034E1
:10057600803441340034C134813440340034C134D1
:10058600813440340134C034803441340134C034C1
:10059600803441340034C134813440340134C034B1
:1005A600803441340034C134813440340034C134A1
:1005B600813440340134C034803441340134C03491
:1005C600803441340034C134813440340034C13481
:1005D600813440340134C034803441340034C13471
:1005E600813440340134C034803441340134C03461
:1005F600803441340034C134813440340034C13451
:10060600813440340134C034803441340134C03440
:10061600803441340034C134813440340134C03430
:10062600803441340034C134813440340034C13420
:10063600813440340134C034803441340034C13410
:10064600813440340134C034803441340134C03400
:10065600803441340034C134813440340134C034F0
:10066600803441340034C134813440340034C134E0
:10067600813440340134C034803441340134C034D0
:10068600803441340034C134813440340034C134C0
:10069600813440340134C034803441340034C134B0
:1006A600813440340134C034803441340134C034A0
:1006B600803441340034C134813440342100DC01BB
:1006C6008531B62583312000E10061082100DC0078
:1006D60003305C06031DB72B3C082000E1006108CF
:1006E600A000FF30EC00FF30ED006C30E100610847
:1006F600F300200886310A26833121003D082000B8
:10070600E1006108A1006C30E1006108F3002108F6
:1007160086310A2683312000BA01BB010230E1008E
:1007260061082100DD0079085D020318B12B5D0820
:10073600BC3E8600870101082000E1003A08223EFF
:1007460086008701610881000130BA070030BB3D91
:100756000130E10061082100DD07962B0230200000
:10076600E1006108D300F9018F319327833102300C
:1007760020005306031D080000303B020230031917
:100786003A02031C08000230BA020030BB3B2100CB
:10079600DD015D082000E100E2013B086202031D65
:1007A600D62B3A0861020318ED2B6C302000E100CD
:1007B6006108F30021005D08223E860087010108DA
:1007C60086310A26833101302000E10061082100CC
:1007D600DD07CC2B3A08013E223E860087013A0807
:1007E600223E840085016D080106031DFC2B6C0862
:1007F6000006031D012C1715D201D20AD3010800E9
:100806002100DE01DF01E001E101E201E301200058
:100816002308DB00DC012208DD00DE015D08DE00C6
:10082600DD015B085D072100DE0020005C085E3DFF
:100836002100DF0020002508DB00DC012408DD00A4
:10084600DE015D08DE00DD015B085D072100E000DA
:1008560020005C085E3D2100E100200020087806AB
:1008660003190800210060085E072000DB00210054
:1008760061085F3D2000DC0000305C02083003198F
:100886005B02031C4E2C0330DB005B08F3000230D6
:1008960087313C27080001302000C8070030C93DD9
:1008A6000330DB005B082100A1007A082000DB0092
:1008B6005B082100A0000130BA000030BB00A20195
:1008C600E201E30161086302031D6B2C600862020A
:1008D6000318A02C5E08620709073C3E86008701C4
:1008E600403FDC00413FDD005D082000DB002100C9
:1008F6003A08A23E8600870120005B08810021009D
:100906005C082000DB0021003A08013EA23E86007A
:10091600870120005B08810002302100BA07003001
:10092600BB3D3A08FF3E2000DB005B082100A20029
:100936000130E2070030E33D652C8F315627080071
:100946002100DE01DF01DC01DD01E00120002308DA
:10095600DB00DC012208DD00DE015D08DE00DD01D2
:100966005B085D072100DE0020005C085E3D21007B
:10097600DF0020002508DB00DC012408DD00DE01A5
:100986005D08DE00DD015B085D072100DC0020005C
:100996005C085E3D2100DD0006302000DB005B08C0
:1009A6002100A1007A082000DB005B082100A000DE
:1009B6000430BA000030BB00200020087806031D72
:1009C600EE2C21005E353C3E860087015C08C03F68
:1009D6005D08C13F0800003021005F02073003199F
:1009E6005E02031C002D06302000DB005B08F300CE
:1009F600033087313C278431262D21005E353C3E6D
:100A0600860087015C08C03F5D08C13FE0010430F5
:100A160060020318262D6008223E86008701010821
:100A26002000DB0021006008A23E8600870120002E
:100A36005B0881000130DB005B082100E007043021
:100A46006002031C0E2D01302000C8070030C93D8E
:100A56008F3156270800FF302000EE00FF30EF00F0
:100A6600CC01CD01210020082000E1004C08203EE9
:100A7600860001308700610881000130CC07003014
:100A8600CD3D6E30E1006108F3002100200886317B
:100A96000A268531210021082000E1004C08203E6D
:100AA600860001308700610881000130CC070030E4
:100AB600CD3D6E30E1006108F3002100210886314A
:100AC6000A2685312000CE01CF0121003B082000F7
:100AD6004F02031D722D21003A0820004E02031812
:100AE600972D4E08A23E860087010108E1004C08BA
:100AF600203E860001308700610881000130CC0766
:100B06000030CD3D6E30E1006108F3004E08A23E94
:100B160086008701010886310A26853101302000CA
:100B2600CE070030CF3D682D6E08E1004C08203E10
:100B3600860001308700610881000130CC07003053
:100B4600CD3D6F08E1004C08203E8600013087004D
:100B5600610881000130CC070030CD3D8F319F27E1
:100B66002000D4010800F501F60105307902031CC6
:100B7600F92D21003C087A060319C42D78080319BB
:100B8600F62D3D030319DB2D02303D060319DB2D3F
:100B960003303D060319DB2D04303D060319DB2D1A
:100BA60005303D060319DB2D06303D06031DDF2DFE
:100BB6000830F5000030F12D0F303D060319E72D02
:100BC60010303D06031DF32D4208093EF3000030A8
:100BD60003180130F4007308F5007408F600FB2DC5
:100BE600F90100300800F901013008000230080060
:100BF6007908F300F40176087406031D042E7508BF
:100C06007306031D082E033008000230080020007A
:100C1600DB00730886008701403FF400413FF50082
:100C26007508F400F5017408DD007508DE00730828
:100C360086008701403FF400413FF500FF30740510
:100C4600DF0000307505E0005B085F06F4007408FD
:100C5600DC005C08613E840082300318013E85009A
:100C66000008F4005D087406DF005E08E0005C081A
:100C7600613E840081300318013E85000008F400BF
:100C8600F5017408DD007508DE005D08F500F40165
:100C96005F087404F60060087504F70073088600A0
:100CA60087017608C03F7708C13F08002000540836
:100CB6000319602E85312E258631833161238631D5
:100CC6008F3146278631003A031908002000200894
:100CD6007A060319712E7808031908000130C60731
:100CE6000030C73D8C2E843103248631982E843102
:100CF600A3248631982E80315A208631982E2000E2
:100D06002108E3006308F300013087313C27863170
:100D1600982E20002108033A0319762E053A031966
:100D26007A2E163A03197E2E822E200017110800FD
:100D3600923028009E00FF309F0098019901900193
:100D46008D018C01FF308F00FF308E009101013044
:100D5600F400A030F50075089D0074089C00F601AB
:100D6600F70177089900760898001F0E0F39013EA3
:100D7600F30073082000D80028001F080F39013E31
:100D8600F30073082000D90008008F314E27863102
:100D96008631EF2686318F31682786318F310527D8
:100DA60086318F311927863186319B2686318731E8
:100DB600C42786318731EF2786318F31AB278631BD
:100DC6008F315F27863187315B27863187317827D8
:100DD60086318731932708002000960197019801F4
:100DE600FF309100C13092008930930080303E0080
:100DF600CE000130C3001F30B800E501C401B901BF
:100E0600CF01BA01C501D0013D001C08E0391038F8
:100E16009C004B08E0391338CB0010303E00A1008F
:100E26000E30A40008002000DB0097141815DC0122
:100E3600DD0175085D02031D222F74085C0203188C
:100E4600352F5C085B07F6007608860001308700C0
:100E560001088F313727873101302000DC07003049
:100E6600DD3D1C2F22009E1C352F200018119710E7
:100E76000800F50020002008780603190800013054
:100E8600C8070030C93D73088038F4007408210093
:100E9600A1007508F4007408A2007A08F40074082A
:100EA600A0000130BA000030BB008F315627080081
:100EB60024009501960101309700F8309300F83030
:100EC600920013082000EB00240012082000EA001C
:100ED6002E0010111A151330F3000F30F4008F3165
:100EE6002B27013024009400080024008F01900174
:100EF600013091008D018C010D082000E7002400CF
:100F06000C082000E6002E0010101A148730F3009B
:100F16000F30F4008F312527313024008E00080071
:100F26002E0099127130F3000F30F4008F311F2715
:100F3600083022009F0090309D0024309E003F30F4
:100F46009B009C012000D701D601D5012E009916E1
:100F560008008631C82687318B170B1703308F316F
:100F66007C278731200097111712971017118631A9
:100F76005926873120003C0C031C1712031817163C
:100F8600BA2F22008E018F019001910192019301E7
:100F96008D0121009E019B01940195019601970107
:100FA6009A0199010F3098008430930008002E00B2
:100FB600101120006B08F1006A08F0008F31B82785
:100FC60087312000680869040319080069088A0047
:100FD60068080A00873108000130250090000430B7
:100FE6008F009101C7308D008C012E00901090303B
:0A0FF60025008E00080001340800F9
:101DFE008031032008008731FF270800B4303200FD
:101E0E008C000800FF34FF34FF34FF340330200011
:101E1E00CA000030CB0008008F310D272E001A119A
:101E2E0010110800883032008E0001308F0008003B
:101E3E0074082100E5007308E4000800740820000F
:101E4E00E5007308E400080074082000E900730838
:101E5E00E8000800640080010131890B322F003444
:101E6E00F30022009E1C382F73089A0008002000F1
:101E7E006B08F1006A08F0008F31B82708002000C7
:101E8E005208F3007308F400D201740808002F0002
:101E9E0096019701980199019A019B010800200073
:101EAE005408031D0800CE01CF01D401D40A080046
:101EBE009030330090009101013092000530930074
:101ECE000800603031008D008F01910106309300C3
:101EDE00920108008F313E278F312E0010111A15F6
:101EEE00220019088F31D6270800F4007408F30079
:101EFE007308FA008F3102278F318E31FF260800CA
:101F0E0003102000971E0314031C902F2000971619
:101F1E000800200097120800003020004B0202300B
:101F2E0003194A02031C0800CA01CB01F90108007B
:101F3E0020004D08F5004C08F4002030873116279C
:101F4E002000CC01CD010800803027008E006330C8
:101F5E008D00C0308C0024001F08F33904389F0018
:101F6E0008002400141DC22F14107108930070086D
:101F7E009200141408007108930070089200080073
:101F8E0024000E1DD12F0E1071088D0070088C00CC
:101F9E000E14080071088D0070088C000800F10006
:101FAE007108F0007908BC3E860087017008810038
:101FBE000130F0007008F907193079020318F901A1
:101FCE002000CA01CB0108002E0010102000670867
:101FDE00F1006608F0008F31C7278F3120006408AA
:101FEE0065040319080065088A0064080A008F3129
:021FFE000800D9
:020000040001F9
:0A000E00EC3FFF3F9F3FFF1FFF3F45
:00000001FF
