:040000008031212802
:100008007E1480310B1F1F282E00991A8F1E13286B
:10001800210061088A0060080A0080311F281A1927
:10002800101D1A2884313E2480311F281A18101CEC
:100038001F28853100257E100900803123280130D2
:10004800FB00FF30EB00EC00ED00EE002030FA0181
:100058008400003085003930853196258031A03004
:10006800840000308500403085319625803120306D
:1000780084000130850018308531962580317E1046
:1000880020004628DD2380318B170B17200097129C
:1000980017129715971017115B2080314608B42066
:1000A8008031B92080312000B801B90155280030CD
:1000B800A320803173082000DA007208D9000030CC
:1000C8005A025130031959020030031C78285A0289
:1000D80060300319590203187728C601C60AC701F8
:1000E80097169711080000305A0260300319590218
:1000F8000030031C8C285A0268300319590203186F
:100108008B280230C600C7019716971108000030E7
:100118005A02693003195902031C9F2800305A02F9
:1001280070300319590203189F280330C600C7010D
:10013800971697110800C601C7019715A228F50060
:10014800750821009E009317131313141318AA2877
:100158000D08F300F2010C08F2070318F30A08006F
:10016800F200FB00242280311E2C52080319BE28FD
:10017800ED208031612180318A238031003A0319D2
:100188000800210020087B06031D08002000C20A81
:100198000319C30ADE28D4228031EA28412380319A
:1001A800EA283A228031EA282108F2000130252283
:1001B8008031EA2821002108033A0319CF28053A9B
:1001C8000319D228163A0319D528D8282000171160
:1001D8000800FF30ED00EE00CA01CB014A08203EBE
:1001E80086000130870021003C0881002000CA0AEF
:1001F8000319CB0A6D30F20021003C08EC21803154
:1002080020004A08203E86000130870021003D0872
:1002180081002000CA0A0319CB0A6D30F2002100C0
:100228003D08EC2180312000CC01CD012100570888
:1002380020004D02031D24292100560820004C02ED
:10024800031842294A08203E8600013087004C08DE
:10025800BE3E8400850100088100CA0A0319CB0A42
:100268006D30F2004C08BE3E860087010108EC2183
:1002780080312000CC0A0319CD0A1A296E08F30030
:100288006D08F20006227308EE007208ED004A08B5
:10029800203E8600013087006D088100CA0A0319D4
:1002A800CB0A4A08203E86006E088100CA0A031954
:1002B800CB0A84316024D20108008F238031E30007
:1002C800033A031D9D2920082100A000FF302000CB
:1002D800EB00EC006B30F20021002008EC218031AB
:1002E800200021082100A1006B30F2002108EC2138
:1002F800803121000230BA01BB012000E4007A08F5
:10030800640203189A2921003A08A23E8600870150
:1003180020006408203E8400850100088100210037
:10032800BA0A0319BB0A2000E40A83290230D10063
:10033800FA01D223803102305106031D0800003033
:1003480021003B02023003193A02031C0800023064
:10035800BA020030BB3B2000E4016408F800F90150
:1003680021003B087902031DBB293A0878020318CB
:10037800CA296B30F20020006408A23E860087017B
:100388000108EC2180312000E40AB12920006C0822
:10039800F3006B08F200062280317308EC00720843
:1003A800EB0021003A08A33E860087013A08A23EE6
:1003B8008400850120006C080106031DE5296B08EF
:1003C8000006031DEA291715D001D00AD10108003B
:1003D800F500720886008701403FF300413FF400B2
:1003E8002800990072088600010898007508960090
:1003F8001E1700007208860028001808C03F190858
:10040800C13F08000F30F601F60AF701F635F70D7F
:10041800890B0A2AF401F5017208730403191F2ACB
:10042800721C1A2A7608F4047708F504F736F60CD5
:10043800F336F20C102A7508F3007408F20008006D
:100448001F2CF30021002008031908002000C40A0B
:100458000319C50A720880382100BD007308BE0060
:100468007B08BC00D601D60AD701CB2A2000E701B9
:10047800E801E901E301E401210022082000E60087
:10048800210023082000E500210024082000E800BE
:10049800210025082000E70021002008031D7D2AEF
:1004A8002000E9016908F400F50168087502031DD8
:1004B8005F2A67087402031808006935A83E860099
:1004C80087016935A73E840085010008E40001081A
:1004D800E3006908F4003830F4357407F500653531
:1004E8007507F60086006308C03F6408C13FE90A43
:1004F800562A200067086507F4006808663DF5007D
:10050800003075020830031974021030031C8F2A5A
:10051800F2000330252A2100BD007B08BC0004300E
:10052800D600D7012208BE002308BF002408C00057
:100538002508C1002000E9016908F400F5016808F0
:100548007502031DA92A670874020318C72A6935AA
:10055800A83E860087016935A73E8400850100080A
:10056800E4000108E3006908F4003830F435740742
:10057800F50065357507F60086006308C03F640816
:10058800C13FE90AA02AC40A0319C50ACB2A2000D8
:100598005208031D0800CC01CD01D201D20A08007F
:1005A8002000E501E601E901EA0121002208200016
:1005B800E400210023082000E30021002408200093
:1005C800E600210025082000E50021002008031985
:1005D8000800200065086307F4006608643DF5001C
:1005E80000307502083003197402031CFF2A033017
:1005F800F2000230252AC40A0319C50A0330210073
:10060800BD007B08BC00D601D60AD701BE01200078
:10061800E901EA0166086A02031D142B65086902EC
:100628000318402B6308F4003830F4357407F500DC
:1006380069357507F60086008701403FE700413FAE
:10064800E80021005608BE3E8600200068088100A8
:1006580021005608BF3E860020006708810002304E
:100668002100D6070318D70A5608FF3EBE0020000F
:10067800E90A0319EA0A0E2BCB2AF401F501F8015D
:1006880021002208F7002308F6002408F5002508B1
:10069800F4000630BD007B08BC000430D600D7014A
:1006A8002008031D602B7635383E860087017408C4
:1006B800C03F7508C13F08000030770207300319B2
:1006C8007602031C6D2B0630F200033025228031A0
:1006D800852B7635383E860087017408C03F75083B
:1006E800C13FF8017808BE3E860087017808A23E1F
:1006F80084008501000881000430F80A7802031C90
:10070800762B2000C40A0319C50ACB2A20005008FA
:10071800F200D001080005307A02031C02342008D8
:100728007B06031DC42B21030319AE2B02302106BF
:100738000319AE2B033021060319AE2B0430210612
:100748000319AE2B053021060319AE2B06302106FE
:10075800031DB22B0830F400F501C62B0F3021061B
:100768000319BA2B10302106031DC22B2608F400EA
:100778000930F501F4070318F50AC62BFA0100340D
:10078800FA0101347A08F200F30175087306031DB3
:10079800CF2B74087206031903340234003049025F
:1007A800023003194802031C0800C801C901FA01F4
:1007B800080085318E25803184319124803185313E
:1007C8007C2580318531A125803185319C2580317A
:1007D8008431B8248031FE2385316025803185310C
:1007E8006F25803114248431DE248031853122251F
:1007F8008531422D22008E018F01900191019201D5
:1008080093018D0121009E019B01940195019601A0
:1008180097019A0199010F309800843093000800DD
:100828009030330090009101013092000530930020
:1008380008001E2C08000800382484312E001011EE
:100848001A1522001908282CF0007A08203E860084
:10085800870170088100FA0A19307A020318FA0130
:100868002000C801C901080020006208F1006108E1
:10087800F000512C101120006208F1006108F0000E
:100888005124843120005F086004031908006008BF
:100898008A005F080A00843108002400141D5B2CBC
:1008A800141071089300700892001414080071085D
:1008B80093007008920008004B08F4004A08F300FF
:1008C80020306924CA01CB010800F60097141815D6
:1008D800F701F80174087802031D742C7308770275
:1008E8000318832C77087607F50086000130870007
:1008F80001088A248431F70A0319F80A6E2C2200A9
:100908009E1C832C2000181197100800F20022006A
:100918009E1C8B2C72089A000800200096019701F3
:100928009801FF309100C1309200893093008030E7
:100938003E00CE000130C3001F30B800E501C401FD
:10094800B901CF01BA01C501D0013D001C08E03949
:1009580010389C004B08E0391338CB0010303E00AB
:10096800A1000E30A6000800923028009E007F30BB
:100978009F009801990190018D018C01FF308F0033
:100988008E0091010530F2008030F3009D000530A3
:100998009C00FF30F400F500990098001F0E0F39F5
:1009A800013E2000D60028001F080F39013E200014
:1009B800D700080024009501960101309700F8300F
:1009C8009300920013082000E200E10124001208BD
:1009D8002000E1042E0010111A158530F2000530B0
:1009E800F300FA2401302400940008007308200062
:1009F800E0007208DF000800101020005E08F10017
:100A08005D08F0001325853120005B085C0403199C
:100A180008005C088A005B080A0085310800240089
:100A28000E1D1D2D0E1071088D0070088C000E14FF
:100A3800080071088D0070088C0008008F01900173
:100A4800013091008D018C010D082000DE00DD01D0
:100A580024000C082000DD042E0010101A14A53004
:100A6800F2000530F3003C25313024008E000800E8
:100A780073082000DC007208DB0008002E009912C1
:100A88002030F2000430F3005A25083022009F007D
:100A980090309D0024309E003F309B009C01200038
:100AA800D501D401D3012E0099160800730821003E
:100AB800E1007208E00008000130250090000430D1
:100AC8008F009101C7308D008C012E00901090305E
:100AD80025008E000800803027008E0063308D00CE
:100AE800C0308C0024001F08F33904389F00080028
:100AF800603031008D008F01910106309300920122
:100B080008008A252E001A11101108000330C800A9
:100B1800C90108002F0096019701980199019A01CF
:100B28009B010800640080010131890B972D003476
:100B380088308E0001308F000800B43032008C00FD
:040B48000800080099
:020000040001F9
:0A000E00EC3FFF3F9F3FFF1FFF3F45
:00000001FF
