:0400000080312728FC
:100008007E14803120007F08F2000B1F22282E006A
:10001800991A8F1E162821006F088A006E080A0098
:10002800803122281A19101D1D2886315826803142
:1000380022281A18101C222886316D2672082000E2
:10004800FF007E10090080312928873182278031FE
:10005800FA00873171278031EC00873172278031AF
:10006800ED00873173278031EE00873174278031A6
:10007800EF00F801F90120308400003085003930A4
:10008800873147278031A0308400003085004E300A
:1000980087314727803120308400013085001830AF
:1000A800873147277E1020008531B72D2200BB01FC
:1000B800BC01B801BD01BE01BF01B901BA012100EF
:1000C80023082000E300E401210022082000E500C5
:1000D800E6016508E600E501630865072200BB0044
:1000E80020006408663D2200BC002100250820008D
:1000F800E300E401210024082000E500E60165088A
:10010800E600E501630865072200BD0020006408D9
:10011800663D2200BE00210026082000E300630897
:100128002200B800210020087806031DDE282200DE
:10013800BF013F082000E300E40122003E08200040
:100148006402031DAB2822003D0820006302031847
:10015800080022003F35063EA23E860087010108BE
:100168002000E300E40122003F35053EA23E860060
:10017800870101082000E500E6016508E600E501C1
:10018800630865072200B90020006408663D220064
:10019800BA003F083B070907383E8600870139083F
:1001A800C03F3A08C13F01302000E3006308220045
:1001B800BF079D2822003D083B072000E3002200DE
:1001C8003E083C3D2000E40000306402083003197A
:1001D8006302031CF7281030E3006308F3000330C0
:1001E80085319725080010302000E30063082100BE
:1001F800BD007A082000E30063082100BC00043039
:10020800D6000030D70022082000E3006308210050
:10021800BE0023082000E30063082100BF00240873
:100228002000E30063082100C00025082000E30047
:1002380063082100C1002200BF013F082000E3003D
:10024800E40122003E0820006402031D2F29220039
:100258003D08200063020318622922003F35063E4C
:10026800A23E8600870101082000E300E401220085
:100278003F35053EA23E8600870101082000E500C3
:10028800E6016508E600E501630865072200B90094
:1002980020006408663D2200BA003F083B070907B2
:1002A800383E860087013908C03F3A08C13F01300F
:1002B8002000E30063082200BF0721290130C4079A
:1002C8000030C53D87311F2708002000E901833130
:1002D800EA2381312000E7006708E9000330690656
:1002E800031DC3292008E70067082100A000FF308C
:1002F8002000EC00FF30ED006C30E7006708F300E9
:10030800210020088531F125813120002108E700EE
:1003180067082100A1006C302000E7006708F3009F
:10032800210021088531F12581312100BA01BB0165
:1003380002302000E7006708EA0079086A0203181B
:10034800BE296A08203E860087010108E7002100CF
:100358003A08A23E86008701200067088100013024
:100368002100BA070030BB3D01302000E7006708D4
:10037800EA07A1290230E7006708D100F9018631B0
:10038800EB268131023020005106031D08000030A1
:1003980021003B02023003193A02031C0800023014
:1003A800BA020030BB3B2000EA016A08E700E80116
:1003B80021003B0820006802031DE62921003A08B5
:1003C800200067020318FA296C30E7006708F30079
:1003D8006A08A23E8600870101088531F12581312E
:1003E80001302000E7006708EA07D9296D08F40002
:1003F8006C08F30085317125813174082000ED0007
:100408007308EC0021003A08013EA23E86008701ED
:100418003A08A23E8400850120006D080106031DEC
:10042800172A6C080006031D1C2A1715D001D00ACC
:10043800D10108002200BA01BB01BC01BD01BE0107
:10044800BF01210023082000E300E4012100220865
:100458002000E500E6016508E600E5016308650798
:100468002200BA0020006408663D2200BB0021007B
:1004780025082000E300E401210024082000E5000D
:10048800E6016508E600E501630865072200BC008F
:1004980020006408663D2200BD002100200878067F
:1004A8000319080022003C083A072000E300220054
:1004B8003D083B3D2000E400003064020830031989
:1004C8006302031C6F2A0330E3006308F300023061
:1004D80085319725080001302000C4070030C53D4C
:1004E8000330E30063082100BD007A082000E30020
:1004F80063082100BC000130D6000030D700BE01DF
:100508002200BE01BF013D083F02031D8D2A3C08A1
:100518003E020318C32A3A083E070907383E8600F8
:100528008701403FB800413FB90039082000E30087
:1005380021005608BE3E860087012000630881001E
:10054800220038082000E30021005608013EBE3E84
:100558008600870120006308810002302100D60749
:100568000030D73D5608FF3E2000E3006308210015
:10057800BE0001302200BE070030BF3D872A873108
:100588001F270800FF302000EE00FF30EF00CA01EF
:10059800CB0121003C08F70020004A08203E8600D5
:1005A80001308700770881000130CA070030CB3D51
:1005B8006E30F7007708F30021003C088531F125FB
:1005C800823121003D08F70020004A08203E8600BD
:1005D80001308700770881000130CA070030CB3D21
:1005E8006E30F7007708F30021003D088531F125CA
:1005F80082312000CC01CD012100570820004D0296
:10060800031D0A2B2100560820004C0203182F2B2B
:100618004C08BE3E860087010108F7004A08203EC4
:10062800860001308700770881000130CA07003052
:10063800CB3D6E30F7007708F3004C08BE3E8600CD
:10064800870101088531F125823101302000CC076E
:100658000030CD3D002B6F08F4006E08F3008531A3
:100668007125823174082000EF007308EE006E08CF
:10067800F7004A08203E860001308700770881008D
:100688000130CA070030CB3D6F08F7004A08203E0A
:10069800860001308700770881000130CA070030E2
:1006A800CB3D8631DF262000D20108002200BA01A6
:1006B800BB01B801B901BC01210023082000E300F7
:1006C800E401210022082000E500E6016508E600B3
:1006D800E501630865072200BA0020006408663D4A
:1006E8002200BB00210025082000E300E4012100CE
:1006F80024082000E500E6016508E600E501630836
:1007080065072200B80020006408663D2200B90091
:1007180006302000E30063082100BD007A082000AD
:10072800E30063082100BC000430D6000030D70085
:1007380020087806031DAA2B22003A35383E860089
:1007480087013808C03F3908C13F0800003022003F
:100758003B02073003193A02031CBC2B0630200069
:10076800E3006308F3000330853197258331E22BDA
:1007780022003A35383E860087013808C03F3908DC
:10078800C13FBC0104303C020318E22B3C08A23EE6
:100798008600870101082000E30022003C08BE3ED5
:1007A800860087012000630881000130E3006308A8
:1007B8002200BC0704303C02031CCA2B0130200075
:1007C800C4070030C53D87311F270800F501F60131
:1007D80005307902031C2D2C200020087A06031905
:1007E800F82B780803192A2C210303190F2C02303F
:1007F800210603190F2C0330210603190F2C04308E
:10080800210603190F2C0530210603190F2C063079
:100818002106031D132C0830F5000030252C0F305D
:10082800210603191B2C10302106031D272C26082E
:10083800093EF300003003180130F4007308F50096
:100848007408F6002F2CF90100300800F901013076
:100858000800023008007908F300F40176087406ED
:10086800031D382C75087306031D3C2C0330080043
:100878000230080000308631C42684317408200014
:10088800DA007308D90000305A02513003195902AE
:10089800031C5C2C00305A026030031959020318FB
:1008A8005C2C0130C6000030C7009716971108006D
:1008B80000305A02603003195902031C712C0030B1
:1008C8005A026830031959020318712C0230C60005
:1008D8000030C70097169711080000305A02693097
:1008E80003195902031C862C00305A027030031970
:1008F80059020318862C0330C6000030C70097162B
:1009080097110800C601C7019715892C20005208C5
:100918000319912C8231C6228431813169218431B5
:10092800873130278431003A031908002100200854
:100938007A060319A22C7808031908000130200050
:10094800C2070030C33DBF2C82311E228431CB2C1C
:1009580083315A238431CB2C80315A208431CB2CDB
:10096800210021082000EB006B08F30001308531DD
:1009780097258431CB2C21002108033A0319A82C90
:10098800053A0319AC2C163A0319B02CB42C2000E4
:1009980017110800923028009E007F309F009801B0
:1009A800990190018D018C01FF308F00FF308E007E
:1009B80091010530F4008030F50075089D00740839
:1009C8009C00FF30F600FF30F700770899007608A2
:1009D80098001F0E0F39013EF30073082000D6005F
:1009E80028001F080F39013EF30073082000D700C4
:1009F80008008731282784318531242584318731BF
:100A08000D27843187317527843187315F278431F9
:100A18008431CE248431863142268431863197262A
:100A280084318631D2268431873116278431853145
:100A3800D425843186310E26843186312926080052
:100A48002000960197019801FF309100C130920073
:100A58008930930080303E00CE000130C3001F3043
:100A6800B800E501C401B901CF01BA01C501D0013F
:100A78003D001C08E03910389C004B08E039133859
:100A8800CB0010303E00A1000E30A6000800200068
:100A9800E30097141815E401E50175086502031DC4
:100AA800572D7408640203186A2D64086307F6005A
:100AB8007608860001308700010887314027853194
:100AC80001302000E4070030E53D512D22009E1C36
:100AD8006A2D200018119710080001302000E50049
:100AE8000030E6000F30E535E60D890B772DE30180
:100AF800E401730874040319922D731C872D65088B
:100B0800E3046608E4040130E636E50C890B882D19
:100B18000130F436F30C890B8D2D7D2D6408F4001B
:100B28006308F3000800F50021002008780603197F
:100B3800080001302000C4070030C53D7308803824
:100B4800F40074082100BD007508F4007408BE00A4
:100B58007A08F4007408BC000130D6000030D700D1
:100B680087311F2708008431FD2485318731792793
:100B780085318B170B1720009712171297159710AE
:100B8800171184313E248531200046088631F72626
:100B9800853184318A2485312000B801B901CD2DF1
:100BA80024009501960101309700F8309300F83041
:100BB800920013082000E200240012082000E1003F
:100BC8002E0010111A156530F3000730F400873134
:100BD8004D270130240094000800F60073088600B1
:100BE8008701403FF400413FF5007508280099004F
:100BF80073088600870101089800760896001E177A
:100C0800000073088600870128001808C03F1908EB
:100C1800C13F080024008F019001013091008D012F
:100C28008C010D082000DE0024000C082000DD00E7
:100C38002E0010101A148530F3000730F4008731A5
:100C48005327313024008E0008002E0099120230FC
:100C5800F3000730F40087315927083022009F003D
:100C680090309D0024309E003F309B009C01200066
:100C7800D501D401D3012E009916080022008E0157
:100C88008F0190019101920193018D0121009E0134
:100C98009B0194019501960197019A0199010F30E2
:100CA80098008430930008002E001011200062087C
:100CB800F1006108F0008631B526863120005F0812
:100CC80060040319080060088A005F080A0086317A
:100CD80008002E00101020005E08F1005D08F000EA
:100CE8008631A626863120005B085C0403190800BB
:100CF8005C088A005B080A0086310800F100710868
:100D0800F0007908203E86008701700881000130D4
:100D1800F0007008F907193079020318F90120006A
:100D2800C801C901080001302500900004308F0077
:100D38009101C7308D008C012E0090109030250055
:100D48008E00080024000E1DB02E0E1071088D00B4
:100D580070088C000E14080071088D0070088C0053
:100D680008002400141DBF2E141071089300700889
:100D7800920014140800710893007008920008008B
:100D8800F600760821009E00931713131314131806
:100D9800CB2E0D08F4000C08F30008008030270063
:100DA8008E0063308D00C0308C0024001F08F3399A
:100DB80004389F00080020004B08F5004A08F4009A
:100DC800203085314B252000CA01CB0108000030B6
:100DD80020004902023003194802031C0800C80118
:100DE800C901F9010800F4007408F3007308FA0057
:100DF80087317C27863187317F270800873138275C
:100E080087312E0010111A15220019088631822602
:100E18000800603031008D008F0191010630930089
:100E28009201080090303300900091010130920047
:100E380005309300080020005208031D0800CC016B
:100E4800CD01D201D20A08002F009601970198011E
:100E580099019A019B01080020005008F3007308CB
:100E6800F400D0017408080020006208F10061084D
:100E7800F0008631B5260800F30022009E1C412FA1
:100E880073089A000800640080010131890B482F1B
:100E9800003474082000E0007308DF0008007408BC
:100EA8002000DC007308DB00080074082100EF0054
:100EB8007308EE000800883032008E0001308F0081
:100EC800080087316B272E001A1110110800033013
:100ED8002000C8000030C9000800FF34FF34FF3488
:100EE800FF34B43032008C00080024000E100800D3
:100EF80087318327080087318427080001340800D8
:040F080008000800D5
:020000040001F9
:0A000E00EC3FFF3F9F3FFF1FFF3F45
:00000001FF
